:10000000EEEF2AF0000000005BEF2BF00000000094
:0C00100000000000000000001AEF2BF0C0
:0E001C00030E0D6E0D2EFED700000000120028
:10002A00F8DFF7DF8A9C8A868A9AF8C18CFF8A9859
:06003A008A888A8C120086
:100040008A9C8A868A8AF8C18CFF8A988A888A8CD8
:06005000E5DFE4DF120011
:0E005600ACB202D00000FCD7F8C1ADFF120022
:0E0064008A9AF8C18CFF8A9800008A881200E0
:0E0072008A8AF8C18CFF8A9800008A881200E2
:10008000F250026EF29E0500FF6A0150FE6E0050B3
:08009000FD6E02BEF28E1200AB
:06009800CDC000F01200D3
:10009E008A8AE5C18CFF8A9800008A88E4C18CFFA9
:0800AE008A9800008A88120004
:1000B6002EC1E1FF2FC1E2FF2A0EE66E2CC100F031
:1000C6002DC101F0DADFE5C100F0016A22C1E1FFCE
:1000D60023C1E2FF00C0E6FF20C100F021C101F00C
:1000E600CCDF22C1E1FF23C1E2FFE4C1E6FF20C16C
:1000F60000F021C101F0C1DF2EC1E1FF2FC1E2FFF7
:100106002B0EE66E2CC100F02DC101F0B6DFE7C163
:1001160000F0016A22C1E1FF23C1E2FF00C0E6FF51
:1001260020C100F021C101F0A8DF22C1E1FF23C1F7
:10013600E2FFE6C1E6FF20C100F021C101F09DDF2C
:100146002EC1E1FF2FC1E2FF2C0EE66E2CC100F09E
:080156002DC101F092DF12003F
:10015E000001FF51010802E1FE51E00808E3010130
:10016E000251010802E10151E00801E30AD0010148
:10017E00200EF46F030EF56FE00EF66F010EF76FA3
:10018E0008D0E00EF46F010EF56F100EF66F010E33
:10019E00F76F0001D4515A0A3BE177DF00521CE0A1
:1001AE00010E0101F45D006E000EF559016EEA516B
:1001BE00005CEC6FEB510158ED6FE651005CEE6F99
:1001CE00E7510158EF6FE4C1F0F1E5C1F1F1E8C17B
:1001DE00F2F1E9C1F3F11BD00101E6C1ECF1E7C187
:1001EE00EDF1EAC1EEF1EBC1EFF1010EF65D006E3D
:1001FE00000EF759016EE851005CF06FE95101589D
:10020E00F16FE451005CF26FE5510158F36F39D094
:10021E003CDF005226E00101010EF45D006E000E7F
:10022E00F559016EE851005CEC6FE9510158ED6F24
:10023E00E451005CEE6FE5510158EF6F010EF65D73
:10024E00006E000EF759016EEA51005CF06FEB5133
:10025E000158F16FE651005CF26FE7510158F36FF0
:10026E0010D0E4C1ECF1E5C1EDF1E8C1EEF1E9C168
:10027E00EFF1E6C1F0F1E7C1F1F1EAC1F2F1EBC144
:10028E00F3F12EC1E1FF2FC1E2FF2A0EE66E2CC163
:10029E0000F02DC101F0EDDEEDC100F0016A22C1CA
:1002AE00E1FF23C1E2FF00C0E6FF20C100F021C143
:1002BE0001F0DFDE22C1E1FF23C1E2FFECC1E6FF68
:1002CE0020C100F021C101F0D4DEEFC100F0016ABF
:1002DE0022C1E1FF23C1E2FF00C0E6FF20C100F012
:1002EE0021C101F0C6DE22C1E1FF23C1E2FFEEC152
:1002FE00E6FF20C100F021C101F0BBDE2EC1E1FFFF
:10030E002FC1E2FF2B0EE66E2CC100F02DC101F0C5
:10031E00B0DEF1C100F0016A22C1E1FF23C1E2FFAC
:10032E0000C0E6FF20C100F021C101F0A2DE22C113
:10033E00E1FF23C1E2FFF0C1E6FF20C100F021C1C1
:10034E0001F097DEF3C100F0016A22C1E1FF23C183
:10035E00E2FF00C0E6FF20C100F021C101F089DEFE
:10036E0022C1E1FF23C1E2FFF2C1E6FF20C100F08E
:10037E0021C101F07EDE2EC1E1FF2FC1E2FF2C0E66
:0E038E00E66E2CC100F02DC101F073DE1200EE
:10039C000B0E026EE4C100F0E5C101F0025005E065
:1003AC0001320032019EFF0FFAD700C0E6F1E6C120
:1003BC0000F000360090003600900036009000C02F
:1003CC00E6F1070E006EE6C101F0005004E00132C8
:1003DC00019EFF0FFBD70150010A03E1070E01013B
:1003EC00E627E6C1F8F126DE050E026EE4C100F048
:1003FC00E5C101F0025005E001320032019EFF0F11
:10040C00FAD700C0E6F1E6C100F0003600900036E5
:10041C00009000C0E6F1070E006EE6C101F000503E
:10042C0004E00132019EFF0FFBD70150010A03E1EA
:10043C000101030EE627E6C1F8F1FCDD030E016EA7
:10044C00E4C100F0015004E000360090FF0FFBD730
:10045C0000C0E6F1070E006EE6C101F0005004E0AA
:10046C000132019EFF0FFBD70150010A03E101018C
:0C047C00070EE627E6C1F8F1DDDD1200F6
:100488002EC1E1FF2FC1E2FF2A0EE66E2CC100F05B
:100498002DC101F0F1DD22C1E1FF23C1E2FFE5C179
:1004A800E6FF20C100F021C101F0E6DD22C1E1FF35
:1004B80023C1E2FFE4C1E6FF20C100F021C101F041
:1004C800DBDD2EC1E1FF2FC1E2FF2B0EE66E2CC152
:1004D80000F02DC101F0D0DD22C1E1FF23C1E2FF10
:1004E800E7C1E6FF20C100F021C101F0C5DD22C14E
:1004F800E1FF23C1E2FFE6C1E6FF20C100F021C110
:1005080001F0BADD2EC1E1FF2FC1E2FF2C0EE66E2D
:0C0518002CC100F02DC101F0AFDD12007D
:100524002EC1E1FF2FC1E2FF020EE66E2CC100F0E6
:100534002DC101F0A3DDE5C100F0016A22C1E1FF94
:1005440023C1E2FF00C0E6FF20C100F021C101F099
:1005540095DD2EC1E1FF2FC1E2FF030EE66E2CC133
:1005640000F02DC101F08ADD22C1E1FF23C1E2FFC9
:10057400E4C1E6FF20C100F021C101F07FDD2EC1FE
:10058400E1FF2FC1E2FF060EE66E2CC100F02DC183
:1005940001F074DDE7C100F0016A22C1E1FF23C16B
:1005A400E2FF00C0E6FF20C100F021C101F066DDDA
:1005B4002EC1E1FF2FC1E2FF070EE66E2CC100F051
:1005C4002DC101F05BDD22C1E1FF23C1E2FFE6C1E1
:1005D400E6FF20C100F021C101F050DD2EC1E1FF92
:1005E4002FC1E2FF220EE66E2CC100F02DC101F0F6
:0405F40045DD1200CF
:1005F8002EC1E1FF2FC1E2FF2A0EE66E2CC100F0EA
:100608002DC101F039DDE5C100F0016A22C1E1FF29
:1006180023C1E2FF00C0E6FF20C100F021C101F0C4
:100628002BDD22C1E1FF23C1E2FFE4C1E6FF20C1C7
:1006380000F021C101F020DD2EC1E1FF2FC1E2FF52
:100648002B0EE66E2CC100F02DC101F015DDE7C1BF
:1006580000F0016A22C1E1FF23C1E2FF00C0E6FF0A
:1006680020C100F021C101F007DD22C1E1FF23C153
:10067800E2FFE6C1E6FF20C100F021C101F0FCDC89
:100688002EC1E1FF2FC1E2FF2C0EE66E2CC100F057
:080698002DC101F0F1DC12009C
:1006A0002EC1E1FF2FC1E2FF2A0EE66E2CC100F041
:1006B0002DC101F0E5DCE5C100F0016A22C1E1FFD6
:1006C00023C1E2FF00C0E6FF20C100F021C101F01C
:1006D000D7DC22C1E1FF23C1E2FFE4C1E6FF20C174
:1006E00000F021C101F0CCDC2EC1E1FF2FC1E2FFFF
:1006F0002B0EE66E2CC100F02DC101F0C1DCE7C16C
:1007000000F0016A22C1E1FF23C1E2FF00C0E6FF61
:1007100020C100F021C101F0B3DC22C1E1FF23C1FF
:10072000E2FFE6C1E6FF20C100F021C101F0A8DC34
:100730002EC1E1FF2FC1E2FF2C0EE66E2CC100F0AE
:080740002DC101F09DDC120047
:100748000B1E0A1E091E081E082AD8B4092AD8B486
:080758000A2AD8B40B2A120092
:06076000CCC000F0120005
:100766000450085E0550D8A0053C095E0650D8A086
:10077600063C0A5E0750D8A0073C0B5E0336070E00
:100786000C6E0334083609360A360B36045003A0BD
:100796000ED0085E0550D8A0053C095E0650D8A0CC
:1007A600063C0A5E0750D8A0073C0B5E0DD0082613
:1007B6000550D8B0053C09260650D8B0063C0A2696
:1007C6000750D8B0073C0B2603360C2EDAD7023476
:1007D600083609360A360B36045003A00ED0085EDA
:1007E6000550D8A0053C095E0650D8A0063C0A5E16
:1007F6000750D8A0073C0B5E0DD008260550D8B090
:10080600053C09260650D8B0063C0A260750D8B043
:10081600073C0B260236070E0C6E023408360936E4
:100826000A360B36045002A00ED0085E0550D8A03A
:10083600053C095E0650D8A0063C0A5E0750D8A0C3
:10084600073C0B5E0DD008260550D8B0053C09269E
:100856000650D8B0063C0A260750D8B0073C0B26EF
:1008660002360C2EDAD70134083609360A360B362C
:10087600045002A00ED0085E0550D8A0053C095EC3
:100886000650D8A0063C0A5E0750D8A0073C0B5E6F
:100896000DD008260550D8B0053C09260650D8B01C
:1008A600063C0A260750D8B0073C0B260136070E31
:1008B6000C6E0134083609360A360B36045001A090
:1008C6000ED0085E0550D8A0053C095E0650D8A09B
:1008D600063C0A5E0750D8A0073C0B5E0DD00826E2
:1008E6000550D8B0053C09260650D8B0063C0A2665
:1008F6000750D8B0073C0B2601360C2EDAD7003449
:10090600083609360A360B36045001A00ED0085EAA
:100916000550D8A0053C095E0650D8A0063C0A5EE4
:100926000750D8A0073C0B5E0DD008260550D8B05E
:10093600053C09260650D8B0063C0A260750D8B012
:10094600073C0B260036070E0C6E003408360936B7
:100956000A360B36045000A00ED0085E0550D8A00B
:10096600053C095E0650D8A0063C0A5E0750D8A092
:10097600073C0B5E0DD008260550D8B0053C09266D
:100986000650D8B0063C0A260750D8B0073C0B26BE
:1009960000360C2EDAD700B00ED0045008260550CB
:1009A600D8B0053C09260650D8B0063C0A260750A2
:0809B600D8B0073C0B2612002B
:1009BE00800E0101D719006E800E005C02E1000E60
:1009CE00D65D0BE30001FF510101D75D04E100018B
:1009DE00FE510101D65D01E201D051D0800ED91930
:1009EE00006E800E005C02E1000ED85D07E302513E
:1009FE00D95D02E10151D85D01E201D040D08A9C5F
:100A0E00A8DE00521BE007C1E1FF08C1E2FFD6C11C
:100A1E00E6FFD7C1E6FFD8C1E6FFD9C1E6FFD6C1D2
:100A2E00E6FFD7C1E6FFD8C1E6FFD9C1E6FF05C193
:100A3E0000F006C101F040EC00F012D00FC1E1FF52
:100A4E0010C1E2FFD6C1E6FFD7C1E6FFD8C1E6FF6F
:100A5E00D9C1E6FF0DC100F00EC101F040EC00F06F
:100A6E000BC1E1FF0CC1E2FFDAC1E6FFDBC1E6FF1D
:100A7E0009C100F00AC101F040EC00F08A8C1200AE
:100A8E00086A096A100E0C6E0134083609360450D5
:100A9E00085E0550D8A0053C095ED8B007D00450BA
:100AAE0008260550D8B0053C0926D89000360136E8
:060ABE000C2EEAD7120025
:100AC4000B0E006ED6C102F0D7C103F0005005E052
:100AD40003320232039EFF0FFAD7030E016E02C0E7
:100AE40000F0015004E000360090FF0FFBD7D8C19E
:100AF400E1FFD9C1E2FF00C0E6FF050E006ED6C1DA
:100B040002F0D7C103F0005005E003320232039E25
:100B1400FF0FFAD702C000F00036009000360090B4
:100B2400DAC1E1FFDBC1E2FF00C0E6FF030E016EA4
:100B3400D6C100F0015004E000360090FF0FFBD74F
:0E0B4400DCC1E1FFDDC1E2FF00C0E6FF1200F0
:100B5200D6C1D5F0D7C1D6F0D8C1D7F0020E010167
:100B6200D625F66E000ED721F76E000ED821F86E4C
:100B72000900F5CF04F0030ED625F66E000ED7213C
:100B8200F76E000ED821F86E0900F5CF03F003C00E
:100B920001F0006A045000240001EE6F000E0120F3
:100BA200EF6F040E0101D625F66E000ED721F76E07
:100BB200000ED821F86E0900F5CF04F0050ED625F7
:100BC200F66E000ED721F76E000ED821F86E0900DE
:100BD200F5CF03F003C001F0006A045000240001C5
:100BE200D86F000E0120D96F060E0101D625F66ED0
:100BF200000ED721F76E000ED821F86E0900F5CF4E
:100C0200DBF0000E0001DC6FD9C1F4F0DAC1F5F0BF
:0C0C1200DBC1DAF0010E1E6EF36B120065
:100C1E000B6A0A6A096A00500402F4CF09F0F3CF96
:100C2E0008F001500502F4CF0BF0F3CF0AF000509C
:100C3E000502F3500926F4500A22E86A0B220150ED
:100C4E000402F3500926F4500A22E86A0B2208C067
:100C5E0000F009C001F00AC002F00BC003F0120050
:100C6E00E30E0101E26F000EE36F000E006EDB512A
:100C7E00005C02E1DA51000844E2E1C0E1FFE2C0AB
:100C8E00E2FFD6C1E6FFD7C1E6FFD8C1E6FFD9C164
:100C9E00E6FFDAC1E6FFDBC1E6FFDE0EE66E010E11
:100CAE00E66EDFC000F0E0C001F040EC00F000C0E6
:100CBE00E0F101C0E1F10101DC6BDD6BDF51DD5DC7
:100CCE0002E1DE51DC5D11E2E0C1E9FFE1C1EAFFC4
:100CDE00E2C1E1FFE3C1E2FFEECFE6FFE24BE32B21
:100CEE00E04BE12BDC4BDD2BE9D7DE51DA5FDF5138
:100CFE00DB5BDE51D627DF51D723000ED823D92355
:040D0E00B4D7120044
:100D1200220E0C6E086A096A0A6A0B6A0C06D8B4BB
:100D22001FD0D8900B320A32093208320332023213
:100D320001320032D8A0F2D70C06D8B409D0045040
:100D420008260550092206500A2207500B22EAD72C
:100D5200045008260550092206500A2207500B2289
:020D620012007D
:100D6400D6C101F00132019E0132019E0132019E81
:100D740001C0D6F10B0E006E01C004F0000E056E2A
:100D8400005005E0043604900536FF0FFAD7D7C1AA
:100D940003F00332039E0332039E03C0D7F1050E12
:100DA400026E03C000F0000E016E025005E0003632
:100DB40000900136FF0FFAD700500410026E055060
:100DC4000110036ED8C100F00032009E0032009E74
:100DD4000032009E00C0D8F1000E016E02500012D5
:060DE40003500112120091
:100DEA000450000A12E10550000A0FE10650000AF9
:100DFA000CE10750000A09E1FF0E006EFF0E016EBA
:100E0A00FF0E026E7F0E036E97D00C6A07BE0C2A85
:100E1A000D6A0B6A0A6A096A086A0350021001100D
:100E2A000010D8B484D0035007180E6E0EBE0D1EE3
:100E3A0007AE0BD0041E051E061E071E042AD8B4D0
:100E4A00052AD8B4062AD8B4072A03AE0BD0001E46
:100E5A00011E021E031E002AD8B4012AD8B4022A8F
:100E6A00D8B4032A035007100E6E0EBE1CD076DCCF
:100E7A000CBE36D00DAE5BD0001E011E021E031E34
:100E8A00002AD8B4012AD8B4022AD8B4032A081EE0
:100E9A00091E0A1E0B1E082AD8B4092AD8B40A2A1F
:100EAA00D8B40B2A44D007AE15D003BE0DD00350D8
:100EBA000B6E02500A6E0150096E0050086E036AEA
:100ECA00026A016A006AD6D7036A026A016A006A7C
:100EDA00002A000C031E021E011E001E0C8EC7D71C
:100EEA00082AD8B4092AD8B40A2AD8B40B2A045032
:100EFA00085CD8A4BFD70550095CD8A4BBD7065054
:100F0A000A5CD8A4B7D707500B5CD8A4B3D70B6A2E
:100F1A000A6A096A086A002AD8B4012AD8B4022AD5
:100F2A00D8B4032A03AEA6D70E6A0E88FF0C0E6A3F
:0A0F3A000CA001D004DC000F12002F
:0E0F4400BCC1FCF0BDC1FDF0BEC1FBF012004F
:100F5200000E0101C11902E1000EC01905E1BCC178
:100F620000F0BDC101F093D0C151C31902E1C251D9
:100F7200C01905E1BEC100F0BFC101F088D0BCC1FB
:100F8200D6F1BDC1D7F1C40ED86F010ED96FC60E0E
:100F9200DA6F010EDB6FC80EDC6F010EDD6F91DDC3
:100FA200BEC1D6F1BFC1D7F1C50E0101D86F010E86
:100FB200D96FC70EDA6F010EDB6FC90EDC6F010E3F
:100FC200DD6F7FDDC0C104F0C1C105F0000E066E09
:100FD200076EC5C100F0000E016E0101C451005E32
:100FE200000E015A000E01BEFF0E026E036E90DE6D
:100FF200C2C104F0C3C105F0000E066E076EF4DE36
:1010020000500101C425D66FC0C104F0C1C105F072
:10101200000E066E076EC7C100F0000E016EC651CB
:10102200005E000E015A000E01BEFF0E026E036E3C
:101032006FDEC2C104F0C3C105F0000E066E076E7A
:10104200D3DE00500101C625D76FC0C104F0C1C173
:1010520005F0000E066E076EC9C100F0000E016EAB
:10106200C851005E000E015A000E01BEFF0E026E54
:10107200036E4EDEC2C104F0C3C105F0000E066E5F
:10108200076EB2DE00500101C825D86F6ADE120079
:10109200800E0101BF19006E800EBD19005C02E1D5
:1010A200BC51BE5D0CE2BCC1C2F1BDC1C3F1BEC147
:1010B200BCF1BFC1BDF1C2C1BEF1C3C1BFF1800E5F
:1010C200BD19006E800E005C02E1000EBC5D03E201
:1010D200BC6BBD6B0BD00001FF510101BD5D04E192
:1010E2000001FE510101BC5D01E3EDD0800EBF198C
:1010F200006E800E005C02E1000EBE5D01E2E3D0F4
:101102000001FF510101BF5D04E10001FE51010137
:10111200BE5D0AE3010E0001FE5D0101BE6F000E1D
:101122000001FF590101BF6F010EC46FC4510001DC
:10113200FB5DD8A0C8D0C4C1C5F1000E0101C66FC5
:10114200010EC515016EC6C102F0000E0216000E98
:10115200021802E1000E011806E1C5510008C56F30
:10116200C651000EC657C5C100F0C6C101F001321A
:101172000032019E01BC018E00C0C5F101C0C6F162
:101182000050C025026E0150C121036E800E03186B
:10119200006E800E005C02E1000E025C0DE3C551A0
:1011A200C025016EC651C121026E0251025C02E1EC
:1011B2000151015C01E201D084D00001CB51000A4F
:1011C20063E18A9CB0EC03F0005226E00101C551B4
:1011D200C025026EC651C121036E02C000F003C0D9
:1011E20001F007C1E1FF08C1E2FFBCC1E6FFBDC1DA
:1011F200E6FF02C0E6FF03C0E6FFBEC1E6FFBFC1D5
:10120200E6FF00C0E6FF01C0E6FF05C100F006C12F
:1012120001F040EC00F019D00101C551C025006E6B
:10122200C651C121016E0FC1E1FF10C1E2FFBCC175
:10123200E6FFBDC1E6FF00C0E6FF01C0E6FF0DC14B
:1012420000F00EC101F040EC00F0BCC1C2F1BDC122
:10125200C3F10101C351BF5D02E1C251BE5D12E3A0
:101262000BC1E1FF0CC1E2FFFCC0E6FFFDC0E6FFDF
:1012720009C100F00AC101F040EC00F00101C24BCB
:10128200C32BE7D78A8C1DD0BCC1C2F1BDC1C3F14B
:101292000101C351BF5D02E1C251BE5D12E3C2C191
:1012A200D6F1C3C1D7F1C0C1D8F1C1C1D9F1FCC0D7
:1012B200DAF1FDC0DBF1DFEC04F00101C24BC32B1C
:0812C200E7D7C42B33D712005B
:1012CA000101C66BC76BC86BC96B1E50000A0CE1E3
:1012DA00F80ED66F560ED76F000ED86FD96BDA6B31
:1012EA00DB6B32DC010E1E6E0001EF510101BD5DA8
:1012FA0004E10001EE510101BC5D01E22ED1BD51B4
:10130A000001D95D04E10101BC510001D85D01E28F
:10131A0024D1EE510101BC5D016E0001EF510101C2
:10132A00BD59026E01C003F002C004F003360390F7
:10133A000436033603900436080E0001D525006EE4
:10134A00000ED621016E000ED721026E000E056E28
:10135A0000500326015004220250052203C0F6FF62
:10136A0004C0F7FF05C0F8FF0900F5CFC6F1010E6A
:10137A000324F66E000E0420F76E000E0520F86EA8
:10138A000900F5CF00F000C006F0000E076E086EE7
:10139A00096E020E0324F66E000E0420F76E000E8C
:1013AA000520F86E0900F5CF03F003C001F0006ACA
:1013BA00000E026E036E06500026075001220850E6
:1013CA00022209500322D55100240101C36F0001F2
:1013DA00D65101200101C46F0001D7510220010139
:1013EA00C56F0001DA51000A04E0DA51020A01E08D
:1013FA005ED0DDC0C0F1DEC0C1F10101BF6B000EDD
:10140A00006E0001DC51005C03E1DB510101BF5DAC
:10141A003AE20101F0C0C7F1F1C0C8F1C26BBE6B7C
:10142A00C651BE5D2CE2C251000A10E1C3C1F6FFEB
:10143A00C4C1F7FFC5C1F8FF0900F5CFC9F1010E14
:10144A00C327000EC423C523010EC26FC251C9159A
:10145A00006E0EE0C7C1D6F1C8C1D7F1C0C1D8F13C
:10146A00C1C1D9F1F4C0DAF1F5C0DBF1DFEC04F067
:10147A000101C74BC82BC237C291BE2BD1D7C04B73
:10148A00C12BBF2BBCD70001DA51000A0BE1010EB8
:10149A000101C7250001F06F000E0101C8210001FA
:1014AA00F16F04D0C0C1DDF0C1C1DEF056D0F0C08A
:1014BA00C0F1F1C0C1F10101BF6B000E006E000165
:1014CA00DC51005C03E1DB510101BF5D3CE201013B
:1014DA00DDC0C7F1DEC0C8F1C26BBE6BC651BE5DCE
:1014EA002EE2C251000A10E1C3C1F6FFC4C1F7FFE0
:1014FA00C5C1F8FF0900F5CFC9F1010EC327000ED7
:10150A00C423C523010EC26FC251C915006E0EE075
:10151A00C0C1D6F1C1C1D7F1C7C1D8F1C8C1D9F18B
:10152A00F4C0DAF1F5C0DBF1DFEC04F0010E0101E1
:10153A00C75F000EC85BC237C291BE2BCFD7C04B64
:10154A00C12BBF2BBAD70101010EC75D0001DD6FA8
:0C155A00000E0101C8590001DE6F1200F4
:101566000101D16BD26BD36BD46B0001EF5101013A
:10157600BD5D04E10001EE510101BC5D01E202D254
:10158600BD510001D95D04E10101BC510001D85DE6
:1015960001E2F8D1EE510101BC5D036E0001EF518D
:1015A6000101BD59046E03C000F004C001F000360D
:1015B60000900136003600900136080E0001F6252F
:1015C6000101D66F000E0001F7210101D76F000E51
:1015D6000001F8210101D86F000E0001F921010177
:1015E600D96F0050D6270150D723000ED823D92310
:1015F600040EDA6F000EDB6F37EC06F0E30ECF6FEA
:10160600000ED06FCFC1E9FFD0C1EAFFEECFD5F112
:10161600D5C1D1F1010ECF25E96E000ED021EA6EBB
:10162600EECF04F0000E056E066E076E020ECF2595
:10163600E96E000ED021EA6EEECF03F003C001F092
:10164600006A000E026E036E045000260550012249
:10165600065002220750032200500001F625010120
:10166600C36F01500001F7210101C46F0250000150
:10167600F8210101C56F03500001F9210101C66F70
:10168600D5C100F00032009E0032009E0032009E5E
:10169600000E016EDBC004F0DCC005F00FEC06F0B6
:1016A60000C0C9F101C0CAF1070ED515006E08E0E9
:1016B6000001DB510101C9270001DC510101CA23E8
:1016C600C9C1CDF1CAC1CEF1E1C0E1FFE2C0E2FF7E
:1016D600C3C1E6FFC4C1E6FFC5C1E6FFC6C1E6FF5A
:1016E600C9C1E6FFCAC1E6FFC70EE66E010EE66E89
:1016F600DFC000F0E0C001F040EC00F000C0CFF128
:1017060001C0D0F10101C751C327C851C423000E3F
:10171600C523C623C751C95FC851CA5BCB6BCC6B07
:101726000001DA51000A04E0DA51020A01E099D018
:10173600DDC0C0F1DEC0C1F10101BF6B000E006E5D
:101746000001DC51005C03E1DB510101BF5DD8B053
:1017560074D00101F0C0D2F1F1C0D3F1C26BBE6BFF
:10176600D151BE5D66E2C251000A4AE1CB4BCC2B99
:10177600CE51C85D02E1CD51C75D38E2CC51C85D9E
:1017860002E1CB51C75D32E2010ECB6F000ECC6F8A
:10179600E1C0E1FFE2C0E2FFC3C1E6FFC4C1E6FF6C
:1017A600C5C1E6FFC6C1E6FFC9C1E6FFCAC1E6FF7D
:1017B600C70EE66E010EE66EDFC000F0E0C001F077
:1017C60040EC00F000C0CFF101C0D0F1C9C1CDF1AD
:1017D600CAC1CEF10101C751C327C851C423000EA7
:1017E600C523C623C751C95FC851CA5BCFC1E9FF2C
:1017F600D0C1EAFFEECFD4F1CF4BD02B010EC26F92
:10180600C251D415006E0EE0D2C1D6F1D3C1D7F1C4
:10181600C0C1D8F1C1C1D9F1F4C0DAF1F5C0DBF12C
:10182600DFEC04F00101D24BD32BC237C291BE2BA1
:1018360097D7C04BC12BBF2B81D70001DA51000AC5
:101846000BE1010E0101D2250001F06F000E01012E
:10185600D3210001F16F04D0C0C1DDF0C1C1DEF0BB
:1018660091D0F0C0C0F1F1C0C1F10101BF6B000E13
:10187600006E0001DC51005C03E1DB510101BF5D3C
:10188600D8B076D00101DDC0D2F1DEC0D3F1C26B93
:10189600BE6BD151BE5D68E2C251000A4AE1CB4B34
:1018A600CC2BCE51C85D02E1CD51C75D38E2CC519B
:1018B600C85D02E1CB51C75D32E2010ECB6F000E6F
:1018C600CC6FE1C0E1FFE2C0E2FFC3C1E6FFC4C1E5
:1018D600E6FFC5C1E6FFC6C1E6FFC9C1E6FFCAC14C
:1018E600E6FFC70EE66E010EE66EDFC000F0E0C052
:1018F60001F040EC00F000C0CFF101C0D0F1C9C149
:10190600CDF1CAC1CEF10101C751C327C851C423C5
:10191600000EC523C623C751C95FC851CA5BCFC1D4
:10192600E9FFD0C1EAFFEECFD4F1CF4BD02B010EA9
:10193600C26FC251D415006E0EE0C0C1D6F1C1C14E
:10194600D7F1D2C1D8F1D3C1D9F1F4C0DAF1F5C0DB
:10195600DBF1DFEC04F0010E0101D25F000ED35B78
:10196600C237C291BE2B95D7C04BC12BBF2B7FD799
:101976000101010ED25D0001DD6F000E0101D35998
:061986000001DE6F1200FB
:10198C000101C06B050EC05D0AE2C051BE25E16EBF
:10199C00000EBF21E26E200EE66EC02BF3D7C051B5
:1019AC00BE25E16E000EBF21E26EE66AC007C05193
:1019BC00BE25C16F000EBF21C26F0A0E046E000E51
:1019CC00056EBCC100F0BDC101F047EC05F008C0CC
:1019DC0000F009C001F0300E0026C1C1E1FFC2C108
:1019EC00E2FF00C0E6FF0A0E046E000E056EBCC1DD
:1019FC0000F0BDC101F047EC05F000C0BCF101C026
:101A0C00BDF1000E011802E1000E001801E102D038
:061A1C00C007CDD7120047
:101A2200800E0101BF19006E800EBD19005C02E13B
:101A3200BC51BE5D0CE2BCC1C2F1BDC1C3F1BEC1AD
:101A4200BCF1BFC1BDF1C2C1BEF1C3C1BFF1800EC5
:101A5200BD19006E800E005C02E1000EBC5D03E267
:101A6200BC6BBD6B07D00251BD5D02E10151BC5D93
:101A720001E381D0800EBF19006E800E005C02E18E
:101A8200000EBE5D01E277D00251BF5D02E101515D
:101A9200BE5D06E3010E015DBE6F000E0259BF6F0F
:101AA200010EC46FC4510001FB5D65E3C4C1C5F101
:101AB200000E0101C66F010EC515016EC6C102F00E
:101AC200000E0216000E021802E1000E011806E1D5
:101AD200C5510008C56FC651000EC657C5C100F0FA
:101AE200C6C101F001320032019E01BC018E00C06C
:101AF200C5F101C0C6F10050C025026E0150C121DE
:101B0200036E800E0318006E800E005C02E1000E70
:101B1200025C0EE3C551C025016EC651C121026EA1
:101B22000001FF51025C02E1FE51015C01E201D0C1
:101B32001FD0BCC1C2F1BDC1C3F10101C351BF5D20
:101B420002E1C251BE5D14E3C551C025D66FC65134
:101B5200C121D76FC2C1D8F1C3C1D9F1FCC0DAF13A
:101B6200FDC0DBF1DFEC04F00101C24BC32BE5D772
:081B72000101C42B97D71200FA
:101B7A00BCC1F0F0BDC1F1F0BEC1DDF0BFC1DEF005
:021B8A00120047
:101B8C00BCC111F1BDC103F1BEC104F1BFC112F161
:101B9C00C0C113F1C1C116F1C2C117F1C3C114F117
:061BAC00C4C115F1120096
:101BB200FBC0B6F1FCC0B7F1FDC0B8F1010E0001E7
:101BC200FB6F03C1FCF004C1FDF00101A3519F5D55
:101BD200AE6FA451A059AF6FAE4BAF2BA3519F254F
:101BE200B06FA451A021B16F010EB05F000EB15BC6
:101BF200A351A15DB26FA451A259B36FB24BB32BE3
:101C0200A351A125B46FA451A221B56F010EB45FF7
:101C1200000EB55BA66BA76BA86BA96BAA6BAB6B2F
:101C22009F51A15DAC6FA051A259AD6FA3C1A8F1A4
:101C3200A4C1A9F1A3C100F0A4C101F00036009033
:101C4200013600C0A6F101C0A7F100500308A66F3B
:101C520001C0A7F1000EA757010EA825016E000EC4
:101C6200A921026E800EAB19006E800E0218005C74
:101C720002E10150AA5DD8B0E0D21253D8B4E1D14A
:101C82001351000AD8A4F0D016C1BCF117C1BDF19E
:101C920014C1BEF115C1BFF1A851A125C06FA95150
:101CA200A221C16FB251C05FB351C15BB251B45DE9
:101CB200C26FB351B559C36FA9EC07F000C0BCF1B4
:101CC20001C0BDF1010E0101BE6FA2EC07F0AA51E5
:101CD2009F25BC6FAB51A021BD6FAA519F5DBE6F06
:101CE200AB51A059BF6FA851A125C06FA951A22124
:101CF200C16F49EC08F016C1BCF117C1BDF114C1A6
:101D0200BEF115C1BFF10101A851A15DC06FA9517A
:101D1200A259C16FB251C05FB351C15BB251B45D40
:101D2200C26FB351B559C36FA9EC07F000C0BCF143
:101D320001C0BDF1010E0101BE6FA2EC07F0AA5174
:101D42009F25BC6FAB51A021BD6FAA519F5DBE6F95
:101D5200AB51A059BF6FA851A15DC06FA951A25943
:101D6200C16F49EC08F016C1BCF117C1BDF114C135
:101D7200BEF115C1BFF10101AA51A125C06FAB513E
:101D8200A221C16FB251C05FB351C15BB251B45D08
:101D9200C26FB351B559C36FA9EC07F000C0BCF1D3
:101DA20001C0BDF1010E0101BE6FA2EC07F0A85106
:101DB200A125BC6FA951A221BD6FAC51BC5FAD5131
:101DC200BD5BA851A15DBE6FA951A259BF6FAC51B5
:101DD200BE5FAD51BF5BAA51A125C06FAB51A2211D
:101DE200C16F49EC08F016C1BCF117C1BDF114C1B5
:101DF200BEF115C1BFF10101AA51A15DC06FAB5186
:101E0200A259C16FB251C05FB351C15BB251B45D4F
:101E1200C26FB351B559C36FA9EC07F000C0BCF152
:101E220001C0BDF1010E0101BE6FA2EC07F0A85185
:101E3200A125BC6FA951A221BD6FAC51BC5FAD51B0
:101E4200BD5BA851A15DBE6FA951A259BF6FAC5134
:101E5200BE5FAD51BF5BAA51A15DC06FAB51A2592C
:101E6200C16F49EC08F0ECD016C1BCF117C1BDF14D
:101E720014C1BEF115C1BFF10101AA519F25C06F66
:101E8200AB51A021C16FAE51C05FAF51C15BAE512A
:101E9200B05DC26FAF51B159C36FA9EC07F000C07A
:101EA200BCF101C0BDF1010E0101BE6FA2EC07F051
:101EB200A851A125BC6FA951A221BD6FA851A15D56
:101EC200BE6FA951A259BF6FAA519F25C06FAB51D6
:101ED200A021C16FA5DD16C1BCF117C1BDF114C1AE
:101EE200BEF115C1BFF10101AA519F5DC06FAB5197
:101EF200A059C16FAE51C05FAF51C15BAE51B05D71
:101F0200C26FAF51B159C36FA9EC07F000C0BCF169
:101F120001C0BDF1010E0101BE6FA2EC07F0A85194
:101F2200A125BC6FA951A221BD6FA851A15DBE6FB1
:101F3200A951A259BF6FAA519F5DC06FAB51A05961
:101F4200C16F6EDD16C1BCF117C1BDF114C1BEF186
:101F520015C1BFF10101A851A125C06FA951A2214C
:101F6200C16FAC51C05FAD51C15BAE51C05FAF51EB
:101F7200C15BAE51B05DC26FAF51B159C36FA9EC35
:101F820007F000C0BCF101C0BDF1010E0101BE6F3E
:101F9200A2EC07F0AA51A125BC6FAB51A221BD6FE3
:101FA200AA51A15DBE6FAB51A259BF6FA851A12525
:101FB200C06FA951A221C16FAC51C05FAD51C15BCD
:101FC2002FDD16C1BCF117C1BDF114C1BEF115C19F
:101FD200BFF10101A851A15DC06FA951A259C16F02
:101FE200AC51C05FAD51C15BAE51C05FAF51C15B7F
:101FF200AE51B05DC26FAF51B159C36FA9EC07F0DA
:1020020000C0BCF101C0BDF1010E0101BE6FA2EC26
:1020120007F0AA51A125BC6FAB51A221BD6FAA51F5
:10202200A15DBE6FAB51A259BF6FA851A15DC06F38
:10203200A951A259C16FAC51C05FAD51C15BF0DC77
:10204200C0D00101A551000A58E1A851A125BC6FD9
:10205200A951A221BD6FA851A15DBE6FA951A2597C
:10206200BF6FAA519F25C06FAB51A021C16FD8DCB1
:102072000101A851A125BC6FA951A221BD6FA85190
:10208200A15DBE6FA951A259BF6FAA519F5DC06FDA
:10209200AB51A059C16FC4DC0101AA51A125BC6F8B
:1020A200AB51A221BD6FAA51A15DBE6FAB51A25926
:1020B200BF6FA851A125C06FA951A221C16FAC5118
:1020C200C05FAD51C15BACDC0101AA51A125BC6F5F
:1020D200AB51A221BD6FAA51A15DBE6FAB51A259F6
:1020E200BF6FA851A15DC06FA951A259C16FAC5178
:1020F200C05FAD51C15B94DC64D00101AA519F2540
:10210200BC6FAB51A021BD6FAA519F5DBE6FAB5199
:10211200A059BF6FA851A125C06FA951A221C16FBB
:1021220049EC08F00101AA519F25BC6FAB51A021D7
:10213200BD6FAA519F5DBE6FAB51A059BF6FA85131
:10214200A15DC06FA951A259C16F49EC08F001010C
:10215200A851A125BC6FA951A221BD6FAC51BC5F92
:10216200AD51BD5BA851A15DBE6FA951A259BF6F10
:10217200AC51BE5FAD51BF5BAA51A125C06FAB513F
:10218200A221C16F49EC08F00101A851A125BC6F41
:10219200A951A221BD6FAC51BC5FAD51BD5BA8512D
:1021A200A15DBE6FA951A259BF6FAC51BE5FAD51C7
:1021B200BF5BAA51A15DC06FAB51A259C16F49EC7F
:1021C20008F0800E0101A719006E800E005C02E18A
:1021D200000EA65D13E2AAC100F0ABC101F0003609
:1021E20000900136003600900136060E0026000EE1
:1021F20001220050A6270150A7231CD0A851AA5D96
:10220200036EA951AB59046E03C000F004C001F083
:102212000036009001360036009001360A0E002684
:10222200000E01220050A6270150A723010EA85F2D
:10223200000EA95BAA4BAB2B0FD5B6C1FBF0B7C101
:08224200FCF0B8C1FDF0120030
:10224A00FBC000F00032009E005001019F5D016E4C
:10225A00000EA059026E01C0AEF102C0AFF1800EAD
:10226A000218006E800E005C02E1000E015C03E2BF
:10227A00AE6BAF6B14D00001FF510101AF5D04E1F9
:10228A000001FE510101AE5D0AE3010E0001FE5D8F
:10229A000101AE6F000E0001FF590101AF6F00018D
:1022AA00FB05036E046A000E045A03C000F004C062
:1022BA0001F001320032019E01BC018E0050010181
:1022CA00A325026E0150A421036E02C0B0F103C01F
:1022DA00B1F1800E0318006E800E005C02E1000E60
:1022EA00025C03E2B06BB16B14D00001FF51010133
:1022FA00B15D04E10001FE510101B05D0AE3010E86
:10230A000001FE5D0101B06F000E0001FF590101DD
:10231A00B16F0001FB5338E0AEC1BCF1AFC1BDF1F2
:10232A00B0C1BEF1B1C1BFF1A1C1C0F1A2C1C1F139
:10233A0049EC08F0AEC1BCF1AFC1BDF1B0C1BEF10C
:10234A00B1C1BFF1A5C1C0F1A6C1C1F149EC08F004
:10235A00A1C1BCF1A2C1BDF1A5C1BEF1A6C1BFF127
:10236A009FC1C0F1A0C1C1F111EC0DF0A1C1BCF136
:10237A00A2C1BDF1A5C1BEF1A6C1BFF1A3C1C0F101
:10238A00A4C1C1F111EC0DF001011153D8B4E0D090
:10239A00FCC0ABF1FDC0ACF1FBC0ADF10001FB51DB
:1023AA00010F036E046A000E042203C000F004C089
:1023BA0001F001320032019E01BC018E0050010180
:1023CA009F270150A0230050A1270150A223020EEB
:1023DA000001FB25036E046A000E042203C000F00C
:1023EA0004C001F001320032019E01BC018E00508E
:1023FA000101A35F0150A45B0050A55F0150A65BD9
:10240A001253D8B47BD01351000A3CE1A1C1A9F1FF
:10241A00A2C1AAF1AA51A65D02E1A951A55D31E3C3
:10242A0016C1BCF117C1BDF114C1BEF115C1BFF18E
:10243A00A151A95DC06FA251AA59C16FA151A55D51
:10244A00C26FA251A659C36FA9EC07F000C0BCF134
:10245A0001C0BDF1010E0101BE6FA2EC07F09FC1E0
:10246A00BCF1A0C1BDF1A3C1BEF1A4C1BFF1A9C114
:10247A00C0F1AAC1C1F149EC08F00101A94BAA2B8C
:10248A00C9D73BD09FC1A7F1A0C1A8F1A851A45DAB
:10249A0002E1A751A35D31E316C1BCF117C1BDF139
:1024AA0014C1BEF115C1BFF19F51A75DC06FA05104
:1024BA00A859C16F9F51A35DC26FA051A459C36FA0
:1024CA00A9EC07F000C0BCF101C0BDF1010E010189
:1024DA00BE6FA2EC07F0A1C1BCF1A2C1BDF1A5C1BA
:1024EA00BEF1A6C1BFF1A7C1C0F1A8C1C1F111ECEB
:1024FA000DF00101A74BA82BC9D724D003C1BCF109
:10250A0004C1BDF1010EBE6FA2EC07F0A1C1A9F191
:10251A00A2C1AAF1AA51A65D02E1A951A55D12E3E1
:10252A009FC1BCF1A0C1BDF1A3C1BEF1A4C1BFF15D
:10253A00A9C1C0F1AAC1C1F149EC08F00101A94B36
:10254A00AA2BE8D7ABC1FCF0ACC1FDF0ADC1FBF0E2
:02255A0012006D
:10255C00A3C1BCF1A4C1BDF1A5C1BEF1A6C1BFF11F
:10256C00BDEC0DF00101A051A41902E1A3519F197A
:10257C000FE1A1C1BCF1A2C1BDF1A5C1BEF1A6C1C3
:10258C00BFF19FC1C0F1A0C1C1F111EC0DF097D109
:10259C000101A251A61902E1A551A1190FE19FC198
:1025AC00BCF1A0C1BDF1A3C1BEF1A4C1BFF1A1C1D9
:1025BC00C0F1A2C1C1F149EC08F081D10101B16BAC
:1025CC00B26B9F51A35D016EA051A459026E01C064
:1025DC00A7F102C0A8F1800E0218006E800E005CFC
:1025EC0002E1000E015C0BE2A7510008A76FA85195
:1025FC00000EA857010EB15F000EB25B02D0B14BBA
:10260C00B22BB36BB46BA151A55D016EA251A6594F
:10261C00026E01C0A9F102C0AAF1800E0218006E70
:10262C00800E005C02E1000E015C0BE2A951000877
:10263C00A96FAA51000EAA57010EB35F000EB45B2E
:10264C0002D0B34BB42BB56BB66B800EA819006ED1
:10265C00800EAA19005C02E1A951A75D65E2B54B99
:10266C00B62BA7C1B7F1A8C1B8F1A9C1A7F1AAC1EE
:10267C00A8F1B7C1A9F1B8C1AAF19FC1B7F1A0C126
:10268C00B8F1A1C19FF1A2C1A0F1B7C1A1F1B8C12C
:10269C00A2F1B1C1B7F1B2C1B8F1B3C1B1F1B4C1DA
:1026AC00B2F1B7C1B3F1B8C1B4F1010EB96FB95100
:1026BC000001FB5D38E3B9C1BAF1000E0101BB6F3B
:1026CC00010EBA15016EBBC102F0000E0216000E0F
:1026DC00021802E1000E011806E1BA510008BA6FA7
:1026EC00BB51000EBB57BAC100F0BBC101F00132A7
:1026FC000032019E01BC018E00C0BAF101C0BBF1D9
:10270C000050A125D66F0150A221D76F9FC1D8F1DF
:10271C00A0C1D9F1FCC0DAF1FDC0DBF1DFEC04F0B3
:10272C000101B92BC4D73FD00101010EB96FB951CA
:10273C000001FB5D38E3B9C1BAF1000E0101BB6FBA
:10274C00010EBA15016EBBC102F0000E0216000E8E
:10275C00021802E1000E011806E1BA510008BA6F26
:10276C00BB51000EBB57BAC100F0BBC101F0013226
:10277C000032019E01BC018E00C0BAF101C0BBF158
:10278C009FC1D6F1A0C1D7F10050A125D86F01503F
:10279C00A221D96FFCC0DAF1FDC0DBF1DFEC04F053
:1027AC000101B92BC4D70101A7C1AFF1A8C1B0F188
:1027BC00AF37AF91B037A9C100F0AAC101F0003614
:1027CC000090013600C0ADF101C0AEF1A751005C24
:1027DC00AB6FA8510158AC6F0101010EA75F000E41
:1027EC00A85B800EA819006E800E005C02E1000E42
:1027FC00A75D65E3800EAC19006E800E005C02E1F3
:10280C00000EAB5D08E3B351A127B451A223AF5125
:10281C00AB5FB051AC5BB1519F27B251A023AD510E
:10282C00AB27AE51AC23010EB96FB9510001FB5D62
:10283C0045E3B9C1BAF1000E0101BB6F010EBA1527
:10284C00016EBBC102F0000E0216000E021802E16E
:10285C00000E011806E1BA510008BA6FBB51000E08
:10286C00BB57BB33BA33BB9FBBBDBB8FB551B61186
:10287C0011E0BA51A125D66FBB51A221D76F9FC1D0
:10288C00D8F1A0C1D9F1FCC0DAF1FDC0DBF1DFEC6D
:10289C0004F011D09FC1D6F1A0C1D7F10101BA51FA
:1028AC00A125D86FBB51A221D96FFCC0DAF1FDC0B4
:1028BC00DBF1DFEC04F00101B92BB7D78DD7120097
:1028CC000101A56BA66B9FC1A7F1A0C1A8F1800E59
:1028DC00A019006E800E005C02E1000E9F5D0BE201
:1028EC00010EA56F000EA66F9F510008A76FA0C127
:1028FC00A8F1000EA857A7C1BCF1A8C1BDF1A1C198
:10290C00BEF1A2C1BFF1C6EC0CF0060EA36F000E17
:10291C00A46F000E006EA451005C02E1A3510008EC
:10292C0019E2A351A125E16EA451A221E26E010E80
:10293C00A35D006E000EA459016E0050A125E96E36
:10294C000150A221EA6EEECFE6FF010EA35F000E4E
:10295C00A45BDFD7A1C1E1FFA2C1E2FF200EE66EAE
:10296C00A551A6111AE0A36BA46BA351A125E96E86
:10297C00A451A221EA6EEE50200A03E1A34BA42B32
:10298C00F4D7010EA35F000EA45BA351A125E16E49
:0C299C00A451A221E26E2D0EE66E120086
:1029A800F80E0101D66F560ED76F000ED86F32C1E0
:1029B800D9F133C1DAF1DB6BA9EC05F00101BC6B8D
:1029C80034C1BDF135C1BEF1BF6BC06BC16BC26B09
:1029D800C36BC46BC6EC0DF036C1BCF137C1BDF199
:0A29E800010EBE6FA2EC07F0120012
:1029F2000134083609360450085E0550D8A0053C5B
:102A0200095E003601360F0E0C6E013408360936A7
:102A1200045000A006D0085E0550D8A0053C095E0F
:102A220005D008260550D8B0053C092600360136E7
:102A32000C2EEBD700B006D0045008260550D8B0B3
:082A4200053C0926000012000A
:102A4A000001FF510101A25D04E10001FE510101F3
:102A5A00A15D01E344D00251A45D02E10151A35DED
:102A6A0001E33DD0A56BA66BA1C1BCF1A2C1BDF12A
:102A7A00A3C1BEF1A4C1BFF1BDEC0DF0A5519F25C4
:102A8A00E96EA651A021EA6EEE5229E00001F35345
:102A9A0013E00101A5519F25E96EA651A021EA6E16
:102AAA00EECFBCF1000EBD6F000EBD6FB3EC0AF0A5
:102ABA000101A54BA62B12D00101A5519F25E96E54
:102ACA00A651A021EA6EEECFBCF1000EBD6F000E3A
:102ADA00BD6F65EC09F00101A54BA62BCFD71200FB
:102AEA008A9CB0EC03F0005225E0010E0001FE5D65
:102AFA00026E000EFF59036E010E0101015D006EA8
:102B0A00000E0259016E07C1E1FF08C1E2FFE66A41
:102B1A00E66AE66AE66A02C0E6FF03C0E6FF00C0AC
:102B2A00E6FF01C0E6FF05C100F006C101F040EC76
:102B3A0000F00ED00FC1E1FF10C1E2FFE66AE66ABB
:102B4A00E66AE66A0DC100F00EC101F040EC00F041
:102B5A000101816B826B0251825D02E10151815D4B
:102B6A0021E2836B846B0001FF510101845D04E162
:102B7A000001FE510101835D12E20BC1E1FF0CC1AC
:102B8A00E2FF7FC1E6FF80C1E6FF09C100F00AC18A
:102B9A0001F040EC00F00101834B842BE4D7814B18
:082BAA00822BD9D78A8C12009E
:102BB200010E0101BC6F30C1BDF131C1BEF1BF6B6D
:102BC200C06BC16BC26BC36BC46BC6EC0DF030C182
:102BD200BCF131C1BDF1030EBE6FA2EC07F0C80E0D
:102BE2009F6F000EA06F040EA16F000EA26F3C0E2D
:102BF200A36F010EA46F160EA56F000EA66F25EC33
:102C020011F0D1DED20E316E000E326E040E336E32
:102C120030C09FF1000EA06F7F0EA16F010EA26F58
:102C220054DE1F0E9F6F000EA06F31C0A1F132C0A3
:0E2C3200A2F133C0A3F1000EA46F06DF120062
:102C40000450000A08E10550000A05E1FF0E006E7D
:102C50007F0E016E57D00D6A096A086A0150001094
:102C6000D8B4000C015005180A6E0ABE0D1E0B6A7E
:102C700005AE05D0041E051E042AD8B4052A01AEEF
:102C800005D0001E011E002AD8B4012A01500510EB
:102C90000A6E0ABE10D0ADDE0BB020D00DAE000C17
:102CA000001E011E002AD8B4012A081E091E082A87
:102CB000D8B4092A000C05AE0DD001BE07D00150D2
:102CC000096E0050086E016A006AE8D7016A006A5E
:102CD000002A000C011E001E0B2ADDD7082AD8B4DA
:102CE000092A0450085CD8A4D9D70550095CD8A497
:102CF000D5D7096A086A002AD8B4012A01AECED70E
:062D00000000FF0C1200B0
:102D0600010183517F5D016E84518059026E01C0BD
:102D160097F102C098F1800E0218006E800E005CDA
:102D260002E1000E015C17E297510008036E98C19C
:102D360004F0000E045687C101F088C102F0013686
:102D4600019002360250045C02E10150035C02E28B
:102D560066EF1DF00FD087C101F088C102F0013681
:102D6600019002360250985D02E10150975D02E241
:102D760066EF1DF08551815D016E86518259026EA6
:102D860001C097F102C098F1800E0218006E800E05
:102D9600005C02E1000E015C17E297510008036E29
:102DA60098C104F0000E045687C101F088C102F0F4
:102DB6000136019002360250045C02E10150035CC8
:102DC60002E266EF1DF00FD087C101F088C102F064
:102DD6000136019002360250985D02E10150975D7E
:102DE60002E266EF1DF003C19CF104C19DF112C120
:102DF6009EF1FCC003F1FDC004F1126B87518125E1
:102E0600006E88518221016E8751835D046E885160
:102E16008459056E0450005C8F6F05500158906F01
:102E260087517F25026E88518021036E0250005C17
:102E3600916F03500158926F8751855D006E8851DE
:102E46008659016E0250005C936F03500158946FCF
:102E56000450005C956F05500158966F1153D8B415
:102E660037EF1BF0FCC099F1FDC09AF1FBC09BF156
:102E76008D6B8E6B87C18BF188C18CF187C100F099
:102E860088C101F000360090013600C089F101C00A
:102E96008AF100500308896F01C08AF1000E8A5733
:102EA600010E8B25016E000E8C21026E800E8E198E
:102EB600006E800E0218005C02E101508D5DD8B0F4
:102EC6001BD39E53D8B44DD21351000AD8A424D193
:102ED60016C1BCF117C1BDF114C1BEF115C1BFF1D8
:102EE6008751855DC06F88518659C16F8B51C02748
:102EF6008C51C1238151C05F8251C15B8151855D77
:102F0600C26F82518659C36FA9EC07F000C0BCF1AD
:102F160001C0BDF1010E0101BE6FA2EC07F08751A1
:102F26007F25BC6F88518021BD6F8D51BC5F8E514E
:102F3600BD5B8751835DBE6F88518459BF6F8D51CC
:102F4600BE278E51BF238751855DC06F8851865934
:102F5600C16F8B51C0278C51C12349EC08F016C1B3
:102F6600BCF117C1BDF114C1BEF115C1BFF101011C
:102F760087518125C06F88518221C16F8B51C05FF7
:102F86008C51C15B8151C05F8251C15B8151855DAE
:102F9600C26F82518659C36FA9EC07F000C0BCF11D
:102FA60001C0BDF1010E0101BE6FA2EC07F0875111
:102FB6007F25BC6F88518021BD6F8D51BC5F8E51BE
:102FC600BD5B8751835DBE6F88518459BF6F8D513C
:102FD600BE278E51BF2387518125C06F885182211C
:102FE600C16F8B51C05F8C51C15B49EC08F016C1B3
:102FF600BCF117C1BDF114C1BEF115C1BFF101018C
:103006008751855DC06F88518659C16F8D51C02724
:103016008E51C1238151C05F8251C15B8151855D53
:10302600C26F82518659C36FA9EC07F000C0BCF18C
:1030360001C0BDF1010E0101BE6FA2EC07F0875180
:10304600855D006E88518659016E8B510024BC6FD8
:103056008C510120BD6F9551BC5F9651BD5B8B5164
:10306600005CBE6F8C510158BF6F9351BE5F945187
:10307600BF5B8D510024C06F8E510120C16F49EC9A
:1030860008F016C1BCF117C1BDF114C1BEF115C1DE
:10309600BFF1010187518125C06F88518221C16F1F
:1030A6008D51C05F8E51C15B8151C05F8251C15B42
:1030B6008151855DC26F82518659C36FA9EC07F0B5
:1030C60000C0BCF101C0BDF1010E0101BE6FA2EC52
:1030D60007F087518125006E88518221016E8B5140
:1030E600005CBC6F8C510158BD6F9151BC5F925111
:1030F600BD5B8B510024BE6F8C510120BF6F8F5179
:10310600BE5F9051BF5B8D51005CC06F8E51015800
:10311600C16F49EC08F024D116C1BCF117C1BDF14D
:1031260014C1BEF115C1BFF101018751835DC06FA6
:1031360088518459C16F8D51C0278E51C1237F514B
:10314600C05F8051C15B7F51835DC26F80518459DE
:10315600C36FA9EC07F000C0BCF101C0BDF1010EC0
:103166000101BE6FA2EC07F087518125BC6F885123
:103176008221BD6F8B51BC5F8C51BD5B8751855DD4
:10318600BE6F88518659BF6F8B51BE278C51BF23A6
:103196008751835DC06F88518459C16F8D51C02797
:1031A6008E51C12311EC0DF016C1BCF117C1BDF152
:1031B60014C1BEF115C1BFF1010187517F25C06F52
:1031C60088518021C16F8D51C05F8E51C15B7F5187
:1031D600C05F8051C15B7F51835DC26F805184594E
:1031E600C36FA9EC07F000C0BCF101C0BDF1010E30
:1031F6000101BE6FA2EC07F087518125BC6F885193
:103206008221BD6F8B51BC5F8C51BD5B8751855D43
:10321600BE6F88518659BF6F8B51BE278C51BF2315
:1032260087517F25C06F88518021C16F8D51C05F46
:103236008E51C15B11EC0DF016C1BCF117C1BDF189
:1032460014C1BEF115C1BFF101018751835DC06F85
:1032560088518459C16F8B51C0278C51C1237F512E
:10326600C05F8051C15B7F51835DC26F80518459BD
:10327600C36FA9EC07F000C0BCF101C0BDF1010E9F
:103286000101BE6FA2EC07F08751835D006E885185
:103296008459016E8D51005CBC6F8E510158BD6F13
:1032A6008F51BC279051BD238D510024BE6F8E5186
:1032B6000120BF6F9551BE279651BF238B51002425
:1032C600C06F8C510120C16F11EC0DF016C1BCF11D
:1032D60017C1BDF114C1BEF115C1BFF1010187517E
:1032E6007F25C06F88518021C16F8B51C05F8C5183
:1032F600C15B7F51C05F8051C15B7F51835DC26FEF
:1033060080518459C36FA9EC07F000C0BCF101C01D
:10331600BDF1010E0101BE6FA2EC07F087517F25BA
:10332600006E88518021016E8D510024BC6F8E5134
:103336000120BD6F9351BC279451BD238D51005C74
:10334600BE6F8E510158BF6F9151BE279251BF2358
:103356008B51005CC06F8C510158C16F11EC0DF0A0
:103366008FD09CC1FCF09DC1FDF0010E0001FB6FEA
:10337600010187517F25BC6F88518021BD6F8D511A
:10338600BC5F8E51BD5B8751835DBE6F885184598A
:10339600BF6F8D51BE278E51BF238751855DC06F8C
:1033A60088518659C16F8B51C0278C51C12349EC76
:1033B60008F0010187517F25BC6F88518021BD6FC0
:1033C6008D51BC5F8E51BD5B8751835DBE6F885149
:1033D6008459BF6F8D51BE278E51BF2387518125DA
:1033E600C06F88518221C16F8B51C05F8C51C15B08
:1033F60049EC08F001018751855D006E88518659B8
:10340600016E8B510024BC6F8C510120BD6F95510C
:10341600BC5F9651BD5B8B51005CBE6F8C510158F1
:10342600BF6F9351BE5F9451BF5B8D510024C06F37
:103436008E510120C16F49EC08F0010187518125A9
:10344600006E88518221016E8B51005CBC6F8C51DD
:103456000158BD6F9151BC5F9251BD5B8B510024E9
:10346600BE6F8C510120BF6F8F51BE5F9051BF5B05
:103476008D51005CC06F8E510158C16F49EC08F048
:10348600800E01018A19006E800E005C02E1000EBA
:10349600895D13E28DC100F08EC101F00036009007
:1034A6000136003600900136060E0026000E012277
:1034B6000050892701508A231CD08B518D5D036EE5
:1034C6008C518E59046E03C000F004C001F0003622
:1034D600009001360036009001360A0E0026000ED6
:1034E60001220050892701508A23010E8B5F000EAE
:1034F6008C5B8D4B8E2BD4D49E53D8B48BD013516A
:10350600000A44E1875181258B6F885182218C6F97
:103516008751855D016E88518659026E8C51025C19
:1035260002E18B51015C31E316C1BCF117C1BDF15B
:1035360014C1BEF115C1BFF181518B5DC06F8251BF
:103546008C59C16F8151855DC26F82518659C36F97
:10355600A9EC07F000C0BCF101C0BDF1010E0101EC
:10356600BE6FA2EC07F07FC1BCF180C1BDF183C183
:10357600BEF184C1BFF18BC1C0F18CC1C1F149EC70
:1035860008F001018B4B8C2BC3D743D087517F2585
:103596008D6F885180218E6F8751835D016E8851B2
:1035A6008459026E8E51025C02E18D51015C31E359
:1035B60016C1BCF117C1BDF114C1BEF115C1BFF1F1
:1035C6007F518D5DC06F80518E59C16F7F51835D74
:1035D600C26F80518459C36FA9EC07F000C0BCF1DB
:1035E60001C0BDF1010E0101BE6FA2EC07F081C161
:1035F600BCF182C1BDF185C1BEF186C1BFF18DC1ED
:10360600C0F18EC1C1F111EC0DF001018D4B8E2B75
:10361600C3D724D0875181258B6F885182218C6F27
:103626008751855D016E88518659026E8C51025C08
:1036360002E18B51015C12E37FC1BCF180C1BDF197
:1036460083C1BEF184C1BFF18BC1C0F18CC1C1F190
:1036560049EC08F001018B4B8C2BE2D799C1FCF0A9
:103666009AC1FDF09BC1FBF08D6B8E6B87C18BF110
:1036760088C18CF187C100F088C101F00036009046
:10368600013600C089F101C08AF100500308896F34
:1036960001C08AF1000E8A57010E8B25016E000EBD
:1036A6008C21026E800E8E19006E800E0218005C50
:1036B60002E101508D5DD8B063D187517F259F6FA0
:1036C60088518021A06F8D519F5F8E51A05B8751DD
:1036D600855DA16F88518659A26F8B51A1278C51A8
:1036E600A2230001FB050101A36FA46B000EA45BDE
:1036F600A433A333A49FA4BDA48F010EA56FD9EC58
:103706000DF08751835D9F6F88518459A06F8D514D
:103716009F278E51A0238751855DA16F88518659B9
:10372600A26F8B51A1278C51A2230001FB05010139
:10373600A36FA46B000EA45BA433A333A49FA4BD04
:10374600A48F010EA56FD9EC0DF087517F259F6FD1
:1037560088518021A06F8D519F5F8E51A05B87514C
:103766008125A16F88518221A26F8B51A15F8C5157
:10377600A25B0001FB050101A36FA46B000EA45B15
:10378600A433A333A49FA4BDA48F010EA56FD9ECC7
:103796000DF08751835D9F6F88518459A06F8D51BD
:1037A6009F278E51A02387518125A16F88518221A1
:1037B600A26F8B51A15F8C51A25B0001FB05010139
:1037C600A36FA46B000EA45BA433A333A49FA4BD74
:1037D600A48F010EA56FD9EC0DF08751855D006EA3
:1037E60088518659016E8B5100249F6F8C510120A0
:1037F600A06F95519F5F9651A05B8D510024A16FDC
:103806008E510120A26F0001FB050101A36FA46B7D
:10381600000EA45BA433A333A49FA4BDA48F010E02
:10382600A56FD9EC0DF08751855D006E88518659DC
:10383600016E8B51005C9F6F8C510158A06F9351A4
:103846009F5F9451A05B8D510024A16F8E51012082
:10385600A26F0001FB050101A36FA46B000EA45B20
:10386600A433A333A49FA4BDA48F010EA56FD9ECE6
:103876000DF087518125006E88518221016E8B5192
:10388600005C9F6F8C510158A06F91519F5F9251C0
:10389600A05B8D51005CA16F8E510158A26F000193
:1038A600FB050101A36FA46B000EA45BA433A33335
:1038B600A49FA4BDA48F010EA56FD9EC0DF087516E
:1038C6008125006E88518221016E8B5100249F6FE5
:1038D6008C510120A06F8F519F5F9051A05B8D513D
:1038E600005CA16F8E510158A26F0001FB0501011A
:1038F600A36FA46B000EA45BA433A333A49FA4BD43
:10390600A48F010EA56FD9EC0DF0800E8A19006EFA
:10391600800E005C02E1000E895D13E28DC100F0AD
:103926008EC101F000360090013600360090013657
:10393600060E0026000E01220050892701508A2318
:103946001CD08B518D5D036E8C518E59046E03C055
:1039560000F004C001F000360090013600360090F9
:1039660001360A0E0026000E01220050892701505A
:103976008A23010E8B5F000E8C5B8D4B8E2B8CD6B3
:1039860087517F259F6F88518021A06F81C1A1F14A
:1039960082C1A2F18751835DA36F88518459A46FB8
:1039A60081C1A5F182C1A6F1AEEC12F00001FBA126
:1039B60018D0010187517F259F6F88518021A06F04
:1039C60085C1A1F186C1A2F18751835DA36F88519C
:1039D6008459A46F85C1A5F186C1A6F1AEEC12F09B
:1039E6001DD0010187517F259F6F88518021A06FCF
:1039F600010E8525006E000E8621016E00C0A1F124
:103A060001C0A2F18751835DA36F88518459A46FC9
:103A160000C0A5F101C0A6F1AEEC12F07FC19FF186
:103A260080C1A0F1010187518125A16F88518221B2
:103A3600A26F7FC1A3F180C1A4F18751855DA56FF7
:103A460088518659A66FAEEC12F00001FBA118D082
:103A560083C19FF184C1A0F1010187518125A16F26
:103A660088518221A26F83C1A3F184C1A4F1875139
:103A7600855DA56F88518659A66FAEEC12F01DD0F4
:103A8600010E01018325006E000E8421016E00C027
:103A96009FF101C0A0F187518125A16F8851822134
:103AA600A26F00C0A3F101C0A4F18751855DA56F87
:103AB60088518659A66FAEEC12F09CC103F19DC1E8
:083AC60004F19EC112F112008F
:103ACE00086A080E0C6E003408360450085ED8B032
:0E3ADE0002D00826D89000360C2EF5D7120024
:103AEC0030C17FF131C180F175EC15F0010E9F6F83
:103AFC00000EA06F010EA16F000EA26F3F0EA36F00
:103B0C00010EA46FEF0EA56F000EA66F25EC11F041
:103B1C000A0EBC6F000EBD6F360EBE6F010EBF6F6E
:103B2C00190EC06F000EC16F49EC08F0D9EC15F0FE
:023B3C00120075
:103B3E000900F5CFE6FF0006FBE10106F9E11200F0
:103B4E00010E0101796F69C17EF17E337E9F7EC1C8
:103B5E0004F0000E056E3C0E006E010E016E20ECA0
:103B6E0016F06AC17CF1000E01017D6F7C377D3746
:103B7E007C917C51005C7A6F7D5101587B6F7AC1CC
:103B8E006CF17EC104F0D50E006E9ADF7C51005CA4
:103B9E00026E7DC103F0000E035602C06DF1020EDF
:103BAE006E6F000E6F6F190E726F020E006E000EAA
:103BBE00016E7A510026D8B0012A00C070F101C002
:103BCE0071F10250190F006E00C073F134C176F11D
:103BDE0035C177F136C174F137C175F16BC178F12A
:103BEE0074C1BCF175C1BDF16BC1BEF1A2EC07F0A1
:103BFE00010EBC6F76C1BDF177C1BEF1BF6BC06B5C
:103C0E00C16BC26BC36BC46BC6EC0DF0010E796F4A
:103C1E007951695D32E36A516E257F6F000E6F2117
:103C2E00806F6A517225816F826B000E822370C184
:103C3E0083F171C184F173C185F1000E866F0C0E94
:103C4E00876F000E886F83EC16F070C16EF171C134
:103C5E006FF101016C516A25006E016A000E01229E
:103C6E0000C070F101C071F173C172F16D516A251E
:103C7E00006E00C073F1792BCBD7D4EC14F0120088
:103C8E008A8A8A96000000000000000000008A86E2
:0A3C9E008CCF00F0000E016E120042
:103CA80001014C6B49C1E9FF4AC1EAFFEECF4BF174
:103CB8004B51000A0FE04BC1F8F12BEC00F0010169
:103CC8004C2B4C514925E96E000E4A21EA6EEECF85
:063CD8004BF1EED71200D3
:103CDE009C0E0C6ED70E0D6E0D2EFED70C2EFCD735
:023CEE001200C2
:103CF0004E0E0C6EEB0E0D6E0D2EFED70C2EFCD75D
:023D00001200AF
:103D0200070E0B6E170E0C6E6A0E0D6E0D2EFED781
:0C3D12000C2EFCD70B2EFAD7000012007C
:103D1E00530EF66E600EF76E000EF86E490EE16EE3
:103D2E00010EE26E200E006E010E016E01DF00012B
:103D3E00D351010A0FE1080E006E300EE16E010E36
:103D4E00E26E490EE96E010EEA6EEECFE6FF000658
:103D5E00FCE135D0D351020A0FE1080E006E300E91
:103D6E00E16E010EE26E510EE96E010EEA6EEECFBD
:103D7E00E6FF0006FCE123D0D351030A0FE1080E43
:103D8E00006E300EE16E010EE26E590EE96E010EFE
:103D9E00EA6EEECFE6FF0006FCE111D0D351040A25
:103DAE000EE1080E006E300EE16E010EE26E610E37
:103DBE00E96E010EEA6EEECFE6FF0006FCE1D4ECF2
:043DCE0014F01200DB
:103DD2008CDE040E696F0A0E6A6F020E6B6FB6DE1E
:023DE2001200CD
:103DE4000001FF5101014D5D04E10001FE5101019B
:103DF4004C5D01E34ED002514F5D02E101514E5D35
:103E040001E347D0506B516B4CC1BCF14DC1BDF1C6
:103E14004EC1BEF14FC1BFF1BDEC0DF0505149256B
:103E2400F66E51514A21F76E000E4B21F86E0900CF
:103E3400F5CF00F000522DE00001F35315E001012D
:103E440050514925F66E51514A21F76E000E4B210F
:103E5400F86E0900F5CFBCF1000EBD6FB3EC0AF0AB
:103E64000101504B512B14D0010150514925F66EDC
:103E740051514A21F76E000E4B21F86E0900F5CF1F
:103E8400BCF1000EBD6F65EC09F00101504B512BE4
:043E9400C5D712007C
:103E98008A9E939E8A8A939A8A8C939C93969398E7
:103EA8008A868A882ADF8A8E28DF27DF8A9C2EC1A5
:103EB800E1FF2FC1E2FF010EE66E2CC100F02DC11B
:103EC80001F040EC00F010DF2EC1E1FF2FC1E2FF4E
:103ED800280EE66E2CC100F02DC101F040EC00F078
:103EE8002EC1E1FF2FC1E2FFCF0EE66E2CC100F01C
:103EF8002DC101F040EC00F022C1E1FF23C1E2FF37
:103F0800E66A20C100F021C101F040EC00F022C1B6
:103F1800E1FF23C1E2FF830EE66E20C100F021C15C
:103F280001F040EC00F022C1E1FF23C1E2FF300EB6
:103F3800E66E20C100F021C101F040EC00F02EC176
:103F4800E1FF2FC1E2FFED0EE66E2CC100F02DC19E
:103F580001F040EC00F022C1E1FF23C1E2FF640E52
:103F6800E66E20C100F021C101F040EC00F022C152
:103F7800E1FF23C1E2FF030EE66E20C100F021C17C
:103F880001F040EC00F022C1E1FF23C1E2FF120E74
:103F9800E66E20C100F021C101F040EC00F022C122
:103FA800E1FF23C1E2FF810EE66E20C100F021C1CE
:103FB80001F040EC00F02EC1E1FF2FC1E2FFE80E56
:103FC800E66E2CC100F02DC101F040EC00F022C1DA
:103FD800E1FF23C1E2FF850EE66E20C100F021C19A
:103FE80001F040EC00F022C1E1FF23C1E2FF010E25
:103FF800E66E20C100F021C101F040EC00F022C1C2
:10400800E1FF23C1E2FF790EE66E20C100F021C175
:1040180001F040EC00F02EC1E1FF2FC1E2FFCB0E12
:10402800E66E2CC100F02DC101F040EC00F022C179
:10403800E1FF23C1E2FF390EE66E20C100F021C185
:1040480001F040EC00F022C1E1FF23C1E2FF2C0E99
:10405800E66E20C100F021C101F040EC00F022C161
:10406800E1FF23C1E2FFE66A20C100F021C101F0AF
:1040780040EC00F022C1E1FF23C1E2FF340EE66EFE
:1040880020C100F021C101F040EC00F022C1E1FFA5
:1040980023C1E2FF020EE66E20C100F021C101F04B
:1040A80040EC00F02EC1E1FF2FC1E2FFF70EE66EF3
:1040B8002CC100F02DC101F040EC00F022C1E1FF5D
:1040C80023C1E2FF200EE66E20C100F021C101F0FD
:1040D80040EC00F02EC1E1FF2FC1E2FFEA0EE66ED0
:1040E8002CC100F02DC101F040EC00F022C1E1FF2D
:1040F80023C1E2FFE66A20C100F021C101F040ECD3
:1041080000F022C1E1FF23C1E2FFE66A20C100F00E
:1041180021C101F040EC00F02EC1E1FF2FC1E2FF08
:10412800C00EE66E2CC100F02DC101F040EC00F08D
:1041380022C1E1FF23C1E2FF260EE66E20C100F096
:1041480021C101F040EC00F02EC1E1FF2FC1E2FFD8
:10415800C10EE66E2CC100F02DC101F040EC00F05C
:1041680022C1E1FF23C1E2FF110EE66E20C100F07B
:1041780021C101F040EC00F02EC1E1FF2FC1E2FFA8
:10418800C50EE66E2CC100F02DC101F040EC00F028
:1041980022C1E1FF23C1E2FF350EE66E20C100F027
:1041A80021C101F040EC00F022C1E1FF23C1E2FF90
:1041B8003E0EE66E20C100F021C101F040EC00F097
:1041C8002EC1E1FF2FC1E2FFC70EE66E2CC100F041
:1041D8002DC101F040EC00F022C1E1FF23C1E2FF54
:1041E800BE0EE66E20C100F021C101F040EC00F0E7
:1041F8002EC1E1FF2FC1E2FF360EE66E2CC100F0A2
:104208002DC101F040EC00F00001D4515A0A1EE122
:104218004CEC00F000520DE022C1E1FF23C1E2FFA7
:10422800880EE66E20C100F021C101F040EC00F0DC
:104238000CD022C1E1FF23C1E2FF480EE66E20C187
:1042480000F021C101F040EC00F01DD04CEC00F072
:1042580000520DE022C1E1FF23C1E2FFE80EE66E45
:1042680020C100F021C101F040EC00F00CD022C1C7
:10427800E1FF23C1E2FF280EE66E20C100F021C154
:1042880001F040EC00F02EC1E1FF2FC1E2FF3A0E31
:10429800E66E2CC100F02DC101F040EC00F022C107
:1042A800E1FF23C1E2FF550EE66E20C100F021C1F7
:1042B80001F040EC00F02EC1E1FF2FC1E2FFB10E8A
:1042C800E66E2CC100F02DC101F040EC00F022C1D7
:1042D800E1FF23C1E2FFE66A20C100F021C101F03D
:1042E80040EC00F022C1E1FF23C1E2FF1B0EE66EA5
:1042F80020C100F021C101F040EC00F02EC1E1FF27
:104308002FC1E2FFF20EE66E2CC100F02DC101F0C4
:1043180040EC00F022C1E1FF23C1E2FF080EE66E87
:1043280020C100F021C101F040EC00F02EC1E1FFF6
:104338002FC1E2FF260EE66E2CC100F02DC101F060
:1043480040EC00F022C1E1FF23C1E2FF010EE66E5E
:1043580020C100F021C101F040EC00F02EC1E1FFC6
:104368002FC1E2FFE00EE66E2CC100F02DC101F076
:1043780040EC00F022C1E1FF23C1E2FF1F0EE66E10
:1043880020C100F021C101F040EC00F022C1E1FFA2
:1043980023C1E2FF1A0EE66E20C100F021C101F030
:1043A80040EC00F022C1E1FF23C1E2FF180EE66EE7
:1043B80020C100F021C101F040EC00F022C1E1FF72
:1043C80023C1E2FF0A0EE66E20C100F021C101F010
:1043D80040EC00F022C1E1FF23C1E2FF0F0EE66EC0
:1043E80020C100F021C101F040EC00F022C1E1FF42
:1043F80023C1E2FF060EE66E20C100F021C101F0E4
:1044080040EC00F022C1E1FF23C1E2FF450EE66E59
:1044180020C100F021C101F040EC00F022C1E1FF11
:1044280023C1E2FF870EE66E20C100F021C101F032
:1044380040EC00F022C1E1FF23C1E2FF320EE66E3C
:1044480020C100F021C101F040EC00F022C1E1FFE1
:1044580023C1E2FF0A0EE66E20C100F021C101F07F
:1044680040EC00F022C1E1FF23C1E2FF070EE66E37
:1044780020C100F021C101F040EC00F022C1E1FFB1
:1044880023C1E2FF020EE66E20C100F021C101F057
:1044980040EC00F022C1E1FF23C1E2FF070EE66E07
:1044A80020C100F021C101F040EC00F022C1E1FF81
:1044B80023C1E2FF050EE66E20C100F021C101F024
:1044C80040EC00F022C1E1FF23C1E2FFE66A20C10F
:1044D80000F021C101F040EC00F02EC1E1FF2FC136
:1044E800E2FFE10EE66E2CC100F02DC101F040ECB8
:1044F80000F022C1E1FF23C1E2FFE66A20C100F01B
:1045080021C101F040EC00F022C1E1FF23C1E2FF2C
:10451800250EE66E20C100F021C101F040EC00F04C
:1045280022C1E1FF23C1E2FF270EE66E20C100F0A1
:1045380021C101F040EC00F022C1E1FF23C1E2FFFC
:10454800050EE66E20C100F021C101F040EC00F03C
:1045580022C1E1FF23C1E2FF100EE66E20C100F088
:1045680021C101F040EC00F022C1E1FF23C1E2FFCC
:10457800090EE66E20C100F021C101F040EC00F008
:1045880022C1E1FF23C1E2FF3A0EE66E20C100F02E
:1045980021C101F040EC00F022C1E1FF23C1E2FF9C
:1045A800780EE66E20C100F021C101F040EC00F069
:1045B80022C1E1FF23C1E2FF4D0EE66E20C100F0EB
:1045C80021C101F040EC00F022C1E1FF23C1E2FF6C
:1045D800050EE66E20C100F021C101F040EC00F0AC
:1045E80022C1E1FF23C1E2FF180EE66E20C100F0F0
:1045F80021C101F040EC00F022C1E1FF23C1E2FF3C
:104608000D0EE66E20C100F021C101F040EC00F073
:1046180022C1E1FF23C1E2FF380EE66E20C100F09F
:1046280021C101F040EC00F022C1E1FF23C1E2FF0B
:104638003A0EE66E20C100F021C101F040EC00F016
:1046480022C1E1FF23C1E2FF1F0EE66E20C100F088
:1046580021C101F040EC00F02EC1E1FF2FC1E2FFC3
:104668002A0EE66E2CC100F02DC101F040EC00F0DE
:1046780022C1E1FF23C1E2FFE66A20C100F021C1A7
:1046880001F040EC00F022C1E1FF23C1E2FFE66A3D
:1046980020C100F021C101F040EC00F0010E000142
:1046A800FE5D036E000EFF59046E04C000F0016A3F
:1046B80022C1E1FF23C1E2FF00C0E6FF20C100F0F4
:1046C80021C101F040EC00F00001FE05006E22C19E
:1046D800E1FF23C1E2FF00C0E6FF20C100F021C1D5
:1046E80001F040EC00F02EC1E1FF2FC1E2FF2B0EDC
:1046F800E66E2CC100F02DC101F040EC00F022C1A3
:10470800E1FF23C1E2FFE66A20C100F021C101F008
:1047180040EC00F022C1E1FF23C1E2FFE66A20C1BC
:1047280000F021C101F040EC00F0010E0101015D33
:10473800036E000E0259046E04C000F0016A22C123
:10474800E1FF23C1E2FF00C0E6FF20C100F021C164
:1047580001F040EC00F001010105006E22C1E1FF0B
:1047680023C1E2FF00C0E6FF20C100F021C101F033
:1047780040EC00F02EC1E1FF2FC1E2FFB70EE66E5C
:104788002CC100F02DC101F040EC00F022C1E1FF86
:1047980023C1E2FF070EE66E20C100F021C101F03F
:1047A80040EC00F02EC1E1FF2FC1E2FFB60EE66E2D
:1047B8002CC100F02DC101F040EC00F022C1E1FF56
:1047C80023C1E2FF0A0EE66E20C100F021C101F00C
:1047D80040EC00F022C1E1FF23C1E2FF820EE66E49
:1047E80020C100F021C101F040EC00F022C1E1FF3E
:1047F80023C1E2FF270EE66E20C100F021C101F0BF
:1048080040EC00F022C1E1FF23C1E2FFE66A20C1CB
:1048180000F021C101F040EC00F02EC1E1FF2FC1F2
:10482800E2FF110EE66E2CC100F02DC101F040EC44
:1048380000F081EC1EF02EC1E1FF2FC1E2FF290E2E
:10484800E66E2CC100F02DC101F040EC00F081ECC7
:104858001EF02EC1E1FF2FC1E2FF2C0EE66E2CC127
:0E48680000F02DC101F040EC00F08A8C12002F
:0648760034C000F0120046
:10487C008A9E939E8A8A939A8A8C939C93969398F9
:10488C008A868A888A8E6FEC1EF08A9E81EC1EF0D6
:10489C008A8E81EC1EF06FEC1EF06FEC1EF08A9C81
:1048AC002EC1E1FF2FC1E2FF110EE66E2CC100F00C
:1048BC002DC101F040EC00F081EC1EF06FEC1EF00D
:1048CC006FEC1EF02EC1E1FF2FC1E2FF360EE66E3B
:1048DC002CC100F02DC101F040EC00F022C1E1FF31
:1048EC0023C1E2FFE66A20C100F021C101F040ECD7
:1048FC0000F02EC1E1FF2FC1E2FF3A0EE66E2CC193
:10490C0000F02DC101F040EC00F022C1E1FF23C109
:10491C00E2FF050EE66E20C100F021C101F040EC73
:10492C0000F02EC1E1FF2FC1E2FFB20EE66E2CC1EA
:10493C0000F02DC101F040EC00F022C1E1FF23C1D9
:10494C00E2FF0C0EE66E20C100F021C101F040EC3C
:10495C0000F022C1E1FF23C1E2FF0C0EE66E20C184
:10496C0000F021C101F040EC00F022C1E1FF23C1B5
:10497C00E2FFE66A20C100F021C101F040EC00F03A
:10498C0022C1E1FF23C1E2FF330EE66E20C100F02D
:10499C0021C101F040EC00F022C1E1FF23C1E2FF94
:1049AC00330EE66E20C100F021C101F040EC00F0A6
:1049BC002EC1E1FF2FC1E2FFB70EE66E2CC100F055
:1049CC002DC101F040EC00F022C1E1FF23C1E2FF58
:1049DC00700EE66E20C100F021C101F040EC00F039
:1049EC002EC1E1FF2FC1E2FFBB0EE66E2CC100F021
:1049FC002DC101F040EC00F022C1E1FF23C1E2FF28
:104A0C001B0EE66E20C100F021C101F040EC00F05D
:104A1C002EC1E1FF2FC1E2FFC00EE66E2CC100F0EB
:104A2C002DC101F040EC00F022C1E1FF23C1E2FFF7
:104A3C002C0EE66E20C100F021C101F040EC00F01C
:104A4C002EC1E1FF2FC1E2FFC20EE66E2CC100F0B9
:104A5C002DC101F040EC00F022C1E1FF23C1E2FFC7
:104A6C00010EE66E20C100F021C101F040EC00F017
:104A7C002EC1E1FF2FC1E2FFC30EE66E2CC100F088
:104A8C002DC101F040EC00F022C1E1FF23C1E2FF97
:104A9C000B0EE66E20C100F021C101F040EC00F0DD
:104AAC002EC1E1FF2FC1E2FFC40EE66E2CC100F057
:104ABC002DC101F040EC00F022C1E1FF23C1E2FF67
:104ACC00270EE66E20C100F021C101F040EC00F091
:104ADC002EC1E1FF2FC1E2FFC60EE66E2CC100F025
:104AEC002DC101F040EC00F022C1E1FF23C1E2FF37
:104AFC000F0EE66E20C100F021C101F040EC00F079
:104B0C002EC1E1FF2FC1E2FFD00EE66E2CC100F0EA
:104B1C002DC101F040EC00F022C1E1FF23C1E2FF06
:104B2C00A40EE66E20C100F021C101F040EC00F0B3
:104B3C0022C1E1FF23C1E2FFA10EE66E20C100F00D
:104B4C0021C101F040EC00F02EC1E1FF2FC1E2FFCA
:104B5C00E00EE66E2CC100F02DC101F040EC00F02F
:104B6C0022C1E1FF23C1E2FFD00EE66E20C100F0AE
:104B7C0021C101F040EC00F022C1E1FF23C1E2FFB2
:104B8C00060EE66E20C100F021C101F040EC00F0F1
:104B9C0022C1E1FF23C1E2FF0B0EE66E20C100F043
:104BAC0021C101F040EC00F022C1E1FF23C1E2FF82
:104BBC00090EE66E20C100F021C101F040EC00F0BE
:104BCC0022C1E1FF23C1E2FF080EE66E20C100F016
:104BDC0021C101F040EC00F022C1E1FF23C1E2FF52
:104BEC00300EE66E20C100F021C101F040EC00F067
:104BFC0022C1E1FF23C1E2FF300EE66E20C100F0BE
:104C0C0021C101F040EC00F022C1E1FF23C1E2FF21
:104C1C005B0EE66E20C100F021C101F040EC00F00B
:104C2C0022C1E1FF23C1E2FF4B0EE66E20C100F072
:104C3C0021C101F040EC00F022C1E1FF23C1E2FFF1
:104C4C00180EE66E20C100F021C101F040EC00F01E
:104C5C0022C1E1FF23C1E2FF140EE66E20C100F079
:104C6C0021C101F040EC00F022C1E1FF23C1E2FFC1
:104C7C00140EE66E20C100F021C101F040EC00F0F2
:104C8C0022C1E1FF23C1E2FF2C0EE66E20C100F031
:104C9C0021C101F040EC00F022C1E1FF23C1E2FF91
:104CAC00320EE66E20C100F021C101F040EC00F0A4
:104CBC002EC1E1FF2FC1E2FFE10EE66E2CC100F028
:104CCC002DC101F040EC00F022C1E1FF23C1E2FF55
:104CDC00D00EE66E20C100F021C101F040EC00F0D6
:104CEC0022C1E1FF23C1E2FF050EE66E20C100F0F8
:104CFC0021C101F040EC00F022C1E1FF23C1E2FF31
:104D0C000A0EE66E20C100F021C101F040EC00F06B
:104D1C0022C1E1FF23C1E2FF0A0EE66E20C100F0C2
:104D2C0021C101F040EC00F022C1E1FF23C1E2FF00
:104D3C00070EE66E20C100F021C101F040EC00F03E
:104D4C0022C1E1FF23C1E2FF280EE66E20C100F074
:104D5C0021C101F040EC00F022C1E1FF23C1E2FFD0
:104D6C00320EE66E20C100F021C101F040EC00F0E3
:104D7C0022C1E1FF23C1E2FF2C0EE66E20C100F040
:104D8C0021C101F040EC00F022C1E1FF23C1E2FFA0
:104D9C00490EE66E20C100F021C101F040EC00F09C
:104DAC0022C1E1FF23C1E2FF180EE66E20C100F024
:104DBC0021C101F040EC00F022C1E1FF23C1E2FF70
:104DCC00130EE66E20C100F021C101F040EC00F0A2
:104DDC0022C1E1FF23C1E2FF130EE66E20C100F0F9
:104DEC0021C101F040EC00F022C1E1FF23C1E2FF40
:104DFC002C0EE66E20C100F021C101F040EC00F059
:104E0C0022C1E1FF23C1E2FF330EE66E20C100F0A8
:104E1C0021C101F040EC00F02EC1E1FF2FC1E2FFF7
:104E2C00210EE66E2CC100F02DC101F040EC00F01B
:104E3C002EC1E1FF2FC1E2FF2A0EE66E2CC100F05D
:104E4C002DC101F040EC00F022C1E1FF23C1E2FFD3
:104E5C00E66A20C100F021C101F040EC00F022C153
:104E6C00E1FF23C1E2FFE66A20C100F021C101F09D
:104E7C0040EC00F0FFC000F0016A22C1E1FF23C149
:104E8C00E2FF00C0E6FF20C100F021C101F040ECC0
:104E9C0000F022C1E1FF23C1E2FFFEC0E6FF20C10A
:104EAC0000F021C101F040EC00F02EC1E1FF2FC158
:104EBC00E2FF2B0EE66E2CC100F02DC101F040EC90
:104ECC0000F022C1E1FF23C1E2FFE66A20C100F03D
:104EDC0021C101F040EC00F022C1E1FF23C1E2FF4F
:104EEC00E66A20C100F021C101F040EC00F002C1E3
:104EFC0000F0016A22C1E1FF23C1E2FF00C0E6FF1E
:104F0C0020C100F021C101F040EC00F022C1E1FF12
:104F1C0023C1E2FF01C1E6FF20C100F021C101F075
:104F2C0040EC00F02EC1E1FF2FC1E2FF360EE66E21
:104F3C002CC100F02DC101F040EC00F00001D45167
:104F4C005A0A1DE14CEC00F000520DE022C1E1FFC9
:104F5C0023C1E2FFC00EE66E20C100F021C101F0BA
:104F6C0040EC00F00BD022C1E1FF23C1E2FFE66A66
:104F7C0020C100F021C101F040EC00F01DD04CEC40
:104F8C0000F000520DE022C1E1FF23C1E2FFA00EB0
:104F9C00E66E20C100F021C101F040EC00F00CD015
:104FAC0022C1E1FF23C1E2FF600EE66E20C100F0DA
:104FBC0021C101F040EC00F02EC1E1FF2FC1E2FF56
:104FCC00290EE66E2CC100F02DC101F040EC00F072
:104FDC002EC1E1FF2FC1E2FF2C0EE66E2CC100F0BA
:0C4FEC002DC101F040EC00F08A8C120096
:104FF800AECF01F0ABA202D0AB98AB8801C000F0F5
:02500800120094
:10500A0001013C6B3D6B3E6B3F6B8A9E939E8A9A75
:10501A00939A8A8C939C939693988A868A888A8E86
:10502A00070E0B6E170E0C6E6A0E0D6E0D2EFED746
:10503A000C2EFCD70B2EFAD700008A9C2EC1E1FF5A
:10504A002FC1E2FF040EE66E2CC100F02DC101F063
:10505A0040EC00F0FF0E956E47EC1EF047EC1EF098
:10506A00FF0E0016000E011600C005F001C006F082
:10507A00000E076E086E07C003F006C002F005C0F6
:10508A0001F0006A005001013C1301503D13025027
:10509A003E1303503F1347EC1EF0FF0E0016000E9E
:1050AA00011600C005F001C006F0000E076E086E7A
:1050BA0006C003F005C002F0006A016A00503C1302
:1050CA0001503D1302503E1303503F1347EC1EF0AC
:1050DA00FF0E0016000E011600C005F001C006F012
:1050EA00000E076E086E05C003F0006A016A026AC4
:1050FA003C5100123D5101123E5102123F5103121E
:10510A0000C03CF101C03DF102C03EF103C03FF1D5
:06511A008A8C956A120068
:10512000360E0101496F000E4A6F54EC1EF05B0E03
:10513000496F000E4A6F54EC1EF0720E496F000E5C
:105140004A6F54EC1EF08A0E496F000E4A6F54EC01
:045150001EF012003B
:0A51540000C1F8F12BEC00F012008E
:10515E00928892860001ED9580B804D0EDA501D01D
:06516E0001D0FAD7120087
:1051740001013C6B3D6B050E3E6F000E3F6F2C0E24
:10518400406F010E416FD50E426FEE0E436F1F0E3E
:10519400446F000E456F466B476B486BFF0E7F6F85
:1051A400FF0E806F75EC15F0020E316E000E326E3C
:1051B400020E336EBC6BBD6B020EBE6FA2EC07F029
:1051C40031C09FF132C0A0F133C0A1F1000EA26F33
:1051D4002A0E3124A36F010E3220A46F3C0E332417
:1051E400A56FA66B000EA62325EC11F0050E316EFB
:1051F400000E326E050E336EF80ED66F560ED76F54
:10520400000ED86F000ED96FF80EDA6FDB6BA9ECC5
:1052140005F08B0E0101496F600E4A6F000E4B6F53
:1052240031C04CF132C04DF133C04EF1000E4F6F1E
:10523400F2EC1EF0140E3324006E00C033F0730E33
:10524400496F600E4A6F000E4B6F31C04CF132C093
:105254004DF100C04EF1000E4F6FF2EC1EF0140E33
:105264003324006E00C033F0270E496F600E4A6F7E
:10527400000E4B6F31C04CF132C04DF100C04EF105
:10528400000E4F6FF2EC1EF0020E316E000E326E05
:105294001F0EBC6F000EBD6F020EBE6FA2EC07F0B6
:1052A4003EC19FF13FC1A0F142C1A1F1000EA26F26
:1052B400030E4025A36F000E4121A46F43C1A5F145
:1052C400000EA66F25EC11F0020E0B6ED40E0C6EC0
:1052D400850E0D6E0D2EFED70C2EFCD70B2EFAD795
:1052E400010EBC6F46C1BDF147C1BEF1BF6BC06BBF
:1052F400C16BC26BC36BC46BC6EC0DF0050E3C6F87
:10530400000E3D6F010E3D5D02E12D0E3C5D23E27A
:105314003CC19FF13DC1A0F142C1A1F1000EA26FB9
:10532400020E3E5DA36F000E3F59A46F3C51A327AC
:105334003D51A42343C1A5F1000EA66F25EC11F045
:105344009C0E0C6ED70E0D6E0D2EFED70C2EFCD7B8
:105354003C4B3D2BD7D75C0E0B6E510E0C6E600E82
:105364000D6E0D2EFED70C2EFCD70B2EFAD7000097
:02537400120025
:105376000DD0010E0001D36F8FEC1EF0E9EC1EF08C
:105386000001D36B010EF26F08D007D00001F25175
:0C539600000AEFE0F251010AF8E01200FA
:1053A200F28ED08EF28CF28C9E9A9D8A9F8AF28A1D
:1053B200F294F194F288F292F19CF088F092F09ECD
:0453C200F18812005C
:1053C600929A899A96908D9096928D9296948D94B3
:1053D60093809482948094908B9092809282120013
:1053E6000001CE5306E1320ECE6FED91F292F288B5
:0453F6008B90120086
:0A53FA00F2980001ED818B80120093
:0C540400F9DD00C000F10001ED83120092
:0C541000F29EF29CA4DEF28EF28C1200E0
:10541C003BEC24F00050010A19E0640E01012C6FE2
:10542C00000E2D6FF80E2E6F010E2F6F720E206F67
:10543C00000E216FF80E226F010E236F9E0E096F66
:10544C00000E0A6FE40E0B6F010E0C6F010138C1D8
:10545C00FEF039C1FFF03AC101F13BC102F13B5101
:10546C00395D02E13A51385D03E30001D46B03D09E
:10547C0000015A0ED46F0101BC6BBD6B010EBE6FE7
:10548C00A2EC07F0BC6BBD6BBE6BBF6BC06BC16B92
:10549C00C26BC36BC46BC6EC0DF0BC6BBD6BBE6B4F
:1054AC00BF6BBDEC0DF00001F36B956AA8DD0350EA
:1054BC00520A08E10250850A05E10150850A02E111
:1054CC000050000A0CE13EEC24F0A00E01010D6F1F
:1054DC00060E0E6FE40E0F6F010E106F0BD04CEC1E
:1054EC001FF0F80E01010D6F050E0E6FE40E0F6F1D
:0654FC00010E106F12000A
:1055020018D00DDE36DE010E0001FA6F28D032DF30
:10551200EDA302D0050EFA6F22D021D020D01FD0E9
:10552200EDA303D016DE0001ED93010EFA6F17D042
:1055320016D00001FA51000AE4E0FA51010AE7E04C
:10554200FA51020AEAE0FA51030AE8E0FA51040ABF
:10555200E6E0FA51050AE4E0FA51060AE9E012002F
:085562000001FA6BF26B12006C
:10556A00560E0101186F000E196FF80E1A6F010E10
:10557A001B6FF80E1C6F4F0E1D6F000E1E6F000E74
:10558A001F6FFF0E246FFF0E256F000E266F000E91
:10559A00276FFF0E286FFF0E296F000E2A6F000E6D
:1055AA002B6FAC8A900EAB6E948E949C9EAA03D0FD
:0855BA00AECF00F0FBD7120098
:1055C200D59CD59AD598D596D590D592D594D58E89
:0A55D200900ED66EE80ED76E1200A0
:1055DC0051EC30F00D0EC16EF70E6D166F8600019A
:1055EC00ED93ED91EADED7DEE6DFB886B06AD50E34
:1055FC00AF6EAC84B4DF400E386F010E396FF00E15
:10560C003A6F000E3B6F04DFFDDEA5DF360E0101A5
:10561C00F86F39EC00F0280EE46F000EE56F4FECDC
:08562C0000F069DFFED7FFD793
:1056340000C01BF001C01AF002C019F003C018F03A
:10564400156ED8CF16F0E0CF17F0F2A421D0F29463
:10565400900ED66EE80ED76E010E0001CF25006EB7
:10566400000ED021016E000ED121026E000ED22157
:10567400036E00C0CFF001C0D0F002C0D1F003C06F
:10568400D2F0EDA104D0CE05006E00C0CEF0A9DEAC
:10569400F0B2F0921750E06E1650D86E153A1538E5
:1056A4001BC000F01AC001F019C002F018C003F0CA
:0256B4001000E4
:1056B60000C01DF001C01CF09EAA02D09E9A9FDE7B
:1056C600F2A212D0F29282A007D00001D351010FAC
:1056D600006E00C0D3F007D082B005D00001D3051C
:1056E600006E00C0D3F086DE1DC000F01CC001F0C5
:0256F6001100A1
:1060A20010EE1EF0B70E006E010E016E700EF66E4F
:0E60B2005F0EF76E000EF86E9FEC1DF01200F0
:1056F800000020007F0010000188010003980100CD
:1057080005A8010008B8010007C801000DD801006C
:105718000AF80100031802000528020005380200F3
:1057280007480200095802000378020005880200B1
:105738000398020006A8020007B8020007C8020082
:1057480007D8020007E8020007F80200070803006C
:105758000718030007280300073803000748030059
:10576800035803000368030009780300099803003D
:1057780009B8030006D8030009E803000908040073
:1057880007280400073804000848040006580400E5
:1057980006680400077804000888040004980400D8
:1057A80005A8040007B8040006C804000AD80400C5
:1057B80007F8040008080500071805000828050070
:1057C8000838050007480500065805000768050061
:1057D800087805000C88050008A8050008B8050029
:1057E80006C8050005D8050006E8050005F8050007
:1057F80009080600082806000538060007480600BC
:10580800075806000668060007780600078806009D
:105818000598060007A8060007B8060002C8060093
:1058280003D8060006E8060002F806000A08070082
:105838000728070007380700074807000758070028
:10584800056807000678070005880700079807001D
:1058580007A807000AB8070006D8070007E80700E6
:1058680006F80700060808000418080006280800BB
:105878000A3808000B58080000000000000000006B
:1058880000000000000000000000000006060606F8
:1058980006060006060000000000001B1B1B1B007C
:1058A8000000000000000000000000004848FEFE64
:1058B800247F7F1212000000000008083E4B0B0BEB
:1058C8003E6868693E08080000000000000000000B
:1058D8001E0033023301B3005E0FA0199019881916
:1058E800000F0000000000000000000000000000A1
:1058F8003C006600660066003C036603C601C600FD
:10590800BC030000000000000000000606060600B8
:105918000000000000000000000000180C0C060643
:1059280006060606060C0C18000000060C0C1818D3
:1059380018181818180C0C06000000185A3C5A18A9
:10594800000000000000000000000000000000004F
:105958000000200020002000FC0120002000200082
:10596800000000000000000000000000000000002F
:10597800000000060603030000000000000000000D
:105988001F000000000000000000000000000000F0
:10599800000000060600000000000020201010088B
:1059A8000804040202010100000000003E63636372
:1059B800636363633E00000000000000181E1818AF
:1059C800181818187E000000000000003E61616091
:1059D80030180C067F000000000000003E61606087
:1059E8003C6060613E000000000000003038343246
:1059F800317F303030000000000000007E06063E97
:105A0800606060613E000000000000003C06033F4B
