:020000040000FA
:04000000EEEF2DF002
:105B72004001F00005508FEC2FF004508FEC2FF015
:105B8200120001500302F3CF05F0F4CF06F00150EA
:105B92000402F350062602500302F350062605C003
:105BA20001F006C002F012002B0E13EC30F005508B
:105BB2008FEC2FF004508FEC2FF02C0E13EC30F002
:105BC2002A0E13EC30F007508FEC2FF006508FECBA
:105BD2002FF02C0E13EC30F01200720EF66E5B0EEC
:105BE200F76E000EF86E00EE37F010EE04F00900CA
:105BF200F5CFEEFFE550E150FAE100EE2FF0080E8E
:105C0200EE6AE806FDE1000EF86E0001B7EF2EF035
:105C12002A0E13EC30F005508FEC2FF004508FEC6D
:105C22002FF007508FEC2FF006508FEC2FF02B0E39
:105C320013EC30F009508FEC2FF008508FEC2FF05E
:105C42000B508FEC2FF00A508FEC2FF02C0E13EC30
:105C520030F01200000E056E000E046E39C006F020
:105C62003AC007F0000E096E000E086E37C00AF047
:105C720038C00BF009EC2EF0000E0F6E000E0E6E07
:105C82005EEF2EF0000E116E000E106E51EF2EF030
:105C92000CC004F00DC005F0BBEC2DF0104A112A27
:105CA2003950105C3A501158D8A05AEF2EF05CEFE0
:105CB2002EF049EF2EF00E4A0F2A37500E5C385064
:105CC2000F58D8A067EF2EF069EF2EF043EF2EF0B9
:105CD20012001DC00CF01EC00DF01FC00EF020C03F
:105CE2000FF023C010F024C011F025C012F026C01E
:105CF20013F028EC31F021501D240C6E22501E208E
:105D02000D6E1FC00EF020C00FF023C010F024C093
:105D120011F025C012F026C013F028EC31F01DC09E
:105D22000CF01EC00DF01FC00EF020C00FF021C0FD
:105D320010F022C011F025C012F026C013F097EC2B
:105D420030F01DC00CF01EC00DF023501F240E6E4B
:105D5200245020200F6E21C010F022C011F025C067
:105D620012F026C013F097EC30F01200C290000E31
:105D7200956E000E836E08EC33F0000E0D6E000E71
:105D82000C6E2BEC2EF0000E1E6EAA0E1D6E000E77
:105D9200206E640E1F6EEE0E216E7F0E226EFF0EBF
:105DA200246EE00E236E000E266E000E256E1FEC92
:105DB2002FF0000E1E6E0A0E1D6E000E206E140EC7
:105DC2001F6ED90E216E7F0E226EF80E246E000E0B
:105DD200236E000E266E000E256E1FEC2FF0000EB5
:105DE2000D6E960E0C6E000E0F6E1E0E0E6E000ED7
:105DF200116E780E106E000E136E140E126E000EDF
:105E0200156E1F0E146E59EC32F0000E1E6E320E1D
:105E12001D6E000E206E500E1F6E000E226E3C0E86
:105E2200216E000E246EB40E236E070E266E2568B8
:105E32006AEC2EF01BEF2FF000EF00F080EF2FF056
:105E4200000E2E6E000E2D6E000E2C6E000E2B6EAE
:105E520042EF2FF0AB0E2D24F66E750E2E20F76E4C
:105E62000800F550276E286AD89027362836010E8A
:105E72002726000E282227502D2628502E222B4A74
:105E82002C2AE00E276EFF0E286E21C0F6FF22C0DC
:105E9200F7FF0800F550296E2A6A27502926285054
:105EA2002A2229502B5C2A502C58D8A05BEF2FF0C5
:105EB2005DEF2FF02BEF2FF01DC008F01EC009F090
:105EC2001FC00AF020C00BF02DC00CF02EC00DF048
:105ED20023C00EF024C00FF025C010F026C011F030
:105EE200B9EC31F0AB0E2D24F66E750E2E20F76E46
:105EF2000800F5501D26000E1E22214A222A21C02A
:105F0200F6FF22C0F7FF0800F5500009D8A48CEF75
:105F12002FF08EEF2FF021EF2FF01200036E8194FD
:105F2200939481869396818A939A8182939281989F
:105F3200939803C001F0010E011683500118FE0B65
:105F42000118836E03C001F0D8900132010E0116D0
:105F5200014683500118FD0B0118836E03C001F046
:105F6200D8900132D8900132010E01160146014645
:105F720083500118FB0B0118836E03C001F0D89007
:105F82000132D8900132D8900132010E0116014639
:105F92000146014683500118F70B0118836E03C0B6
:105FA20001F0013A0F0E0116010E0116013A83505B
:105FB2000118EF0B0118836E03C001F0050E026E8B
:105FC200D8900132022EE1EF2FF0010E0116013AB4
:105FD200014683500118DF0B0118836E03C001F0E4
:105FE200060E026ED8900132022EF3EF2FF0010E50
:105FF2000116013A0146014683500118BF0B0118F0
:10600200836E016A03AE01D0012A010E011601322C
:106012000132835001187F0B0118836E81888186BB
:1060220081841200036E81949394818A939A81826F
:106032009392819693968198939803C001F0010EF2
:10604200011683500118FE0B0118836E03C001F084
:10605200D8900132010E0116014683500118FD0B42
:106062000118836E03C001F0D8900132D89001323A
:10607200010E01160146014683500118FB0B01185F
:10608200836E03C001F0D8900132D8900132D890CB
:106092000132010E011601460146014683500118E4
:1060A200F70B0118836E03C001F0013A0F0E0116BF
:1060B200010E0116013A83500118EF0B0118836E8D
:1060C20003C001F0050E026ED8900132022E65EF78
:1060D20030F0010E0116013A014683500118DF0B20
:1060E2000118836E03C001F0060E026ED8900132D1
:1060F200022E77EF30F0010E0116013A01460146F9
:1061020083500118BF0B0118836E016A03AE01D0E0
:10611200012A010E011601320132835001187F0B50
:106122000118836E818881868184120039500C5C4B
:106132003A500D58D8B0A0EF30F0A2EF30F027EF70
:1061420031F037500E5C38500F58D8A0ABEF30F01A
:10615200ADEF30F0AFEF30F027EF31F0FF0E146EFD
:10616200FF0E156E10500C24166E11500D20176E76
:1061720014501626155017223950165C3A501758EB
:10618200D8A0C6EF30F0C8EF30F0CEEF30F00C50B0
:10619200395C106E0D503A58116E0CC004F00DC0EF
:1061A20005F010500C24146E11500D20156EFF0EC8
:1061B2001424066EFF0E1520076E0EC008F00FC0E5
:1061C20009F0010E0E240A6E000E0F200B6E09EC70
:1061D2002EF0000E1C6E000E1B6E000E1A6E000ECC
:1061E200196EFCEF30F012C004F013C005F0BBECE6
:1061F2002DF0194A1A2AFF0E146EFF0E156E10C0EA
:1062020016F011C017F0145016261550172216500A
:10621200195C1A50800A186E1750800A1858D8A0B4
:1062220015EF31F017EF31F0F4EF30F01B4A1C2A72
:106232001CBE25EF31F01C5009E1020E1B5CD8A0F8
:1062420025EF31F027EF31F0EEEF30F01200395048
:106252000C5C3A500D58D8B031EF31F033EF31F0D9
:10626200B8EF31F037500E5C38500F58D8A03CEFE1
:1062720031F03EEF31F040EF31F0B8EF31F0FF0E88
:10628200146EFF0E156E10500E24166E11500F2054
:10629200176E14501626155017223750165C3850B8
:1062A2001758D8A057EF31F059EF31F05FEF31F0C6
:1062B2000E50375C106E0F503858116E0CC004F03F
:1062C2000DC005F0010E0C24066E000E0D20076EA7
:1062D2000EC008F00FC009F010500E24146E1150B9
:1062E2000F20156EFF0E14240A6EFF0E15200B6E82
:1062F20009EC2EF0000E1A6E000E196E9DEF31F0B1
:10630200000E1C6E000E1B6E12C004F013C005F0CE
:10631200BBEC2DF01B4A1C2A1CBE99EF31F01C501D
:1063220009E1020E1B5CD8A099EF31F09BEF31F02E
:1063320085EF31F0194A1A2AFF0E146EFF0E156E00
:1063420010C016F011C017F014501626155017225F
:106352001650195C1A50800A186E1750800A185885
:10636200D8A0B6EF31F0B8EF31F081EF31F0120082
:10637200AB0E0C24F66E750E0D20F76E0800F5506C
:10638200020DF3CF12F0F4CF13F00C501224186E5A
:106392000D501320196E000E1A6E48EF32F0AB0E3C
:1063A2000C24F66E750E0D20F76E0800F550126E75
:1063B200136A1A50125E000E135A08501224046E09
:1063C20009501320056E0AC006F00BC007F0D5EC89
:1063D2002DF0000E1B6E000E1C6E1AC001F0026A38
:1063E200FF0E046EFE0E036EC2EC2DF0AB0E126EAB
:1063F200750E136E01501226025013221B50125EAC
:10640200000E135A185012261950132212C0F6FF0A
:1064120013C0F7FF0800F5CF14F01CC015F0800E72
:10642200166E000E176E152A1AEF32F01734173255
:106432001632152E17EF32F0165014140009D8B484
:1064420025EF32F027EF32F02FEF32F00EC004F0DA
:106452000FC005F0BBEC2DF035EF32F010C004F0A8
:1064620011C005F0BBEC2DF01C2A070E1C643CEF9A
:1064720032F03EEF32F0EEEF31F01B2A010E1B64D8
:1064820045EF32F047EF32F0ECEF31F01A2AAB0E63
:106492000C24F66E750E0D20F76E0900F5501A5C8D
:1064A200D8A056EF32F058EF32F0D0EF31F01200B0
:1064B20039500C5C3A500D58D8B062EF32F064EFAC
:1064C20032F007EF33F037500E5C38500F58D8A037
:1064D2006DEF32F06FEF32F071EF32F007EF33F021
:1064E200FF0E166EFF0E176E10500C24186E115010
:1064F2000D20196E16501826175019223950185CA3
:106502003A501958D8A088EF32F08AEF32F090EF63
:1065120032F00C50395C106E0D503A58116EFF0E6D
:10652200166EFF0E176E12500E24186E13500F20A7
:10653200196E16501826175019223750185C385009
:106542001958D8A0A7EF32F0A9EF32F0AFEF32F02E
:106552000E50375C126E0F503858136E0CC004F098
:106562000DC005F010500C24166E11500D20176E40
:10657200FF0E1624066EFF0E1720076E0EC008F0DF
:106582000FC009F012500E24186E13500F20196E0E
:10659200FF0E18240A6EFF0E19200B6E09EC2EF066
:1065A20012C00EF013C00FF00FBEE2EF32F00F5028
:1065B20006E10E04D8B0E0EF32F0E2EF32F0E4EFA1
:1065C20032F007EF33F010C00CF011C00DF00DBE29
:1065D200F5EF32F00D5006E10C04D8B0F3EF32F0D3
:1065E200F5EF32F0F7EF32F002EF33F014C004F0BF
:1065F20015C005F0BBEC2DF00C06D8A00D06E8EF97
:1066020032F00E06D8A00F06D5EF32F012008182CA
:1066120093928184939481869396818A939A8188B6
:106622009398818293920D0E056E2D0E046ED80EF4
:10663200E82EFED7042EFCD7052EFAD781920D0E36
:10664200056E2D0E046ED80EE82EFED7042EFCD752
:10665200052EFAD781820D0E056E2D0E046ED80E10
:10666200E82EFED7042EFCD7052EFAD7010E13EC26
:1066720030F00D0E056E2D0E046ED80EE82EFED7EC
:10668200042EFCD7052EFAD7280E13EC30F0C00EDC
:1066920013EC30F0260E8FEC2FF0C10E13EC30F01D
:1066A200110E8FEC2FF0C50E13EC30F05C0E8FEC58
:1066B2002FF04C0E8FEC2FF0C70E13EC30F0940E2F
:1066C2008FEC2FF0360E13EC30F0480E8FEC2FF0DB
:1066D2003A0E13EC30F0550E8FEC2FF0B10E13EC96
:1066E20030F0000E8FEC2FF01B0E8FEC2FF0F20E1D
:1066F20013EC30F0080E8FEC2FF0260E13EC30F076
:10670200010E8FEC2FF0E00E13EC30F01F0E8FEC29
:106712002FF01A0E8FEC2FF0180E8FEC2FF00A0EBE
:106722008FEC2FF00F0E8FEC2FF0060E8FEC2FF068
:10673200450E8FEC2FF0870E8FEC2FF0320E8FEC80
:106742002FF00A0E8FEC2FF0070E8FEC2FF0020EB7
:106752008FEC2FF0070E8FEC2FF0050E8FEC2FF041
:10676200000E8FEC2FF0E10E13EC30F0000E8FECE8
:106772002FF0250E8FEC2FF0270E8FEC2FF0050E49
:106782008FEC2FF0100E8FEC2FF0090E8FEC2FF004
:106792003A0E8FEC2FF0780E8FEC2FF04D0E8FEC1F
:1067A2002FF0050E8FEC2FF0180E8FEC2FF00D0E40
:1067B2008FEC2FF0380E8FEC2FF03A0E8FEC2FF07B
:1067C2001F0E8FEC2FF02A0E13EC30F0000E8FEC20
:1067D2002FF0000E8FEC2FF0000E8FEC2FF0EF0E4B
:1067E2008FEC2FF02B0E13EC30F0000E8FEC2FF00D
:1067F200000E8FEC2FF0010E8FEC2FF03F0E8FEC7E
:106802002FF0200E13EC30F0B70E13EC30F0070E21
:106812008FEC2FF0B60E13EC30F00A0E8FEC2FF047
:10682200820E8FEC2FF0270E8FEC2FF0000E8FECE4
:106832002FF0110E13EC30F0080E056E9D0E046E53
:10684200060EE82EFED7042EFCD7052EFAD7290E07
:1068520013EC30F0080E056E9D0E046E060EE82E47
:10686200FED7042EFCD7052EFAD72C0E13EC30F0EF
:106872000D0E056E2D0E046ED80EE82EFED7042ED8
:10688200FCD7052EFAD71200000000C0FFFF01005E
:10689200000000FEFFFF3F000000E0FFFFFFFF03DC
:1068A2000000F8FFFFFFFF0F0000FEFFFFFFFF3FAA
:1068B2000000FFFFFFFFFF7F00C0FF3F0000FEFF61
:1068C20001E0FF010000C0FF03F03F00000000FEF6
:1068D20007F00F00000000F807F80300000000E0D6
:1068E2000FFC0100000000C01FFC0000000000803F
:1068F2001F7E0000000000003F7E0000000000003C
:106902003F3E0000000000003E3F0000000000008B
:106912007E1F0000000000007C1F0000000000003D
:106922007C1F0000000000007C1F0000000000002F
:106932007C1F0000000000007C1F0000000000001F
:106942007C1F0000000000007C3F000000000000EF
:106952003E3E0000000000003E7E000000000000FD
:106962003FFC0000000000801FFC000000000080CF
:106972001FF80300000000C00FF80700000000F03D
:106982000FF01F00000000FC07E07F00000000FF86
:1069920003C0FF030000E0FF0180FF7F0000FFFF54
:1069A2000000FFFFFFFFFF7F0000FCFFFFFFFF1F54
:1069B2000000F0FFFFFFFF070000C0FFFFFFFF0125
:1069C200000000FEFFFF3F0000000080FFFF00000C
:1069D20000000000000000000000000000000000B5
:1069E20000000000000000000000000000000000A5
:1069F2000000000000000000000000000000000095
:106A02000000000000000000000000000000000084
:106A12000000000000000000000000000000000074
:106A22000020000000000000003000000000000014
:106A32000038000000000000003E000000000000DE
:106A4200003E000000000000003E000000000000C8
:106A5200003E000000000000003E000000000000B8
:106A6200003E000000000000003E000000000000A8
:106A720000FEFFFFFFFFFFFF3FFEFFFFFFFFFFFFE5
:106A82003FFEFFFFFFFFFFFF3FFEFFFFFFFFFFFF96
:106A92003FFEFFFFFFFFFFFF3FFEFFFFFFFFFFFF86
:106AA2003F000000000000000000000000000000A5
:106AB20000000000000000000000000000000000D4
:106AC20000000000000000000000000000000000C4
:106AD20000000000000000000000000000000000B4
:106AE20000000000000000000000000000000000A4
:106AF2000000000000000000000000000000000094
:106B02000000000000000000000000000000000083
:106B12000000000000000000000000000000000073
:106B22000000000000000000000000000000000063
:106B3200200000000000000030008007000000007C
:106B42003800F007000000003C00FC0700000000D5
:106B52003E00FF07000000003F80FF0700000080AA
:106B62003FC0FF07000000C03FE0FF00000000E060
:106B72003FF01F00000000F03FF80700000000F89F
:106B82003FF80100000000FC3FFC0000000000FF95
:106B92003FFC0000000080FF3E7E00000000C07F3E
:106BA2003E3E00000000E03F3E3E00000000F01FBD
:106BB2003E3F00000000F8073E1F00000000FC03FB
:106BC2003E1F00000000FE013E1F00000000FF000B
:106BD2003E1F000000807F003E1F000000C03F00FB
:106BE2003E1F000000E01F003E1F000000F80F00E3
:106BF2003E3F000000FC07003E3E000000FE030096
:106C02003E7E000000FF01003E7E000080FF00008B
:106C12003EFC0000E03F00003EFC0100F01F0000CF
:106C22003EF80300FC0F00003EF80F00FE070000D4
:106C32003EF03FC0FF0300003EE0FFFFFF00000008
:106C42003EC0FFFF7F0000003E80FFFF3F000000CC
:106C52003E00FEFF0F0000003E00F8FF03000000B0
:106C62003E00C07F000000003E0000000000000067
:106C72003E00000000000000000000000000C00014
:106C8200000000000000C007000060000000C01FFC
:106C9200000078000000C07F00007E000000C0FFFE
:106CA20000807F000000C0FF01C07F00000000FFE5
:106CB20003E07F00000000FC07F03F00000000F04E
:106CC2000FF80F00000000C00FF803000000008062
:106CD2001FFC0100000000801FFC000000000000FB
:106CE2003F7E0000000000003E3E00000000000069
:106CF2003E3E0000000000007E3F00000000000059
:106D02007C1F00003E0000007C1F00003E000000CF
:106D12007C1F00003E0000007C1F00003E000000BF
:106D22007C1F00003E0000007C1F00007F0000006E
:106D32007C1F00007F0000007C3F00007F000000FD
:106D42007C3E00807F0000003E3E0080FF0000008D
:106D52003E7E00C0FF0000003FFC00C0FF010000BB
:106D62001FFC01E0FF0100801FF803F0FF0300C0D9
:106D72001FF80FFCF30700E00FF0FFFFF30F00F026
:106D820007E0FFFFE13F00FC07C0FFFFC0FF00FF7D
:106D92000380FF7FC0FFFFFF0100FE1F80FFFFFF98
:106DA2000000F00700FEFF3F0000000000FCFF1F94
:106DB2000000000000F0FF07000000000080FF005C
:106DC2000000000000000000000000000000800041
:106DD200000000000000C000000000000000F00001
:106DE200000000000000F800000000000000FE00AB
:106DF200000000000000FF000000000000C0FF00D3
:106E02000000000000E0FF000000000000F0FF00B2
:106E12000000000000FCFF000000000000FEFF0078
:106E22000000000080FFF90000000000C0FFF80031
:106E320000000000F07FF80000000000F81FF800DA
:106E420000000000FE0FF80000000000FF03F80041
:106E5200000000C0FF01F800000000E07F00F80021
:106E6200000000F83F00F800000000FC0F00F800EE
:106E7200000000FE0700F800000080FF0100F8009B
:106E82000000C0FF0000F8000000F03F0000F80022
:106E92000000F81F0000F8000000FE0F0000F800DC
:106EA2000000FF030000F80000C0FFFFFFFFFFFF2C
:106EB2003FE0FFFFFFFFFFFF3FF8FFFFFFFFFFFF86
:106EC2003FFCFFFFFFFFFFFF3FFFFFFFFFFFFFFF53
:106ED2003FFFFFFFFFFFFFFF3F0000000000F80041
:106EE200000000000000F800000000000000F800B0
:106EF200000000000000F800000000000000F800A0
:106F0200000000000000F800000000000000F8008F
:106F120000000000000000000000000000008001EE
:106F2200000000000000800F000000000000803F11
:106F320000000000000080FF00000000000080FF51
:106F420001000000000080FF03000000300000FE8E
:106F5200070000801F0000F80F0000FC1F0000E087
:106F62000F00E0FF1F0000C01F00FFFF0F000080A6
:106F72001FF8FFFF0F0000003FFEFFFF0F000000A1
:106F82003FFEFFFF0F0000003EFEFF8307000000F0
:106F92007EFE3F80070000007CFE01C0070000006B
:106FA2007C3E00C0070000007C3E00C007000000DD
:106FB2007C3E00C0070000007C3E00C007000000CD
:106FC2007C3E00C0070000007C3E00C007000000BD
:106FD2007C3E00C0070000007E3E00C00F000000A3
:106FE2003E3E00800F0000003F3E00800F00000088
:106FF2003F3E00801F0000801F3E00803F0000C017
:107002001F3E00007F0000E00F3E0000FF0000F086
:107012000F3E0000FE0100F8073E0000FC0300FEE8
:10702200033E0000F81FC0FF033E0000F8FFFFFF11
:10703200013E0000E0FFFF7F003E0000C0FFFF3F77
:10704200003E000080FFFF0F0000000000FCFF0375
:107052000000000000E07F000000000000000000CF
:10706200000000000000000000000000000000001E
:107072000000000000000000000000000000FF010E
:107082000000000000E0FF0F0000000000F8FF3FDA
:107092000000000000FEFF7F0000000080FFFFFFF5
:1070A20001000000E0FFFFFF03000000F0FF01FE0F
:1070B20007000000FC7F00F807000000FE1F00E050
:1070C2000F000000FF0F00C01F0000C0FF0700807C
:1070D2001F0000E0FF0300003F0000F8FF03000074
:1070E2003F0000FCFF0100003E0000FFF70100002E
:1070F2007E0080FFF90000007C00C0FFF800000065
:107102007C00F03FF80000007C00F81FF80000004F
:107112007C00FE07F80000007C00FF03F80000007E
:107122007CC0FF01F80000007CE07F00F801000055
:107132007CF03F00F80100003EFC0F00F801000067
:107142003EFE0700F00300003FFF0100F0030000D5
:107152001FFE0000F00700801F7E0000E00F00C04D
:107162001F1C0000C01F00E00F0C0000C07F00F8D1
:107172000700000080FF01FE0700000000FFFFFF84
:107182000300000000FEFFFF0100000000FCFF7F83
:107192000000000000F8FF3F0000000000E0FF0FC9
:1071A200000000000000FF010000000000000000DD
:1071B20000000000000000000000000000000000CD
:1071C20000000000000000000000000000000000BD
:1071D200003E000000000000003E00000000000031
:1071E200183E0000000000003E3E0000000000804B
:1071F2003F3E0000000000E03F3E0000000000F8BB
:107202007F3E0000000000FE3F3E0000000080FFC5
:107212000F3E00000000E0FF033E00000000F8FF08
:10722200003E00000000FE3F003E00000000FF0F95
:10723200003E000000C0FF03003E000000F0FF001F
:10724200003E000000FC7F00003E000000FF1F0027
:10725200003E0000C0FF0700003E0000F0FF0100FA
:10726200003E0000FC7F0000003E0000FF1F000007
:10727200003E00C0FF070000003E00F0FF010000DA
:10728200003E00FC7F000000003E00FF1F000000E7
:10729200003EC0FF07000000003EF0FF01000000BA
:1072A200003EFC7F00000000003EFE1F00000000C8
:1072B20000BEFF070000000000FEFF01000000000A
:1072C20000FEFF000000000000FE3F000000000082
:1072D20000FE0F000000000000FE0300000000009E
:1072E20000FE000000000000003E00000000000060
:1072F200000E00000000000000020000000000007C
:107302000000000000000000000000000000FE017C
:107312000000000000C0FF0F0000000000E0FF3F7F
:107322000000F00F00F8FF7F0000FC3F00FCFFFFB1
:107332000100FFFF00FEFFFF0380FFFF01FF03FECE
:1073420007E0FFFF03FF00F807F0FFFF873F00E0C1
:107352000FF00FF88F1F00C01FF803E0CF0F00805F
:107362001FFC01C0FF0700003FFC0080FF0300007C
:107372003F7E0000FF0300003E3E0000FE010000D1
:107382003E3E0000FC0100007E3F0000FC010000C8
:107392007C1F0000F80000007C1F0000F8000000C5
:1073A2007C1F0000F80000007C1F0000F8000000B5
:1073B2007C1F0000F80000007C1F0000F8000000A5
:1073C2007C1F0000F80000007C3F0000FC00000071
:1073D2007C3E0000FC0100007E3E0000FE01000039
:1073E2003E7E0000FE0300003EFC0000FF030000A2
:1073F2003FFC0180FF0700801FF803E0DF0F0080E1
:107402001FF00FF8CF1F00C01FF0FFFF873F00F0F3
:107412000FE0FFFF037F00F807C0FFFF01FF03FE3D
:107422000700FFFF00FEFFFF0300FC3F00FCFFFF21
:107432000100F00F00F8FF7F0000000000F0FF3FA6
:107442000000000000C0FF0F000000000000FE016D
:1074520000000000000000000000C07F00000000EB
:107462000000F8FF030000000000FEFF0F00000014
:107472000000FFFF1F00000000C0FFFF3F000000F0
:1074820000E0FFFF7F00000000F03FC0FF000000AF
:1074920000F00F00FF01000018F80300FC010000DB
:1074A2001CFC0100F80300003FFC0000F007008014
:1074B2003F7C0000E00700C07F7E0000E00700F094
:1074C2003F3E0000C00F00F81F3E0000C00F00FE4C
:1074D200071F0000C00F00FF031F0000800FC0FF46
:1074E200011F0000800FE07F001F0000800FF03FAF
:1074F200001F0000800FFC0F001F0000800FFE071E
:10750200001F0000808FFF01001F000080CFFF00DE
:10751200003F0000C0F77F00003E0000C0FF1F00D8
:10752200007E0000E0FF0F00007E0000E0FF03008D
:1075320000FC0000F0FF010000FC0100F87F0000E9
:1075420000F80300FC3F000000F00F00FF1F0000E6
:1075520000F03FC0FF07000000E0FFFFFF03000054
:1075620000C0FFFFFF0000000000FFFF3F0000001F
:107572000000FEFF0F0000000000F8FF0300000003
:107582000000C07F000000000000000000000000BA
:1075920000000000000000000000000000000000E9
:1075A20000000000000000000004000000000000D5
:1075B2000000030000FE1B0000051E00000000008A
:1075C2001E0000000B00001001101DF0031E011030
:1075D20001101DF0031E01100100000900041C0827
:1075E20022104210FF7F42108410000F00000C1C7A
:1075F200002210220822061C01C000200E181104CD
:10760200110211000E00000B0000000E1C11A2104E
:10761200C21022111C0A000C000C00120000030010
:10762200001E0000000600000000E01F1C60028037
:10763200000004000006C0F83F0000062400180005
:107642007E001800240000000900008000800080F5
:1076520000F007800080008000000004000000604D
:1076620000180000050001000100010001000004F3
:107672000000001800180000080000004000380058
:1076820007E0001C000200000009F80704080210CD
:107692000210021002100408F807000006000000A1
:1076A2000002000200FE1F00000918100418021454
:1076B20002120211821044103810000009080C0452
:1076C200100210421042104410B8080007000009CE
:1076D200000200038002600210020802FE1F000284
:1076E200000009000470082E1022102210221042FD
:1076F20008820700000900000007C0086010581047
:1077020044108208000700000900000210020C0267
:1077120003C20032000E00020000000900079808B0
:10772200641042104210641098080007000009001B
:10773200003800441082088204820384007800002A
:1077420000040000301830180000040000306030DF
:107752001800000A00008000800040012002200280
:1077620010041004080800000A0000200120012073
:10777200012001200120012001200100000A000057
:10778200080810041004200220024001800080003A
:1077920000000800000C0082014202221A221A9CF8
:1077A2000100000E0000F00308040408C2112212B6
:1077B20012121212E211121204120809F00400004D
:1077C2000D00000010000E800160011C0102011C6E
:1077D2000160018001000E0010000009000000009D
:1077E200FE1F4210421064109808000700000D00AE
:1077F20000F0030804040802100210021002100232
:107802001004080408080400000C00000000FE1F19
:107812000210021002100210021004080804F00301
:1078220000000900000000FE1F42104210421042F8
:1078320010421000000800000000FE1F420042003B
:107842004200420000000E0000F003080404080297
:107852001002100210021082108410840888048022
:107862000300000A00000000FE1F4000400040002C
:1078720040004000FE1F00000400000000FE1F0048
:10788200000700000008001000100008FE070000BA
:107892000900000000FE1F600090010802040C02B3
:1078A2001000000800000000FE1F00100010001071
:1078B200001000000F0000001CF80306003800C092
:1078C20001000E0010000EC00138000600F803008F
:1078D2001C00000B00000000FE1F080030004000EA
:1078E200800000030004FE1F00000E0000F00308E9
:1078F2000404080210021002100210021002100406
:10790200080804F00300000900000000FE1F420006
:10791200420042002400180000000E0000F003089C
:1079220004040802100210021002110212020C04D6
:10793200080816F02100000A00000000FE1F4200A5
:10794200C200420142062408181000000800041870
:1079520008241042104210840808070000080200A0
:1079620002000200FE1F02000200020000000A00E4
:10797200000000FE0700080010001000100008FEC2
:107982000700000C02001C0060008001000E0010C5
:10799200000E800160001C00020000000F000006C3
:1079A20000780080070018800778000600780080C1
:1079B200070018800778000600000009000006187A
:1079C20008043003C00030030804061800000B004E
:1079D200000200040018006000801F60001800040C
:1079E2000002000000080210021C0213C210321032
:1079F2000E10021000000600000000FEFF028002CE
:107A02008000000A02000C001000600080010006E5
:107A1200000800300040000005000002800280FEE5
:107A2200FF00000B00000002800170000C00020049
:107A32000C007000800100020000090040004000BC
:107A420040004000400040004000400000050000AF
:107A520000000200040000000B0000C00720081014
:107A62001010101010101010102008F01F00000B42
:107A72000000FE1F2008101010101010101010101F
:107A82002008C00700000A0000C0072008101010DC
:107A920010101010102008400400000B0000C00756
:107AA2002008101010101010101010102008FE1FC7
:107AB20000000A0000C00720091011101110111057
:107AC200112009C00500000600001000FC1F120072
:107AD200120000000B0000C02720481090109010E8
:107AE20090109010902048F03F00000A0000FE1F06
:107AF200200010001000100010002000C01F000025
:107B0200030000F61F0000030080F67F000008005B
:107B120000FE1F0001800240042008101000000334
:107B22000000FE1F00000F0000F01F2000100010D8
:107B32000010002000C01F200010001000100020C4
:107B420000C01F00000A0000F01F200010001000FB
:107B5200100010002000C01F00000A0000C0072013
:107B62000810101010101010102008C00700000B91
:107B72000000F0FF2008101010101010101010104C
:107B82002008C00700000B0000C0072008101010DA
:107B9200101010101010102008F0FF000006000056
:107BA200F01F200010001000000006600890101066
:107BB200111011200E000007000010001000FE1F1F
:107BC2001000100000000A0000F00700080010007A
:107BD20010001000100008F00700000A10006000FA
:107BE2008003000C0010000C8003600010000000F5
:107BF2000E1000E000000700180007E0001000E08F
:107C020000000700180007E0001000000009101033
:107C12002008400480038003400420081010000064
:107C2200091000E0000083007C000C0003E000105B
:107C3200000000081010101810161011D01030108B
:107C42001010000007000000018002FC7E0280028A
:107C52008000000700000000000000000000FEFF9E
:107C620000000602800280FC7E8002000100000A01
:107C72000000800040004000400080008000800042
:107C82004000000005FF0F01080108FF0F0000007F
:107C920000000000FC1F0080FFFF00E003E003F093
:107CA2000080073800000E1800000C1C00001C0C9D
:107CB2000000180C0000180C0000180C0000180C32
:107CC2000000181800000C1800000C30000006F02C
:107CD200008007C007F00180FFFF0000FC1F0000CA
:107CE2000000000000000000000000000000000092
:107CF20000000000000000080000000C0000000C62
:107D02000000000C000000FCFFFF1FFCFFFF1F0033
:107D12000000000000000000000000000000000061
:107D22000000000000000000000000000000000051
:107D320000000000000000000000000000000080C1
:107D4200030010C0030018F000001C3000001E18D1
:107D520000001B180080190C00C0180C0060180CE1
:107D62000030180C0018180C000C180C0006181C17
:107D72000003181880011838C0001870700018E04D
:107D82003F0018800F0018000000000000000000F3
:107D920000C0008000C003E00080077000000638C9
:107DA20000000C1800000C1C0000180C0000180C3D
:107DB2006000180C6000180C6000180C6000180CB1
:107DC200F0001818F0000C38F8010C70FC0106E005
:107DD2009F8703C007FF0100007C00000000000035
:107DE2000000000000400000006000000070000081
:107DF200007C0000006E000000630000C061000013
:107E0200E0600000306000001C6000000E600000B6
:107E1200036000C0016000E0006000F8FFFF1FFC8B
:107E2200FFFF1F0000600000006000000060000013
:107E3200000000000000000000C0000000C00300BD
:107E42000000070030000E003F000CF01F001CFC79
:107E52001800180C1800180C1800180C1800180C30
:107E62001800180C18001C0C30000C0C30000E0C02
:107E72006000070CE0C1030C80FF0100007E0000DF
:107E820000000000000000000000000000000000F0
:107E920000FC000000FF030080070700E0010E0065
:107EA200F0010C00D8001C00CE001800C70018809A
:107EB200C10018E0C0001870C000181880011C0C26
:107EC20080010C0000030E000007070000FE030003
:107ED20000F80000000000000000000000000000A8
:107EE200000000000000000C0000100C00001C0C40
:107EF20000000F0C0080030C00E0010C0078000C65
:107F0200001E000C8007000CC001000CF000000CE9
:107F12003C00000C0F0000CC030000EC0000007CD1
:107F22000000001C0000000400000000000000002F
:107F32000000000000F8008007FE03E01F0F07703A
:107F420038030E38F0010C18E0010C1CE000180C8C
:107F5200C000180CC000180CC000180CC000180C8F
:107F6200C000180CE0001818E0010C38F0010C7089
:107F7200380306E01F0F07800FFE030000F8000021
:107F82000000000000000000000000800F0000E080
:107F92003F0000707000003860000018C000101C24
:107FA200C000180C80010E0C8001070C8081010CAE
:107FB20080E1000C8071001C801D0018800F0038C9
:107FC200C0030070F00100E07F0000801F0000008D
:107FD20000000000000000436F6E74726F6C6164F9
:107FE2006F723A20496C69393334310041677573D5
:0D7FF20074696E205A756C69616E6900003B
:020000040020DA
:08000000FFFFFFFFFFFFFFFF00
:020000040030CA
:0E000000044E181EFF8081FF0FC00FE00F405E
:00000001FF
