:020000040000FA
:060000000A128A1110280B
:10000800FE00030EF0000A08F100831203137F08B4
:10001800F2000A128A152F2B0A128A111328831349
:10002800D030FD001030FE00FA30FF00C8308400E8
:100038000A168A1135210A128A116C30FD00103017
:10004800FE00E530FF00663084000A168A1135216B
:100058000A128A11A0308400BD300A168A11F220D3
:10006800E001E101E201E301E401E501F601F70144
:10007800F801F90183010A168A11DB2A8312031396
:10008800BB002D30FF007F08B4002C08B0002B08FF
:10009800AF00AB0A0319AC0A3008FF002F08840030
:1000A8000A128A1100250A128A11FF007F08BA0075
:1000B8003A0803191C2A25303A0603196F283A080A
:1000C800FF003B0884007F08831380000130FF0095
:1000D8007F08BB074928B801B901B7017A28371545
:1000E8000130AB070318AC0A0030AC072C08FF003E
:1000F8002B0884000A128A1100250A128A11AF00FF
:10010800B0013008003A03198A288F282F08303A9E
:10011800031973288F282C08FF002B0884000A1263
:100128008A1100250A128A110A168A1114210A1244
:100138008A11031CE62883120313B801B9010A3097
:1001480083120313A7000030A8003908AA00380852
:10015800A9000A168A11C3210A128A1183120313ED
:100168002808B9002708B8002C08FF002B088400CD
:100178000A128A1100250A128A11D03EAF00FF30F8
:1001880003180030B0002F08B8070318B90A300860
:10019800B9070130AB070318AC0A0030AC072C08CC
:1001A800FF002B0884000A128A1100250A128A11FE
:1001B8000A168A1114210A128A11031CE628A32898
:1001C80037170E29831203132C08B0002B08AF0031
:1001D800AB0A0319AC0A3008FF002F0884000A1282
:1001E8008A1100250A128A11BA00B100B201320838
:1001F800003A0319002949283108003A03191C2A32
:10020800643A03190E290D3A03190E291C3A0319E9
:10021800E4284928371B2829340884008313000858
:10022800B500840A0008B6000230FF007F08B40752
:10023800B61F34290330FF007F08B704B509B60993
:10024800B50A0319B60A3429340884008313000850
:10025800B500840A0008B6000230FF007F08B40722
:10026800BA01BA0A3A08AF002F07123E8400853057
:100278000318013EFF000A128A1100250A128A118A
:10028800B0000A128A1100250A128A11B100310839
:100298003602031D512930083502031C5B29013041
:1002A800FF007F08BA0705303A06031D36293808CB
:1002B8003904031969293708033903196929FF30F3
:1002C800B8070318B90AFF30B9073908803A803CE3
:1002D800031D702938083A0203187E298312031374
:1002E8003A08AF00B0012F08B8023008031CB90360
:1002F800B902822983120313B801B901371DA9294C
:1003080037080339031993292D30FF003B0884006F
:100318007F08831380000130FF007F08BB0738087F
:1003280039040319D1293030FF003B0884007F08C5
:10033800831380000130FF007F08BB07FF30B80738
:100348000318B90AFF30B907932938083904031983
:10035800C2292030FF003B0884007F0883138000F7
:100368000130FF007F08BB07FF30B8070318B90A40
:10037800FF30B90738083904031DAD293708033998
:100388000319D1292D30FF003B0884007F0883130F
:1003980080000130FF007F08BB073A08FF007F0894
:1003A800B300FF30FF007F08B307330A0319492859
:1003B8000A30A7000030A8003308AF002F07123E0C
:1003C800840085300318013EFF000A128A110025B7
:1003D8000A128A11A0000A128A1100250A128A112B
:1003E800A1003608A3003508A2000A168A11302495
:1003F8000A128A11831203132108AA002008A900EF
:100408000A128A11CA240A128A11831203132708AE
:10041800303EFF007F08BA003A08FF003B0884001E
:100428007F08831380000130FF007F08BB07D529B0
:100438003B08840083138001080083160313C4015A
:10044800C501C201C30100300A168A1104250A1227
:100458008A11750883120313A9007408A8000A12E8
:100468008A11D8270A128A11831203132808AF00A9
:100478002908B0002A08B1000030AC00A030AD0057
:100488004030AE000A128A1105270A128A11831217
:1004980003132C08BE002D08BF002E08C000C03072
:1004A800BB007F30BC004430BD000A128A15C82545
:1004B8000A128A11831203133B0883160313BD0023
:1004C800831203133C0883160313BE00831203131D
:1004D8003D0883160313BF003D0883120313AF00C2
:1004E800831603133E0883120313B0008316031305
:1004F8003F0883120313B1004030AC001C30AD003C
:100508004630AE000A128A1105270A128A11831290
:1005180003132C08BE002D08BF002E08C0000030B1
:10052800BB00A030BC004030BD000A128A15C825A7
:100538000A128A11831203133B08CA003C08CB0035
:100548003D08CC000A128A1513200A128A11831258
:1005580003134B0883160313C700831203134A08B7
:1005680083160313C600103083120313A00027302C
:10057800A10083160313470883120313A3008316ED
:100588000313460883120313A2000A168A113024A3
:100598000A128A11831203132108A8002008A70051
:1005A8001030A9002730AA000A168A11C3210A129E
:1005B8008A1183120313280883160313C5008312B4
:1005C8000313270883160313C400E83083120313A8
:1005D800A0000330A10083160313440846028312C7
:1005E8000313A200831603134508031C450A470298
:1005F80083120313A3000A168A1130240A128A11DF
:10060800831203132108A8002008A700E830A900D6
:100618000330AA000A168A11C3210A128A1183120A
:100628000313280883160313C30083120313270830
:1006380083160313C200643083120313A000003032
:10064800A10083160313420983120313D7008316EC
:100658000313430983120313D800D70A0319D80ACE
:10066800831603134408831203135702D900831611
:1006780003134508031C450A831203135802DA00C2
:10068800831603134608831203135907A20083161F
:10069800031347080318470A831203135A07A300D2
:1006A8000A168A1130240A128A11831203132108A8
:1006B800A8002008A7006430A9000030AA000A1684
:1006C8008A11C3210A128A11831203132808831678
:1006D8000313C10083120313270883160313C000F2
:1006E8004208400783120313D700831603134308F5
:1006F8000318430A410783120313D8008316031310
:10070800440883120313570783160313C6004508CA
:100718000318450A83120313580783160313C700E7
:100728004708AF004608AE002E082F04031DA12B72
:100738003C30AE000030AF00080027302F021130E7
:1007480003192E02031C08001030AE002730AF003A
:100758000800A92C02306206031DB82B0A168A115C
:10076800B7230A128A11CB2B03306206031DC22B52
:100778000A168A117B230A128A11CB2B04306206CF
:10078800031DCB2B0A168A113F230A128A110A125B
:100798008A15A32283160313B601B60A08000A12A3
:1007A8008A153A270230FF007F0883160313B60024
:1007B800080002306206031DE72B0A128A15002082
:1007C8000A128A11FA2B03306206031DF12B0A164E
:1007D8008A110B210A128A11FA2B04306206031DB2
:1007E800FA2B0A168A1102210A128A11831203139C
:1007F800861D0C2C6308031D032C0130042C0030CB
:10080800FF007F08E3000A168A112E220A128A11B5
:100818008316031339080319142CB601B60AB90153
:1008280083120313061C2C2C0330FF007F08831649
:100838000313B6000A168A112E220A128A117708A3
:10084800031D282C0130292C0030FF007F08F700F9
:1008580083120313061D08000530FF007F08831666
:100868000313B6007708031D3B2C01303C2C0030E5
:10087800FF007F08F7000A168A1151250800023088
:100888006206031D4D2C0A168A11AC250A128A111C
:10089800602C03306206031D572C0A168A11E120CA
:1008A8000A128A11602C04306206031D602C0A1695
:1008B8008A11DD200A128A118316031338080319D6
:1008C800692C0430FF007F08B60083120313061D4D
:1008D80008000530FF007F0883160313B6003F2C7D
:1008E8000A168A116E240A128A110A168A11072614
:1008F8000A128A1177080319882C0330FF007F0831
:1009080083160313B60008000530FF007F0883161E
:100918000313B600080083160313AE01AF01831258
:100928000313E401F901F80183160313BB018312D1
:100938000313E501061201300A128A158026F60112
:10094800F60A83160313B601080083160313360844
:1009580083120313DC00DD015D08003A0319B52C8E
:10096800C92C5C08003A0319AE2B013A0319D32BA2
:10097800033A0319DD2B013A0319432C073A0319EB
:10098800742C013A03198F2CC92C08008312031305
:10099800270828040319F92CF401F40AA81BE02CF1
:1009A80001300310A70DA80DFF3E031DD52C013003
:1009B800FF007F08F407D22C28082A02031DE62C22
:1009C80027082902031CEE2C2708A9022808031C63
:1009D800AA03AA0201300310A80CA70CFF3E031DAE
:1009E800EF2C0130F402031DE02C2A08A800290886
:0409F800A70008004C
:100A0000FF1B0A2D83137F1883170008840A03191C
:100A1000FF0A08007F087F398A000408840A031946
:100A2000FF0A8200013400340A3400346434003494
:100A3000E834033410342734203420342034203474
:100A40002034203420342034203420342034203406
:100A500020342034203420342034203420342034F6
:100A60000034203420342034443445342034493494
:100A70004E3459344534433454344F34523445346D
:100A80005334203420342034203400345034523451
:100A90004F344234413444344F345234203441349E
:100AA000553454344F344D344F3454345234493423
:100AB0005A34203400343D343D343D343D343D34EB
:100AC0003D343D343D343D343D343D343D343D349E
:100AD0003D343D343D343D343D343D343D340034CB
:100AE0002034503472346F346334653473346F346B
:100AF0002034463469346E3461346C3469347A3469
:100B0000613464346F340034203420342034203491
:100B1000503455344C3456344534523449345A34B4
:100B20004134433449344F344E3400344C34493426
:100B30004D3450342E34203455344C3454345234E3
:100B4000413453344F344E34493444344F340034F8
:100B500020342034203420344D346F3464346F34E6
:100B600020345034723475346534623461343A342C
:100B70000034503472346F346334653473346F34FA
:100B8000203444346534743465346E3469346434E8
:100B90006F340034543445344D3450344534523479
:100BA000413454345534523441343A3400342034CE
:100BB00020342034203446344C3455344A344F34B5
:100BC0000034203420342034203446345534473423
:100BD000413400345434493445344D3450344F3466
:100BE0003A340034523450344D343A3400345034B2
:100BF00057344D343A34003425343034323464348C
:100C00000034253430343534753400343E34003407
:100C1000433400348312031363080319862E023011
:100C20000A168A1104250A128A1175088312031301
:100C3000A9007408A8000A128A11D8270A128A117A
:100C4000831203132808AF002908B0002A08B10056
:100C50000030AC00A030AD004030AE000A128A1166
:100C600005270A128A11831203132C08BE002D08CF
:100C7000BF002E08C000C030BB007F30BC00443035
:100C8000BD000A128A15C8250A128A11831203139D
:100C90003B08D7003C08D8003D08D9005708AF00F2
:100CA0005808B0005908B1000030AC006C30AD00FD
:100CB0004230AE000A128A1105270A128A118312E5
:100CC00003132C08BE002D08BF002E08C000003002
:100CD000BB00A030BC004030BD000A128A15C825F8
:100CE0000A128A11831203133B08CA003C08CB0086
:100CF0003D08CC000A128A1513200A128A118312A9
:100D000003134A08FF007F08F900FF2E6308031D44
:100D1000FF2E02300A168A1104250A128A1175085C
:100D200083120313A9007408A8000A128A11D82795
:100D30000A128A11831203132808AF002908B00091
:100D40002A08B1000030AC00A030AD004030AE0049
:100D50000A128A1105270A128A11831203132C081A
:100D6000BE002D08BF002E08C000C030BB007F3081
:100D7000BC004430BD000A128A15C8250A128A1127
:100D8000831203133B08D7003C08D8003D08D90064
:100D90005708AF005808B0005908B1000030AC0047
:100DA0006C30AD004230AE000A128A1105270A12DB
:100DB0008A11831203132C08BE002D08BF002E08D1
:100DC000C0000030BB00A030BC004030BD000A12A3
:100DD0008A15C8250A128A11831203133B08CA0018
:100DE0003C08CB003D08CC000A128A1513200A12D9
:100DF0008A11831203134A08FF007F08F80078085D
:100E0000031D0800F801F80A0800831203132C08D8
:100E1000B2002D08B3002E08B4000310330D340DBA
:100E2000FF007F08B5003508031D1D2F0030AC0002
:100E30000030AD000030AE0008002F08B2003008CE
:100E4000B3003108B4000310330D340DFF007F08E8
:100E5000BA003A08031D332F0030AC000030AD005B
:100E60000030AE0008003A087B3EFF007F08B5075F
:100E70002C08B2002D08B3002E08B4001030031067
:100E8000B40CB30CB20CFF3E031D3F2F3208FF0021
:100E90007F08BA002F08B2003008B3003108B40050
:100EA00010300310B40CB30CB20CFF3E031D512FD5
:100EB0003208FF007F08BA068030FF007F08BA05BD
:100EC000AD17B017FF30AF05FF30B0050030B105EA
:100ED0000030B6000030B7000030B8000730FF0027
:100EE0007F08B9002C1C822F2F08B6073008031189
:100EF0000318300A031DB707310803110318310A1C
:100F0000031DB80701300310AE0CAD0CAC0CFF3E56
:100F1000031D832F01300310AF0DB00DB10DFF3E47
:100F2000031D8B2F0130B902031D722F0930FF0002
:100F30007F08B9002C1CAA2F2F08B6073008031110
:100F40000318300A031DB707310803110318310ACB
:100F5000031DB80701300310AE0CAD0CAC0CFF3E06
:100F6000031DAB2F01300310B80CB70CB60CFF3EBD
:100F7000031DB32F0130B902031D9A2F3608A000BC
:100F80003708A1003808A2003508FF007F08A30039
:100F90003A08FF007F08A4000A168A1192278312DC
:100FA00003132008AC002108AD002208AE000800A1
:100FB00083120313AB01A91FE42FA809A909A80AEA
:100FC0000319A90AAB01AB0A2808A0002908A1004F
:100FD000A2018E30FF007F08A3002B08FF007F08CE
:100FE000A4000A168A119227831203132008A8006E
:0A0FF0002108A9002208AA00080049
:101000000A128A1121220A128A150A128A158F21C0
:101010000A128A150A128A110A260A128A150A1653
:101020008A11C4260800831203134A08CE004B0815
:10103000CF004C08D00003104F0D500DFF007F086B
:10104000D6005608031D2D280030CD000030CC00FE
:101050000030CB000030CA0008004A08CE004B0820
:10106000CF004C08D00017300310D00CCF0CCE0CA2
:10107000FF3E031D34284E08FF007F08D100CB1728
:10108000FF30CA05FF30CB050030CC054A08D2003E
:101090004B08D3004C08D400D5018E30D602D61FA1
:1010A00066285608803A8F3E031C2428013003101E
:1010B000D50CD40CD30CD20CFF3E031D57280130A5
:1010C000FF007F08D60703197928562818305602E2
:1010D000031824285608031979280130CE0003107C
:1010E000D20DD30DD40DD50DCE0B6F280130D60205
:1010F0006A28510803198728D209D309D409D509C8
:10110000D20A0319D30A0319D40A0319D50A5508B8
:10111000CD005408CC005308CB005208CA00080088
:10112000831603130612831203130612580883163C
:101130000313B50083120313570883160313B40077
:10114000831203135808A9005708A8000A168A1129
:101150005A210A128A15831203132808BB00290892
:10116000BC002A08BD000030BE008030BF003F3008
:10117000C0000A128A15C8250A128A1583120313A1
:101180003B0883160313AB00831203133C0883163A
:101190000313AC00831203133D0883160313AD0041
:1011A0002B0883120313BE00831603132C0883122B
:1011B0000313BF00831603132D0883120313C0000B
:1011C000B730BB00D130BC003830BD000A128A15E0
:1011D000C8250A128A15831203133B08CA003C086B
:1011E000CB003D08CC000A128A151320831203138A
:1011F0004B0883160313B100831203134A088316A6
:101200000313B0000030A8000030A9000030AA008D
:1012100083120313E001E101080083160313BC01EC
:10122000BC0A003083120313BB00C830BC0042303C
:10123000BD00831603132B0883120313AC0083161F
:1012400003132C0883120313AD00831603132D0818
:1012500083120313AE005708AF005808B0005908B6
:10126000B1000A128A1105270A128A158312031384
:101270002C08BE002D08BF002E08C0000A128A15D7
:10128000C8250A128A15831203133B088316031319
:10129000A800831203133C0883160313A9008312CA
:1012A00003133D0883160313AA00280883120313AF
:1012B000BE0083160313290883120313BF0083168D
:1012C00003132A0883120313C000B730BB00D130C8
:1012D000BC003830BD000A128A15C8250A128A15CA
:1012E000831203133B08CA003C08CB003D08CC0026
:1012F0000A128A151320831203134B088316031353
:10130000B300831203134A0883160313B200831237
:101310000313600861040319061610140800013055
:101320000A168A1104250A128A15750883120313F6
:10133000A9007408A8000A128A11D8270A128A156F
:10134000831203132808AF002908B0002A08B1004F
:101350000030AC00A030AD004030AE000A128A115F
:1013600005270A128A15831203132C08BE002D08C4
:10137000BF002E08C000C030BB007F30BC0044302E
:10138000BD000A128A15C8250A128A158312031392
:101390003B08D7003C08D8003D08D9005708AF00EB
:1013A0005808B0005908B1000030AC00C830AD009A
:1013B0004230AE000A128A1105270A128A158312DA
:1013C00003132C08BE002D08BF002E08C0000030FB
:1013D000BB00A030BC004030BD000A128A15C825F1
:1013E0000A128A15831203133B08CA003C08CB007B
:1013F0003D08CC000A128A1513200A128A1583129E
:1014000003134A08FF007F08E40060306402031CF5
:101410000E2A5F30FF007F08E400080005306402F8
:10142000031808000530FF007F08E4000800831659
:1014300003130712871207138713871087110711E9
:10144000831203130711C33083120313A200CC309D
:10145000A100A10B292AA20B292A00008312031341
:10146000A30103300A128A1580260A128A152E302B
:1014700083120313A2007230A100A10B3D2AA20B1C
:101480003D2A00000130FF007F0883120313A307E9
:1014900003302302031C312A33300A128A158026B6
:1014A0000A128A15A53083120313A100A10B562A34
:1014B000592A32300A128A1580260A128A152130DA
:1014C00083120313A2007530A100A10B652AA20BA1
:1014D000652A6A2A28300A128A1580260A128A1575
:1014E000A53083120313A100A10B742A772A0C30B4
:1014F0000A128A1580260A128A15A5308312031350
:10150000A100A10B812A842A06300A128A1580269E
:101510000A128A15A53083120313A100A10B8E2A8B
:10152000912A01300A128A1580260A128A15413042
:1015300083120313A200ED30A100A10B9D2AA20B80
:101540009D2AA22A080001300A128A1580260A1252
:101550008A15013083120313A1000030A20001306C
:10156000A3000030A400F230A5008530A6000A16C2
:101570008A1128270A128A15023083120313A10048
:101580000030A2000130A3000030A400F730A50015
:101590008530A6000A168A1128270A128A150330F8
:1015A00083120313A1000030A2000130A300003019
:1015B000A400EA30A5008530A6000A168A11282763
:1015C0000A128A15033083120313A1000030A2000F
:1015D0000A30A3000030A400D530A5008530A60055
:1015E0000A168A1128270A128A1504308312031357
:1015F000A1000030A2000130A3000030A400CA30D6
:10160000A5008530A6000A168A1128270A128A1515
:10161000043083120313A1000030A2001030A30095
:101620000030A4000A168A110C230A128A15013010
:101630000A128A1510250A128A1504308312031320
:10164000A1000030A2001130A3000030A400083037
:10165000A5008630A6000A168A1128270800F30183
:101660000C1C9C2B6A086B040319432B8316031371
:101670003A08031D432B013083120313EA020030A2
:10168000031CEB03EB0283126808690403194E2B59
:101690000130E8020030031CE903E9026608670430
:1016A00003195B2B770803195B2B0130E60200302E
:1016B000031CE703E702831603133C080319742B8A
:1016C0003108831203136106031D6C2B8316031369
:1016D00030088312031360060319742B0130E007EE
:1016E0000318E10A0030E10783160313330883125D
:1016F00003136106031D822B831603133208831222
:10170000031360060319942B831603133108831205
:1017100003136106031D922B8316031330088312F3
:1017200003136006031D962BF301F30AFF308F00AD
:1017300005308E0010140C106A086B040319A82BD6
:10174000680869040319A82B66086704031DAD2BFC
:101750000A168A11F3230A128A1573080319BA2B81
:10176000831603133C080319BA2B0A168A11E621C3
:101770000A128A15720883120313FF0071088A0087
:10178000700E8300FE0E7E0E0900831203136503A4
:10179000031DED2B0430A1000030A2000130A30096
:1017A0000030A4002F30A5008530A6000A168A114B
:1017B00028270A128A15013083120313A100003072
:1017C000A2000130A3000030A4000630A50086303E
:1017D000A6000A168A112827080002306506031D94
:1017E000142C0130A1000030A2000130A300003011
:1017F000A4002F30A5008530A6000A168A112827DC
:101800000A128A15023083120313A1000030A200CD
:101810000130A3000030A4000630A5008630A600E9
:101820000A168A112827080003306506031D3B2C81
:101830000230A1000030A2000130A3000030A4005B
:101840002F30A5008530A6000A168A1128270A1213
:101850008A15033083120313A1000030A200013067
:10186000A3000030A4000630A5008630A6000A16AA
:101870008A112827080004306506031D080003307C
:10188000A1000030A2000130A3000030A4002F30DE
:10189000A5008530A6000A168A1128270A128A1583
:1018A000043083120313A1000030A2000130A30012
:1018B0000030A4000630A5008630A6000A168A1162
:1018C000282708002D308400C83083120313A90094
:1018D0000408AA000830AB0029088400831300081C
:1018E000AC00A90A2A0884002C088000AA0AAB0BC5
:1018F0006C2C2D30FF007F08A10001300A168A11E0
:10190000AE220A128A15353084000830FF00831396
:101910008001840AFF0B872C3530FF007F0883127B
:101920000313A10000300A168A11AE220A128A158A
:1019300001300A128A1580260A128A150130831294
:101940000313A1000030A2000130A3000030A40066
:101950005B30A5008530A6000A168A1128270A12D6
:101960008A15023083120313A1000030A200013057
:10197000A3000030A4004630A5008530A6000A165A
:101980008A1128270A128A15033083120313A10033
:101990000030A2000130A3000030A4003130A500C7
:1019A0008530A6000A168A1128270A128A150430E3
:1019B00083120313A1000030A2000130A300003005
:1019C000A4005B30A5008530A6000A168A112827DE
:1019D0000A128A15333083120313AB00BB30AA00FE
:1019E000DF30A900A90BF22CAA0BF22CAB0BF22CC6
:1019F00001300A128A1580260A128A1501308312D4
:101A00000313A1000030A2000130A3000030A400A5
:101A10000630A5008630A6000A168A11282708007D
:101A200083120313A00007128712071387132008DD
:101A3000F40004300310F40CFF3E031D1A2D74084B
:101A40000139F500F50E07087506EF3975068700B0
:101A50002008F40005300310F40CFF3E031D2B2D6D
:101A600074080139F500F50EF50D07087506DF3924
:101A7000750687002008F40006300310F40CFF3EC2
:101A8000031D3D2D74080139F500F50EF50DF50D1A
:101A900007087506BF39750687002008F40007306F
:101AA0000310F40CFF3E031D502D74080139F5009E
:101AB000F50CF50C070875067F3975068700871445
:101AC000871187151830F400F40B642D672D8312ED
:101AD000031387111830F400F40B6C2D6F2D831253
:101AE0000313071287120713871320080139F40024
:101AF000F40E07087406EF39740687002008F40016
:101B00000310740C0139F500F50EF50D0708750684
:101B1000DF39750687002008F40002300310F40C4A
:101B2000FF3E031D8E2D74080139F500F50EF50DED
:101B3000F50D07087506BF39750687002008F40003
:101B400003300310F40CFF3E031DA12D740801396E
:101B5000F500F50CF50C070875067F39750687004A
:101B60008714871187155330F400F40BB52D8312B9
:101B7000031387115330F400F40BBC2D1430F5001F
:101B80007930F400F40BC22DF50BC22DC72D0800DF
:101B9000831203133E08C1003F08C2004008C3007F
:101BA0000310420D430DFF007F08C8004808031DC5
:101BB000E02D0030BB000030BC000030BD0008004C
:101BC0003B08C1003C08C2003D08C3000310420DA1
:101BD000430DFF007F08C9004908031DF62D0030A2
:101BE000BB000030BC000030BD0008000030C50064
:101BF0000030C6000030C70089304907C1004108E5
:101C0000C8023E08C1003F08C2004008C3001030AF
:101C10000310C30CC20CC10CFF3E031D082E41086B
:101C2000FF007F08C9003B08C1003C08C2003D0816
:101C3000C30010300310C30CC20CC10CFF3E031DC7
:101C40001A2E4108FF007F08C9068030FF007F0878
:101C5000C905BF17FF30BE05FF30BF050030C00506
:101C6000BC17FF30BB05FF30BC050030BD05183088
:101C7000FF007F08C40001300310C50DC60DC70D5D
:101C8000FF3E031D3C2E3D084002031D4D2E3C0827
:101C90003F02031D4D2E3B083E02031C5A2E3B08FB
:101CA000BE023C08031C3C0FBF023D08031C3D0A5A
:101CB000C002451401300310BE0DBF0DC00DFF3E24
:101CC000031D5B2E0130C402031D3B2E4508A000FE
:101CD0004608A1004708A2004808FF007F08A300AB
:101CE0004908FF007F08A4000A168A119227831270
:101CF00003132008BB002108BC002208BD00080017
:101D000083120313A00007128712071387132008FA
:101D1000F40004300310F40CFF3E031D8A2E7408F7
:101D20000139F500F50E07087506EF3975068700CD
:101D30002008F40005300310F40CFF3E031D9B2E19
:101D400074080139F500F50EF50D07087506DF3941
:101D5000750687002008F40006300310F40CFF3EDF
:101D6000031DAD2E74080139F500F50EF50DF50DC6
:101D700007087506BF39750687002008F40007308C
:101D80000310F40CFF3E031DC02E74080139F5004A
:101D9000F50CF50C070875067F3975068700871066
:101DA000871187151830F400F40BD42ED72E831228
:101DB000031387111830F400F40BDC2EDF2E83128E
:101DC0000313071287120713871320080139F40041
:101DD000F40E07087406EF39740687002008F40033
:101DE0000310740C0139F500F50EF50D07087506A2
:101DF000DF39750687002008F40002300310F40C68
:101E0000FF3E031DFE2E74080139F500F50EF50D99
:101E1000F50D07087506BF39750687002008F40020
:101E200003300310F40CFF3E031D112F7408013919
:101E3000F500F50CF50C070875067F397506870067
:101E40008710871187151830F400F40B252F282FE1
:101E50008312031387111830F400F40B2D2F302F49
:101E60001430F5007930F400F40B342FF50B342FD7
:101E7000392F0800013083120313AB008630AC0009
:101E8000831603132F0883120313AE008316031364
:101E90002E0883120313AD003E300A128A1142202D
:101EA0000A128A15013083120313A1000030A20028
:101EB0000530A3000030A4003E30A5000030A6008D
:101EC0000A168A1128270A128A15FC308312031376
:101ED000AB008530AC006408BC00BD013C08AD001F
:101EE0003D08AE003E300A128A1142200A128A15BD
:101EF000023083120313A1000030A2000530A300BA
:101F00000030A4003E30A5000030A6000A168A1159
:101F100028270A128A15FC3083120313AB00853080
:101F2000AC007908BC00BD013C08AD003D08AE0026
:101F30003E300A128A1142200A128A150330831297
:101F40000313A1000030A2000830A3000030A40059
:101F50003E30A5000030A6000A168A1128270A1272
:101F60008A15FC3083120313AB008530AC0078086F
:101F7000BC00BD013C08AD003D08AE003E300A1279
:101F80008A1142200A128A15033083120313A1001A
:101F90000030A2000B30A3000030A4003E30A500AA
:101FA0000030A6000A168A1128270A128A15FC306A
:101FB00083120313AB008530AC00831603133B0878
:101FC00083120313BC00BD013C08AD003D08AE0008
:101FD0003E300A128A1142200A128A1504308312F6
:101FE0000313A1000030A2000D30A3000030A400B4
:101FF0003E30A5000030A6000A168A1128270800E6
:1021BA00831203130616080083120313061208007B
:1021CA0010342734D0340734E83403348312031329
:1021DA00E20183160313B601080064008001840A31
:1021EA000406031900340406F328063409340934B2
:1021FA00063400340034003400340A128A110A26E4
:10220A000A168A110A168A11C42608000A128A11A5
:10221A000A260A168A110A168A11C4260800F50027
:10222A00F4013A3075020318202930307502031C74
:10223A002029F401F40A740C080083160313BC0164
:10224A000030A8000030A9000030AA00831203134E
:10225A00E001E101061208007E088A007F08820078
:10226A0031210A168A118000840A04087D0603199E
:10227A000034FF0A0319FE0A352901300A128A15A9
:10228A0080260A168A11023083120313A100003035
:10229A00A2000330A3000030A400B930A5008530A5
:1022AA00A6000A168A112827080083120313280891
:1022BA00A0002908A100A2018E30FF007F08A30018
:1022CA00A4010A168A119227831203132008A80070
:1022DA002108A9002208AA00080083160313851200
:1022EA0083120313850186018701FF3083160313C6
:1022FA00860087018316031709128911091109102B
:10230A00891008128316031306120800831603178E
:10231A008911831203131013101590101008CF3966
:10232A00103890001014FF308F0005308E000B1704
:10233A008B17831603130C10831203130C14080053
:10234A00F400740883120313AB00AC01AD012B082F
:10235A00A0002C08A1002D08A2008E30FF007F08E3
:10236A00A300A4010A168A119227831203132008D4
:10237A00A8002108A9002208AA000800F401F50112
:10238A0083120313271CCF292908F4070318F50A17
:10239A002A08F50701300310A90DAA0DFF3E031DF7
:1023AA00D02901300310A80CA70CFF3E031DD72922
:1023BA0027082804031DC5297508A8007408A70062
:1023CA000800831603133308831203136106031DDF
:1023DA00F4298316031332088312031360060319C0
:1023EA000612831603133108831203136106031DB1
:1023FA00042A831603133008831203136006031D8D
:10240A000800E001E101061608008316031305140B
:10241A0083160317081483160313851483160317E8
:10242A0088148316031305158316031708158316D4
:10243A0003138515831603178815831203131F08C0
:10244A003F3980389F00831603139F171F129F126C
:10245A000800831203138516023083120313A200A5
:10246A004530A100A930A000A00B392AA10B392AB6
:10247A00A20B392A83120313851283120313061C33
:10248A00522A413083120313A100ED30A000A00BA1
:10249A004C2AA10B4C2A512A422A861C0619462A82
:1024AA00861D0800462A01300A128A1580260A1655
:1024BA008A11013083120313A1000030A2000130F7
:1024CA00A3000030A4001C30A5008530A6000A161F
:1024DA008A1128270A168A11023083120313A100CF
:1024EA000030A2000130A3000030A4007030A50023
:1024FA008530A6000A168A11282708006400831668
:10250A0003133A080319912A0A168A11B9240A16DA
:10251A008A1183160313BA01831203138619982AA0
:10252A006508031D08000130FF007F08E507053034
:10253A0065020318A32A6508031DA52AE501E50A11
:10254A000A128A15C5230A168A110A168A112E2218
:10255A00080083120313A3002308A2000230031009
:10256A00A20DFF3E031DB42A0310220D403E0A129B
:10257A008A1580260A168A1183120313A4012408D5
:10258A002107A20022088400831300080A128A1570
:10259A0010250A168A110130FF007F0883120313DF
:1025AA00A4070830240203180800C42A0A168A114C
:1025BA0072210A168A110A168A11EB200A168A1142
:1025CA000A128A1517220A168A110A168A118B21EB
:1025DA000A168A110A168A110A220A168A110A1674
:1025EA008A1122210A168A11831603130C148312E4
:1025FA0003130C148312031705140508E139143860
:10260A0085000A168A1163260A168A11062B292BB7
:10261A002308FF3E80380A128A15802608002308FC
:10262A003F3E80380A128A15802608002308133E86
:10263A0080380A128A15802608002308533E8038FB
:10264A000A128A1580260800831203132208003A08
:10265A000319302B3E2B2108013A03190D2B033A9B
:10266A000319142B013A03191B2B073A0319222BBE
:10267A003E2B080001300A128A1580260A168A1192
:10268A00023083120313A1000030A2000130A3001C
:10269A000030A400A830A5008530A6000A168A11C9
:1026AA0028270A168A11033083120313A100003067
:1026BA00A2000130A3000030A400D730A500853065
:1026CA00A6000A168A1128270A168A1127308312A9
:1026DA000313AB000D30AA002530A900A90B732BF8
:1026EA00AA0B732BAB0B732B7A2B080001300A123F
:1026FA008A1580260A168A11023083120313A10052
:10270A000030A2000130A3000030A400A830A500C8
:10271A008530A6000A168A1128270A168A1103305C
:10272A0083120313A1000030A2000130A30000307D
:10273A00A400E130A5008530A6000A168A112827D0
:10274A000A168A11273083120313AB000D30AA0030
:10275A002530A900A90BAF2BAA0BAF2BAB0BAF2BC4
:10276A00B62B080001300A128A1580260A168A1129
:10277A00023083120313A1000030A2000130A3002B
:10278A000030A400A830A5008530A6000A168A11D8
:10279A0028270A168A11033083120313A100003076
:1027AA00A2000130A3000030A4008430A5008530C7
:1027BA00A6000A168A1128270A168A1127308312B8
:1027CA000313AB000D30AA002530A900A90BEB2B8F
:1027DA00AA0BEB2BAB0BEB2BF22B08008312031388
:1027EA006A086B04031D032C83160313BA01BA0A81
:1027FA00E83083120313EA000330EB006808690427
:10280A00031D122C640083160313B901B90AD030D0
:10281A0083120313E8000730E90066086704031D02
:10282A0008007808031D232C79080319252C013088
:10283A00F9023B30FF007F08F800252C0130F8022E
:10284A0083160313B801B80A103083120313E60083
:10285A002730E700080083120313A501A601200808
:10286A0021040319692CA401A40AA11B482C0130D4
:10287A000310A00DA10DFF3E031D3D2C0130FF00EA
:10288A007F08A4073A2C01300310A50DA60DFF3EC0
:10289A00031D492C21082302031D552C200822025E
:1028AA00031C5E2C2008A2022108031CA303A30216
:1028BA00251401300310A10CA00CFF3E031D5F2C50
:1028CA000130A402031D482C2608A1002508A000F7
:1028DA000800FC3083120313AB008530AC00790882
:1028EA00BC00BD013C08AD003D08AE003E300A12F6
:1028FA008A1142200A168A11033083120313A10097
:10290A000030A2000830A3000030A4003E30A50029
:10291A000030A6000A168A1128270A168A11FC30E6
:10292A0083120313AB008530AC007808BC00BD01EC
:10293A003C08AD003D08AE003E300A128A11422022
:10294A000A168A11033083120313A1000030A20071
:10295A000B30A3000030A4003E30A5000030A600D2
:10296A000A168A1128270800013083120313A100CE
:10297A000030A2000330A3000030A4008830A50074
:10298A008530A6000A168A1128270A168A110230EB
:10299A0083120313A1000030A2000330A300003009
:1029AA00A400E530A5008530A6000A168A1128275A
:1029BA000A168A11033083120313A1000030A20001
:1029CA000330A3000030A400DB30A5008530A60048
:1029DA000A168A1128270A168A1104308312031349
:1029EA00A1000030A2000330A3000030A4009630FA
:1029FA00A5008530A6000A168A1128270800831226
:102A0A000313A200C330FF007F089F052208A0001D
:102A1A0001300310A00DFF3E031D0E2D0310200DE3
:102A2A00FF007F089F041F14733083120313A00052
:102A3A00A00B1D2D202D831203139F149F18232DE5
:102A4A001E08A000A1012008A3002108A400240850
:102A5A00A1002308A0002008A100A0012008A300CB
:102A6A002108A400831603131E0883120313A0006F
:102A7A00A1012008A3042108A4041F1073308312A3
:102A8A000313A000A00B472D4A2D83120313240819
:102A9A00F5002308F40008000A168A112E220A16E5
:102AAA008A117708031D5B2D01305C2D0030FF0071
:102ABA007F08F70083120313061283160313B70164
:102ACA000A168A1122210A168A110A168A11422125
:102ADA000A168A1183120313AC0185160330831276
:102AEA000313AB008A30AA005530A900A90B7B2D2D
:102AFA00AA0B7B2DAB0B7B2D83120313851203309C
:102B0A0083120313AB008A30AA005530A900A90B1F
:102B1A008C2DAA0B8C2DAB0B8C2D0130FF007F085E
:102B2A0083120313AC0703302C02031C722D1F30CF
:102B3A0083120313AB007130AA001D30A900A90B40
:102B4A00A42DAA0BA42DAB0BA42DAB2D0800831624
:102B5A0003133708031D08002F0883120313A90063
:102B6A00831603132E0883120313A8000A168A1168
:102B7A005A210A168A11831203132808BE0029084B
:102B8A00BF002A08C0000030BB007030BC004230D1
:102B9A00BD000A128A15C8250A168A118312031360
:102BAA003B08CA003C08CB003D08CC000A128A1533
:102BBA0013200A168A11831203134B08DB004A08F2
:102BCA00DA005B08D8005A08D7000A128A15902042
:102BDA000A168A118312031364080A168A11A52198
:102BEA000A168A11831203132808D7002908D80065
:102BFA002A08D9000A128A150D2183160313B70170
:102C0A00B70A08007908031D08007808031D0800A0
:102C1A000A168A1158220A168A117708031D172ED6
:102C2A000130182E0030FF007F08F70083120313CB
:102C3A00061283160313B7010A168A1122210A16ED
:102C4A008A1183120313AC0185160330831203130E
:102C5A00AB008A30AA005530A900A90B322EAA0B64
:102C6A00322EAB0B322E83120313851203308312DA
:102C7A000313AB008A30AA005530A900A90B432ED2
:102C8A00AA0B432EAB0B432E0130FF007F088312A1
:102C9A000313AC0703302C02031C292E1F308312A6
:102CAA000313AB007130AA001D30A900A90B5B2EDB
:102CBA00AA0B5B2EAB0B5B2E622E0800A52E0A1206
:102CCA008A15622483120313E201E20A08000A1633
:102CDA008A1183220A168A1183120313861C862EEE
:102CEA006503031D862E02307F2E02306506031D02
:102CFA00882E0330FF007F08E2000A168A112E226E
:102D0A00080086187A2E861C080003306506031D03
:102D1A00080004307F2E0A128A11AD230A168A117E
:102D2A007608031908000530FF007F088312031391
:102D3A00E2000800902E83160313B601F601672EEF
:102D4A00831203136208DE00DF015F08003A0319E9
:102D5A00AF2EC32E5E08003A0319642E013A0319F6
:102D6A006C2E033A0319902E013A03199F2E073A43
:102D7A0003199F2E013A0319A02EC32E080003300F
:102D8A000A168A1104250A168A1175088312031372
:102D9A00A9007408A8000A128A11D8270A168A11EB
:102DAA00831203132808AF002908B0002A08B100CB
:102DBA000030AC00A030AD004030AE000A128A11DB
:102DCA0005270A168A11831203132C08BE002D0840
:102DDA00BF002E08C000C030BB007F30BC004430AA
:102DEA00BD000A128A15C8250A168A11831203130E
:102DFA003B08D7003C08D8003D08D9005708AF0067
:102E0A005808B0005908B1000030AC00C830AD0015
:102E1A004230AE000A128A1105270A168A11831255
:102E2A0003132C08CA002D08CB002E08CC000A1266
:102E3A008A151320831203134A08FF007F0883169A
:102E4A000313BB0008004D2F2308FF3E80380A12E7
:102E5A008A1580260A168A11832F23083F3E803856
:102E6A000A128A1580260A168A11832F2308133E0E
:102E7A0080380A128A1580260A168A11832F230897
:102E8A00533E80380A128A1580260A168A11832F21
:102E9A00831203132208003A0319542F832F21089F
:102EAA00013A0319292F033A0319322F013A031958
:102EBA003B2F073A0319442F832F2608FF002508C2
:102ECA0084000A128A1100250A168A110A128A1522
:102EDA0010250A168A11073083120313A8007C30C2
:102EEA00A700A70B762FA80B762F000001308312BC
:102EFA000313A5070318A60A0030A60783120313B3
:102F0A002608FF00250884000A128A1100250A16DD
:102F1A008A11003A03190800622F83120313230847
:102F2A0003199C2F220821042004031DAF2F00300F
:102F3A00A0000030A1000030A20008000130FF000C
:102F4A007F08A30701300310A20CA10CA00CFF3EBE
:102F5A00031DA82FFE3022050319CA2FA32F013003
:102F6A00FF007F08A3070130A007003003180130D3
:102F7A00A107003003180130A20701300310A20C88
:102F8A00A10CA00CFF3E031DC32FFF30220503191D
:102F9A00DD2FB42F02302302031CDF2F0130A302DE
:102FAA0001300310A00DA10DA20DFF3E031DD62F67
:102FBA00A11FCF2F2318E72FFF30A0057F30A105CF
:102FCA00FF30A2050310A30C2308A500A601A70140
:102FDA0010300310A50DA60DA70DFF3E031DEE2F01
:102FEA002508A0042608A1042708A2042408031916
:062FFA000800A217080008
:04400E00E22CFF3F62
:00000001FF
