:020000040000FA
:100000000A128A1110280134FE00030EF1000A08BA
:10001000F200831203137F08F3000A128A15BC282A
:100020000A128A1113280A128A110320F800831673
:10003000C901CA01CB01CC01CD01F601F701830151
:100040000A128A11862D31088039FF007F08BB0013
:100050003108B6003607FF007F08BD00B01B3D1415
:100060003D08031940283D0A031D3E280030B10019
:100070000030B0000030AF000030AE00B0174828AC
:100080000030B1000030B0000030AF000030AE00F2
:1000900035088039FF007F08BB063508B6003607F3
:1000A000FF007F08BC00B41B3C143C080319652802
:1000B0003C0A031D63280030B5000030B400003056
:1000C000B3000030B200B4176D280030B500003026
:1000D000B4000030B3000030B2003C08031D3D08FE
:1000E000031D7B280030B1000030B0000030AF00AD
:1000F0000030AE0008002E08FF007F08A000340882
:100100000A168A115F240A128A112108C7002008E2
:10011000C6004608B600B701B801B9013908C100E8
:100120003808C0003708BF003608BE004708B600D0
:10013000B701B801B9013908C5003808C40037084B
:10014000C3003608C2002F08FF007F08A000330854
:100150000A168A115F240A128A112108C700200892
:10016000C6004608B600B701B801B9013608BE0797
:10017000370803110318013E031DBF073808031198
:100180000318013E031DC007390803110318013E7F
:10019000031DC1074708B600B701B801B901360809
:1001A000C207370803110318013E031DC3073808AF
:1001B00003110318013E031DC40739080311031876
:1001C000013E031DC5073008FF007F08A00032086C
:1001D0000A168A115F240A128A112108C700200812
:1001E000C6004608B600B701B801B9013608BE0717
:1001F000370803110318013E031DBF073808031118
:100200000318013E031DC007390803110318013EFE
:10021000031DC1074708B600B701B801B901360888
:10022000C207370803110318013E031DC30738082E
:1002300003110318013E031DC407390803110318F5
:10024000013E031DC5070830B6000310BE0DBF0DEB
:10025000C00DC10DB60B25292F08FF007F08A00097
:1002600032080A168A115F240A128A112108C7006F
:100270002008C6004608B6004708B700B801B90113
:100280003608BE07370803110318013E031DBF07D8
:10029000380803110318013E031DC0073908031174
:1002A0000318013E031DC1072E08FF007F08A000B0
:1002B00033080A168A115F240A128A112108C7001E
:1002C0002008C6004608B6004708B700B801B901C3
:1002D0003608BE07370803110318013E031DBF0788
:1002E000380803110318013E031DC0073908031124
:1002F0000318013E031DC1070830B6000310BE0DF0
:10030000BF0DC00DC10DB60B7E292E08FF007F0862
:10031000A00032080A168A115F240A128A112108E5
:10032000C7002008C6004608B6004708B700B80155
:10033000B9013608BE07370803110318013E031D33
:10034000BF07380803110318013E031DC007390811
:1003500003110318013E031DC1072F08FF007F088A
:10036000A00034080A168A115F240A128A11210893
:10037000C7002008C6004608B6004708B700B80105
:10038000B9013608C207370803110318013E031DDF
:10039000C307380803110318013E031DC4073908B9
:1003A00003110318013E031DC5073008FF007F0835
:1003B000A00033080A168A115F240A128A11210844
:1003C000C7002008C6004608B6004708B700B801B5
:1003D000B9013608C207370803110318013E031D8F
:1003E000C307380803110318013E031DC407390869
:1003F00003110318013E031DC5073008FF007F08E5
:10040000A00034080A168A115F240A128A112108F2
:10041000C7002008C6004608B6004708B700B80164
:10042000B90108300310B60DB70DB80DB90DFF3E78
:10043000031D122A3608C207370803110318013EAC
:10044000031DC307380803110318013E031DC40729
:10045000390803110318013E031DC5074108B60002
:10046000B701B801B9013608C207370803110318EC
:10047000013E031DC307380803110318013E031D85
:10048000C407390803110318013E031DC5070830CE
:10049000B6000310BE0DBF0DC00DC10DB60B492A2D
:1004A0003D083C07B600B701B70D3608823EC600CE
:1004B00037080318013EFF3EC700C41B7A2A0130EB
:1004C000B6000310C20DC30DC40DC50DB60B612AD5
:1004D000C11B42140130B6000310BE0DBF0DC00D8C
:1004E000C10DB60B6C2AFF30C6070318C70AFF30D0
:1004F000C7075D2ABC01C11F932AFF303E05B60025
:10050000FF303F05B700FF304005B8007F304105A0
:10051000B900390838043704360403194218912AFF
:10052000932ABC01BC0A3C080319C52A0130C20742
:10053000003003180130C307003003180130C4072E
:10054000003003180130C507451CC52A4208B60013
:100550004308B7004408B8004508B9000130BA00A4
:10056000390DB90CB80CB70CB60CBA0BB02A390857
:10057000C5003808C4003708C3003608C20001307F
:10058000C6070318C70A0030C7074708803AFF00AC
:1005900080307F02031DCE2AFF304602031CDB2A77
:1005A0007F3083120313C5008030C4000030C300C5
:1005B0000030C2000B2B831203134708803AFF0060
:1005C00080307F02031DE62A013046020318F42A18
:1005D000003083120313C5000030C4000030C30094
:1005E0000030C200BB010B2B831203134608FF002F
:1005F0007F08BD00FF30C205FF30C3057F30C40552
:100600000030C5053D18C4173D08B6000310360C70
:10061000FF007F08C5003B08FF007F08C5044508B0
:10062000B1004408B0004308AF004208AE00080023
:1006300065088039FF007F08EA0065088316A0007E
:100640002007FF007F088312EC00E41B6C146C0889
:100650000319382B6C0A031D352B0030E5000030E0
:10066000E4000030E3000030E200E417E501402B35
:100670000030E5000030E4000030E3000030E2002C
:1006800069088039FF007F08EB006B086A06031DCC
:100690006A1769088316A0002007FF007F088312ED
:1006A000EB00E81B6B146B080319642B6B0A031D2A
:1006B000612B0030E9000030E8000030E700003036
:1006C000E600E817E9016C2B0030E9000030E80093
:1006D0000030E7000030E6006C086B020318B22B14
:1006E0006A1F762B8030FF007F08EA066C08FF0047
:1006F0007F08ED006B08FF007F08EC006D08FF002D
:100700007F08EB006208FF007F08ED006608FF002D
:100710007F08E2006D08FF007F08E6006308FF0025
:100720007F08ED006708FF007F08E3006D08FF0009
:100730007F08E7006408FF007F08ED006808FF00FD
:100740007F08E4006D08FF007F08E8006508FF00EF
:100750007F08ED006908FF007F08E5006D08FF00D5
:100760007F08E900ED016B088316A000A1012108B4
:10077000A30083126C0883162002A200031CA303AB
:100780002308803AFF0080307F02031DC92B1A30F6
:100790002202031C082C83120313650864046304FB
:1007A00062040319D52B0130D62B0030FF007F08DF
:1007B000ED000030E5000030E4000030E3000030E0
:1007C000E2006B08FF007F08EC000E2C6D1CF32B81
:1007D0006D088316A0000310200C0138FF007F086D
:1007E0008312ED00F52B0310ED0C6218ED170130AC
:1007F0008316A0008312650DE50CE40CE30CE20CFB
:100800008316A00BFA2B0130FF007F088312EC0740
:10081000831203136B086C02031CE62B6A1B552C16
:100820006C08031D1C2C0030E5000030E400003093
:10083000E3000030E20008006608E20767080311E1
:100840000318013E031DE307680803110318013E66
:10085000031DE407690803110318013E031DE507A2
:10086000651C152D6D1C3F2C6D088316A000031010
:10087000200C0138FF007F088312ED00412C03108B
:10088000ED0C6218ED1701308316A0008312650D80
:10089000E50CE40CE30CE20C8316A00B462C0130B3
:1008A000FF007F088312EC07152D6508803AFF00D2
:1008B0006908803A7F02031D672C68086402031DE3
:1008C000672C67086302031D672C66086202031821
:1008D000D92CFF308316A000FF30A100FF30A2000A
:1008E000FF30A300831266088316A40083126708F2
:1008F0008316A500831268088316A6008312690870
:100900008316A700831262088316A4028312630869
:10091000031C630F8C2C8E2C8316A5028312640893
:10092000031C640F942C962C8316A6028312650870
:10093000031C650F9C2C9E2C8316A7028312831622
:100940002408A00725080318250FA72CA82CA10709
:1009500026080318260FAD2CAE2CA2072708031873
:10096000270AA30723088312E500831622088312AF
:10097000E400831621088312E30083162008831203
:10098000E2008030FF007F08EA06ED09ED0A6D08FD
:10099000031DE72C0130E207003003180130E307A4
:1009A000003003180130E407003003180130E50778
:1009B000E72C6608E2026708031C670FE302680879
:1009C000031C680FE4026908031C690FE50265084F
:1009D000640463046204031D132D6D08031D132DAD
:1009E0000030E5000030E4000030E3000030E200B9
:1009F000080001308316A00003108312E20DE30DFE
:100A0000E40DE50D8316A00BFC2C8312ED1B621484
:100A10006D1C0C2D03140D2D0310ED0D6C08031926
:100A2000132D0130EC02E41FF92CEB01ED1F202DFA
:100A30006D087F39031962181E2D202DEB01EB0A7A
:100A40006B080319612D0130E207003003180130F3
:100A5000E307003003180130E407003003180130C9
:100A6000E507651C612D62088316A00083126308E8
:100A70008316A100831264088316A20083126508FE
:100A80008316A3000130A400230DA30CA20CA10C1B
:100A9000A00CA40B442D23088312E5008316220822
:100AA0008312E400831621088312E30083162008D2
:100AB0008312E2006C0A0319612D0130FF007F08E8
:100AC000EC076C0A031D6C08031D712D0030E50056
:100AD0000030E4000030E3000030E2006C0803194D
:100AE000EA016C1C752DE417792D7F30FF007F081B
:100AF000E4056C088316A0000310200CFF007F089B
:100B00008312E500EA1F0800E51708008316880134
:100B100083128801FF30831686000A128A153C2052
:100B20000A128A110A168A11BB230A128A110A169E
:100B30008A11D7230A128A118830B0001330B1000D
:100B40000A168A110C270A128A1188308316B000FF
:100B50001330B1000A128A117A270A128A11013061
:100B60000A168A11E5240A128A110130831203132E
:100B7000A2000030A3000130A4000030A5000B301B
:100B8000A6008030A7000A168A1155250A128A117C
:100B90000230A2000030A3000130A4000030A50004
:100BA0001230A6008030A7000A168A1155250A12B5
:100BB0008A110230A2000030A3000A30A4000030E5
:100BC000A5001730A6008030A7000A168A11552507
:100BD0000A128A11831686120613831286160613CA
:100BE0008316CA01CB01C701C8018312861C072ED8
:100BF00083164A08031DFE2D0130FF2D0030FF0033
:100C00007F08CA000A168A11E8230A128A11861D73
:100C1000132E0A168A11E8230A128A111930FF00CE
:100C20007F088316C90783164A03031D992E0130D6
:100C30008312A2000030A3000930A4000030A500F8
:100C40000A168A1182240A128A1100300A168A11A1
:100C50001C250A128A11013083120313A2000030EE
:100C6000A3000730A4000030A5003230A600803079
:100C7000A7000A168A1155250A128A1183164B03FA
:100C8000031D682E0A168A119C230A128A118316E4
:100C900049080A128A15A4220A128A110A168A1110
:100CA00025260A128A1162088316A000831263089F
:100CB0008316A100831264088316A2000A168A1103
:100CC00085270A128A112108C8002008C700F52EBE
:100CD0000A168A1196230A128A11831649080A12E3
:100CE0008A15A9230A128A110A168A1125260A12C0
:100CF0008A1162088316A000831263088316A1007C
:100D0000831264088316A2000A168A1185270A1224
:100D10008A112108C8002008C70027304802103077
:100D200003194702031CF52E0F30C7002730C800F7
:100D3000F52E4A08031DF52E0A168A1196230A126B
:100D40008A110A168A119C230A128A110130A20004
:100D50000030A3000730A4000030A5002630A60014
:100D60008030A7000A168A1155250A128A118316A7
:100D7000C701C801C9018312061DCD2E0A168A11AA
:100D8000E8230A128A1183164B08031DC92E01306D
:100D9000CA2E0030FF007F08CB0083164B03031DD3
:100DA000DE2E8312061786120130A2000030A30047
:100DB0000E30A4000030A5002A30ED2E4B08031D94
:100DC000F52E8312861606130130A2000030A30010
:100DD0000E30A4000030A5002E30A6008030A70001
:100DE0000A168A1155250A128A116530831649029E
:100DF0000318C9011C30FF007F088312AB00831663
:100E00004908BF00C0013F088312AC0083164008A8
:100E10008312AD00C2300A128A154F260A128A11B7
:100E20000230A2000030A3000E30A4000030A50064
:100E3000C230A6000030A7000A168A1155250A12F2
:100E40008A112730831648020F300319470203180E
:100E5000F52D470848040319F52D2130FF007F08C0
:100E60008312AB00831648088312AD00831647082F
:100E70008312AC00C2300A128A154F260A128A1158
:100E80000230A2000030A3000530A4000030A5000D
:100E9000C230A6000030A7000A168A1155250A1292
:100EA0008A11033083160313C1008A30C000553005
:100EB000BF00BF0B592FC00B592FC10B592F123038
:100EC00083120313A0008030A1000A168A113D246A
:100ED0000A128A11C230A0000030A1000A168A113D
:100EE0003D240A128A110D300A168A11A9230A120A
:100EF0008A11F52D30088312A00083163108831261
:100F0000A100A201A30100300A128A154E210A1283
:100F10008A112308CB002208CA002108C900200832
:100F2000C8003F30CF008030CE000030CD00003010
:100F3000CC000A128A15AE240A128A1149088316B7
:100F4000B60083124A088316B70083124B08831633
:100F5000B8003808B5003708B4003608B300B2014D
:100F600035088312CF00831634088312CE0083160F
:100F700033088312CD00831632088312CC00373039
:100F8000CB008630CA003730C900BD30C8000A1215
:100F90008A15AE240A128A114B08E9004A08E800B3
:100FA0004908E7004808E600BF30E5008030E4006B
:100FB0000030E3000030E2000A128A1118230A12FE
:100FC0008A1165088316AB00831264088316AA0091
:100FD000831263088316A900831262088316A8008F
:100FE0000A168A11962683162808920083129B01FE
:100FF0009D121D128316871083129D151D15080062
:10100000A501A6012008210403193728A401A40A78
:10101000A11B162801300310A00DA10DFF3E031DDA
:101020000B280130FF007F08A407082801300310B7
:10103000A50DA60DFF3E031D172821082302031D41
:10104000232820082202031C2C282008A2022108A1
:10105000031CA303A302251401300310A10CA00C50
:10106000FF3E031D2D280130A402031D162826086B
:10107000A1002508A00008001A3083120313A30062
:10108000F730A200A20B4228A30B42284728831264
:101090000313A40103300A168A11E5240A128A15E3
:1010A000073083120313A3007C30A200A20B562842
:1010B000A30B562800000130FF007F0883120313A2
:1010C000A40703302402031C4A2833300A168A116D
:1010D000E5240A128A15203083120313A200A20B02
:1010E0006F28000032300A168A11E5240A128A1588
:1010F000073083120313A3007C30A200A20B7E28CA
:10110000A30B7E28000028300A168A11E5240A1253
:101110008A15203083120313A200A20B8D28000031
:101120000C300A168A11E5240A128A15203083121F
:101130000313A200A20B9A28000006300A168A1197
:10114000E5240A128A15203083120313A200A20B91
:10115000A728000001300A168A11E5240A128A1510
:10116000043083120313A300E330A200A20BB628BD
:10117000A30BB628BB2808008B1CD52878030319BD
:101180000C1CC5288E018F010C1002307806031D3F
:10119000D02810100F08F7000E08F60010140B12DC
:1011A0008B100130FF007F08F8078C1E45290A16B6
:1011B0008A1190230A128A15FF007F08F400740830
:1011C0000A168A11A2230A128A15413074060319DD
:1011D000ED2861307406031DF9284A08031DF9281B
:1011E0004A08031DF5280130F6280030FF007F086B
:1011F000CA00443074060319012964307406031DC3
:101200000D294A03031D0D294A08031D0929013030
:101210000A290030FF007F08CA00573074060319FE
:10122000152977307406031D1D291930FF007F082A
:10123000C907653049020318C90153307406031900
:10124000252973307406031D2F294908031D2D29F4
:101250006430FF007F08C9002F291930C9024730C8
:1012600074060319372967307406031D43294A0899
:10127000031D43294B08031D3F290130402900303D
:10128000FF007F08CB0083128C127308FF007208E6
:101290008A00710E8300FE0E7E0E0900A800280849
:1012A000031DA31F63292009AA002109AB002209FD
:1012B000AC002309AD00AA0A0319AB0A0319AC0A52
:1012C0000319AD0A6B292308AD002208AC002108E0
:1012D000AB002008AA002308220421042004031DD7
:1012E0007A290030A3000030A2000030A1000030B5
:1012F000A00008009630FF007F08A900FE302D05F1
:101300000319AB290130FF007F08A9070130031042
:10131000AD0CAC0CAB0CAA0CFF3E031D87297E293B
:101320000130FF007F08A9070130AA070030031829
:101330000130AB07003003180130AC070030031850
:101340000130AD0701300310AD0CAC0CAB0CAA0C96
:10135000FF3E031DA329FF302D050319BF29902946
:1013600002302902031CC1290130A9020130A40066
:101370000310AA0DAB0DAC0DAD0DA40BB829AC1F1D
:10138000B0292918CB29FF30AA05FF30AB057F30E3
:10139000AC05FF30AD050310A90C2908A400A50178
:1013A000A601A70118300310A40DA50DA60DA70DC9
:1013B000FF3E031DD3292408AA042508AB042608F0
:1013C000AC042708AD042808031DA31FE829AD17A6
:1013D0002D08A3002C08A2002B08A1002A08A000B9
:1013E00008002B08B1002C08B2002D08B300031030
:1013F000320D330DFF007F08B4003408031D072AA7
:101400000030AB000030AC000030AD0008002E080A
:10141000B1002F08B2003008B3000310320D330DB5
:10142000FF007F08B9003908031D1D2A0030AB00FA
:101430000030AC000030AD00080039087B3EFF00F2
:101440007F08B4072D08FF007F08B9003008FF00AF
:101450007F08B9068030FF007F08B905AC17AF17C9
:10146000FF30AE05FF30AF050030B0050030B500ED
:101470000030B6000030B7000730FF007F08B8002A
:101480002B1C502A2E08B5072F08031103182F0A0A
:10149000031DB607300803110318300A031DB707F0
:1014A00001300310AD0CAC0CAB0CFF3E031D512AF8
:1014B00001300310AE0DAF0DB00DFF3E031D592AD4
:1014C0000130B802031D402A0930FF007F08B80030
:1014D0002B1C782A2E08B5072F08031103182F0A92
:1014E000031DB607300803110318300A031DB707A0
:1014F00001300310AD0CAC0CAB0CFF3E031D792A80
:1015000001300310B70CB60CB50CFF3E031D812A49
:101510000130B802031D682A3508A0003608A10072
:101520003708A2003408FF007F08A3003908FF0035
:101530007F08A4000A168A11B9252008AB002108EB
:10154000AC002208AD000800BC000030B60000303E
:10155000B7000030B8000030B9000030BA000030E9
:10156000BB004C088312A00083164D088312A10013
:10157000A201A30100300A128A154E210A128A150F
:101580002308CB002208CA002108C9002008C8008F
:101590003F30CF008030CE000030CD000030CC0096
:1015A0000A128A15AE240A128A1549088316B30056
:1015B00083124A088316B40083124B088316B500C1
:1015C00064303C06031DE82A5F30FF007F08BC0042
:1015D00042308312CB00C830CA000030C90000304E
:1015E000C80083163C08AD00AE012D088312A80088
:1015F00083162E088312A9000A168A11FB230A12E9
:101600008A152808AE002908AF002A08B000831602
:1016100033088312AB00831634088312AC008316A0
:1016200035088312AD000A128A15F1210A128A15B3
:101630002D088316B20083122C088316B100831282
:101640002B088316B000AF0132088312CF00831637
:1016500031088312CE00831630088312CD00831622
:101660002F088312CC000A128A15AE240A128A159A
:1016700049088316B60083124A088316B7008312FE
:101680004B088316B80036308312CB008630CA0070
:101690003730C900BD30C80083163808B00037089D
:1016A000AF003608AE00AD0130088312CF008316BC
:1016B0002F088312CE0083162E088312CD008316C6
:1016C0002D088312CC000A128A15AE240A128A153C
:1016D00049088316B90083124A088316BA00831298
:1016E0004B088316BB003908A0003A08A1003B084C
:1016F000A2000A168A1185270A128A152108BE003F
:101700002008BD000F30FF007F0883129705831665
:101710003D080339AD0003300310AD0DFF3E031D3E
:101720008C2B03102D0DFF007F0883129704950169
:1017300083163E08AE003D08AD000310AE0CAD0CA4
:101740000310AE0CAD0C2D08FF007F08831295042A
:101750000800BC000030B6000030B7000030B80010
:101760000030B9000030BA000030BB004C088312D2
:10177000A00083164D088312A100A201A30100302E
:101780000A128A154E210A128A152308CB00220854
:10179000CA002108C9002008C8003F30CF008030AF
:1017A000CE000030CD000030CC000A128A15AE24E5
:1017B0000A128A1549088316B30083124A08831651
:1017C000B40083124B088316B50064303C06031D39
:1017D000ED2B5F30FF007F08BC0042308312CB004E
:1017E000C830CA000030C9000030C80083163C0869
:1017F000AD00AE012D088312A80083162E088312B7
:10180000A9000A168A11FB230A128A152808AE00BD
:101810002908AF002A08B000831633088312AB00F2
:10182000831634088312AC00831635088312AD008A
:101830000A128A15F1210A128A152D088316B200A0
:1018400083122C088316B10083122B088316B00074
:10185000AF0132088312CF00831631088312CE0005
:10186000831630088312CD0083162F088312CC0014
:101870000A128A15AE240A128A1549088316B60080
:1018800083124A088316B70083124B088316B800E8
:1018900036308312CB008630CA003730C900BD30E5
:1018A000C80083163808B0003708AF003608AE000D
:1018B000AD0130088312CF0083162F088312CE00AB
:1018C00083162E088312CD0083162D088312CC00B8
:1018D0000A128A15AE240A128A1549088316B9001D
:1018E00083124A088316BA0083124B088316BB0082
:1018F0003908A0003A08A1003B08A2000A168A1184
:1019000085270A128A152108BE002008BD000F3065
:10191000FF007F0883129D0583163D080339AD0043
:1019200003300310AD0DFF3E031D912C03102D0D50
:10193000FF007F0883129D049B0183163E08AE00C2
:101940003D08AD000310AE0CAD0C0310AE0CAD0C99
:101950002D08FF007F0883129B0408004F08803980
:10196000FF007F08D9004F08D0005007FF007F0814
:10197000E000CE1B601460080319CC2C600A031D24
:10198000C92C0030CF000030CE000030CD00003038
:10199000CC00CE17CF01D42C0030CF000030CE00C9
:1019A0000030CD000030CC004B088039FF007F08AC
:1019B000D9064B08D0005007FF007F08E100CA1B82
:1019C000611461080319F22C610A031DEF2C003029
:1019D000CB000030CA000030C9000030C800CA1770
:1019E000CB01FA2C0030CB000030CA000030C90017
:1019F0000030C8004B084A0449044804031D192D4F
:101A00000030CF000030CE000030CD000030CC00E0
:101A10008030CE047F30CF045908FF007F08CF0408
:101A20004F08CB004E08CA004D08C9004C08C8003A
:101A300008006008031D252D0030CB000030CA00CF
:101A40000030C9000030C80008006008D000D10193
:101A50005108D30061085002D200031CD30352087E
:101A60007F3EDA0053080318013E003EDB004F08BA
:101A7000D8004E08D7004D08D6004C08D5000030DD
:101A8000CF000030CE000030CD000030CC00003060
:101A9000DF000030DE000030DD000030DC00E1015E
:101AA0001A3061020318982D61080319742D013052
:101AB000D0000310D50DD60DD70DD80DD00B592D54
:101AC0000130D0000310CC0DCD0DCE0DCF0DD00BBD
:101AD000622DDF1B4C140130D0000310DC0DDD0D36
:101AE000DE0DDF0DD00B6D2D4B085802031D822D2E
:101AF0004A085702031D822D49085602031D822DF4
:101B000048085502031C932D5F174808D502490861
:101B1000031C490FD6024A08031C4A0FD7024B0880
:101B2000031C4B0FD8020130FF007F08E107502D46
:101B30005808570456045504031D5C14CE1BBB2DD6
:101B40000130D0000310CC0DCD0DCE0DCF0DD00B3C
:101B5000A22DDF1B4C140130D0000310DC0DDD0D75
:101B6000DE0DDF0DD00BAD2DFF30DA070318DB0AD9
:101B7000FF30DB079E2DE101DF1FD42DFF305C0518
:101B8000D000FF305D05D100FF305E05D2007F3010
:101B90005F05D300530852045104500403194C1834
:101BA000D22DD42DE101E10A61080319062E01307E
:101BB000CC07003003180130CD0700300318013086
:101BC000CE07003003180130CF074F1C062E4C08FB
:101BD000D0004D08D1004E08D2004F08D30001308C
:101BE000D400530DD30CD20CD10CD00CD40BF12D4E
:101BF0005308CF005208CE005108CD005008CC0049
:101C00000130DA070318DB0A0030DB075B08803A93
:101C1000FF0080307F02031D0F2EFF305A02031C8D
:101C20001F2EFF3083120313DA000030DB00003078
:101C3000CF000030CE000030CD000030CC00831249
:101C400003135B08803AFF0080307F02031D2A2EB9
:101C500001305A020318392E83120313DA01DB0113
:101C60000030CF000030CE000030CD000030CC007E
:101C7000D901831203135A08FF007F08E000601C9B
:101C8000432ECE17472E7F30FF007F08CE05600819
:101C9000D0000310500CFF007F08CF000C2DB800BF
:101CA0002C30FF007F08B2000130AB07FF302B075C
:101CB00084000A168A110A200A128A15FF007F087A
:101CC000B90039080319FB2F253039060319742E82
:101CD0003908FF00380884007F0883138000013032
:101CE000FF007F08B807542EB601B701B5017D2E5D
:101CF00035150130FF007F08AB072B0884000A165A
:101D00008A110A200A128A15AE00AF012F08003A84
:101D100003198B2E902E2E08303A0319782E902E10
:101D20002B0884000A168A110A200A128A150A163C
:101D30008A11C9230A128A15031CD92EB601B701CC
:101D40000A30A0000030A1003708A3003608A20026
:101D50000A168A111C240A128A152108B7002008C5
:101D6000B6002B0884000A168A110A200A128A1566
:101D7000D03EAE00FF3003180030AF002E08B6078B
:101D80000318B70A2F08B7070130FF007F08AB0719
:101D90002B0884000A168A110A200A128A150A16CC
:101DA0008A11C9230A128A15031CD92EA02E3517B1
:101DB000F92E0130AB07FF302B0784000A168A1179
:101DC0000A200A128A15B900AE00AF012F08003AA6
:101DD0000319EB2E542E2E08003A0319FB2F643AF8
:101DE0000319F92E0D3A0319F92E1C3A0319D72EAF
:101DF000542E351B132F3208840083130008B300C0
:101E0000840A0008B4000230FF007F08B207B41F44
:101E10001F2F0330FF007F08B504B309B409B30ACC
:101E20000319B40A1F2F3208840083130008B3007B
:101E3000840A0008B4000230FF007F08B207B9012D
:101E4000B90A3908AE002E07013E84000A168A112D
:101E50000A200A128A15AF000A168A110A200A12ED
:101E60008A15B00030083402031D382F2F083302C2
:101E7000031C422F0130FF007F08B90705303906E7
:101E8000031D212F360837040319502F3508033955
:101E90000319502FFF30B6070318B70AFF30B707F2
:101EA0003708803A803C031D572F36083902031843
:101EB000652F831203133908AE00AF012E08B60256
:101EC0002F08031CB703B702692F83120313B6014F
:101ED000B701351D902F3508033903197A2F2D309E
:101EE000FF00380884007F08831380000130FF0062
:101EF0007F08B807360837040319B82F3030FF00C1
:101F0000380884007F08831380000130FF007F08B9
:101F1000B807FF30B6070318B70AFF30B7077A2FA4
:101F2000360837040319A92F2030FF003808840031
:101F30007F08831380000130FF007F08B807FF305F
:101F4000B6070318B70AFF30B70736083704031D72
:101F5000942F350803390319B82F2D30FF003808A6
:101F600084007F08831380000130FF007F08B807DA
:101F70003908FF007F08B100FF30FF007F08B1077C
:101F8000310A0319542E0A30A7000030A800310886
:101F9000AE002E07013E84000A168A110A200A129A
:101FA0008A15A0000A168A110A200A128A15A100B1
:101FB0003408A3003308A2000A128A1500200A126E
:101FC0008A152108AA002008A9000A168A11B3243C
:101FD0000A128A152708303EFF007F08B900390829
:101FE000FF00380884007F08831380000130FF0061
:101FF0007F08B807BC2F38088400831380010800CD
:10200000FF1B0A2883137F1883170008840A03190B
:10201000FF0A080010308A000408840A820700348E
:10202000013400340A34003464340034E8340334B6
:10203000103427344D344F3454344F3452343A34FE
:102040000034523450344D343A3400345034573420
:102050004D343A340034253430343334643400346D
:10206000253430343434753400344F3446344634F7
:10207000003449345A3451340034443445345234F1
:0820800000344F344E340034EB
:102720008C1E942B1A080800003008008312121126
:102730009501971217120800831212119B019D1226
:102740001D120800F0007008990083169818080000
:10275000A52BF50075089900831698180800AC2B76
:102760008815B22BB32B0000831203138811B82BEA
:10277000B92B000008008316031306148312901669
:102780001016901010148B170B12831601178B1054
:102790000800A100A0013A3021020318D52B3030E7
:1027A0002102031CD52BA001A00A200C08008717CA
:1027B0000713181398161812181519309900831258
:1027C0009817181618138B1783168C160B170800FA
:1027D000273083120313A100F430A000A00BEE2BCE
:1027E000A10BEE2B000083120313861C0619F32B9A
:1027F000861D0800F32BF501A91F052CA809A909BE
:10280000A80A0319A90AF501F50A2808A000290851
:10281000A100A2018E30FF007F08A3007508FF0011
:102820007F08A4000A168A11B9252008A8002108EB
:10283000A9002208AA000800A401A501201C262C3A
:102840002208A4070318A50A2308A50701300310CE
:10285000A20DA30DFF3E031D272C01300310A10C78
:10286000A00CFF3E031D2E2C20082104031D1E2C4E
:102870002508A1002408A00008002108FF00200866
:1028800084000A168A1100200A168A11003A0319D8
:1028900008002108FF00200884000A168A11002081
:1028A0000A168A110A168A11A9230A168A110130FA
:1028B0008312A0070318A10A0030A1073D2CA8002D
:1028C000A401A5012008A200A3012208A600230854
:1028D000A700281C712C2608A4070318A50A27089E
:1028E000A50701300310A60DA70DFF3E031D722C96
:1028F0000310A80C2808031D692C2508A100240832
:10290000A00008009F2C2408FF3E80380A168A1178
:10291000E524080024083F3E80380A168A11E52481
:1029200008002408133E80380A168A11E52408009E
:102930002408533E80380A168A11E524080023082B
:10294000003A0319A42CB22C2208013A0319832C53
:10295000033A03198A2C013A0319912C073A0319F7
:10296000982CB22C0800270828040319E02CF50144
:10297000F50AA81BC72C01300310A70DA80DFF3EB8
:10298000031DBC2C0130FF007F08F507B92C280877
:102990002A02031DCD2C27082902031CD52C270849
:1029A000A9022808031CAA03AA0201300310A80CDC
:1029B000A70CFF3E031DD62C0130F502031DC72CCA
:1029C0002A08A8002908A7000800F50083160313A9
:1029D0008801831288017508F039FF007F08880498
:1029E0000A168A11B0230A168A118312031388016A
:1029F0007508A00003300310A00DFF3E031DFB2C43
:102A00000310200DF039FF007F0888040A168A1190
:102A1000B0230A168A11F030FF007F0883160313D3
:102A20008805033083120313A1009730A000A00B88
:102A3000172DA10B172D0800F5008316031388012D
:102A4000831288017508F039FF007F088804881414
:102A50000A168A11B0230A168A11831203138801F9
:102A60007508A00003300310A00DFF3E031D332D99
:102A70000310200DF039FF007F08880488140A161F
:102A80008A11B0230A168A11F030FF007F088316DE
:102A900003138805033083120313A1009730A000AD
:102AA000A00B502DA10B502D08007A2D2408FF3EBD
:102AB00080380A168A11E5240A168A11AA2D2408DC
:102AC0003F3E80380A168A11E5240A168A11AA2D7B
:102AD0002408133E80380A168A11E5240A168A1142
:102AE000AA2D2408533E80380A168A11E5240A16B6
:102AF0008A11AA2D2308003A03197F2DAA2D220836
:102B0000013A0319562D033A03195F2D013A0319AF
:102B1000682D073A0319712DAA2D2708FF002608F2
:102B200084000A168A1100200A168A110A168A11D0
:102B30001C250A168A11203083120313A800A80B43
:102B40009F2D0000013083120313A6070318A70A64
:102B50000030A707831203132708FF00260884000C
:102B60000A168A1100200A168A11003A0319080071
:102B70008D2D23080319C12D220821042004031DD3
:102B8000D42D0030A0000030A1000030A2000800C9
:102B90000130FF007F08A30701300310A20CA10C35
:102BA000A00CFF3E031DCD2DFE3022050319EF2D95
:102BB000C82D0130FF007F08A3070130A0070030B7
:102BC00003180130A107003003180130A2070130BB
:102BD0000310A20CA10CA00CFF3E031DE82DFF303A
:102BE00022050319022ED92D02302302031C042EC4
:102BF0000130A30201300310A00DA10DA20DFF3E74
:102C0000031DFB2DA11FF42D23180C2EFF30A00552
:102C10007F30A105FF30A2050310A30C2308A500F7
:102C2000A601A70110300310A50DA60DA70DFF3EAC
:102C3000031D132E2508A0042608A1042708A204BA
:102C4000240803190800A21708000030EC00003027
:102C5000ED000030EE00F801F80A0C140B160330FA
:102C60007802031C2F2E3730B1000630B000373009
:102C7000AF00BD30AE007608A0007708A100A20129
:102C8000A30100300A128A154E210A168A11230860
:102C9000B5002208B4002108B3002008B2000A12CF
:102CA0008A1123200A168A113108CB003008CA0085
:102CB0002F08C9002E08C8003F30CF008030CE005A
:102CC0000030CD000030CC000A128A15AE240A165E
:102CD0008A114908E9004A08EA004B08EB00423033
:102CE000B1007030B0000030AF000030AE006B08B3
:102CF000E8006A08E7006908E600E5016808B50031
:102D00006708B4006608B3006508B2000A128A11A9
:102D100023202F08EC003008ED003108EE006C088D
:102D2000E2006D08E3006E08E400080003102A0DBD
:102D30002B0DFF007F088312EF006F08031DAA2EE2
:102D400000308316AB000030AA000030A90000302C
:102D5000A800080083162808AC002908AD002A083E
:102D6000AE002B08AF001F300310AF0CAE0CAD0C43
:102D7000AC0CFF3E031DB42E2C08FF007F0883120D
:102D8000EE008316AA17FF30A805FF30A905FF3013
:102D9000AA050030AB0596308312EF02EF1FE72E35
:102DA0006F08803A973E031CA02E01300310831653
:102DB000AB0CAA0CA90CA80CFF3E031DD62E0130AB
:102DC000FF007F088312EF070319FC2ED52E203059
:102DD0006F020318A02E6F080319FC2E0130831612
:102DE000AC000310A80DA90DAA0DAB0DAC0BF12E74
:102DF00001308312EF02EB2E6E08031908008316D0
:102E0000A809A909AA09AB09A80A0319A90A03195B
:102E1000AA0A0319AB0A080030088312A00083161F
:102E200031088312A100A201A30100300A128A1501
:102E30004E210A168A112308CB002208CA00210855
:102E4000C9002008C8003F30CF008030CE000030DD
:102E5000CD000030CC000A128A15AE240A168A1161
:102E600049088316B60083124A088316B7008312F6
:102E70004B088316B8003108CD003008CC00380864
:102E8000B5003708B4003608B300B2013508831224
:102E9000CF00831634088312CE00831633088312C2
:102EA000CD00831632088312CC003730CB00863039
:102EB000CA003730C900BD30C8000A128A15AE24D6
:102EC0000A168A114B088316AB0083124A08831630
:102ED000AA00831249088316A900831248088316A2
:102EE000A8000A168A11962683162808FF3E92002B
:102EF0008312950197121712831607118312121469
:102F0000921412159715171508002008A40021081F
:102F1000A5002208A6000310250D260DFF007F083E
:102F2000AC002C08031D9D2F0030A3000030A20030
:102F30000030A1000030A00008002008A4002108F3
:102F4000A5002208A60017300310A60CA50CA40C9F
:102F5000FF3E031DA42F2408FF007F08A700A11730
:102F6000FF30A005FF30A1050030A2052008A80011
:102F70002108A9002208AA00AB018E30AC02AC1FC8
:102F8000D62F2C08803A8F3E031C942F013003105B
:102F9000AB0CAA0CA90CA80CFF3E031DC72F0130D7
:102FA000FF007F08AC070319E92FC62F18302C0249
:102FB0000318942F2C080319E92F0130A4000310E3
:102FC000A80DA90DAA0DAB0DA40BDF2F0130AC028B
:102FD000DA2F27080319F72FA809A909AA09AB09AD
:102FE000A80A0319A90A0319AA0A0319AB0A2B088C
:102FF000A3002A08A2002908A1002808A0000800B0
:02400E00393F38
:00000001FF
