:020000040000FA
:04000000A8EF00F075
:0600080048823AED14F0FD
:100018004880D8CF11F0E8CF12F0E0CF13F0D9CF55
:1000280014F0DACF15F0F3CF16F0F4CF17F0F2A4EE
:100038005CD00101E851D8B403D03B50D8B4E807EC
:10004800E751D8B403D03B50D8B4E707E651D8B449
:1000580003D03B50D8B4E607E451E511D8B409D031
:100068004550D8A406D03B50D8A403D0E407D8A064
:10007800E507E251E311D8B403D0E207D8A0E307BB
:10008800E051E111D8B403D0E007D8A0E107DE5170
:10009800DF11D8B406D07E51D8B403D0DE07D8A07B
:1000A800DF07DC51DD11D8B406D07D51D8B403D0B8
:1000B800DC07D8A0DD078505D8A407D0DA51DB1105
:1000C800D8B403D0DA07D8A0DB07D851D911D8B4EF
:1000D80006D03B50D8A403D0D807D8A0D907FE0E25
:1000E800D76E2A0ED66ED58EF2940101E851D8B497
:1000F80019D0E751D8B416D0E651D8B413D0E4518A
:10010800E511D8B40FD0DE51DF11D8B40BD0DC51D3
:10011800DD11D8B407D0DA51DB11D8B403D0D851E7
:10012800D911D8B44DEC1FF017C0F4FF16C0F3FF77
:1001380015C0DAFF14C0D9FF13C0E0FF12C0E8FFF2
:1001480011C0D8FF489010002FEF27F0000E0101D2
:100158004C6FCEC018F0CFC019F0D0C01AF0D1C083
:100168001BF0D2C01CF0D3C01DF0D4C01EF0D5C007
:100178001FF0000E206EE10E216EF50E226E050EA8
:10018800236E000E246E000E256E000E266E000EE5
:10019800276EE1EC1AF018C065F119C066F11AC0B3
:1001A80067F11BC068F11CC069F11DC06AF11EC06F
:1001B8006BF11FC06CF165C11AF066C11BF067C115
:1001C8001CF068C11DF069C11EF06AC11FF06BC147
:1001D80020F06CC121F09C0E226EFF0E236EFF0EE4
:1001E800246EFF0E256EFF0E266EFF0E276EFF0E85
:1001F800286EFF0E296EF2EC22F01AC000F11BC027
:1002080001F11CC002F11DC003F11EC004F11FC0A2
:1002180005F120C006F121C007F1CEC018F0CFC00B
:1002280019F0D0C01AF0D1C01BF0D2C01CF0D3C056
:100238001DF0D4C01EF0D5C01FF0400E206E420E37
:10024800216E0F0E226E000E236E000E246E000E1D
:10025800256E000E266E000E276EE1EC1AF018C00F
:1002680008F119C009F11AC00AF11BC00BF11CC032
:100278000CF11DC00DF11EC00EF11FC00FF10101E0
:10028800005108255D6F015109215E6F02510A2155
:100298005F6F03510B21606F04510C21616F055191
:1002A8000D21626F06510E21636F07510F21646F94
:1002B8005DC11AF05EC11BF05FC11CF060C11DF08A
:1002C80061C11EF062C11FF063C120F064C121F05A
:1002D8009C0E226EFF0E236EFF0E246EFF0E256EFF
:1002E800FF0E266EFF0E276EFF0E286EFF0E296E7C
:1002F800F2EC22F01AC000F11BC001F11CC002F19F
:100308001DC003F11EC004F11FC005F120C006F195
:1003180021C007F165C11AF066C11BF067C11CF066
:1003280068C11DF069C11EF06AC11FF06BC120F0E1
:100338006CC121F0F00E226ED80E236EFF0E246ED3
:10034800FF0E256EFF0E266EFF0E276EFF0E286E1F
:10035800FF0E296EF2EC22F01AC008F11BC009F159
:100368001CC00AF11DC00BF11EC00CF11FC00DF11D
:1003780020C00EF121C00FF1CEC018F0CFC019F087
:10038800D0C01AF0D1C01BF0D2C01CF0D3C01DF0F1
:10039800D4C01EF0D5C01FF0100E206E270E216E9F
:1003A800000E226E000E236E000E246E000E256EC7
:1003B800000E266E000E276EE1EC1AF018C010F140
:1003C80019C011F11AC012F11BC013F11CC014F1AD
:1003D8001DC015F11EC016F11FC017F1010108510B
:1003E8001025186F09511121196F0A5112211A6F1E
:1003F8000B5113211B6F0C5114211C6F0D5115212A
:100408001D6F0E5116211E6F0F5117211F6F0051BE
:100418001825556F01511921566F02511A21576F2E
:1004280003511B21586F04511C21596F05511D217F
:100438005A6F06511E215B6F07511F215C6F55C112
:100448001AF056C11BF057C11CF058C11DF059C114
:100458001EF05AC11FF05BC120F05CC121F09C0E58
:10046800226EFF0E236EFF0E246EFF0E256EFF0E0A
:10047800266EFF0E276EFF0E286EFF0E296EF2EC19
:1004880022F01AC000F11BC001F11CC002F11DC00E
:1004980003F11EC004F11FC005F120C006F121C000
:1004A80007F15DC11AF05EC11BF05FC11CF060C1AD
:1004B8001DF061C11EF062C11FF063C120F064C16C
:1004C80021F0F00E226ED80E236EFF0E246EFF0E62
:1004D800256EFF0E266EFF0E276EFF0E286EFF0E8E
:1004E800296EF2EC22F01AC008F11BC009F11CC0F9
:1004F8000AF11DC00BF11EC00CF11FC00DF120C088
:100508000EF121C00FF165C11AF066C11BF067C179
:100518001CF068C11DF069C11EF06AC11FF06BC1F3
:1005280020F06CC121F0C00E226EBD0E236EF00EBD
:10053800246EFF0E256EFF0E266EFF0E276EFF0E31
:10054800286EFF0E296EF2EC22F01AC010F11BC0C3
:1005580011F11CC012F11DC013F11EC014F11FC00F
:1005680015F120C016F121C017F1CEC018F0CFC088
:1005780019F0D0C01AF0D1C01BF0D2C01CF0D3C003
:100588001DF0D4C01EF0D5C01FF0640E206E000E02
:10059800216E000E226E000E236E000E246E000ED9
:1005A800256E000E266E000E276EE1EC1AF018C0BC
:1005B80018F119C019F11AC01AF11BC01BF11CC09F
:1005C8001CF11DC01DF11EC01EF11FC01FF101014D
:1005D80010511825206F11511921216F12511A211C
:1005E800226F13511B21236F14511C21246F1551A5
:1005F8001D21256F16511E21266F17511F21276FA8
:1006080008512025286F09512121296F0A512221DB
:100618002A6F0B5123212B6F0C5124212C6F0D5164
:1006280025212D6F0E5126212E6F0F5127212F6F57
:10063800005128254D6F015129214E6F02512A2161
:100648004F6F03512B21506F04512C21516F0551CD
:100658002D21526F06512E21536F07512F21546FB0
:100668004DC11AF04EC11BF04FC11CF050C11DF016
:1006780051C11EF052C11FF053C120F054C121F0E6
:100688009C0E226EFF0E236EFF0E246EFF0E256E4B
:10069800FF0E266EFF0E276EFF0E286EFF0E296EC8
:1006A800F2EC22F01AC000F11BC001F11CC002F1EB
:1006B8001DC003F11EC004F11FC005F120C006F1E2
:1006C80021C007F155C11AF056C11BF057C11CF0E3
:1006D80058C11DF059C11EF05AC11FF05BC120F06E
:1006E8005CC121F0F00E226ED80E236EFF0E246E30
:1006F800FF0E256EFF0E266EFF0E276EFF0E286E6C
:10070800FF0E296EF2EC22F01AC008F11BC009F1A5
:100718001CC00AF11DC00BF11EC00CF11FC00DF169
:1007280020C00EF121C00FF15DC11AF05EC11BF0AF
:100738005FC11CF060C11DF061C11EF062C11FF0F5
:1007480063C120F064C121F0C00E226EBD0E236E7D
:10075800F00E246EFF0E256EFF0E266EFF0E276E1E
:10076800FF0E286EFF0E296EF2EC22F01AC010F16F
:100778001BC011F11CC012F11DC013F11EC014F1F1
:100788001FC015F120C016F121C017F165C11AF07C
:1007980066C11BF067C11CF068C11DF069C11EF07D
:1007A8006AC11FF06BC120F06CC121F0000E226EEF
:1007B8001F0E236E0A0E246EFA0E256EFF0E266E8D
:1007C800FF0E276EFF0E286EFF0E296EF2EC22F048
:1007D8001AC018F11BC019F11CC01AF11DC01BF179
:1007E8001EC01CF11FC01DF120C01EF121C01FF149
:1007F800010110511825206F11511921216F125133
:100808001A21226F13511B21236F14511C21246FAD
:1008180015511D21256F16511E21266F17511F21B5
:10082800276F08512025286F09512121296F0A5166
:1008380022212A6F0B5123212B6F0C5124212C6F5D
:100848000D5125212D6F0E5126212E6F0F51272175
:100858002F6F00512825306F01512921316F025126
:100868002A21326F03512B21336F04512C21346F0D
:1008780005512D21356F06512E21366F07512F2135
:10088800376F0001CE5101013025436F0001CF5170
:1008980001013121446F0001D05101013221456F1E
:1008A8000001D15101013321466F0001D2510101EC
:1008B8003421476F0001D35101013521486F0001F0
:1008C800D45101013621496F0001D5510101372169
:1008D8004A6FCDC04BF1CCC04CF1C1EC29F0A00E51
:1008E800A6EC24F001014B51A6EC24F001014C5177
:1008F800A6EC24F0380E0001B76F010EB86FF90EA0
:10090800B96F7F0EBA6F65C1BBF066C1BCF067C135
:10091800BDF068C1BEF069C1BFF06AC1C0F06BC16B
:10092800C1F06CC1C2F078EC27F0380E1A6E010ED7
:100938001B6E8CEC29F0380E0001B76F010EB86FF2
:10094800F90EB96F7F0EBA6F5DC1BBF05EC1BCF026
:100958005FC1BDF060C1BEF061C1BFF062C1C0F04F
:1009680063C1C1F064C1C2F078EC27F0380E1A6E8A
:10097800010E1B6E8CEC29F0380E0001B76F010ECA
:10098800B86FF90EB96F7F0EBA6F55C1BBF056C17B
:10099800BCF057C1BDF058C1BEF059C1BFF05AC133
:1009A800C0F05BC1C1F05CC1C2F078EC27F0380E32
:1009B8001A6E010E1B6E8CEC29F0380E0001B76F11
:1009C800010EB86FF90EB96F7F0EBA6F4DC1BBF04B
:1009D8004EC1BCF04FC1BDF050C1BEF051C1BFF017
:1009E80052C1C0F053C1C1F054C1C2F078EC27F035
:1009F800380E1A6E010E1B6E8CEC29F0380E0001B1
:100A0800B76F010EB86FF90EB96F7F0EBA6F43C199
:100A1800BBF044C1BCF045C1BDF046C1BEF047C102
:100A2800BFF048C1C0F049C1C1F04AC1C2F078EC7A
:100A380027F0380E1A6E010E1B6E8CEC29F040EC74
:100A480029F01200000E0201296F000E286F010E16
:100A580078EC23F001018C51D8A4B0D2000E1D6EA1
:100A6800010E1C6E000E1F6E010E1E6E1C0E206EF7
:100A78007D0E216EB1EC1FF0000E1D6E020E1C6E75
:100A8800000E1F6E010E1E6E2E0E206E7F0E216E42
:100A9800B1EC1FF0000E1D6E040E1C6E000E1F6ED2
:100AA800010E1E6E620E206E7F0E216EB1EC1FF0DD
:100AB80085D23A5004E1020E395CD8A004D0000E69
:100AC8003A6E000E396E39C08CF1000EB76F020E07
:100AD800B86FF90EB96F7F0EBA6F8CC1BBF0BC6BE3
:100AE80078EC27F0000E1D6E040E1C6E000E1F6EB3
:100AF800080E1E6E000E206E020E216EB1EC1FF065
:100B08006DD2000E02012A6F000E1D6E010E1C6EC2
:100B1800000E1F6E010E1E6E780E206E7E0E216E68
:100B2800B1EC1FF0000E1D6E020E1C6E000E1F6E43
:100B3800010E1E6E3F0E206E7E0E216EB1EC1FF070
:100B4800000E1D6E040E1C6E000E1F6E010E1E6E32
:100B5800A20E206E7F0E216EB1EC1FF020EE31F058
:100B6800070EDE6AE806FDE2000E3A6E000E396EE8
:100B78003150321033103410351036103710381009
:100B8800D8A42BD0B2EC25F0000E0001B76F020EEE
:100B9800B86F950EB96F7F0EBA6F31C0BBF032C017
:100BA800BCF033C0BDF034C0BEF035C0BFF036C0B5
:100BB800C0F037C0C1F038C0C2F078EC27F0000EA2
:100BC8001D6E040E1C6E000E1F6E060E1E6E000EAD
:100BD800206E020E216EB1EC1FF00001F005D8A4C2
:100BE80058D0010E78EC23F002012A2B000E3A6E41
:100BF800000E396E000E0001F06F4BD0000E1D6E16
:100C0800010E1C6E000E1F6E010E1E6EBF0E206EB2
:100C18007E0E216EB1EC1FF0000E1D6E040E1C6ED0
:100C2800000E1F6E010E1E6ED00E206E7F0E216EFE
:100C3800B1EC1FF03A5004E1640E395CD8A004D03E
:100C4800000E3A6E000E396E39C029F2000E00010E
:100C5800B76F020EB86FE40EB96F7F0EBA6F29C274
:100C6800BBF0BC6B78EC27F0000E1D6E040E1C6EFA
:100C7800000E1F6E050E1E6E000E206E020E216EF7
:100C8800B1EC1FF00001F005D8A403D002012A2B13
:100C9800B1D702012A05D8A488D1B0D7295139EC97
:100CA8001DF00009D8A458D131C084F032C085F0B5
:100CB80033C086F034C087F035C088F036C089F07C
:100CC80037C08AF038C08BF022EC21F00009D8A494
:100CD80043D154EC27F01FC02BF220C02CF22BC2BA
:100CE800CCF02CC2CDF029C2CEF01AEC25F0020EC1
:100CF8000001D86F380ED76FAD0EE82EFED7D72F6C
:100D0800FCD7D82FFAD7030E02012B250001CC6F90
:100D1800000E02012C210001CD6F31C0CEF032C08F
:100D2800CFF033C0D0F034C0D1F035C0D2F036C0E7
:100D3800D3F037C0D4F038C0D5F0AAEC00F0020EDA
:100D48000001D86F380ED76FAD0EE82EFED7D72F1B
:100D5800FCD7D82FFAD707EC29F0020E0001D86F7C
:100D6800380ED76FAD0EE82EFED7D72FFCD7D82F69
:100D7800FAD7000E3A6E000E396E010E0201286F86
:100D8800140E0001B76F020EB86FF90EB96F7F0E1F
:100D9800BA6F2BC2BBF02CC2BCF078EC27F0230E44
:100DA800186E7F0E196E65EC26F0140E186E020E82
:100DB800196E65EC26F0F40E186E7F0E196E65EC50
:100DC80026F00D0E24EC2AF04E0E0001D76FEB0E24
:100DD800E82EFED7D72FFCD7140E0001B76F020EEE
:100DE800B86FF90EB96F7F0EBA6F000E1B6E000E4A
:100DF8001A6E4EEC25F00001D76FD751BB6FBC6B54
:100E080078EC27F0650E186E7E0E196E65EC26F0EC
:100E1800140E186E020E196E65EC26F0F40E186E9C
:100E28007F0E196E65EC26F00D0E24EC2AF0140ED8
:100E38000001B76F020EB86FF90EB96F7F0EBA6F67
:100E48002BC21AF02CC21BF04EEC25F00001D76F14
:100E5800D751BB6FBC6B78EC27F0520E186E7E0E24
:100E6800196E65EC26F0140E186E020E196E65ECFC
:100E780026F0F40E186E7F0E196E65EC26F00D0E36
:100E880024EC2AF04E0E0001D76FEB0EE82EFED7A9
:100E9800D72FFCD7140E0001B76F020EB86FE90EFA
:100EA800B96F7F0EBA6F030E02012B250001686F20
:100EB800000E02012C210001696F0A0E6A6F26ECF0
:100EC80015F068C0BBF069C0BCF06AC0BDF06BC06B
:100ED800BEF06CC0BFF06DC0C0F06EC0C1F06FC096
:100EE800C2F078EC27F0A20E186E7F0E196E65EC32
:100EF80026F0140E186E020E196E65EC26F0F40E2C
:100F0800186E7F0E196E65EC26F00D0E24EC2AF093
:100F1800010E78EC23F0000E1D6E020E1C6E000E02
:100F28001F6E010E1E6E460E206E7D0E216EB1ECF8
:100F38001FF03D0E0001D86FE10ED76F3F0EE82E6F
:100F4800FED7D72FFCD7D82FFAD700D0010E78ECD0
:100F580023F002012A2B2DD0010E78EC23F0000E8D
:100F68001D6E020E1C6E000E1F6E010E1E6E5B0EB5
:100F7800206E7D0E216EB1EC1FF03D0E0001D86F82
:100F8800E10ED76F3F0EE82EFED7D72FFCD7D82F0C
:100F9800FAD700D0000E3A6E000E396E000E01012D
:100FA8008E6F010E0201286FD4D7020E2A19D8B409
:100FB80075D6030E2A19D8B411D0DAD501018C518F
:100FC8000001D76FD86BD851000AD8A407D0D751E1
:100FD800000AD8B46ED5010AD8B493D50201280501
:100FE800D8A438D5000E01018D6F12008E51D96E2C
:100FF800DA6ADECFF6FFDDCFF7FF0800F550250AE5
:10100800D8A40CD28E51D96EDA6ADE2A000EDD22FF
:10101800000E0101706F000E6F6F6FC173F170C128
:1010280074F171697269000E00019E6F000E19D08B
:101038000101738100018E51D96EDA6ADE2A000E31
:10104800DD2231D001017383F5D701017385F2D711
:1010580001017387EFD701017389ECD7000E9E6FEA
:10106800010E9D6F20D08E51D96EDA6ADECFF6FF61
:10107800DDCFF7FF0800F550906F916B9151000A92
:10108800D8A4ECD79051200AD8B4E2D7030AD8B430
:10109800E2D7080AD8B4D9D7060AD8B4C9D71D0ADE
:1010A800D8B4D0D7DBD79D519E11D8B4DCD7010175
:1010B80073B1739300018E51D96EDA6ADECFF6FFF1
:1010C800DDCFF7FF0800F5502A0AD8A41BD08E51AF
:1010D800D96EDA6ADE2A000EDD228F51D96EDA6AFD
:1010E800020EDF26DF5CD96EDA6ADECF6FF1DECF63
:1010F80070F1010170AF3DD073816F6D701FD8B072
:10110800702B37D08E51D96EDA6ADECF1FF0DDCF63
:1011180020F086EC1BF01FC06FF120C070F106D0E4
:101128008E51D96EDA6ADE2A000EDD22D00E000159
:10113800906FFF0E916F8E51D96EDA6ADECFF6FF8F
:10114800DDCFF7FF0800F550926F936B905192270F
:1011580091519323935106E10A0E925DD8B002D0C3
:10116800010E01D0000E9F6FA06B9F51A011D8A453
:10117800D7D700018E51D96EDA6ADECFF6FFDDCF00
:10118800F7FF0800F550640AD8B40CD08E51D96E18
:10119800DA6ADECFF6FFDDCFF7FF0800F550690AFF
:1011A800D8A434D08E51D96EDA6ADE2A000EDD2238
:1011B8008F51D96EDA6ADF50DF2ADF2AD96EDA6AF0
:1011C800DECFA1F0DDCFA2F0000EA2BFFF0EA36F0D
:1011D800A46FA56FA66FA76FA86F8DC06AF0A1C096
:1011E8006BF0A2C06CF0A3C06DF0A4C06EF0A5C0F7
:1011F8006FF0A6C070F0A7C071F0A8C072F0D3EC71
:101208000FF06AC08DF06BC08EF012008E51D96E4F
:10121800DA6ADECF18F0DDCF19F0ED0E1A6E7F0E08
:101228001B6E000E1D6E020E1C6E77EC21F018501E
:101238001910D8B415D08E51D96EDA6ADECF18F0ED
:10124800DDCF19F0F00E1A6E7F0E1B6E000E1D6EAC
:10125800020E1C6E77EC21F018501910D8A43BD060
:101268008E51D96EDA6A020EDE26000EDD228F510B
:10127800D96EDA6ADFCF90F0040EDF269051D96E6E
:10128800DA6ADECF91F0DECF92F0DECF93F0DECFD8
:1012980094F091C095F092C096F093C097F094C0E6
:1012A80098F0996B98BF996999C09AF099C09BF08A
:1012B80099C09CF095C0A1F096C0A2F097C0A3F089
:1012C80098C0A4F099C0A5F09AC0A6F09BC0A7F05A
:1012D8009CC0A8F082D78E51D96EDA6ADECFF6FFAD
:1012E800DDCFF7FF0800F550750AD8A435D08E5128
:1012F800D96EDA6ADE2A000EDD228F51D96EDA6ADB
:10130800DF50DF2ADF2AD96EDA6ADECF90F0DDCF30
:1013180091F090C0A9F091C0AAF0AB6BAC6BAD6B2B
:10132800AE6BAF6BB06B8DC060F0A9C061F0AAC0A6
:1013380062F0ABC063F0ACC064F0ADC065F0AEC0A5
:1013480066F0AFC067F0B0C068F0CAEC17F060C0D4
:101358008DF061C08EF012008E51D96EDA6ADECF40
:1013680018F0DDCF19F0EA0E1A6E7F0E1B6E000E14
:101378001D6E020E1C6E77EC21F018501910D8A4BF
:1013880022D08E51D96EDA6A020EDE26000EDD22D8
:101398008F51D96EDA6ADFCF90F0040EDF269051B4
:1013A800D96EDA6ADECF91F0DECF92F0DECF93F01D
:1013B800DECF94F09151A96F9251AA6F9351AB6F00
:1013C8009451AC6FACD78E51D96EDA6ADECFF6FF86
:1013D800DDCFF7FF0800F550250AD8A414D08E51A8
:1013E800D96EDA6ADE2A000EDD22000E196E250E8D
:1013F800186E8DC01AF063EC22F0000E00018E6F9B
:10140800010E8D6F12008E51D96EDA6ADE2A000E37
:10141800DD22000E8E6F000E8D6F12008E51D96E78
:10142800DA6ADECFF6FFDDCFF7FF0800F550186E59
:10143800196A8DC01AF063EC22F000018E51D96E42
:10144800DA6ADE2A000EDD22D8D70101E051E11167
:10145800D8A412008E51D8A476D1000E1D6E010EAC
:101468001C6E000E1F6E010E1E6E9E0E206E7E0EEE
:10147800216EB1EC1FF0000E1D6E020E1C6E000EE8
:101488001F6E010E1E6E9C0E206E7F0E216EB1EC3B
:101498001FF0000E1D6E020E1C6E000E1F6E0A0E4F
:1014A8001E6EC60E206E7F0E216EB1EC1FF0000E70
:1014B8001D6E030E1C6E000E1F6E010E1E6ED50EE5
:1014C800206E7F0E216EB1EC1FF0000E1D6E030E14
:1014D8001C6E000E1F6E0A0E1E6EDA0E206E7F0E38
:1014E800216EB1EC1FF0000E1D6E040E1C6E000E76
:1014F8001F6E010E1E6ECB0E206E7F0E216EB1EC9C
:101508001FF0000E1D6E040E1C6E000E1F6E0A0EDC
:101518001E6EAE0E206E7F0E216EB1EC1FF0010E16
:1015280001018E6F10D13A5004E1190E395CD8A030
:1015380006D0000E446E000E3A6E000E396E39C0A9
:1015480044F0CE0EB76FB86BE40EB96F7F0EBA6F6A
:1015580044C0BBF0BC6B78EC27F0000E1D6E020E89
:101568001C6E000E1F6E060E1E6ECE0E206E216AB9
:10157800B1EC1FF00001F051D8B400D10101E92B02
:10158800000E3A6E000E396EDAD03A5004E13C0E85
:10159800395CD8A006D0000E436E000E3A6E000EDD
:1015A800396E39C043F0CE0EB76FB86BE40EB96F21
:1015B8007F0EBA6F43C0BBF0BC6B78EC27F0000E0F
:1015C8001D6E030E1C6E000E1F6E050E1E6ECE0ED7
:1015D800206E216AB1EC1FF00001F051D8A4CED7DB
:1015E800CDD03A5004E13C0E395CD8A006D0000EAC
:1015F800426E000E3A6E000E396E39C042F0CE0EC1
:10160800B76FB86BE40EB96F7F0EBA6F42C0BBF00C
:10161800BC6B78EC27F0000E1D6E040E1C6E000EDD
:101628001F6E050E1E6ECE0E206E216AB1EC1FF0E5
:10163800D3D73A5004E1200E395CD8A006D0000E6A
:10164800416E000E3A6E000E396E39C041F0CE0E72
:10165800B76FB86BE40EB96F7F0EBA6F41C0BBF0BD
:10166800BC6B78EC27F0000E1D6E020E1C6E000E8F
:101678001F6E0E0E1E6ECE0E206E216AB1EC1FF08C
:10168800ABD73A5004E10D0E395CD8A006D0000E55
:10169800406E000E3A6E000E396E39C040F0CE0E24
:1016A800B76FB86BE40EB96F7F0EBA6F40C0BBF06E
:1016B800BC6B78EC27F0000E1D6E030E1C6E000E3E
:1016C8001F6E0E0E1E6ECE0E206E216AB1EC1FF03C
:1016D80083D73A5004E1640E395CD8A006D0000ED6
:1016E8003F6E000E3A6E000E396E39C03FF0CE0ED6
:1016F800B76FB86BE40EB96F7F0EBA6F3FC0BBF01F
:10170800BC6B78EC27F0000E1D6E040E1C6E000EEC
:101718001F6E0F0E1E6ECE0E206E216AB1EC1FF0EA
:101728000001F051D8B42AD0010E0101E96F000E72
:101738003A6E000E396E000E456E010E906F000E67
:101748000001F06F1BD0E9510001CC6FCD6BCD517A
:10175800000AD8A413D0CC51010AD8B4E4D6030A9D
:10176800D8B413D7010AD8B43CD7070AD8B461D77C
:10177800010AD8B486D7030AD8B4ABD701019005BB
:10178800D8A407D0B8EC23F0F5EC23F0000E010143
:10179800906F000EE16F320EE06F1200000EE86FDE
:1017A80082C1E7F001018E51D8A464D0000E1D6EED
:1017B800010E1C6E000E1F6E010E1E6E5A0E206E5C
:1017C8007F0E216EB1EC1FF0000E1D6E030E1C6E15
:1017D800000E1F6E010E1E6EB40E206E7F0E216E5F
:1017E800B1EC1FF0000E1D6E040E1C6E000E1F6E75
:1017F800010E1E6E8E0E206E7F0E216EB1EC1FF054
:10180800010E01018E6F010E8B6F34D0E851040870
:10181800CC6FCC51E20FD96EDA6AE751010BDF6E5B
:10182800D890E731E76FE8510408CC6FCC51E20F4C
:10183800D96EDA6ADF50D8A409D0E8510408CC6F11
:10184800CC51E20FD96EDA6A300E12D0E851040892
:10185800CC6FCC51E20FD96EDA6ADE04D8A409D075
:10186800E8510408CC6FCC51E20FD96EDA6A310E18
:10187800DF6EE82B040E0001E865C8D70101E051CE
:10188800E111D8A412008E51D8B4E1D0000E1D6E1B
:10189800010E1C6E000E1F6E080E1E6EE20E206EEC
:1018A800216AB1EC1FF0CE0E0001B76FB86BE40EE1
:1018B800B96F7F0EBA6F44C0BBF0BC6B78EC27F0F1
:1018C800000E1D6E030E1C6E000E1F6E070E1E6EA0
:1018D800CE0E206E216AB1EC1FF0000E1D6E030EB5
:1018E8001C6E000E1F6E090E1E6EC90E206E7F0E36
:1018F800216EB1EC1FF0CE0E0001B76FB86BE40E8D
:10190800B96F7F0EBA6F43C0BBF0BC6B78EC27F0A1
:10191800000E1D6E030E1C6E000E1F6E0A0E1E6E4C
:10192800CE0E206E216AB1EC1FF0000E1D6E030E64
:101938001C6E000E1F6E0C0E1E6EC90E206E7F0EE2
:10194800216EB1EC1FF0CE0E0001B76FB86BE40E3C
:10195800B96F7F0EBA6F42C0BBF0BC6B78EC27F052
:10196800000E1D6E030E1C6E000E1F6E0D0E1E6EF9
:10197800CE0E206E216AB1EC1FF0CE0E0001B76FBB
:10198800B86BE40EB96F7F0EBA6F41C0BBF0BC6B89
:1019980078EC27F0000E1D6E040E1C6E000E1F6EF4
:1019A800070E1E6ECE0E206E216AB1EC1FF0000EDF
:1019B8001D6E040E1C6E000E1F6E090E1E6EFC0EB0
:1019C800206E7F0E216EB1EC1FF0CE0E0001B76FB6
:1019D800B86BE40EB96F7F0EBA6F40C0BBF0BC6B3A
:1019E80078EC27F0000E1D6E040E1C6E000E1F6EA4
:1019F8000A0E1E6ECE0E206E216AB1EC1FF0000E8C
:101A08001D6E040E1C6E000E1F6E0C0E1E6EFC0E5C
:101A1800206E7F0E216EB1EC1FF0CE0E0001B76F65
:101A2800B86BE40EB96F7F0EBA6F3FC0BBF0BC6BEA
:101A380078EC27F0000E1D6E040E1C6E000E1F6E53
:101A48000D0E1E6ECE0E206E216AB1EC1FF0000E38
:101A58000101E16F320EE06F1200D9D03D04D8A425
:101A680002D0010E01D0000E0101846F8405D8A4B4
:101A780017D03C04D8B483BC06D08D82010E7E6F8B
:101A8800000E7D6F01D08D92020E3C18D8B483BE33
:101A980006D08D80010E7D6F000E7E6F01D08D9077
:101AA8008451D8A402D08D928D90000E846FC4D03A
:101AB800010E78EC23F0000E1D6E020E1C6E000E57
:101AC8001F6E010E1E6EC80E206E7C0E216EB1ECCC
:101AD8001FF0000E1D6E030E1C6E000E1F6E010E11
:101AE8001E6EB30E206E7C0E216EB1EC1FF03D0E03
:101AF8000001CD6FE10ECC6F3F0EE82EFED7CC2F44
:101B0800FCD7CD2FFAD700D0010E78EC23F03DC0DA
:101B180044F03CC043F0010E426EB8EC23F0000ED6
:101B28001D6E020E1C6E000E1F6E010E1E6E180E2C
:101B3800206E7E0E216EB1EC1FF03D0E0001CD6FC0
:101B4800E10ECC6F3F0EE82EFED7CC2FFCD7CD2F61
:101B5800FAD700D0010E78EC23F06ED0010E78ECA5
:101B680023F0000E1D6E020E1C6E000E1F6E010E7D
:101B78001E6EC80E206E7C0E216EB1EC1FF0000E9A
:101B88001D6E030E1C6E000E1F6E010E1E6EB30E30
:101B9800206E7C0E216EB1EC1FF03D0E0001CD6F62
:101BA800E10ECC6F3F0EE82EFED7CC2FFCD7CD2F01
:101BB800FAD700D0010E78EC23F03DC041F03CC0CC
:101BC80040F0140E3F6EF5EC23F0000E1D6E020E71
:101BD8001C6E000E1F6E010E1E6E180E206E7E0EFD
:101BE800216EB1EC1FF03D0E0001CD6FE10ECC6F00
:101BF8003F0EE82EFED7CC2FFCD7CD2FFAD700D03A
:101C0800010E78EC23F018D0E0EC25F015D03E500A
:101C18000001CC6FCD6BCD51000AD8A40DD0CC51AA
:101C2800010AD8B41BD7030AD8B442D7010AD8B4DA
:101C380095D7070AD8B4E8D7000E0101866F000EC1
:101C4800876F000E886F720E186E7F0E196E65EC26
:101C580026F0CE0E0001B76FB86BF90EB96F7F0E84
:101C6800BA6F3EC0BBF0BC6B78EC27F0CE0E186E96
:101C7800196A65EC26F03F0E186E7F0E196E65EC3A
:101C880026F0D20E186E010E196E65EC26F0CE0EF7
:101C98000001B76FB86BE40EB96F7F0EBA6F3DC025
:101CA800BBF0BC6B78EC27F03F0E186E7F0E196EF8
:101CB80065EC26F0CE0E186E196A65EC26F0CE0E8D
:101CC8000001B76FB86BE40EB96F7F0EBA6F3CC0F6
:101CD800BBF0BC6B78EC27F03F0E186E7F0E196EC8
:101CE80065EC26F0CE0E186E196A65EC26F0F30E38
:101CF800186E7F0E196E65EC26F00D0E24EC2AF096
:101D08001200000E2B6E000E2E6E010E78EC23F0E2
:101D1800000E1D6E010E1C6E000E1F6E010E1E6E53
:101D2800EE0E206E7D0E216EB1EC1FF0000E1D6EC2
:101D3800020E1C6E000E1F6E010E1E6E030E206E2C
:101D48007E0E216EB1EC1FF03D0E0001856FE10E95
:101D5800846F3F0EE82EFED7842FFCD7852FFAD745
:101D680000D0F29EF29C010E78EC23F063D0C1EC17
:101D780029F0A00EA6EC24F0000EA6EC24F0000E2C
:101D8800A6EC24F0300EA6EC24F0300EA6EC24F0DD
:101D980040EC29F0020E0001856F380E846FAD0EFD
:101DA800E82EFED7842FFCD7852FFAD7000E1D6E9C
:101DB800010E1C6E000E1F6E010E1E6EDD0E206ED3
:101DC8007E0E216EB1EC1FF0000E1B6E000E1A6E17
:101DD8004EEC25F00009D8A410D0000E1D6E020E9E
:101DE8001C6E000E1F6E010E1E6EBA0E206E7F0E48
:101DF800216EB1EC1FF0010E0FD0000E1D6E020E09
:101E08001C6E000E1F6E010E1E6EC00E206E7F0E21
:101E1800216EB1EC1FF0000E2E6E070E0001856FCB
:101E2800170E846F6A0EE82EFED7842FFCD7852FF5
:101E3800FAD700F02E50D8B49AD7000E2E6E7BD069
:101E4800C1EC29F0A00EA6EC24F0000EA6EC24F0BC
:101E5800020EA6EC24F0000E2D6E000E2C6EFF0E66
:101E6800A6EC24F02C4A2D2A100E2C5C270E2D5897
:101E7800D8A0F5D740EC29F0020E0001856F380E86
:101E8800846FAD0EE82EFED7842FFCD7852FFAD7A6
:101E9800270E0001696F100E686F010E6A6F26EC3D
:101EA80015F068C084F069C085F06AC086F06BC020
:101EB80087F06CC088F06DC089F06EC08AF06FC082
:101EC8008BF0CF0E000184198511861187118811B6
:101ED80089118A118B11D8A411D0010E2E6E000E13
:101EE8001D6E030E1C6E000E1F6E010E1E6EBA0EC6
:101EF800206E7F0E216EB1EC1FF010D0000E2E6EFA
:101F0800000E1D6E030E1C6E000E1F6E010E1E6E5F
:101F1800C00E206E7F0E216EB1EC1FF0070E00017F
:101F2800856F170E846F6A0EE82EFED7842FFCD7B4
:101F3800852FFAD700F02E50D8B482D73D0E000175
:101F4800856FE10E846F3F0EE82EFED7842FFCD7F5
:101F5800852FFAD700D0010E78EC23F0000E1D6E05
:101F6800020E1C6E000E1F6E010E1E6E8B0E206E72
:101F78007E0E216EB1EC1FF05C0E0001856F510ED4
:101F8800846F600EE82EFED7842FFCD7852FFAD7F2
:101F980000F0010E78EC23F0F28EF28C12006BC088
:101FA80083F06CC084F06DC085F06EC086F06FC0A1
:101FB80087F070C088F071C089F072C08AF08AAF6B
:101FC80002D0010E01D0000E816F826B8151821107
:101FD800D8B410D08A1F891F881F871F861F851FA6
:101FE800841F836D000E84238523862387238823FB
:101FF80089238A23010172AF739372BF05D072518E
:1020080009E17105D8B006D0000E00017E6F010EFF
:102018007D6F04D071C17DF072C17EF06FC17FF019
:1020280070C180F0000181518211D8A403D0010150
:1020380073A504D000017F07D8A08007000E000117
:102048008C6F1F0E8B6F000E0101B36F7DD00001E6
:102058008B07D8A08C07940E8B25D96E010E8C2186
:10206800DA6E83C018F084C019F085C01AF086C0F3
:102078001BF087C01CF088C01DF089C01EF08AC004
:102088001FF00A0E206E000E216E000E226E000E4A
:10209800236E000E246E000E256E000E266E000EB6
:1020A800276E26EC1CF018C073F019C074F01AC023
:1020B80075F01BC076F01CC077F01DC078F01EC00C
:1020C80079F01FC07AF073C02AF075C02BF04FEC7E
:1020D80028F02A50300FDF6E7D07D8A07E077F07D3
:1020E800D8A0800783C018F084C019F085C01AF002
:1020F80086C01BF087C01CF088C01DF089C01EF088
:102108008AC01FF00A0E206E000E216E000E226E8D
:10211800000E236E000E246E000E256E000E266E35
:10212800000E276EE1EC1AF018C083F019C084F095
:102138001AC085F01BC086F01CC087F01DC088F04F
:102148001EC089F01FC08AF000018CBF20D08C51BE
:1021580003E18B05D8A01BD083518411851186110A
:102168008711881189118A11D8A471D77EBF05D02B
:102178007E5102E17D05D8B06AD780BF08D0805172
:1021880003E17F05D8A003D0010173B360D7000134
:1021980081518211D8A403D0010173A518D0000180
:1021A8008B07D8A08C0781518211D8A404D0000EC7
:1021B8007C6F2B0E03D0000E7C6F2D0E7B6F940E60
:1021C8008B25D96E010E8C21DA6E7BC0DFFF6AC0C9
:1021D80026F0940E00018B25276E010E8C21286EA7
:1021E8007FC029F080C02AF0ABEC22F026C06AF04C
:1021F80027C06BF012000101E051E111D8A41200D0
:102208008E51D8A42DD0000E1D6E010E1C6E000E2E
:102218001F6E010E1E6EA80E206E7F0E216EB1EC91
:102228001FF0000E1D6E020E1C6E000E1F6E010EBA
:102238001E6E5C0E206E7E0E216EB1EC1FF0000E3D
:102248001D6E040E1C6E000E1F6E010E1E6EB00E6B
:10225800206E7E0E216EB1EC1FF0010E01018E6F13
:102268003150321033103410351036103710381002
:10227800D8B49BD0CD0E0001B76FB86B950EB96F6F
:102288007F0EBA6F31C0BBF032C0BCF033C0BDF0B6
:1022980034C0BEF035C0BFF036C0C0F037C0C1F0A2
:1022A80038C0C2F078EC27F0000E1D6E010E1C6ECF
:1022B800000E1F6E060E1E6ECD0E206E216AB1EC4A
:1022C8001FF031C094F032C095F033C096F034C09E
:1022D80097F035C098F036C099F037C09AF038C0FA
:1022E8009BF0AEEC1DF00009D8B42FD0D70E00013A
:1022F800B76FB86BE40EB96F7F0EBA6F31C094F048
:1023080032C095F033C096F034C097F035C098F0DD
:1023180036C099F037C09AF038C09BF0AEEC1DF08B
:102328000001CC6FCC51BB6FBC6B78EC27F0000E72
:102338001D6E020E1C6E000E1F6E090E1E6ED70E4D
:10234800206E216AB1EC1FF00ED0000E1D6E020E39
:102358001C6E000E1F6E090E1E6EF60E206E7F0E8E
:10236800216EB1EC1FF0D70E0001B76FB86BE40E09
:10237800B96F7F0EBA6F000E1B6E000E1A6E4EEC10
:1023880025F00001CC6FCC51BB6FBC6B78EC27F00B
:10239800000E1D6E040E1C6E000E1F6E0F0E1E6EBC
:1023A800D70E206E216AB1EC1FF031503210331075
:1023B80034103510361037103810D8A43ED0000E1F
:1023C8001D6E010E1C6E000E1F6E060E1E6EEB0EAD
:1023D800206E7E0E216EB1EC1FF0000E1D6E020EF7
:1023E8001C6E000E1F6E090E1E6EF60E206E7F0EFE
:1023F800216EB1EC1FF0D70E0001B76FB86BE40E79
:10240800B96F7F0EBA6F000E1B6E000E1A6E4EEC7F
:1024180025F00001CC6FCC51BB6FBC6B78EC27F07A
:10242800000E1D6E040E1C6E000E1F6E0F0E1E6E2B
:10243800D70E206E216AB1EC1FF0000E0101E16F8A
:10244800320EE06F1200010E0001EF6F010EEE6F09
:10245800000EF26EF00E926E946895689668000E03
:102468008B6E000E8C6E000E8D6E95809582958415
:10247800958695880F0EC112070EB46EB0EC29F040
:10248800250E276E800E266E32EC24F046EC2AF0DC
:102498001BEC2AF0CCEC21F0F3EC28F008EC27F048
:1024A800010E78EC23F0000E1D6E010E1C6E000E5E
:1024B8001F6E010E1E6E5F0E206E7C0E216EB1EC3B
:1024C8001FF0000E1D6E020E1C6E000E1F6E010E18
:1024D8001E6E890E206E7C0E216EB1EC1FF0000E70
:1024E8001D6E030E1C6E000E1F6E010E1E6E9E0EDC
:1024F800206E7C0E216EB1EC1FF0000E1D6E040ED6
:102508001C6E000E1F6E010E1E6E5F0E206E7C0E7E
:10251800216EB1EC1FF03D0E0001EC6FE10EEB6F88
:102528003F0EE82EFED7EB2FFCD7EC2FFAD700D0C2
:10253800010E78EC23F0000E1D6E010E1C6E000ECD
:102548001F6E010E1E6E5F0E206E7C0E216EB1ECAA
:102558001FF0000E1D6E020E1C6E000E1F6E010E87
:102568001E6E740E206E7C0E216EB1EC1FF0000EF4
:102578001D6E030E1C6E000E1F6E010E1E6E5F0E8A
:10258800206E7C0E216EB1EC1FF03D0E0001EC6F49
:10259800E10EEB6F3F0EE82EFED7EB2FFCD7EC2FAA
:1025A800FAD700D0010E78EC23F0D58EF28AF284A7
:1025B80096909692958C958E83CFEDF00001ED5113
:1025C8001F0B0101826F3BD00400F6D70101815136
:1025D800D8B4F2D7020E816FEF0E0001E96FB8ECA4
:1025E8001CF0000E0101816F070EE86F8051D8A41E
:1025F800E3D7000E7F6FE0D701018051D8B4DCD754
:10260800020E806FEE0E0001946F81EC25F0000E33
:102618000101806F070EE76F8151D8B4EAD7CCD794
:10262800F29EF29C18EC1EF08151D8A405D080517E
:10263800D8A402D0000E7F6FF28EF28CBDD77F51E6
:102648000001EB6FEC6BEC51000AD8A4B5D7EB5145
:10265800000AD8B4B9D7010AD8B4B8D7030AD8B48D
:10266800CBD7010AD8B4DCD7A7D70001646F020E14
:102678000001616F000E636F000E606F09D0120ECB
:10268800636F100E03D0770E636F300E606F0ED03D
:102698006451296E2A6A2A50000AD8A407D0295002
:1026A8000C0AD8B4F0D7020AD8B4E9D76351800924
:1026B8001E6E020EFCEC29F0800E206E040EEFEC6C
:1026C80029F0800E206E0A0E08EC2AF0000E1E6E0D
:1026D800010EFCEC29F0000E0001666F000E656F1C
:1026E8000ED065512324D96E66512420DA6EDF504E
:1026F8001E6E090EFCEC29F00001654B662B255077
:10270800296E2A6A2950655D2A506659D8A0E9D7EA
:1027180064C01EF0010EFCEC29F00C0E00016419D7
:10272800D8A405D0800E206E0D0E08EC2AF000010A
:1027380065696669040E9EEC29F00001676F6507FC
:10274800D8A0660765516611D8A467B105D067514E
:1027580060150009D8B4EED7800E206E0D0EEFEC90
:1027680029F0000165516611D8B47ED0060E9EECA2
:1027780029F0296E1B0E2916D8A473D0000E00016B
:10278800616F67516315296E29A002D0010E616F30
:102798000C0E6419D8A468D00A0E9EEC29F000012A
:1027A800676F0C0E9EEC29F0070B0001626F6251F7
:1027B800D8B420D0F80E296EFF0E2A6E625167C079
:1027C8002BF02C6AD8902B362C36D8902B362C36FA
:1027D800D8902B362C362B26000E2C2229502B264F
:1027E8002A502C222850D96EDA6A2BC0DEFF2CC062
:1027F800DDFF09D06751080D2850D96EDA6AF3CF8A
:10280800DEFFF4CFDDFF6751D8A402D0010E676F59
:10281800100E676502D0100E676F000E666F000E0F
:10282800656F0DD065512624D96E66512720DA6E62
:10283800090E9EEC29F0DF6E0001654B662B67518F
:10284800296E2A6A2950655D2A506659D8A0EAD7A8
:1028580065512624D96E66512720DA6E000EDF6E88
:1028680003D0020E0001616F615112000600D9CF3A
:1028780008F0DACF09F0F3CF0AF0F4CF0BF09EAAF4
:102888002BD0B40E01018925D96EDA6A010EDA223D
:1028980036EC2AF0DF6E0AD0B40E8925D96EDA6AD2
:1028A800010EDA2236EC2AF0DF6E892BB40E892568
:1028B800D96EDA6A010EDA220D0EDE18D8A4ECD72A
:1028C800010E3B6E3B04D8A402D0030E7F6F000EAE
:1028D800D96F140ED86F9E9AF2A0AAD081B881AA97
:1028E80004D081AC02D081BEA2D0000E476E80A673
:1028F80081BE02D0010E476E80A481BE02D0020EB6
:10290800476E80A281BE02D0030E476E80A681BCAE
:1029180002D0040E476E80A481BC02D0050E476E1B
:1029280080A281BC02D0060E476E80A681BA02D072
:10293800070E476E80A481BA02D0080E476E80A2A7
:1029480081BA02D0090E476E80A481B802D0000E69
:10295800476E80A081BE02D00A0E476E80A281B861
:1029680002D00B0E476E19EC28F00A0E4718D8B49F
:1029780026D00B0E4718D8B422D04550D8A41FD063
:102988004650D8B411D039C001F03AC002F0000E58
:10299800046E0A0E036E79EC29F047500124396E53
:1029A800000E02203A6E0BD047C039F03A6A010E89
:1029B800466E000E01018E6F000E0001F06F0A0EC8
:1029C8004718D8B42DD00B0E4718D8B429D0465084
:1029D800D8A426D04504D8A423D03A5021E13C0EEF
:1029E800395CD8B01DD001018F51D8B411D039C08D
:1029F80001F03AC002F0000E046E0A0E036E79EC84
:102A080029F047500124396E000E02203A6E08D092
:102A180047C039F03A6A010E8F6F000E0001F06F5F
:102A28000A0E4718D8A403D0010E0001F06FF290E7
:102A38000BC0F4FF0AC0F3FF09C0DAFF08C0D9FFD2
:102A480048921100000E7A6F20EE7BF0070EDE6AC6
:102A5800E806FDE2F29C010E01017C6F69C079F085
:102A680068C07AF0C1EC29F0A00EA6EC24F00001B1
:102A78007951A6EC24F000017A51A6EC24F03CEC44
:102A88002AF0A10EA6EC24F0000E0001836FA1D05D
:102A98008351706F716BFF0E726FFF0E736F6A5107
:102AA800746F756B72517427735175237051741953
:102AB80034E171517519D8A430D09BEC27F000018E
:102AC800706FD00E7025716F726BFF0E7223736B6F
:102AD80072BF73077351746F7351756F7351766F4B
:102AE8007351776F7351786F7B5171257B6F7C5170
:102AF80072217C6F7D5173217D6F7E5174217E6FB1
:102B08007F5175217F6F80517621806F81517721A8
:102B1800816F82517821826F57D06A518319D8B456
:102B280053D09BEC27F00001706FD00E7025716FA9
:102B3800726BFF0E7223736B72BF73077351746FDE
:102B48007351756F7351766F7351776F7351786FD7
:102B58007B5171251A6E7C5172211B6E7D51732138
:102B68001C6E7E5174211D6E7F5175211E6E805121
:102B780076211F6E81517721206E82517821216E36
:102B88000A0E226E000E236E000E246E000E256EB5
:102B9800000E266E000E276E000E286E000E296E9F
:102BA800F2EC22F01AC07BF01BC07CF01CC07DF058
:102BB8001DC07EF01EC07FF01FC080F020C081F0D5
:102BC80021C082F0B1EC28F0280EE82EFED70001D3
:102BD800832B6A51835DD8A05BD71AEC29F040ECAF
:102BE80029F0000E01017C6FF28C7BC068F07CC07C
:102BF80069F07DC06AF07EC06BF07FC06CF080C069
:102C08006DF081C06EF082C06FF012005BD03D04A1
:102C1800D8B483AC09D0000E01017A6F010E796F28
:102C2800000E786F010E776F020E3D18D8B483AE90
:102C380009D0000E01017A6F020E796F000E786FCD
:102C4800010E776F3D04D8B483BC09D0000E010192
:102C58007A6F010E796F000E786F000E776F020E93
:102C68003D18D8B483BE43D0000E01017A6F020E1E
:102C7800796F000E786F000E776F39D03C5039ECC1
:102C88001DF00009D8B408D03CC077F10101786B79
:102C9800000E7A6F010E07D03CC077F10101786B06
:102CA800000E7A6F000E796F22D091C179F101017F
:102CB8007A6B1DD044C079F101017A6B43C077F17A
:102CC800786B15D03E500001CC6FCD6BCD51000A0A
:102CD800D8A40DD0CC51010AD8B499D7030AD8B4D6
:102CE800CDD7010AD8B4E1D7070AD8B4E3D7000E84
:102CF8000101886F000E866F000E876F790E186EBF
:102D08007F0E196E65EC26F0CE0E0001B76FB86B1A
:102D1800F90EB96F7F0EBA6F3EC0BBF0BC6B78EC92
:102D280027F0CE0E186E196A65EC26F03F0E186E65
:102D38007F0E196E65EC26F0D20E186E010E196E14
:102D480065EC26F0CE0E0001B76FB86BE40EB96FD4
:102D58007F0EBA6F79C1BBF07AC1BCF078EC27F06E
:102D68003F0E186E7F0E196E65EC26F0CE0E186EAB
:102D7800196A65EC26F0CE0E0001B76FB86BE40E49
:102D8800B96F7F0EBA6F77C1BBF078C1BCF078EC31
:102D980027F03F0E186E7F0E196E65EC26F0CE0EEA
:102DA800186E196A65EC26F0F30E186E7F0E196E10
:102DB80065EC26F00D0E24EC2AF0000E01017A6F66
:102DC800000E796F000E786F000E776F12003B04CB
:102DD800D8A412005B0E0101B419D8A4C3D0B30E55
:102DE8008925D96EDA6A010EDA225D0EDE18D8A4BA
:102DF800B9D0010E206E9ED02050D8B424D0030E36
:102E0800206021D0430EB519D8A407D04F0EB619AB
:102E1800D8A403D0010E886F8CD0430EB519D8A45E
:102E280007D0520EB619D8A403D0010E876F81D0EF
:102E3800500EB519D8A47DD0410EB619D8A479D0B2
:102E4800010E866F76D0040E2018D8A419D0310E42
:102E5800B819D8A402D0010E11D0320EB819D8A4CE
:102E680002D0020E0BD0330EB819D8A402D0030E2C
:102E780005D0340EB819D8A45CD0040E3E6E59D0D3
:102E8800050E206414D00B0E206011D0B40E20243F
:102E9800D96EDA6A010EDA22310EDE18D8B48A81C8
:102EA8000A0E2018D8B445D0D8908A3742D00B0ED5
:102EB80020643FD0110E20603CD00C0E2018D8A4FE
:102EC8000CD0B40E2024D96EDA6A010EDA22DF5053
:102ED800D00F0A0DF3CF3DF00ED00D0E2018D8A458
:102EE8000AD0B40E2024D96EDA6A010EDA22DF5035
:102EF8003D24D00F3D6E0F0E2018D8A40CD0B40E70
:102F08002024D96EDA6A010EDA22DF50D00F0A0DBA
:102F1800F3CF3CF00ED0100E2018D8A40AD0B40E6F
:102F28002024D96EDA6A010EDA22DF503C24D00F51
:102F38003C6E202A2050186E196AFE0E1A6EFF0E7B
:102F48001B6E89511C6E1D6A1A501C261B501D22AF
:102F580018501C5C1D50800A1E6E1950800A1E589D
:102F6800D8B04AD7000E1F6EB40E1F24D96EDA6A85
:102F7800010EDA22000EDF6E1F2A130E1F64F4D72B
:102F8800000E3B6E000E0101896F1200010172AF45
:102F9800739372BF05D0725109E17105D8B006D09C
:102FA800000E0001726F010E716F04D071C171F0D3
:102FB80072C172F06FC173F070C174F061C075F0C6
:102FC80062C076F063C077F064C078F065C079F0CD
:102FD80066C07AF067C07BF068C07CF0000E000124
:102FE8007E6F1F0E7D6F000E0101B36F77D0000159
:102FF8007D07D8A07E07940E7D25D96E010E7E210F
:10300800DA6E75C018F076C019F077C01AF078C07B
:103018001BF079C01CF07AC01DF07BC01EF07CC08C
:103028001FF00A0E206E000E216E000E226E000E9A
:10303800236E000E246E000E256E000E266E000E06
:10304800276ECBEC20F018C069F019C06AF01AC0DE
:103058006BF01BC06CF01CC06DF01DC06EF01EC084
:103068006FF01FC070F06951300FDF6E7107D8A084
:1030780072077307D8A0740775C018F076C019F0E6
:1030880077C01AF078C01BF079C01CF07AC01DF028
:103098007BC01EF07CC01FF00A0E206E000E216E51
:1030A800000E226E000E236E000E246E000E256E9A
:1030B800000E266E000E276E80EC1EF018C075F00C
:1030C80019C076F01AC077F01BC078F01CC079F0F0
:1030D8001DC07AF01EC07BF01FC07CF000017D513E
:1030E8007E11D8B41BD075517611771178117911EA
:1030F8007A117B117C11D8A47AD772BF05D072518E
:1031080002E17105D8B073D774BF08D0745103E1D8
:103118007305D8A003D0010173B369D760C026F046
:10312800940E00017D25276E010E7E21286E73C046
:1031380029F074C02AF0ABEC22F026C060F027C05A
:1031480061F012000101E051E111D8A412008E5182
:10315800D8A42DD0000E1D6E010E1C6E000E1F6E21
:10316800010E1E6EC40E206E7D0E216EB1EC1FF096
:10317800000E1D6E040E1C6E000E1F6E010E1E6EDC
:103188002C0E206E7E0E216EB1EC1FF0000E1D6E0F
:10319800020E1C6E000E1F6E010E1E6E6A0E206E51
:1031A8007F0E216EB1EC1FF0010E01018E6F100E23
:1031B800395C270E3A58D8A004D0000E3A6E000E9B
:1031C800396ED90E0001B76FB86BDF0EB96F7F0E7D
:1031D800BA6F39C0BBF03AC0BCF078EC27F0000EEB
:1031E8001D6E020E1C6E000E1F6E080E1E6ED90E8E
:1031F800206E216AB1EC1FF09F0E391811E10C0EF8
:103208003A18D8A40DD00001F005D8A409D0000EB2
:10321800466E000E3A6E000E396E010E456E5AD09B
:103228000A0E39181EE1020E3A18D8A41AD0000165
:10323800F005D8A416D0000E466E000E3A6E000EA9
:10324800396E000E01018E6F000E0001F06F000E46
:1032580001018C6F010E8D6F26EC05F0000E466E95
:103268003FD03A043910D8A40FD00001F005D8A4F3
:103278000BD0000E466E000E3A6E000E396E000E30
:10328800F06FE0EC25F0EAD7090E39180BE1030ED0
:103298003A18D8A407D00001F005D8A403D07AECD6
:1032A80019F01ED09F0E391804E10C0E3A18D8B444
:1032B80017D00A0E391804E1020E3A18D8B410D003
:1032C8000001F005D8A40CD0000E466E000E3A6E30
:1032D800000E396E000E01018E6F000E0001F06FB6
:1032E800000E0101E16F320EE06F1200010E78EC62
:1032F80023F0000E1D6E010E1C6E000E1F6E010ED7
:103308001E6E9A0E206E7D0E216EB1EC1FF0000E1F
:103318001D6E020E1C6E000E1F6E010E1E6E700ECC
:10332800206E7D0E216EB1EC1FF0000E1D6E030E97
:103338001C6E000E1F6E010E1E6E850E206E7D0E19
:10334800216EB1EC1FF0000E1D6E040E1C6E000EF7
:103358001F6E010E1E6EAF0E206E7D0E216EB1EC3B
:103368001FF07A0E256EC10E246E820EE82EFED74F
:10337800242EFCD7252EFAD7010E78EC23F0000E68
:103388001D6E020E1C6E000E1F6E010E1E6E070EC5
:10339800206E7D0E216EB1EC1FF03D0E256EE10E04
:1033A800246E400EE82EFED7242EFCD7252EFAD701
:1033B800010E78EC23F0000E1D6E020E1C6E000E3E
:1033C8001F6E010E1E6EF20E206E7C0E216EB1EC89
:1033D8001FF03D0E256EE10E246E400EE82EFED73E
:1033E800242EFCD7252EFAD7010E78EC23F0000EF8
:1033F8001D6E020E1C6E000E1F6E010E1E6EDD0E7F
:10340800206E7C0E216EB1EC1FF03D0E256EE10E94
:10341800246E400EE82EFED7242EFCD7252EFAD790
:10342800010E78EC23F0000E1D6E020E1C6E000ECD
:103438001F6E010E1E6E310E206E7D0E216EB1ECD8
:103448001FF03D0E256EE10E246E400EE82EFED7CD
:10345800242EFCD7252EFAD7FF001200480EF66E50
:103468007C0EF76E21EE35F0070E0900F5CFDEFF72
:10347800E806FBE2130EF66E7C0EF76E21EE00F006
:10348800340E0900F5CFDEFFE806FBE23E04D8A4BF
:1034980044D0350E186E010E196EDEEC28F0185067
:1034A8000101476F380E186E7F0E196E65EC26F015
:1034B800D20E186E010E196E65EC26F03F0E186ECE
:1034C8007F0E196E65EC26F03D0E0001B76F010EF8
:1034D800B86FF90EB96F7F0EBA6F47C1BBF0BC6BFE
:1034E80078EC27F03D0E186E010E196E65EC26F08B
:1034F8003F0E186E7F0E196E65EC26F0350E186EAD
:10350800010E196E65EC26F0F30E186E7F0E196E1B
:1035180065EC26F00D0E24EC2AF0020E3E18D8A415
:1035280044D0000E186E010E196EDEEC28F018500B
:103538000101486F410E186E7F0E196E65EC26F07A
:10354800D20E186E010E196E65EC26F03F0E186E3D
:103558007F0E196E65EC26F03D0E0001B76F010E67
:10356800B86FF90EB96F7F0EBA6F48C1BBF0BC6B6C
:1035780078EC27F03D0E186E010E196E65EC26F0FA
:103588003F0E186E7F0E196E65EC26F0000E186E51
:10359800010E196E65EC26F0F30E186E7F0E196E8B
:1035A80065EC26F00D0E24EC2AF0000E0101876F61
:1035B800000E886F000E866F1200000E0001616F0A
:1035C80027AE12D0271E261E251E241E231E221EAD
:1035D800211E206C000E21222222232224222522B1
:1035E80026222722010E616F1FAE12D01F1E1E1E3B
:1035F8001D1E1C1E1B1E1A1E191E186C000E1922D9
:103608001A221B221C221D221E221F22010E611BB0
:1036180020EE62F0070EDE6AE806FDE22050211077
:10362800221023102410251026102710D8B446D0B5
:10363800010E606F0AD0D890203621362236233604
:103648002436253626362736602B27AEF4D7D89071
:10365800623763376437653766376737683769377E
:103668002050185C2150195822501A5823501B58C2
:1036780024501C5825501D5826501E5827501F5896
:10368800D8A011D02050185E2150195A22501A5A29
:1036980023501B5A24501C5A25501D5A26501E5A76
:1036A80027501F5A6281D890273226322532243279
:1036B8002332223221322032602FC9D76151D8B447
:1036C80010D0691F681F671F661F651F641F631F6F
:1036D800626D000E632364236523662367236823D2
:1036E800692362C018F063C019F064C01AF065C09D
:1036F8001BF066C01CF067C01DF068C01EF069C0F2
:103708001FF01200000E2D6E000E2C6E000E266E9D
:10371800000E256E02D01F4A202A010E2B6E1FC0F4
:10372800F6FF20C0F7FF0800F550200AD8B418D0DB
:10373800F70E216EFF0E226E1FC0F6FF20C0F7FFA6
:103748000800F550236E246A215023262250242293
:10375800245004E1050E235CD8A002D0000E2B6E85
:103768002BC027F0286A27502810D8B408D0D3D700
:10377800000E266E010E256E1F4A202A2ED01FC06D
:10378800F6FF20C0F7FF0800F550216E226A22508C
:10379800000AD8A422D021502B0AD8B4EDD7060AA3
:1037A800D8B4E6D71AD02CC018F02DC019F0000EE6
:1037B8001B6E0A0E1A6E2DEC29F01FC0F6FF20C0F2
:1037C800F7FF0800F550185E000E195A300E18243D
:1037D8002C6E000E19202D6ECFD7D00E216EFF0E45
:1037E800226E1FC0F6FF20C0F7FF0800F550236EB9
:1037F800246A2150232622502422245006E10A0E4E
:10380800235CD8B002D0010E01D0000E296E2A6ABE
:1038180029502A10D8A4C7D725502610D8A40DD0CF
:103828002CC021F02DC022F0211E221E214A222A5E
:1038380021C01FF022C020F012002CC01FF02DC0A4
:1038480020F01200000E296E1FAE12D01F1E1E1E81
:103858001D1E1C1E1B1E1A1E191E186C000E192276
:103868001A221B221C221D221E221F22010E296E33
:1038780027AE10D0271E261E251E241E231E221EFC
:10388800211E206C000E21222222232224222522FE
:103898002622272220502110221023102410251020
:1038A80026102710D8B43CD0010E286E0AD0D89024
:1038B8002036213622362336243625362636273634
:1038C800282A27AEF4D72050185C215019582250C6
:1038D8001A5823501B5824501C5825501D58265040
:1038E8001E5827501F58D8A010D02050185E2150BD
:1038F800195A22501A5A23501B5A24501C5A255020
:103908001D5A26501E5A27501F5AD8902732263241
:10391800253224322332223221322032282ED3D7A4
:103928002950D8B410D01F1E1E1E1D1E1C1E1B1E83
:103938001A1E191E186C000E19221A221B221C228C
:103948001D221E221F2218C018F019C019F01AC013
:103958001AF01BC01BF01CC01CF01DC01DF01EC0BF
:103968001EF01FC01FF012000101E251E311D8A49C
:1039780035D04650D8A432D04550D8A42FD0000115
:10398800E951D96EDA6ADE04D8A405D0E951D96EB6
:10399800DA6A020E0BD0E951D96EDA6A020EDE1825
:1039A800D8A406D0E951D96EDA6A010EDF6E0ED0BE
:1039B800E951D96EDA6A030EDE18D8B4F3D7E951A3
:1039C800D96EDA6A040EDE18D8B4ECD7010E0101FC
:1039D800E36F2C0EE26F000E8E6F18D04604D8A449
:1039E80009D04550D8A406D00001E951D96EDA6A49
:1039F800030E0BD04504D8A409D04650D8A406D04D
:103A08000001E951D96EDA6A040EDF6E01018E51A8
:103A1800D8A403D0010E78EC23F00001E951D96E47
:103A2800DA6ADE04D8A403D0D2EC0BF01200E95114
:103A3800D96EDA6A020EDE18D8A403D0FFEC10F0B3
:103A48001200E951D96EDA6A030EDE18D8A403D041
:103A5800A6EC18F01200E951D96EDA6A040EDE18E5
:103A6800D8A4120029EC0AF012002A6E000E2B6E60
:103A7800000E2D6E000E0001696F000E686F020EB9
:103A88006A6F26EC15F068C084F069C085F06AC0DA
:103A980086F06BC087F06CC088F06DC089F06EC08E
:103AA8008AF06FC08BF0000184510101916F000E04
:103AB8002C6E49D02C50D8B403D02D500F0F01D004
:103AC800040E2D6E2DC068F00001696B020E6A6F3E
:103AD80026EC15F068C084F069C085F06AC086F0ED
:103AE8006BC087F06CC088F06DC089F06EC08AF03A
:103AF8006FC08BF02AC08CF000018D6B8E6B8F6BC2
:103B0800906B916B926B936B84518C1918E1855172
:103B18008D1915E186518E1912E187518F190FE120
:103B2800885190190CE18951911909E18A5192192A
:103B380006E18B519319D8A402D0010E2B6E2B509D
:103B4800D8A406D02C2A010191512C5CD8A0B2D758
:103B58002B501200000E2F6E000E2D6E94C084F0B4
:103B680095C085F096C086F097C087F098C088F019
:103B780099C089F09AC08AF09BC08BF022EC21F0A2
:103B8800E806D8A44FD0000E2E6E45D02E50D8A4EB
:103B980002D0070E02D02F500F0F2F6E2FC068F0E3
:103BA8000001696B0A0E6A6F26EC15F068C09CF07C
:103BB80069C09DF06AC09EF06BC09FF06CC0A0F019
:103BC8006DC0A1F06EC0A2F06FC0A3F000019451C7
:103BD8009C1920E195519D191DE196519E191AE1F4
:103BE80097519F1917E19851A01914E19951A119FA
:103BF80011E19A51A2190EE19B51A319D8A40AD038
:103C0800FD0E2F241A6E1B6AFF0E1B224EEC25F0A8
:103C18002D6E06D02E2A010191512E5CD8A0B6D760
:103C28002D501200000E1200000E0001DA6F82C142
:103C3800D9F039D0DA51D608D96E000ED8A0E82AC2
:103C48000108DA6ED951010BDF6ED890D931D96FDE
:103C5800DA51D608D96E000ED8A0E82A0108DA6E23
:103C6800DF50D8A40AD0DA51D608D96E000ED8A0F1
:103C7800E82A0108DA6E300E14D0DA51D608D96E67
:103C8800000ED8A0E82A0108DA6EDE04D8A40AD00B
:103C9800DA51D608D96E000ED8A0E82A0108DA6EE3
:103CA800310EDF6EDA2B040EDA65C4D7EBEC16F0B2
:103CB800010182518A19D8A412D08705D8A403D04B
:103CC80032EC1AF015D08605D8A403D031EC0DF0EB
:103CD8000FD08805D8A40CD00AEC16F009D0F40E41
:103CE800186E7F0E196E65EC26F00D0E24EC2AF086
:103CF800000E01018A6F120020EE28F0070EDE6A1E
:103D0800E806FDE22050211022102310241025106F
:103D180026102710D8B446D0010E306E0AD0D8909D
:103D280020362136223623362436253626362736BF
:103D3800302A27AEF4D7D890283629362A362B369B
:103D48002C362D362E362F362050185C2150195817
:103D580022501A5823501B5824501C5825501D58BF
:103D680026501E5827501F58D8A011D02050185E32
:103D78002150195A22501A5A23501B5A24501C5A9F
:103D880025501D5A26501E5A27501F5A2880D89051
:103D9800273226322532243223322232213220326F
:103DA800302EC9D728C018F029C019F02AC01AF037
:103DB8002BC01BF02CC01CF02DC01DF02EC01EF017
:103DC8002FC01FF01200000E216E1FAE0AD01F1E5A
:103DD8001E1E1D1E1C6C000E1D221E221F22010EFF
:103DE800216E1BAE0AD01B1E1A1E191E186C000E5F
:103DF80019221A221B22010E211A000E226E000E11
:103E0800236E000E246E000E256E1C501D101E1011
:103E18001F10D8B42AD0010E206E06D0D8901C36B8
:103E28001D361E361F36202A1FAEF8D7D8902236E8
:103E38002336243625361C50185C1D5019581E5040
:103E48001A581F501B58D8A009D01C50185E1D5076
:103E5800195A1E501A5A1F501B5A2280D8901F32C6
:103E68001E321D321C32202EE1D72150D8B408D082
:103E7800251E241E231E226C000E23222422252206
:103E880022C018F023C019F024C01AF025C01BF076
:103E98001200E851D8A404D0010E816F010E7F6F83
:103EA800E751D8A404D0010E806F020E7F6FE6514F
:103EB800D8A404D00DEC26F0070EE66FE451E51106
:103EC800D8A40FD04550D8A40CD07C51D8A409D080
:103ED8000FEC20F06DEC20F0000E0101E56F640E90
:103EE800E46FDC51DD11D8A407D08D90000E7D6FF2
:103EF800020EDD6FBC0EDC6FDE51DF11D8A408D0D6
:103F08008D928D90000E7E6F020EDF6FBC0EDE6FFD
:103F1800DA51DB11D8A406D0020EDB6FBC0EDA6FC3
:103F2800000E856FD851D911D8A41200000ED96F90
:103F3800140ED86F000E106EB40E1024D96EDA6A03
:103F4800010EDA22000EDF6E102A130E1064F4D769
:103F5800000E3B6E000E896F120017D01E048009F8
:103F680078EC23F027D01E503F0F800978EC23F01F
:103F780021D01E50130F800978EC23F01BD01E505F
:103F8800530F800978EC23F015D01CC022F01DC017
:103F980023F02350000AD8A40DD02250010AD8B427
:103FA800DDD7030AD8B4DFD7010AD8B4E2D7070AA5
:103FB800D8B4E5D7100E226E940EE82EFED7222E26
:103FC800FCD700D014D020C0F6FF21C0F7FFF86A54
:103FD800070EF76403D00800F55005D0F6CFE1FFCF
:103FE800F7CFE2FFE75038EC23F0204A212A20C01F
:103FF800F6FF21C0F7FFF86A070EF76403D0080040
:10400800F55005D0F6CFE1FFF7CFE2FFE750000902
:10401800D8B41200D8D7D1EC29F0D00EE0EC24F0B7
:10402800000EE0EC24F041EC2AF0D10EE0EC24F094
:10403800BCEC27F0426E66EC29F053EC29F0D1EC89
:1040480029F0D00EE0EC24F0010EE0EC24F041EC75
:104058002AF0D10EE0EC24F0BCEC27F0436E66ECBD
:1040680029F053EC29F0D1EC29F0D00EE0EC24F043
:10407800020EE0EC24F041EC2AF0D10EE0EC24F042
:10408800BCEC27F0446E66EC29F053EC29F042387A
:104098000F0B0A0DF3CF0EF042500F0B0F6E0E50A0
:1040A8000F24426E43380F0B0A0DF3CF0EF0435026
:1040B8000F0B0F6E0E500F24436E44380F0B0A0D72
:1040C800F3CF0EF044500F0B0F6E0E500F24446EBA
:1040D8001200D1EC29F0D00EE0EC24F0040EE0EC54
:1040E80024F041EC2AF0D10EE0EC24F0BCEC27F0EF
:1040F800416E66EC29F053EC29F0D1EC29F0D00E92
:10410800E0EC24F0050EE0EC24F041EC2AF0D10EAE
:10411800E0EC24F0BCEC27F0406E66EC29F053ECA0
:1041280029F0D1EC29F0D00EE0EC24F0060EE0ECFA
:1041380024F041EC2AF0D10EE0EC24F0BCEC27F09E
:104148003F6E66EC29F053EC29F041380F0B0A0D4D
:10415800F3CF0EF041500F0B0F6E0E500F24416E2F
:1041680040380F0B0A0DF3CF0EF040500F0B0F6EB7
:104178000E500F24406E3F380F0B0A0DF3CF0EF090
:104188003F500F0B0F6E0E500F243F6E1200205041
:104198002110221023102410251026102710D8B41F
:1041A8003CD0010E286E0AD0D8902036213622360F
:1041B80023362436253626362736282A27AEF4D73E
:1041C8002050185C2150195822501A5823501B5857
:1041D80024501C5825501D5826501E5827501F582B
:1041E800D8A010D02050185E2150195A22501A5ABF
:1041F80023501B5A24501C5A25501D5A26501E5A0B
:1042080027501F5AD890273226322532243223329B
:10421800223221322032282ED3D718C018F019C0E4
:1042280019F01AC01AF01BC01BF01CC01CF01DC0EE
:104238001DF01EC01EF01FC01FF01200000E2A6ED7
:10424800000E2C6E000E1B6E000E1A6E4EEC25F042
:10425800916F000E2B6E40D02B50D8A402D0070EC1
:1042680002D02C500F0F2C6E2CC068F00001696B27
:104278000A0E6A6F26EC15F068C08CF069C08DF0E4
:104288006AC08EF06BC08FF06CC090F06DC091F07A
:104298006EC092F06FC093F0000184518C1919E13F
:1042A80085518D1916E186518E1913E187518F19A1
:1042B80010E1885190190DE1895191190AE18A514B
:1042C800921907E18B519319D8A403D0010E2A6ED5
:1042D80008D0000E2A6E2B2A010191512B5CD8A020
:1042E800BBD72A50120018C01FF019C020F01AC0FE
:1042F80021F01BC022F01C06D8A01D061C280FE1C7
:104308001D28D8A40CD0000E196E000E186E1200CD
:104318001F4A202A214A222A1C06D8A01D061FC08F
:10432800F6FF20C0F7FF0800F5500009D8B41DD0EB
:1043380021C0F6FF22C0F7FF0800F5500009D8B4E5
:1043480014D01C501D10D8B410D01FC0F6FF20C0C8
:10435800F7FF0800F5CF1EF021C0F6FF22C0F7FFD7
:104368000800F5501E18D8B4D3D71FC0F6FF20C0D8
:10437800F7FF0800F5CF1EF021C0F6FF22C0F7FFB7
:104388000800F5501E5C186E196AD8A019061200AC
:10439800020E1D6E860E1C6E990EE82EFED71C2E80
:1043A800FCD71D2EFAD700F0000E1E6E030E78EC17
:1043B80023F06E0E1C6E160EE82EFED71C2EFCD7B0
:1043C8001E2A020E1E64F2D7330E78EC23F0F00E8C
:1043D80000D0E82EFDD7320E78EC23F04E0E1C6E7E
:1043E800EB0EE82EFED71C2EFCD700F0280E78EC3A
:1043F80023F0F00E00D0E82EFDD70C0E78EC23F059
:10440800F00E00D0E82EFDD7060E78EC23F0F00E63
:1044180000D0E82EFDD7010E78EC23F06E0E1C6E4E
:10442800160EE82EFED71C2EFCD71200000E686F61
:10443800000E1E6E0D0EFCEC29F02DC0D9FF2EC00B
:10444800DAFF930EDF6E20EE01F02D50D9262E50A4
:10445800DA22200EDF6E080E206E080EEFEC29F02F
:104468002DC023F02EC024F0020E256E2DC026F09C
:104478002EC027F0690E286E0C0E39EC13F06B6F06
:104488006B51D8A41AD0000E6C6F6C512D24D96EC4
:10449800000E2E20DA6EDF50681B6C2B030E6C6545
:1044A800F4D720EE04F02D50D9262E50DA22685188
:1044B800DE18D8B402D0020E6B6F6B5112001A507E
:1044C800D8B403D01A50D8A404D0185049EC2AF014
:1044D80012001A50D96EDA6A040ED926DE50DE10A0
:1044E800D8B414D01A50D96EDA6A040ED9261A50E4
:1044F800E16EE26A020EE126DE50E65CE650800AD2
:104508001F6EDE50800A1F58D8B012001A50D96E9C
:10451800DA6A020ED926DECF1BF0DDCF1CF01A5066
:10452800D96EDA6ADECF1DF0DDCF1EF01B501D24D8
:10453800D96E1C501E20DA6E18C0DFFF1A50D96ED3
:10454800DA6A020ED926DE2A000EDD2212000101E7
:1045580073A108D027C020F028C021F026C022F07F
:1045680035EC28F02ABE05D029C02EF02AC02FF03D
:1045780004D0000E2F6E000E2E6E000E2D6E000E53
:104588002C6E0AD0000E196E200E186E26C01AF076
:1045980063EC22F02C4A2D2A2E502C5C2D50800AD8
:1045A8002B6E2F50800A2B58D8A0ECD7010173B17D
:1045B80008D027C020F028C021F026C022F035EC12
:1045C80028F027C018F028C019F0DEEC28F02E508B
:1045D8001824266E2F501920276E120020EE60F046
:1045E800070EDE6AE806FDE21AA011D0225000018B
:1045F80060272350612324506223255063232650CB
:104608006423275065232850662329506723D890B0
:1046180022362336243625362636273628362936B6
:10462800D890213220321F321E321D321C321B32EA
:104638001A321A501B101C101D101E101F102010AB
:104648002110D8A4D1D760C01AF061C01BF062C095
:104658001CF063C01DF064C01EF065C01FF066C08A
:1046680020F067C021F012001B6EF29CC1EC29F00B
:10467800F00E00D0E82EFDD74E0EA6EC24F0F00E7A
:1046880000D0E82EFDD71B50F00B0D09A6EC24F046
:10469800F00E00D0E82EFDD71B50F00B0909A6EC50
:1046A80024F0F00E00D0E82EFDD71B38F00BF00BED
:1046B8000D09A6EC24F0F00E00D0E82EFDD71B382B
:1046C800F00BF00B0909A6EC24F0F00E00D0E82E50
:1046D800FDD740EC29F0200E1A6E2A0EE82EFED7E0
:1046E8001A2EFCD7F28C12001B6EF29CC1EC29F03A
:1046F800F00E00D0E82EFDD74E0EA6EC24F0F00EFA
:1047080000D0E82EFDD71B50F00B0C09A6EC24F0C6
:10471800F00E00D0E82EFDD71B50F00B0809A6ECD0
:1047280024F0F00E00D0E82EFDD71B38F00BF00B6C
:104738000C09A6EC24F0F00E00D0E82EFDD71B38AB
:10474800F00BF00B0809A6EC24F0F00E00D0E82ED0
:10475800FDD740EC29F0200E1A6E2A0EE82EFED75F
:104768001A2EFCD7F28C1200000E1D6EC1EC29F037
:10477800D00EA6EC24F0000EA6EC24F00A0E186E5B
:104788004250FCEC27F01D6E1D50F60DF3504224EC
:104798001C6E1D38F00B1C10A6EC24F00A0E186EC7
:1047A8004350FCEC27F01D6E1D50F60DF3504324CA
:1047B8001C6E1D38F00B1C10A6EC24F00A0E186EA7
:1047C8004450FCEC27F01D6E1D50F60DF3504424A8
:1047D8001C6E1D38F00B1C10A6EC24F040EC29F0E0
:1047E8001200000E1D6EC1EC29F0D00EA6EC24F0CC
:1047F800040EA6EC24F00A0E186E4150FCEC27F0CB
:104808001D6E1D50F60DF35041241C6E1D38F00B23
:104818001C10A6EC24F00A0E186E4050FCEC27F091
:104828001D6E1D50F60DF35040241C6E1D38F00B04
:104838001C10A6EC24F00A0E186E3F50FCEC27F072
:104848001D6E1D50F60DF3503F241C6E1D38F00BE5
:104858001C10A6EC24F040EC29F01200948E949CD5
:10486800AC9426C01CF027C01DF01E6A1F6A000EFB
:10487800186E6C0E196EDC0E1A6E020E1B6EE7ECCB
:104888001EF018C028F019C029F01AC02AF01BC061
:104898002BF028C018F029C019F02AC01AF02BC034
:1048A8001BF0400E1C6E000E1D6E000E1E6E000EDC
:1048B8001F6EE7EC1EF01804AF6EAC98AB8EAC9C84
:1048C800AC8AAB88AB9CF28E9D8A9F8AF28C1200D0
:1048D800C50E296E9D0E2A6E1C0E2B6E810E2C6E37
:1048E800000E2D6E29C018F02AC019F02BC01AF03E
:1048F8002CC01BF0930E1C6E010E1D6E000E1E6E5A
:10490800010E1F6E3AEC26F0C80E2D24D96EDA6A15
:10491800010EDA22DF50286E28501818296E195017
:104928002A6E1A502B6E1B502C6E2D2A040E2D64E5
:10493800D9D729C024F02AC025F02BC026F02CC0D6
:1049480027F01200186E010E0101926F82A202D0A8
:1049580082929492140EE82EFED7000E196E18BE9D
:1049680003D08290949001D09480D8901836080E85
:10497800E82EFED794820C0EE82EFED794928292EF
:10498800140EE82EFED7192A070E1964E8D794806A
:10499800080EE82EFED7948282A002D0010E01D024
:1049A800000E0101926F0C0EE82EFED794928292AF
:1049B800140EE82EFED712000C6E010E0101926F44
:1049C80082A202D082929492140EE82EFED7000E94
:1049D8000D6E0CBE03D08290949001D09480D89034
:1049E8000C36080EE82EFED794820C0EE82EFED761
:1049F80094928292140EE82EFED70D2A070E0D64AB
:104A0800E8D79480080EE82EFED7948282A002D0C0
:104A1800010E01D0000E0101926F0C0EE82EFED798
:104A280094928292140EE82EFED71200000E000116
:104A3800D56FCDC0D4F0CCC0D5F0C1EC29F0A00E14
:104A4800A6EC24F00001CC51CD11D8B408D0D45133
:104A5800A6EC24F00001D551A6EC24F006D0000EF7
:104A6800A6EC24F0000EA6EC24F0CF0E0001B76FE0
:104A7800B86BE40EB96F7F0EBA6FCEC0BBF0BC6BDB
:104A880078EC27F0CF0E1A6E1B6A8CEC29F040ECFC
:104A980029F01200000E1D6E000E1E6EF29C010E13
:104AA80001017C6F1BC01CF01AC01DF0C1EC29F07D
:104AB800A00EA6EC24F01C50A6EC24F01D50A6EC89
:104AC80024F03CEC2AF0A10EA6EC24F09BEC27F095
:104AD800D00F0A0DF3CF1EF0B1EC28F09BEC27F0B5
:104AE8001E24D00F1E6E1AEC29F040EC29F0000E9F
:104AF80001017C6FF28C1E5012009451D96EDA6A53
:104B0800DE04D8A40BD0BC0E0101DA1907E1020EAD
:104B1800DB19D8A403D0B2EC25F009D000019451D8
:104B2800D96EDA6A020EDE18D8B4E1EC26F000017C
:104B38009451D96EDA6A9451E16EE26AE750956F42
:104B48009529DF6E9451D96EDA6A020EDF6412007D
:104B58009451D96EDA6A010EDF6E120001018D518F
:104B6800D8A406D020EE31F0070EDE6AE806FDE292
:104B7800D60E2F6E010E306EE1EC29F00009D8B484
:104B88001200C80E6D6F010E6E6FC8EC28F0000998
:104B9800D8B412006CEC24F02450316E2550326EDB
:104BA8002650336E2750346E356A366A376A386A4B
:104BB800010E0101856F1200010E78EC23F0000E42
:104BC8001D6E010E1C6E000E1F6E010E1E6ECE0EA7
:104BD800206E7E0E216EB1EC1FF0000E1D6E020ECF
:104BE8001C6E000E1F6E010E1E6ED90E206E7D0EFD
:104BF800216EB1EC1FF03D0E306EE10E2F6E400EAF
:104C0800E82EFED72F2EFCD7302EFAD785EC0EF0E3
:104C180012008990898289848986000E0C6E000EA4
:104C28000D6E80B005D00D50D8A402D0898089922D
:104C380080B205D00D04D8A402D08982899480B4AA
:104C480006D0020E0D18D8A402D08984899680B6A1
:104C580004D0040E0D18D8B489860D2A040E0D64EC
:104C6800E0D70C2A030E0C64DAD71200000E206E6F
:104C7800000E216E000E226E000E236E18A008D0C2
:104C88001C5020261D5021221E5022221F50232254
:104C9800D8901C361D361E361F36D8901B321A3255
:104CA80019321832185019101A101B10D8A4E6D748
:104CB80020C018F021C019F022C01AF023C01BF040
:104CC800120015D018C0F6FF19C0F7FFF86A070ED2
:104CD800F76403D00800F55005D0F6CFE1FFF7CF11
:104CE800E2FFE750AD6EACA2FED7184A192A18C0E9
:104CF800F6FF19C0F7FFF86A070EF76403D008003B
:104D0800F55005D0F6CFE1FFF7CFE2FFE7500009F5
:104D1800D8B41200D7D70001686F070E1E6E0D0EAB
:104D2800FCEC29F02DC0D9FF2EC0DAFF68C0DFFFE8
:104D38002DC023F02EC024F0010E256E2DC026F0C4
:104D48002EC027F06A0E286E0C0E39EC13F0696F2E
:104D58006951D8A405D0100E6A196B11D8B402D0C5
:104D6800020E696F69511200B2C0B5F0B3C0B6F057
:104D7800000E01016E6F000E6D6F11D0B1C08DF085
:104D8800B50E00018E6FB4C08FF0FAEC07F0000189
:104D98008D5101016D2700018E5101016E23B5C0AF
:104DA800F6FFB6C0F7FF0800F5500009D8A4E6D70B
:104DB8006DC1B1F06EC1B2F0120001018505D8A431
:104DC8001200DE51DF11D8B4120031C084F032C0B5
:104DD80085F033C086F034C087F035C088F036C01F
:104DE80089F037C08AF038C08BF022EC21F0E80651
:104DF800D8A4120083BC12008D828D80010E01019F
:104E08007E6F000E7D6F1200939093968A808A863B
:104E18002AEC2AF08D0E1E6E2A0EFCEC29F03E0EAE
:104E28001E6E2B0EFCEC29F01E0E1E6E2D0EFCECD9
:104E380029F0000E1E6E2C0EFCEC29F0400E1E6EA2
:104E4800150EFCEC29F03D0E1E6E110EFCEC29F03F
:104E580030EC2AF01200240EF66E540EF76E000E97
:104E6800F86E01EED8F010EE12F00900F5CFEEFF63
:104E7800E550E150FAE101EE6DF06B0EEE6AE806DE
:104E8800FDE10001F06B00EE31F0170EEE6AE80666
:104E9800FDE148904892000EF86E000127EF12F0ED
:104EA800000E246E000E236E000E1B6E000E1A6E8E
:104EB8004EEC25F0256E2550D8B40DD025500F0D99
:104EC800F3CF21F0F4CF22F0040E2124236E000E3C
:104ED8002220246E04D0000E246E040E236E23C0FC
:104EE8001FF024C020F01200BB0E0001C56FB7C030
:104EF800C6F0B8C0C7F0000EC96F000EC86F000E2C
:104F0800CB6F000ECA6FC60EB16FB9C0B2F0BAC08F
:104F1800B3F0C50EB46FB8EC26F00001C851B72540
:104F2800D96EC951B821DA6E000EDF6E1200000E7C
:104F3800186E948082A202D082929492000E196E0A
:104F4800140EE82EFED7D89018369482080EE82E54
:104F5800FED782B018800C0EE82EFED782A202D0AF
:104F680094928292192A070E1964EAD718501200EF
:104F7800000E0C6E948082A202D082929492000E4F
:104F88000D6E140EE82EFED7D8900C369482080EBB
:104F9800E82EFED782B00C800C0EE82EFED782A237
:104FA80002D0949282920D2A070E0D64EAD70C5013
:104FB8001200010E1E6E200E18181910D8B414D045
:104FC800F70E1A6EFF0E1B6E18C01CF019C01DF0EC
:104FD8001A501C261B501D221D5004E1050E1C5C96
:104FE800D8A002D0000E1E6E1EC018F0196A12005A
:104FF800196E000E1B6E1850D8B415D0010E1A6E1B
:1050080003D0D89018361A2A18AEFBD7D8901B367A
:105018001850195CD8A003D01850195E1B80D8907E
:1050280018321A2EF3D71B501200040E026E0C0E03
:10503800016E340EE82EFED7012EFCD7022EFAD7C9
:1050480008D09C0E016ED70EE82EFED7012EFCD795
:1050580000F081B881AAF5D781ACF3D781BE1200E0
:10506800F0D7000E256E000E246E09D023C018F06C
:10507800196A22C01AF063EC22F0244A252A245027
:105088002024D96E25502120DA6EDF50236E23505C
:10509800D8B41200EBD72BBE05D02B5010E12A0450
:1050A800D8B00DD02AC02CF02BC02DF02C1E2D1EF0
:1050B8002C4A2D2A2CC02AF02DC02BF012002AC011
:1050C8002AF02BC02BF01200186E000E196E000E7D
:1050D800196E18AE02D0898801D08998D8901836F0
:1050E8008A84280EE82EFED78A94280EE82EFED74A
:1050F800192A070E1964EDD71200D00E1A6EFF0E8A
:105108001B6E18C01CF019C01DF01A501C261B502D
:105118001D221D5006E10A0E1C5CD8B002D0010EFB
:1051280001D0000E186E196A1200000E1B6E000ED8
:105138001A6E000E1B6ED8901A368A84280EE82E36
:10514800FED780BA1A808A94280EE82EFED71B2A2A
:10515800070E1B64F0D71A50120082A202D0829266
:105168009492140EE82EFED782909490040EE82EA6
:10517800FED794820C0EE82EFED782929492040EEB
:10518800E82EFED7948012006DC02DF06EC02EF070
:105198001AEC22F0306E20EE05F06D51D9266E51D2
:1051A800DA22000EDF6E3050D8A402D0010E1200B1
:1051B800000E120018C01AF019C01BF002D0184ACD
:1051C800192A18C0D9FF19C0DAFFDF50D8A4F7D7B9
:1051D8001A50185C186E1B501958196E12008980E5
:1051E80089828984898693889290938A9292938CF3
:1051F8009294938E9296F19EF29EF290F286F180AE
:10520800F28CF28E1200000E1B6E000E1A6E4EEC1F
:1052180025F00001D66FD629D66F000ECD6F000E8F
:10522800CC6FD6C0CEF01AEC25F01200140EE82E82
:10523800FED79480040EE82EFED79482100EE82E36
:10524800FED782929492140EE82EFED78290949004
:10525800120018501A02F3CF1CF0F4CF1DF01850AA
:105268001B02F3501D2619501A02F3501D261CC0AC
:1052780018F01DC019F012008290949082929492B6
:10528800040EE82EFED79482080EE82EFED79480EE
:10529800080EE82EFED7140EE82EFED712008290D4
:1052A800949082929492040EE82EFED79482080E6F
:1052B800E82EFED79480080EE82EFED7140EE82EAE
:1052C800FED71200140EE82EFED79480040EE82EA6
:1052D800FED79482100EE82EFED782929492140E76
:1052E800E82EFED782909490120001500302F3CF6B
:1052F80005F0F4CF06F001500402F35006260250E0
:105308000302F350062605C001F006C002F01200A1
:1053180009D01AC0D9FF1BC0DAFFDF50A6EC24F071
:105328001A4A1B2A1AC0D9FF1BC0DAFFDF50D8B4AB
:105338001200EFD71C6E8A901C501C247E0B80092B
:1053480068EC28F0000E196E000E186E99EC28F023
:105358001D6E8A801D501200D58ED59CD59AD59881
:10536800D596070ED512FE0ED76E2A0ED66ED08EA3
:10537800F29AF284F194F28C120094809482140EC2
:10538800E82EFED782909490080EE82EFED78292DF
:1053980094920C0EE82EFED7120094809482140E7C
:1053A800E82EFED782909490080EE82EFED78292BF
:1053B80094920C0EE82EFED712002FC02DF030C0AC
:1053C8002EF0260E8FEC26F00009D8A402D0010E8C
:1053D8001200000E1200226E2050FF0A216E225089
:1053E8009EEC29F021141E6E2250FCEC29F01200CC
:1053F8001F6E8A901F501F247E0B68EC28F01E50E9
:1054080068EC28F08A801200216E21509EEC29F069
:1054180020101E6E2150FCEC29F012001400BC0272
:10542800BC02BC0232002C016400070702019298FA
:105438009394929A928A8A948A9089988A90120070
:10544800186E18C0ADFFACB21200FDD70F0E1E6E5D
:10545800010EFCEC29F01200030E206E140E08EC6D
:105468002AF012009EAA02D0AE501200000E1200BE
:1054780040EC29F0C1EC29F0120053EC29F0D1ECF2
:0C54880029F0120094809482120012009F
:107C120000446973702071756520636F6E74726FB2
:107C22006C6120756E61207075657274612C6D6572
:107C32006469616E746520756E206C6563746F7221
:107C4200205266696400446973705F4C5A00616334
:107C5200742E006870322E006870312E00202D2D97
:107C62002D2D2D2D2D2D2D2D2D2D2D2D2D2D2D2D42
:107C720020007C202020204D4943524F4348495048
:107C820020202020207C007C2020202050494331CD
:107C9200384634353530202020207C007C204D5061
:107CA2004C41422058204944452058433820207CEA
:107CB20000202020202076616C6F726573202E2EAA
:107CC2002E202020200020202020204D6F64696675
:107CD2006963616E646F2020202000202020202014
:107CE200202020312E2E2E20202020202020200077
:107CF2002020202020202020322E2E2E2020202046
:107D020020202020002020202020202020332E2E62
:107D12002E2020202020202020002020434F4E46CD
:107D220049472E205441524A4554412020200020E8
:107D3200204155544F4445535452554343494F4EA5
:107D42002020200020205553554152494F204147C1
:107D520052454741444F202000202055535541525F
:107D6200494F204558495354454E5445200020451B
:107D72004153544552204547472046554E54494F9A
:107D82004E20003A29203A29203A29203A29203A3D
:107D920029203A29203A29002A2D2A2D2A2D2A2D56
:107DA2002A2D2A2D2A2D2A2D2A2D2A2D003F3F3F0A
:107DB2003F3F3F3F3F3F3F3F3F3F3F3F3F3F3F3FD1
:107DC2003F0053455445415220434F4E4649475583
:107DD200524143494F4E006120616A757374657365
:107DE20020646520666162726963610020204573C8
:107DF20070657265206D69656E74726173202020F2
:107E02000020626F727261206C61206D656D6F720D
:107E120069612E2E2E0020202020205465726D696B
:107E22006E61646F2020202020004C7565676F20F2
:107E320050726573696F6E6520274127004C756526
:107E4200676F2070726573696F6E65202741270026
:107E52004E554D45524F20444520555355415249A8
:107E62004F3A0043414E54494441442055535541F1
:107E720052494F533A0041434552515545204C41D6
:107E8200205441524A45544100202020202054656C
:107E9200726D696E61646F2020202000434F4E4650
:107EA200494755524143494F4E2052544300436182
:107EB2006E742E5573756172696F733A004E554D2B
:107EC20045524F205553554152494F0052657374E4
:107ED20061626C656369656E646F0056657269669E
:107EE20069636163696F6E3A004E6F206465746501
:107EF200632E202000313A20436572726164610072
:107F0200323A204365727261646100313A20416203
:107F1200696572746100323A204162696572746106
:107F220000554249434143494F4E3A00312D4147A2
:107F32005245474152000A5B5243522C312C000AEF
:107F42005B5243522C322C0073315F6F66662E00F7
:107F520073325F6F66662E0049442D5049433A00E2
:107F62004F5043494F4E3A004F7063696F6E3A006B
:107F72000A5B5250412C000A5B52434F2C00733172
:107F82005F6F6E2E0073325F6F6E2E004665636800
:107F9200613A00253031306C7500484F52413A0049
:107FA200524649443A00434152443A0059454152EB
:107FB2003A00486F72613A002E2E2E4F4B00455206
:107FC200524F52004449413A005345473A004E55F8
:107FD2004D3A004D494E3A004D45533A0025303452
:107FE20064002530326400256C75006C64006C6995
:0D7FF200005D0A002D2D002564002F000009
:020000040020DA
:08000000FFFFFFFFFFFFFFFF00
:020000040030CA
:0E000000044E181BFF8180FF0FC00FE00F4061
:00000001FF
