:020000040000FA
:020000000E28C8
:10000800FE00030EF2000A08F300831203137F08B0
:10001800F400362E0F287227DE007327DF007427BE
:10002800E0007527E1007627E200E301F501F6011B
:10003800F701F8018301692F23088039FF007F0841
:10004800B0002308A8002807FF007F08B200A21B01
:100058003214320803193E28320A031D3B280030A7
:10006800A3000030A2000030A1000030A000A217B9
:10007800A30146280030A3000030A2000030A100F0
:100088000030A00027088039FF007F08B100310840
:100098003006031D30172708A8002807FF007F082F
:1000A800B100A61B3114310803196828310A031D51
:1000B80065280030A7000030A6000030A5000030F9
:1000C800A400A617A70170280030A7000030A600DA
:1000D8000030A5000030A400320831020318B62809
:1000E800301F7A288030FF007F08B0063208FF00F2
:1000F8007F08B3003108FF007F08B2003308FF0013
:100108007F08B1002008FF007F08B3002408FF0023
:100118007F08A0003308FF007F08A4002108FF0023
:100128007F08B3002508FF007F08A1003308FF00FF
:100138007F08A5002208FF007F08B3002608FF00FB
:100148007F08A2003308FF007F08A6002308FF00ED
:100158007F08B3002708FF007F08A3003308FF00CB
:100168007F08A700B3013108A800A9012908AB003E
:1001780032082802AA00031CAB032B08803AFF00B0
:1001880080307F02031DCA281A302A02031C032963
:100198008312031323082204210420040319D628F8
:1001A8000130D7280030FF007F08B3000030A300DB
:1001B8000030A2000030A1000030A0003108FF008C
:1001C8007F08B2000929331CF2283308A80003105D
:1001D800280C0138FF007F08B300F4280310B30C83
:1001E8002018B3170130A800230DA30CA20CA10CF2
:1001F800A00CA80BF8280130FF007F08B207831273
:10020800031331083202031CE728301B4A2932083D
:10021800031D17290030A3000030A2000030A10000
:100228000030A00008002408A007250803110318BF
:10023800013E031DA107260803110318013E031DF3
:10024800A207270803110318013E031DA307231C57
:10025800EC29331C38293308A8000310280C01386E
:10026800FF007F08B3003A290310B30C2018B31716
:100278000130A800230DA30CA20CA10CA00CA80B04
:100288003E290130FF007F08B207EC292308803A95
:10029800FF002708803A7F02031D5C2926082202F6
:1002A800031D5C2925082102031D5C29240820025E
:1002B8000318B429FF30A800FF30A900FF30AA00B6
:1002C800FF30AB002408AC002508AD002608AE00BE
:1002D8002708AF002008AC022108031C210F75294C
:1002E8007629AD022208031C220F7B297C29AE0245
:1002F8002308031C230F81298229AF022C08A80791
:100308002D0803182D0F89298A29A9072E080318F3
:100318002E0F8F299029AA072F0803182F0AAB0739
:100328002B08A3002A08A2002908A1002808A00079
:100338008030FF007F08B006B309B30A3308031DF5
:10034800C2290130A007003003180130A10700308E
:1003580003180130A207003003180130A307C2298F
:100368002408A0022508031C250FA1022608031C47
:10037800260FA2022708031C270FA3022308220422
:1003880021042004031DEA293308031DEA2900304B
:10039800A3000030A2000030A1000030A000080037
:1003A8000130A8000310A00DA10DA20DA30DA80BEC
:1003B800D629B31B2014331CE3290314E4290310A2
:1003C800B30D32080319EA290130B202A21FD42959
:1003D800B101B31FF72933087F3903192018F5290C
:1003E800F729B101B10A310803192A2A0130A007F7
:1003F800003003180130A107003003180130A207AC
:10040800003003180130A307231C2A2A2008A8005B
:100418002108A9002208AA002308AB000130AC007B
:100428002B0DAB0CAA0CA90CA80CAC0B142A2B088E
:10043800A3002A08A2002908A1002808A000320A5F
:1004480003192A2A0130FF007F08B207320A031D68
:100458003208031D3A2A0030A3000030A200003001
:10046800A1000030A00032080319B001321C3E2A56
:10047800A217422A7F30FF007F08A2053208A80091
:100488000310280CFF007F08A300B01F0800A31763
:10049800080035088039FF007F08BF003508B6001E
:1004A8003607FF007F08C600B41B46144608031928
:1004B8006B2A460A031D682A0030B5000030B400D4
:1004C8000030B3000030B200B417B501732A003011
:1004D800B5000030B4000030B3000030B20031087D
:1004E8008039FF007F08BF063108B6003607FF00D5
:1004F8007F08C700B01B471447080319912A470A09
:10050800031D8E2A0030B1000030B0000030AF006B
:100518000030AE00B017B101992A0030B1000030A8
:10052800B0000030AF000030AE00310830042F04B6
:100538002E04031DB82A0030B5000030B400003086
:10054800B3000030B2008030B4047F30B5043F08F7
:10055800FF007F08B5043508B1003408B00033083F
:10056800AF003208AE0008004608031DC42A003058
:10057800B1000030B0000030AF000030AE0008001D
:100588004608B600B7013708B90047083602B80070
:10059800031CB90338087F3EC00039080318013E20
:1005A800003EC1003508BE003408BD003308BC0059
:1005B8003208BB000030B5000030B4000030B30092
:1005C8000030B2000030C5000030C4000030C30065
:1005D8000030C200C7011A3047020318372B4708FA
:1005E8000319132B0130B6000310BB0DBC0DBD0D54
:1005F800BE0DB60BF82A0130B6000310B20DB30DCC
:10060800B40DB50DB60B012BC51B32140130B60065
:100618000310C20DC30DC40DC50DB60B0C2B31084C
:100628003E02031D212B30083D02031D212B2F08FC
:100638003C02031D212B2E083B02031C322B4517BD
:100648002E08BB022F08031C2F0FBC023008031C06
:10065800300FBD023108031C310FBE020130FF000C
:100668007F08C707EF2A3E083D043C043B04031DEE
:100678004214B41B5A2B0130B6000310B20DB30D4F
:10068800B40DB50DB60B412BC51B32140130B600A5
:100698000310C20DC30DC40DC50DB60B4C2BFF3096
:1006A800C0070318C10AFF30C1073D2BC701C51F8A
:1006B800732BFF304205B600FF304305B700FF300B
:1006C8004405B8007F304505B900390838043704B7
:1006D800360403193218712B732BC701C70A470850
:1006E8000319A52B0130B207003003180130B307F6
:1006F800003003180130B407003003180130B50783
:10070800351CA52B3208B6003308B7003408B800EA
:100718003508B9000130BA00390DB90CB80CB70C5E
:10072800B60CBA0B902B3908B5003808B400370856
:10073800B3003608B2000130C0070318C10A003000
:10074800C1074108803AFF0080307F02031DAE2BAD
:10075800FF304002031CBE2BFF3083120313C0007E
:100768000030C1000030B5000030B4000030B300E4
:100778000030B200831203134108803AFF00803032
:100788007F02031DC92B013040020318D82B8312A6
:100798000313C001C1010030B5000030B4000030BF
:1007A800B3000030B200BF01831203134008FF00FA
:1007B8007F08C600461CE22BB417E62B7F30FF00EB
:1007C8007F08B4054608B6000310360CFF007F0802
:1007D800B500AB2AA8002808031DA31F032C200975
:1007E800AA002109AB002209AC002309AD00AA0A1E
:1007F8000319AB0A0319AC0A0319AD0A0B2C230819
:10080800AD002208AC002108AB002008AA0023088C
:10081800220421042004031D1A2C0030A3000030F8
:10082800A2000030A1000030A00008009630FF00B0
:100838007F08A900FE302D0503194B2C0130FF005D
:100848007F08A90701300310AD0CAC0CAB0CAA0C47
:10085800FF3E031D272C1E2C0130FF007F08A9072F
:100868000130AA07003003180130AB070030031825
:100878000130AC07003003180130AD070130031018
:10088800AD0CAC0CAB0CAA0CFF3E031D432CFF3087
:100898002D0503195F2C302C02302902031C612C12
:1008A8000130A9020130A4000310AA0DAB0DAC0D54
:1008B800AD0DA40B582CAC1F502C29186B2CFF30F5
:1008C800AA05FF30AB057F30AC05FF30AD0503103E
:1008D800A90C2908A400A501A601A7011830031036
:1008E800A40DA50DA60DA70DFF3E031D732C24080E
:1008F800AA042508AB042608AC042708AD04280878
:10090800031DA31F882CAD172D08A3002C08A200D7
:100918002B08A1002A08A00008006430FF007F0807
:10092800A0007908D026FF007F08B2000A30A60090
:100938000030A7003208AE00AF012E08A0002F0833
:10094800A1009C30A200FF30A300AF267908200741
:10095800A80021080318210AA900DD252608FF00A0
:100968007F08B1009C30FF007F08A000320858279C
:10097800AE00F630FF007F08A000310858272E0788
:100988007907FF007F08B0007708031DF02C032DBE
:10099800861606138613F030FF007F088505320897
:1009A800FF007F0885040800861206178613F030BA
:1009B800FF007F0885053108FF007F0885040800CF
:1009C800861206138617F030FF007F088505300869
:1009D800FF007F08850408006208AE00AF012F08F9
:1009E800003A0319F82C062D2E08013A0319CC2CCD
:1009F800033A0319D82C013A0319E42C062D861260
:100A0800061386130800061D122D64307902031898
:100A1800122D0A30FF007F08F907262D061E1B2D10
:100A28000B307902031C1B2D0A30F902262D861D76
:100A3800272D7708031D222D0130232D0030FF00BC
:100A48007F08F700F126770803192C2D8B17332D13
:100A58008B13861085130A30FF007F08F900413098
:100A6800CF002030CE000030CD000030CC00790817
:100A7800DA00DB01DC01DD015D08A3005C08A200EF
:100A88005B08A1005A08A0000130EE232308B50036
:100A98002208B4002108B3002008B2004130B10098
:100AA8002030B0000030AF000030AE004D223108D9
:100AB800CB003008CA002F08C9002E08C80011272B
:100AC8004B08D3004A08D2004908D1004808D00092
:100AD80072255008FF007F08E30008000310520D3C
:100AE800530DFF007F08D9005908031D842D0030DD
:100AF800D3000030D2000030D1000030D000080010
:100B08005008D4005108D5005208D6005308D70021
:100B18001F300310D70CD60CD50CD40CFF3E031D88
:100B28008D2D5408FF007F08D800D217FF30D0055C
:100B3800FF30D105FF30D2050030D3059630D902F9
:100B4800D91FBB2D5908803A973E031C7B2D0130D5
:100B58000310D30CD20CD10CD00CFF3E031DAC2DCE
:100B68000130FF007F08D9070319CE2DAB2D2030A7
:100B7800590203187B2D59080319CE2D0130D400D2
:100B88000310D00DD10DD20DD30DD40BC42D0130CF
:100B9800D902BF2D580803190800D009D109D20974
:100BA800D309D00A0319D10A0319D20A0319D30A9F
:100BB8000800AB01A71FE72DA609A709A60A031974
:100BC800A70AAB01AB0AA91FF22DA809A909A80A0F
:100BD8000319A90A0130FF007F08AB06AC01AD017B
:100BE800260827040319292EAA01AA0AA71B082EDA
:100BF80001300310A60DA70DFF3E031DFD2D01308A
:100C0800FF007F08AA07FA2D01300310AC0DAD0DC7
:100C1800FF3E031D092E27082902031D152E26084D
:100C28002802031C1E2E2608A8022708031CA90355
:100C3800A9022C1401300310A70CA60CFF3E031DBB
:100C48001F2E0130AA02031D082E2B080319312E6E
:100C5800AC09AD09AC0A0319AD0A2D08A7002C0888
:100C6800A60008008B1C4B2E8B100130FF007F085C
:100C7800F8006308F000F1017008F5007108F6004B
:100C880064307906031D4A2E86144B2E86100C1CE0
:100C9800742E7803031D5A2E7508760403195A2EEC
:100CA8000130F5020030031CF603F6026008610407
:100CB8000319642E0130E0020030031CE103E10255
:100CC8005E085F0403196E2E0130DE020030031C3B
:100CD800DF03DF027D26FF308F0083308E000C108B
:100CE8007408FF0073088A00720E8300FE0E7E0EE1
:100CF800090075087604031D852EF501F601F80133
:100D0800861460086104031D992E0310851F0314BF
:100D1800031C922E831203138517952E8312031337
:100D28008513F430E0000130E1005E085F04031D24
:100D38000800033062020318A62E0130FF007F0866
:100D4800E207AA2E0130FF007F08E2000230DE0031
:100D58000030DF000800A401A501201CB92E2208DC
:100D6800A4070318A50A2308A50701300310A20D3C
:100D7800A30DFF3E031DBA2E01300310A10CA00CD9
:100D8800FF3E031DC12E20082104031DB12E250896
:100D9800A1002408A0000800A100A301200803194D
:100DA800EF2EA201A20AA01BE02E0310A00D013015
:100DB800FF007F08A207D72E0310A30D20082102E9
:100DC800031CEA2E2008A10223140310A00C0130F2
:100DD800A202031DE02E230808000D30831203131E
:100DE800A100FB30A000A00BF72EA10BF72E0000EE
:100DF80083120313861D0C2F073083120313A100DF
:100E08007C30A000A00B062FA10B062F0B2FFC2E69
:100E18000619002F061E0800002F8030CB064F0849
:100E2800A3004E08A2004D08A1004C08A0004B08E2
:100E3800A7004A08A6004908A5004808A4002020E1
:100E48002308CB002208CA002108C9002008C800CE
:100E580008008316861086150615061685130510D4
:100E680085100511851186120613861383128610C4
:100E78008513051085100511851186120613861332
:100E8800080007309F003030900490101014FF3095
:100E98008F0083308E000B170B168B1083160117EB
:100EA8000C1483120C100800A200A101221C602F50
:100EB8002008FF007F08A1070310A00D0310A20C53
:100EC8002208031D5A2F2108080045272D270A301C
:100ED800FF007F08F900072591246F2F02340034A2
:060EE800F4340134013472
:02400E00303F41
:00000001FF
