:020000040000FA
:04000000B9EF00F064
:100018005780D8CF01F0E8CF02F0E0CF03F0000E10
:10002800046E000E056E000E066E000E076E9EA092
:1000380077D000019551D8B409D055504E1804E135
:1000480056504F18D8B402D04E4A4F2A9451D8B4BB
:1000580009D053504C1804E154504D18D8B402D06C
:100068004C4A4D2A9351D8B409D051504A1804E14A
:1000780052504B18D8B402D04A4A4B2A9251D8B49D
:1000880009D08051481804E181514918D8B402D0E8
:10009800484A492A88514E1804E189514F18D8B462
:1000A80007D055504E1806E156504F18D8A402D024
:1000B800010E046E86514C1804E187514D18D8B4CE
:1000C80007D053504C1806E154504D18D8A402D00C
:1000D800010E056E84514A1804E185514B18D8B4B5
:1000E80007D051504A1806E152504B18D8A402D0F4
:1000F800010E066E8251481804E183514918D8B49C
:1001080007D08051481806E181514918D8A402D077
:10011800010E076EFE0ECF6ED00ECE6ECD809E9075
:100128000450D8B404D000019551D8A414D0055077
:10013800D8B404D000019451D8A40DD00650D8B436
:1001480004D000019351D8A406D00750D8B405D0E4
:1001580000019251D8A4C7EC09F003C0E0FF02C027
:10016800E8FF01C0D8FF579010006AEF0AF00B5063
:10017800800B146E0B500B24166E0ABE1680165098
:10018800D8B40DD01628D8A408D0000E086E000EDA
:10019800096E000E0A6E000E0B6E0A8E08D0000E55
:1001A800086E000E096E000E0A6E000E0B6E0F50E0
:1001B800800B141A0F500F24156E0EBE15801550A3
:1001C800D8B40DD01528D8A408D0000E0C6E000E97
:1001D8000D6E000E0E6E000E0F6E0E8E08D0000E05
:1001E8000C6E000E0D6E000E0E6E000E0F6E15508A
:1001F800D8B403D01650D8A409D0000E086E000E4B
:10020800096E000E0A6E000E0B6E12000E500802E8
:10021800F3CF1FF0F4CF20F01F50176E186A196A39
:100228001A6A20501B6E1C6A1D6A1E6A0D5009024C
:10023800F3CF1FF0F4CF20F01F501726000E18221E
:1002480019221A2220501B26000E1C221D221E22B3
:100258000C500A02F3CF1FF0F4CF20F01F501726DE
:10026800000E182219221A2220501B26000E1C22CA
:100278001D221E2219C01AF018C019F017C018F054
:10028800176A0C500902F3CF1FF0F4CF20F01F506B
:10029800172620501822000E1922000E1A220D507F
:1002A8000802F3CF1FF0F4CF20F01F50172620507C
:1002B8001822000E1922000E1A2219C01AF018C0AE
:1002C80019F017C018F0176A0C500802F3CF1FF086
:1002D800F4CF20F01F50172620501822000E1922A4
:1002E800000E1A220E500902F3CF1FF0F4CF20F0AF
:1002F8001F501B2620501C22000E1D22000E1E22FD
:100308000D500A02F3CF1FF0F4CF20F01F501B2628
:1003180020501C22000E1D22000E1E220E500A0222
:10032800F3CF1FF0F4CF20F01F50106E2050116E45
:10033800126A136A12C013F011C012F010C011F043
:10034800106A10501B2611501C2212501D221350E7
:100358001E221A501B26000E1C221D221E2219C006
:100368001AF018C019F017C018F0176A155016C0FF
:1003780010F0116A1026000E1122820E10241F6E32
:10038800FF0E1120206E0FD0D8901B361C361D365C
:100398001E361ABE1B80D8901736183619361A36EC
:1003A8001F06D8A020061DAEEFD7000E156E1AAE98
:1003B80017D0FF0E1714106EFF0E1814116EFF0ED3
:1003C8001914126E7F0E1A14136E10501110121099
:1003D8001310D8B403D0010E156E02D01BB0FBD792
:1003E8001550D8B41FD0010E1B26000E1C221D224A
:1003F8001E221EA017D01BC010F01CC011F01DC07B
:1004080012F01EC013F013341332123211321032AC
:1004180010C01BF011C01CF012C01DF013C01EF05C
:100428001F4A202A20BE0DD0205003E11F28D8A043
:1004380008D0000E1B6E000E1C6E800E1D6E7F0E07
:1004480020D020BE05D020500EE11F04D8B00BD01C
:10045800000E1B6E000E1C6E000E1D6E000E1E6E32
:10046800000E146E0FD01FC016F0FF0E1B16FF0EE5
:100478001C167F0E1D16000E1E1616B01D8ED89067
:1004880016301E6E14501E121BC008F01CC009F056
:100498001DC00AF01EC00BF012000B50800B146E2A
:1004A8000B500B24166E0ABE16801650D8B40DD009
:1004B8001628D8A408D0000E086E000E096E000E8B
:1004C8000A6E000E0B6E0A8E06D0000E086E000E25
:1004D800096E000E0A6E000E0B6E0F50800B156E23
:1004E80014501518D8A4148C0F500F24156E0EBE76
:1004F80015801550D8B40DD01528D8A408D0000EF2
:100508000C6E000E0D6E000E0E6E000E0F6E0E8E2F
:1005180006D0000E0C6E000E0D6E000E0E6E000E54
:100528000F6E1650155CD8B022D014AC02D0800ED5
:10053800141A16C017F015C016F017C015F008C029
:1005480017F00CC008F017C00CF009C017F00DC068
:1005580009F017C00DF00AC017F00EC00AF017C056
:100568000EF00BC017F00FC00BF017C00FF0000E05
:10057800176E165015C010F0116A105E000E115A51
:1005880011BE2CD0115004E11A0E105CD8A026D050
:10059800085009100A100B10D8B402D0010E01D06F
:1005A800000E176E000E086E000E096E000E0A6E21
:1005B800000E0B6E15C016F015D017A005D0D890F8
:1005C80017300109176E02D0D890173208B0178E6D
:1005D8000B340B320A3209320832162A1550165CCF
:1005E800D8A0EBD714BC28D01650D8A409D0000E38
:1005F800086E000E096E000E0A6E000E0B6E1200D9
:100608000C5008260D5009220E500A220F500B22BA
:100618000BA071D017A005D0D89017300109176E1C
:1006280002D0D890173208B0178E0B340B320A322A
:1006380009320832162A5FD00C50085C0D50095850
:100648000E500A580B50800A106E0F50800A10582E
:10065800D8B025D008500C5C106E09500D58116E9A
:100668000A500E58126E0B500F58136EFF0E1024BE
:10067800086EFF0E1120096EFF0E12200A6EFF0E83
:1006880013200B6E800E141A176C1750D8A40FD0B5
:10069800010E0826000E09220A220B2208D00C504F
:1006A800085E0D50095A0E500A5A0F500B5A08503E
:1006B80009100A100B10D8A41CD01750D8A419D0B0
:1006C800000E086E000E096E000E0A6E000E0B6E0C
:1006D8001200D890083609360A360B3617BE08803D
:1006E80017A002D0D88001D0D89017361650D8A4B9
:1006F80016060AAEEED7000E156E17AE0BD017C051
:1007080010F07F0E1016D8B403D0010E156E02D06B
:1007180008B0FBD71550D8B420D0010E0826000E1B
:1007280009220A220B220BA018D008C010F009C019
:1007380011F00AC012F00BC013F013341332123246
:100748001132103210C008F011C009F012C00AF0BE
:1007580013C00BF01628D8A4162A1628D8B403D02C
:100768001650D8A40DD0000E086E000E096E000EAB
:100778000A6E000E0B6E1650D8A402D0000E146E2E
:1007880016A002D00A8E01D00A9ED89016300B6EA1
:1007980014BE0B8E08C008F009C009F00AC00AF0A0
:1007A8000BC00BF012002450800B316E245024240F
:1007B800386E23BE38803850D8B40DD03828D8A425
:1007C80008D0000E216E000E226E000E236E000E61
:1007D800246E238E06D0000E216E000E226E000EAF
:1007E800236E000E246E2850800B311A28502824BE
:1007F800396E27BE39803950D8B40DD03928D8A4DD
:1008080008D0000E256E000E266E000E276E000E14
:10081800286E278E06D0000E256E000E266E000E5E
:10082800276E000E286E2550261027102810D8A4F1
:1008380017D0000E216E000E226E000E236E000EE1
:10084800246E800E23127F0E24123150241221C0F0
:1008580021F022C022F023C023F024C024F012008B
:100868003850D8A409D0000E216E000E226E000E5A
:10087800236E000E246E1200395038C029F02A6AFF
:10088800295E000E2A5A7F0E2924326E000E2A2075
:10089800336E21C02DF022C02EF023C02FF024C0CB
:1008A80030F0000E216E000E226E000E236E000E38
:1008B800246E000E346E000E356E000E366E000E7D
:1008C800376E000E396E28D03950D8B411D0D89070
:1008D8002D362E362F363036D8902136223623360E
:1008E800243637BE2180D8903436353636363736FA
:1008F80025502D5C26502E5827502F5828503058F8
:10090800D8A009D0378C25502D5E26502E5A275056
:100918002F5A2850305A392A190E3964D5D72D50F4
:100928002E102F103010D8B411D034800FD0D8909A
:10093800213622362336243637BE2180D8903436E5
:100948003536363637363206D8A0330623AEEFD7DB
:10095800000E396E37AE17D0FF0E3414296EFF0E15
:1009680035142A6EFF0E36142B6E7F0E37142C6E3C
:1009780029502A102B102C10D8B403D0010E396E30
:1009880002D021B0FBD73950D8B41FD0010E212690
:10099800000E22222322242224A017D021C029F0CD
:1009A80022C02AF023C02BF024C02CF02C342C3287
:1009B8002B322A32293229C021F02AC022F02BC03A
:1009C80023F02CC024F0324A332A33BE10D03350DF
:1009D80003E13228D8A00BD0000E336E3268000E27
:1009E800216E000E226E000E236E000E246E33BEA2
:1009F80005D0335011E13204D8B00ED0000E336E5A
:100A0800000E326E000E216E000E226E000E236E56
:100A1800000E246E000E316E32C038F038A002D0BD
:100A2800238E01D0239ED8903830246E0ED7000E26
:100A380000019A6F000E9B6FD00E9C6F400E9D6F49
:100A4800C290939614EC0AF0000E456E320E446E76
:100A58002CEC08F0000E456E320E446ED5EC07F013
:100A6800000E456E320E446E7EEC07F0000E456EA9
:100A7800320E446E27EC07F09AC044F09BC045F054
:100A88009CC046F09DC047F076EC09F09AC044F04F
:100A98009BC045F09CC046F09DC047F025EC09F08E
:100AA8009AC044F09BC045F09CC046F09DC047F0FA
:100AB800D4EC08F09AC044F09BC045F09CC046F0C6
:100AC8009DC047F083EC08F0B70E0001976FA10EA8
:100AD800966FC30EE82EFED7962FFCD7972FFAD71E
:100AE80000D029EC0AF05AEC0AF04AEC0AF03AEC89
:100AF8000AF03D0E0001976FE10E966F3F0EE82E4B
:100B0800FED7962FFCD7972FFAD700D09AC008F0B7
:100B18009BC009F09CC00AF09DC00BF0000E0C6E43
:100B2800000E0D6E600E0E6E400E0F6E51EC02F050
:100B380008C09AF009C09BF00AC09CF00BC09DF059
:100B4800000E086E000E096E200E0A6E410E0B6E26
:100B58009AC00CF09BC00DF09CC00EF09DC00FF029
:100B680062EC06F0D8B088D7000E00019A6F000E2C
:100B78009B6FD00E9C6F400E9D6F7ED7106E1050ED
:100B8800D8A40BAE1AD008C00CF009C00DF00AC0EA
:100B98000EF00BC00FF00C1E0D1E0E1E0F1E0C2AA1
:100BA800000E0D220E220F220CC012F00DC013F001
:100BB8000EC014F00FC015F008D008C012F009C01C
:100BC80013F00AC014F00BC015F0085009100A10F1
:100BD8000B10D8A409D0000E086E000E096E000E86
:100BE8000A6E000E0B6E1200960E116E06D0112AB8
:100BF800D8901532143213321232000E12140C6EC1
:100C0800000E13140D6E000E14140E6EFE0E151445
:100C18000F6E0C500D100E100F10D8B40DD0E7D772
:100C2800112A010E1226000E132214221522D89022
:100C38001532143213321232000E12140C6E000EDA
:100C480013140D6E000E14140E6EFF0E15140F6E95
:100C58000C500D100E100F10D8B407D0E1D71106A4
:100C6800D890123613361436153614BE03D0020E39
:100C78001160F5D711A0149ED890113211C00CF054
:100C88000D6A0E6A0F6A0CC00FF00E6A0D6A0C6AC4
:100C98000C5012120D5013120E5014120F50151240
:100CA8001050D8A40BAE01D0158E12C008F013C096
:100CB80009F014C00AF015C00BF01200000E081459
:100CC800106E000E0914116E800E0A14126E7F0E3B
:100CD8000B14136E1050111012101310D8A408D052
:100CE800000E086E000E096E000E0A6E000E0B6EE6
:100CF800000E0C14106E000E0D14116E800E0E14E2
:100D0800126E7F0E0F14136E105011101210131064
:100D1800D8A408D0000E0C6E000E0D6E000E0E6EDC
:100D2800000E0F6E0BAE09D0086C091ED8B0092A48
:100D38000A1ED8B00A2A800E0B560FAE09D00C6CCA
:100D48000D1ED8B00D2A0E1ED8B00E2A800E0F56D2
:100D5800000E081A000E091A000E0A1A800E0B1A45
:100D6800000E0C1A000E0D1A000E0E1A800E0F1A25
:100D78000C50085C0D5009580E500A580F500B586B
:100D8800D8B002D0D8901200D88012003C343D343C
:100D9800436E4350D8A409D0000E3A6E000E3B6E45
:100DA800000E3C6E000E3D6E12003AC03EF03BC095
:100DB8003FF03CC040F03DC041F0200E05D0D89037
:100DC800413240323F323E32E82EF9D73E50426E31
:100DD8003C8EFF0E3A16FF0E3B16FF0E3C16000E19
:100DE8003D16960E435E43AE0DD04350800A970FD2
:100DF800D8A0D2D7D8903D323C323B323A32433E2B
:100E0800F9D70DD01F0E436407D0C6D7D8903A360D
:100E18003B363C363D3643064350D8A4F7D74250BC
:100E2800D8B408D03D1E3C1E3B1E3A6C000E3B2237
:100E38003C223D223AC03AF03BC03BF03CC03CF07B
:100E48003DC03DF0120093968A9644C08AF045C092
:100E58008BF0000E216E000E226E800E236E3F0E68
:100E6800246E44C008F045C009F00A6A0B6A000EF7
:100E7800C2EC05F008C025F009C026F00AC027F02A
:100E88000BC028F0D7EC03F021C064F022C065F055
:100E980023C066F024C067F0170E256EB70E266EC5
:100EA800510E276E380E286E64C021F065C022F0FE
:100EB80066C023F067C024F0D7EC03F021C03AF0F5
:100EC80022C03BF023C03CF024C03DF0CAEC06F041
:100ED8003AC080F03BC081F0000E0001606F000E48
:100EE800616F000E626F000E636F000E496E000E98
:100EF800486E120093948A9444C08CF045C08DF0DB
:100F0800000E216E000E226E800E236E3F0E246EA0
:100F180044C008F045C009F00A6A0B6A000EC2EC2A
:100F280005F008C025F009C026F00AC027F00BC05C
:100F380028F0D7EC03F021C06CF022C06DF023C07C
:100F48006EF024C06FF0170E256EB70E266E510E88
:100F5800276E380E286E6CC021F06DC022F06EC06E
:100F680023F06FC024F0D7EC03F021C03AF022C080
:100F78003BF023C03CF024C03DF0CAEC06F03AC078
:100F880051F03BC052F0000E0001686F000E696F0F
:100F9800000E6A6F000E6B6F000E4B6E000E4A6EED
:100FA800120093928A9244C08EF045C08FF0000ED2
:100FB800216E000E226E800E236E3F0E246E44C0FA
:100FC80008F045C009F00A6A0B6A000EC2EC05F089
:100FD80008C025F009C026F00AC027F00BC028F089
:100FE800D7EC03F021C078F022C079F023C07AF062
:100FF80024C07BF0170E256EB70E266E510E276E95
:10100800380E286E78C021F079C022F07AC023F01B
:101018007BC024F0D7EC03F021C03AF022C03BF0AB
:1010280023C03CF024C03DF0CAEC06F03AC053F0AF
:101038003BC054F0000E0001706F000E716F000E7F
:10104800726F000E736F000E4D6E000E4C6E120024
:1010580093908A9044C090F045C091F0000E216EA4
:10106800000E226E800E236E3F0E246E44C008F0E0
:1010780045C009F00A6A0B6A000EC2EC05F008C008
:1010880025F009C026F00AC027F00BC028F0D7ECDD
:1010980003F021C07CF022C07DF023C07EF024C084
:1010A8007FF0170E256EB70E266E510E276E380E7E
:1010B800286E7CC021F07DC022F07EC023F07FC066
:1010C80024F0D7EC03F021C03AF022C03BF023C053
:1010D8003CF024C03DF0CAEC06F03AC055F03BC0E5
:1010E80056F0000E0001746F000E756F000E766FDB
:1010F800000E776F000E4F6E000E4E6E1200010E3E
:101108000001926F64C00CF065C00DF066C00EF06F
:1011180067C00FF044C008F045C009F046C00AF0A7
:1011280047C00BF0BBEC00F008C021F009C022F06A
:101138000AC023F00BC024F0000E256E000E266EA8
:10114800C80E276E420E286ED7EC03F021C060F05F
:1011580022C061F023C062F024C063F0170E256E30
:10116800B70E266E510E276E380E286E60C021F01D
:1011780061C022F062C023F063C024F0D7EC03F012
:1011880021C03AF022C03BF023C03CF024C03DF01F
:10119800CAEC06F03AC082F03BC083F0CD80120062
:1011A800010E0001936F6CC00CF06DC00DF06EC0A5
:1011B8000EF06FC00FF044C008F045C009F046C0FB
:1011C8000AF047C00BF0BBEC00F008C021F009C0E2
:1011D80022F00AC023F00BC024F0000E256E000E8A
:1011E800266EC80E276E420E286ED7EC03F021C07B
:1011F80068F022C069F023C06AF024C06BF0170EB3
:10120800256EB70E266E510E276E380E286E68C0F2
:1012180021F069C022F06AC023F06BC024F0D7EC3B
:1012280003F021C03AF022C03BF023C03CF024C0B8
:101238003DF0CAEC06F03AC084F03BC085F0CD80A2
:101248001200010E0001946F78C00CF079C00DF007
:101258007AC00EF07BC00FF044C008F045C009F01A
:1012680046C00AF047C00BF0BBEC00F008C021F004
:1012780009C022F00AC023F00BC024F0000E256E2E
:10128800000E266EC80E276E420E286ED7EC03F0AD
:1012980021C070F022C071F023C072F024C073F036
:1012A800170E256EB70E266E510E276E380E286E55
:1012B80070C021F071C022F072C023F073C024F016
:1012C800D7EC03F021C03AF022C03BF023C03CF039
:1012D80024C03DF0CAEC06F03AC086F03BC087F067
:1012E800CD801200010E0001956F7CC00CF07DC00E
:1012F8000DF07EC00EF07FC00FF044C008F045C06E
:1013080009F046C00AF047C00BF0BBEC00F008C07B
:1013180021F009C022F00AC023F00BC024F0000E0F
:10132800256E000E266EC80E276E420E286ED7EC6C
:1013380003F021C074F022C075F023C076F024C0F9
:1013480077F0170E256EB70E266E510E276E380EE3
:10135800286E74C021F075C022F076C023F077C0E3
:1013680024F0D7EC03F021C03AF022C03BF023C0B0
:101378003CF024C03DF0CAEC06F03AC088F03BC00F
:1013880089F0CD80120088514E1804E189514F1818
:10139800D8B48A9055504E1809E156504F18D8A421
:1013A80005D0000E4F6E000E4E6E8A8086514C1886
:1013B80004E187514D18D8B48A9253504C1809E16A
:1013C80054504D18D8A405D0000E4D6E000E4C6E2A
:1013D8008A8284514A1804E185514B18D8B48A94FA
:1013E80051504A1809E152504B18D8A405D0000EA4
:1013F8004B6E000E4A6E8A848251481804E183516C
:101408004918D8B48A968051481809E18151491879
:10141800D8A41200000E496E000E486E8A8612008B
:10142800F29ECD8ECD9CCD50CF0B1009CD6ECD86C2
:10143800CD92CD90FE0ECF6ED00ECE6EF28EF28C87
:10144800F28C9F909D809E901200000E0001956F77
:10145800000E746F000E756F000E766F000E776FBA
:10146800000E4F6E000E4E6E8A901200000E926FA4
:10147800000E606F000E616F000E626F000E636FEA
:10148800000E496E000E486E8A961200000E936F89
:10149800000E686F000E696F000E6A6F000E6B6FAA
:1014A800000E4B6E000E4A6E8A941200000E946F66
:1014B800000E706F000E716F000E726F000E736F6A
:1014C800000E4D6E000E4C6E8A92120000EE48F02F
:1014D800090EEE6AE806FDE15790579200011BEFEE
:0214E80005F00D
:020000040020DA
:08000000FFFFFFFFFFFFFFFF00
:020000040030CA
:0E000000044E181EFF8081FF0FC00FE00F405E
:00000001FF
