:020000040000FA
:060000000A128A110C280F
:10000800FE00030EF4000A08F5000A128A117B2884
:100018000A128A110F280A128A112B210A128A1130
:10002800A0000A128A112C210A128A11A1000A12B0
:100038008A112D210A128A11A2000A128A112E2170
:100048000A128A11A300F601F701F801F9018301E8
:100058000A128A112F28831603178801890183162B
:1000680003130614861486118312031386110A12C9
:100078008A11EE200A128A110A128A1115210A120F
:100088008A1183120313061C4A284B285E288615FA
:100098000030A3000030A2000030A1006430A000AE
:1000A8000A128A1102210A128A110A128A11D92007
:1000B8000A128A1183120313861C632864284528B0
:1000C80086150030A3000030A2000130A100F430F2
:1000D800A0000A128A1102210A128A110A128A1130
:1000E800D9200A128A1145280A128A110C2883126B
:1000F80003130C1C80288128AA287908780477041F
:100108007604031988288928A5280130F0000030D2
:10011800F1000030F2000030F3007008F6027108B8
:10012800031C710F98289928F7027208031C720F94
:100138009E289F28F8027308031C730FA428A5287B
:10014800F902FB308F001D308E000C1079087804FE
:1001580077047604031DB128B228B7280A128A1139
:10016800BE200A128A1175088A00740E8300FE0EDA
:100178007E0E09007908780477047604031DC528E3
:10018800C628D8288312031386110A128A1120213F
:100198000A128A11831203132308F9002208F800AF
:1001A8002108F7002008F60008000D308312031319
:1001B800A500FB30A400A40BDF28A50BDF288312C1
:1001C80003130618E828E928D9288618EC28ED280A
:1001D800D9280800831203139010303090041010AF
:1001E8009011FB308F001D308E008B170B17831674
:1001F80003130C14831203130C1008008312031347
:100208002308F9002208F8002108F7002008F60062
:10021800FB308F001D308E001014831603130C144E
:100228000800831203131010FB308F001D308E005E
:10023800831603130C100800831203131010FB30ED
:100248008F001D308E00831603130C1008006434D1
:0602580000340034003404
:04400E00E528FF3F63
:00000001FF
