:020000040000FA
:040000003DEF00F0E0
:0600080059827AED26F09A
:100018005980D8CF60F0E8CF61F0E0CF62F0D9CF57
:1000280063F0DACF64F0F2A418D05850D8A4580678
:1000380056505710D8B403D05606D8A05706585073
:10004800D8B403D056505710D8B4DFEC26F0000EC1
:10005800D76E3B0ED66ED58EF29464C0DAFF63C0BD
:10006800D9FF62C0E0FF61C0E8FF60C0D8FF5990C7
:10007800100034EF26F0000E01019D6F000E9C6FFA
:10008800BAC0ACF1BBC0ADF1BCC0AEF1BDC0AFF100
:10009800AFAF16D0000E9D6F010E9C6FACC165F01E
:1000A800ADC166F0AEC167F0AFC168F00AEC28F0E8
:1000B80065C0ACF166C0ADF167C0AEF168C0AFF124
:1000C800000E0101B56F000EB46F23C1A1F124C168
:1000D800A2F19C519D11D8A402D027A513D09C5100
:1000E8009D11D8A404D0000E876F2B0E03D0000EEC
:1000F800876F2D0E866F86C132F1B44BB52BA107E1
:10010800D8A0A207ACC165F0ADC166F0AEC167F07A
:10011800AFC168F00EEC21F065056611D8A451D086
:10012800BF0EBF6FFF0EC06FBE51C16FC26BBF5114
:10013800C127C051C223C25106E11A0EC15DD8B011
:1001480002D0010E01D0000E0101886F896B885121
:100158008911D8B410D0320EB4250001656F010E94
:100168000101B5210001666FE70E676F7F0E686FAA
:1001780094EC25F00FD0320EB4250001656F010E06
:100188000101B5210001666FEF0E676F7F0E686F82
:1001980094EC25F00101FD0EA127FF0EA223B9C0A2
:1001A80073F0320E0001746F010E756FA1C176F005
:1001B800A2C177F029EC23F073C0B9F074C0BAF08B
:1001C8001200ACC165F0ADC166F0AEC167F0AFC159
:1001D80068F00EEC21F065516611D8A43BD0BF0E33
:1001E800BF6FFF0EC06FBE51C16FC26BBF51C12739
:1001F800C051C223C25106E11A0EC15DD8B002D067
:10020800010E01D0000E01018A6F8B6B8A518B1190
:10021800D8B410D0320EB4250001656F010E01016B
:10022800B5210001666FEB0E676F7F0E686F94EC67
:1002380025F0B0D7320EB4250001656F010E01011B
:10024800B5210001666FF30E676F7F0E686F94EC3F
:1002580025F0A0D7000E0101B66F000EB76F800E13
:10026800B86F3F0EB96F000EB36F000EB26FACC11E
:1002780065F0ADC166F0AEC167F0AFC168F0000EC1
:100288000001696F000E6A6F000E6B6F000E6C6FD5
:10029800B9EC23F0D8A01ED077D0B6C173F0B7C19F
:1002A80074F0B8C175F0B9C176F0000E776F000E22
:1002B800786F200E796F410E7A6FEDEC0FF073C0F6
:1002C800B6F174C0B7F175C0B8F176C0B9F10101E3
:1002D800B24BB32BACC18CF0ADC18DF0AEC18EF07A
:1002E800AFC18FF0000E0001776F000E786F200EFF
:1002F800796F410E7A6FB6C173F0B7C174F0B8C1A7
:1003080075F0B9C176F0EDEC0FF073C090F074C0E1
:1003180091F075C092F076C093F0A5EC20F0D8A0CB
:100328001FD0BBD7B6C18CF0B7C18DF0B8C18EF065
:10033800B9C18FF0000E906F000E916F200E926F72
:10034800410E936F56EC14F08CC0B6F18DC0B7F126
:100358008EC0B8F18FC0B9F10101B207D8A0B307B8
:10036800ACC18CF0ADC18DF0AEC18EF0AFC18FF0D5
:10037800B6C190F0B7C191F0B8C192F0B9C193F08D
:10038800A5EC20F0D8A0CED7BEC06BF06C6B0EECFD
:1003980026F06B510101A36FA3C1A0F1670EA31949
:1003A800D8A419D025512611D8A404D0000E266F40
:1003B800010E256F26BF05D0265108E12505D8B0C6
:1003C80005D0000E9F6F060E9E6F08D025C19EF1C6
:1003D80026C19FF103D026AFF9D7F3D7670EA3192B
:1003E800D8A428D0B3AF06D0FC0EB25DFF0EB35927
:1003F800D8A01DD0FF0E0001BF6FFF0EC06F9EC1B9
:10040800C1F09FC1C2F0BF51C127C051C223010131
:10041800B2510001C15DC251800AC36F0101B351DD
:10042800800A0001C359D8A002D0660E01D0650E1B
:100438000101A06F9EC196F19FC197F1670EA319A4
:10044800D8A405D0660EA019D8B4B3AF02D0964B85
:10045800972B660EA019D8A416D0B3AF0CD0000EF7
:10046800B66F000EB76F800EB86F3F0EB96F000EF3
:10047800B36F000EB26F670EA319D8B404D0B2518F
:100488009627B3519723000EB16F000EB06FACC121
:10049800A4F1ADC1A5F1AEC1A6F1AFC1A7F1B6C136
:1004A80082F1B7C183F1B8C184F1B9C185F17BD0BC
:1004B800A4C18CF0A5C18DF0A6C18EF0A7C18FF0A4
:1004C800B6C190F0B7C191F0B8C192F0B9C193F03C
:1004D80056EC14F08CC0A5F08DC0A6F08EC0A7F025
:1004E8008FC0A8F00BEC18F0A5C0A8F1A6C0A9F120
:1004F800A7C0AAF1A8C0ABF1A8C1A5F0A9C1A6F0F0
:10050800AAC1A7F0ABC1A8F0DBEC21F0A5C09AF115
:10051800A6C09BF1A4C18CF0A5C18DF0A6C18EF038
:10052800A7C18FF0B6C177F0B7C178F0B8C179F03C
:10053800B9C17AF0A8C173F0A9C174F0AAC175F065
:10054800ABC176F0EDEC0FF073C090F074C091F091
:1005580075C092F076C093F057EC26F08CC0A4F1E9
:100568008DC0A5F18EC0A6F18FC0A7F1B6C18CF0E1
:10057800B7C18DF0B8C18EF0B9C18FF0000E906F81
:10058800000E916F200E926F410E936F56EC14F08F
:100598008CC0B6F18DC0B7F18EC0B8F18FC0B9F17B
:1005A8000101B04BB12B9651B05DB151800A0001E9
:1005B800BF6F01019751800A0001BF59D8A078D7B1
:1005C800B6C173F0B7C174F0B8C175F0B9C176F0AF
:1005D800000E776F000E786FA00E796F400E7A6F5D
:1005E800EDEC0FF073C0A8F174C0A9F175C0AAF1C1
:1005F80076C0ABF1A4C18CF0A5C18DF0A6C18EF078
:10060800A7C18FF0A8C190F0A9C191F0AAC192F03A
:10061800ABC193F0A5EC20F0D8B003D0000E0101D7
:1006280018D0A4C165F0A5C166F0A6C167F0A7C13E
:1006380068F0A8C169F0A9C16AF0AAC16BF0ABC1A2
:100648006CF0B9EC23F0D8A00BD001019AB108D016
:10065800000EA86F000EA96F000EAA6F000EAB6FF8
:10066800ACC165F0ADC166F0AEC167F0AFC168F06E
:10067800A8C169F0A9C16AF0AAC16BF0ABC16CF05E
:1006880084EC11F065C0A4F166C0A5F167C0A6F1BD
:1006980068C0A7F182C1B6F183C1B7F184C1B8F1CE
:1006A80085C1B9F1650E0101A019D8B405D0B2C150
:1006B80098F1B3C199F104D0000E996F000E986FAC
:1006C800000E956F000E946F000E936F000E926FE0
:1006D800000EB16F000EB06FC6D0A4C18CF0A5C1DA
:1006E8008DF0A6C18EF0A7C18FF0B6C190F0B7C14A
:1006F80091F0B8C192F0B9C193F056EC14F08CC0E7
:10070800A5F08DC0A6F08EC0A7F08FC0A8F00BECA6
:1007180018F0A5C0A8F1A6C0A9F1A7C0AAF1A8C061
:10072800ABF1A8C1A5F0A9C1A6F0AAC1A7F0ABC1B9
:10073800A8F0DBEC21F0A5C09AF1A6C09BF101015D
:1007480027B90CD09A519B11D8A408D0670EA319C9
:10075800D8B499AF03D0924B932B39D094519511BB
:10076800D8B499AF22D0320EB425D96E010EB52176
:10077800DA6E2E0EDF6EB44BB52BA107D8A0A207F8
:10078800000E956F010E946F10D0320EB425D96EFD
:10079800010EB521DA6E300EDF6EB44BB52BA10712
:1007A800D8A0A2079207D8A0930792519311D8A472
:1007B800ECD7320EB425D96E010EB521DA6E9A51F6
:1007C800300FDF6EB44BB52BA107D8A0A207A4C188
:1007D8008CF0A5C18DF0A6C18EF0A7C18FF0B6C16F
:1007E80077F0B7C178F0B8C179F0B9C17AF0A8C18B
:1007F80073F0A9C174F0AAC175F0ABC176F0EDEC45
:100808000FF073C090F074C091F075C092F076C08C
:1008180093F057EC26F08CC0A4F18DC0A5F18EC0E2
:10082800A6F18FC0A7F1B6C18CF0B7C18DF0B8C1E1
:100838008EF0B9C18FF0000E906F000E916F200EF0
:10084800926F410E936F56EC14F08CC0B6F18DC0C8
:10085800B7F18EC0B8F18FC0B9F101019807D8A0DF
:100868009907B04BB12B9651B05DB151800A000188
:10087800BF6F01019751800A0001BF59D8B009D054
:100888000101B5BF2AD7B55104E14B0EB45DD8A01C
:1008980024D7010194519511D8B427A90AD0320E52
:1008A800B425D96E010EB521DA6E2E0EDF6EB44B6B
:1008B800B52B320EB425D96E010EB521DA6E000EB5
:1008C800DF6E650EA019D8A46AD4000EB16F4F0E62
:1008D800B06F320EB025D96E010EB121DA6E000E5E
:1008E800DF6E000E9D6F000E9C6FB3AF08D0000E38
:1008F8009D6F010E9C6FB26DB31FD8B0B32B000E65
:100908009F6F020E9E6F2CD0B007D8A0B107320E91
:10091800B025D96E010EB121DA6EB2C165F0B3C14E
:1009280066F0000E0001686F0A0E676FFAEC24F09B
:100938006551300FDF6EB2C165F0B3C166F0000ECD
:10094800686F0A0E676F40EC24F065C0B2F166C0AC
:10095800B3F101019E07D8A09F07A107D8A0A2075D
:10096800B251B311D8A4D0D79FBF05D09F51CCE1C5
:100978009E05D8B0C9D7B007D8A0B1079C519D1122
:10098800D8A404D0000E8D6F2B0E03D0000E8D6FEF
:100998002D0E8C6F320EB025D96E010EB121DA6E94
:1009A8008CC1DFFFA107D8A0A207B007D8A0B10764
:1009B800BF0E0001BF6FFF0EC06FBE51C16FC26B8B
:1009C800BF51C127C051C223C25106E11A0EC15DF1
:1009D800D8B002D0010E01D0000E0101906F916BCA
:1009E80090519111D8A404D0000E8F6F650E03D0DA
:1009F800000E8F6F450E8E6F320EB025D96E010E28
:100A0800B121DA6E8EC1DFFFA107D8A0A207320E8E
:100A1800B4250001656F010E0101B5210001666F63
:100A2800320E0101B0250001676F010E0101B121ED
:100A38000001686F94EC25F0D3EF00F0C290000E2F
:100A4800956E000E836E0BEC13F0130E0001B06F61
:100A5800880EAF6F38EC22F0250E746F800E736F1E
:100A680082EC24F0F28EF28CD08ED59ED58CD59A5D
:100A7800D598D596070ED512F294F29AF194000EF5
:100A8800D76E3B0ED66EFB0E0001676F7F0E686F48
:100A9800C1EC24F0FB0E0001676F7F0E686FC1EC9C
:100AA80024F00C0E0001676F7E0E686FC1EC24F015
:100AB8001C0E0001676F7D0E686FC1EC24F0680E94
:100AC8000001676F7D0E686FC1EC24F0000E000115
:100AD800656F010E73EC27F0000E0001716F000EB8
:100AE800706F32EC25F0000E0101F06F750EEF6F9C
:100AF800000EF26F9B0EF16F000EF46F050EF36F90
:100B0800000EF66F0A0EF56F010EE86F210EE86110
:100B180004D0FF0EEE6FE00EED6F200EE86504D0F6
:100B2800070EEE6FE00EED6FEFC181F0F0C182F0BD
:100B3800F1C183F0F2C184F0F3C185F0F4C186F00D
:100B4800F5C187F0F6C188F0EDC189F0EEC18AF0F1
:100B580091EC22F0FB0E0101EF25EF6FFF0EF02163
:100B6800F06FFB0EF125F16FFF0EF221F26F0A0E06
:100B7800F325F36F000EF421F46F0A0EF525F56FD7
:100B8800000EF621F66FE82B630EE865BFD7010E5D
:100B9800E96F630EE96501D049D0210EE96104D0FF
:100BA800070EEE6FE00EED6F210EE96507D0420EDD
:100BB800E96104D0F80EEE6F1F0EED6F420EE96585
:100BC80004D0F80EEE6F1F0EED6FEFC181F0F0C18B
:100BD80082F0F1C183F0F2C184F0F3C185F0F4C171
:100BE80086F0F5C187F0F6C188F0EDC189F0EEC155
:100BF8008AF091EC22F0050E0101EF25EF6F000E4F
:100C0800F021F06F050EF125F16F000EF221F26F61
:100C1800F60EF325F36FFF0EF421F46FF60EF525AB
:100C2800F56FFF0EF621F66FE92BB3D7000EF06FC4
:100C3800750EEF6F000EF26F9B0EF16F000EF46FE2
:100C4800050EF36F000EF66F0A0EF56F010EEA6FD0
:100C5800630EEA6501D049D0210EEA6104D0FD0E89
:100C6800EE6F200EED6F210EEA6507D0420EEA61A5
:100C780004D0070EEE6FE00EED6F420EEA6504D069
:100C8800FF0EEE6FE00EED6FEFC181F0F0C182F064
:100C9800F1C183F0F2C184F0F3C185F0F4C186F0AC
:100CA800F5C187F0F6C188F0EDC189F0EEC18AF090
:100CB80091EC22F0FB0E0101EF25EF6FFF0EF02102
:100CC800F06FFB0EF125F16FFF0EF221F26F0A0EA5
:100CD800F325F36F000EF421F46F0A0EF525F56F76
:100CE800000EF621F66FEA2BB3D7010EEB6F630EF9
:100CF800EB6501D048D0210EEB6103D0070EEE6FF3
:100D0800ED69210EEB6507D0420EEB6104D0780E39
:100D1800EE6F0F0EED6F420EEB6504D0000EEE6F16
:100D28001F0EED6FEFC181F0F0C182F0F1C183F0C9
:100D3800F2C184F0F3C185F0F4C186F0F5C187F003
:100D4800F6C188F0EDC189F0EEC18AF091EC22F08D
:100D5800050E0101EF25EF6F000EF021F06F050E73
:100D6800F125F16F000EF221F26FF60EF325F36F05
:100D7800FF0EF421F46FF60EF525F56FFF0EF62140
:100D8800F66FEB2BB4D7000EF06F750EEF6F000EF9
:100D9800F26F9B0EF16F000EF46F050EF36F000EED
:100DA800F66F0A0EF56F010EEC6F630EEC6501D05D
:100DB80047D0210EEC6104D07B0EEE6FE00EED6F94
:100DC800210EEC6505D0420EEC6102D0ED69EE69AA
:100DD800420EEC6504D0000EEE6F0F0EED6FEFC102
:100DE80081F0F0C182F0F1C183F0F2C184F0F3C167
:100DF80085F0F4C186F0F5C187F0F6C188F0EDC141
:100E080089F0EEC18AF091EC22F0FB0E0101EF258A
:100E1800EF6FFF0EF021F06FFB0EF125F16FFF0E63
:100E2800F221F26F0A0EF325F36F000EF421F46F2E
:100E38000A0EF525F56F000EF621F66FEC2BB5D7E7
:100E48004D0E0101E76F190EE66F4F0EE82EFED723
:100E5800E62FFCD7E72FFAD700D0000E0001716FFC
:100E68001F0E706F32EC25F0000E826F460E816FF8
:100E7800000E846FDC0E836FEF0E856F7E0E866F1B
:100E8800000E886F000E876FFF0E8A6F896941EC2C
:100E98001FF0000E0001826F0A0E816F000E846F32
:100EA800BE0E836FC20E856F7E0E866F000E886F32
:100EB800000E876FFF0E8A6F896941EC1FF0000EE4
:100EC8000001826F0A0E816F000E846FA50E836F7A
:100ED800CE0E856F7D0E866F000E886F000E876FB1
:100EE800FF0E8A6F896941EC1FF0000E0001826FC6
:100EF8000A0E816F000E846F8C0E836F8B0E856FC8
:100F08007D0E866F000E886F000E876FFF0E8A6F4A
:100F1800896941EC1FF0000E0001826F0A0E816F93
:100F2800000E846F730E836F800E856F7F0E866F41
:100F3800000E886F000E876FFF0E8A6F896941EC7B
:100F48001FF0000E0001826F460E816F000E846F45
:100F5800280E836F720E856F7D0E866FAF0E886FB9
:100F6800E50E876F000E8A6F000E896F41EC1FF047
:100F7800660E0101E76F760EE66FC10EE82EFED70A
:100F8800E62FFCD7E72FFAD7000E0001716F000E8D
:100F9800706F32EC25F0000E826F390E816F000EF3
:100FA800846FDC0E836F440E856F7E0E866FFF0E96
:100FB800886FE00E876FFD0E8A6F200E896F41ECF7
:100FC8001FF0000E0001826F0A0E816F000E846F01
:100FD8009D0E836F450E856F7F0E866FFF0E886F9F
:100FE8008769000E8A6F000E896F41EC1FF0000EB2
:100FF8000001826F0A0E816F000E846F540E836F9A
:10100800930E856F7E0E866FFF0E886F8769000EC0
:101018008A6F000E896F41EC1FF0000E0001826F8D
:101028000A0E816F000E846F0A0E836F290E856F7A
:101038007E0E866FFF0E886F8769000E8A6F000E1E
:10104800896F41EC1FF0000E0001716F560E706F32
:10105800000E736FC80E726F000E756F0A0E746FF4
:10106800000E776F0A0E766FF80E796F000E786FA4
:1010780038EC1DF0000E716F9D0E706F000E736FCF
:10108800C80E726F000E756F0A0E746F000E776FC0
:101098000A0E766F070E796FE00E786F38EC1DF048
:1010A800D58EF284F28AC10E676F7F0E686FC1EC2D
:1010B80024F0FB0E0001676F7F0E686FC1EC24F00F
:1010C800D90E0001656F7F0E666F65EC25F0010192
:1010D8003151D8B409D0D70E0001676F7F0E686F01
:1010E800C1EC24F07FEC08F0E9EC0DF039EC28F0C5
:1010F800FEEC23F0ECD7000E0001706F000E856F38
:10110800000E716F000E866F28D07051D8A417D0CA
:10111800000E8625D96EDA6A010EDA228651720F20
:10112800E16EE26ADFCFE7FF8651720FD96EDA6AA5
:101138003A0EDE18D8A410D0010E706F0DD0000E34
:101148008625D96EDA6A010EDA227151810FE16EB5
:10115800E26ADFCFE7FF712B862B4F50865DD8A060
:10116800D4D7730E7219D8A41AD0650E7319D8A4DF
:1011780016D0740E7419D8A412D0700E7519D8A48C
:101188000ED0770E7619D8A40AD06D0E7719D8A488
:1011980006D03A0E7819D8A402D0010E856F730EC6
:1011A8007219D8A41AD0650E7319D8A416D0740E63
:1011B8007419D8A412D0650E7519D8A40ED0730E60
:1011C8007619D8A40AD0740E7719D8A406D03A0E86
:1011D8007819D8A402D0020E856F730E7219D8A49C
:1011E8001ED0650E7319D8A41AD0740E7419D8A419
:1011F80016D0720E7519D8A412D0650E7619D8A417
:101208000ED0730E7719D8A40AD0650E7819D8A411
:1012180006D0740E7919D8A402D0030E856F670E14
:101228007219D8A416D0650E7319D8A412D0740EEA
:101238007419D8A40ED0740E7519D8A40AD06D0EDE
:101248007619D8A406D0700E7719D8A402D0040E47
:10125800856F680E7219D8A4C4D1650E7319D8A405
:10126800C0D16C0E7419D8A4BCD1700E7519D8A44D
:10127800B8D1050E856FB5D1E00E656F7F0E666F2C
:1012880065EC25F01B0E0001676F7F0E686FC1ECDF
:1012980024F0FB0E0001676F7F0E686FC1EC24F02D
:1012A800D90E0001656F7F0E666F65EC25F0B3D12E
:1012B80001012F51D8B47AD0010E2B6F010E4B6E5D
:1012C800D00E000181250101296F2A6BFF0E2A2308
:1012D80029C165F02AC166F0000E0001686F0A0E88
:1012E800676F64EC28F082516527000E6623D00EE4
:1012F80065250101296FFF0E0001662101012A6F92
:1013080029C165F02AC166F0000E0001686F0A0E57
:10131800676F64EC28F083516527000E6623D00EB2
:1013280065250101296FFF0E0001662101012A6F61
:101338002A5104E1650E295DD8A004D0000E2A6F59
:10134800640E296FE00E0001656F7F0E666F65EC15
:1013580025F06D0E0001676F7F0E686FC1EC24F0F9
:101368000D0E00016B6FFB0EE82EFED76B2FFCD71E
:1013780000D0A20E0001656F7F0E666F65EC25F048
:10138800810E0001656F666B65EC25F00D0E00019E
:101398006B6FFB0EE82EFED76B2FFCD700D0FC0E30
:1013A8000001676F7F0E686FC1EC24F001012F51B7
:1013B800D8A40ED0E00E0001656F7F0E666F65EC55
:1013C80025F0050E0001676F7F0E686FC1EC24F0F1
:1013D800FB0E0001676F7F0E686FC1EC24F0D90E19
:1013E8000001656F7F0E666F65EC25F014D1010E64
:1013F8004B6EE00E656F7F0E666F65EC25F0790E1B
:101408000001676F7E0E686FC1EC24F0D00E0001FA
:101418006B6FFF0E6C6F81516D6F6E6B6B516D272B
:101428006C516E236D516E11D8A40DD0000E0101C0
:101438002F6F010E2D6F590E0001676F7F0E686FB9
:10144800C1EC24F01BD0D00E6B6FFF0E6C6F815176
:101458006D6F6E6B6B516D276C516E236D056E1140
:10146800D8A40CD0010E01012F6F010E2D6F300E84
:101478000001676F7F0E686FC1EC24F0FB0E00015E
:10148800676F7F0E686FC1EC24F0D90E0001656F9D
:101498007F0E666F65EC25F0BED0E00E656F7F0E9F
:1014A800666F65EC25F05F0E0001676F7E0E686F52
:1014B800C1EC24F0FB0E0001676F7F0E686FC1EC72
:1014C80024F0920E0001676F7F0E686FC1EC24F064
:1014D800FB0E0001676F7F0E686FC1EC24F04D0EA4
:1014E80000016C6F190E6B6F4F0EE82EFED76B2F35
:1014F800FCD76C2FFAD700D0FF008DD0E00E656FB7
:101508007F0E666F65EC25F0440E0001676F7D0E57
:10151800686FC1EC24F0010E0101306F7CD0E00E41
:10152800656F7F0E666F65EC25F0AD0E0001676F85
:101538007D0E686FC1EC24F0D20E0001656F7F0E3E
:10154800666F65EC25F0050E0001656F7D0E666F10
:1015580065EC25F0AD0E0001676F7F0E686FC1EC7A
:1015680024F0D20E0001656F7F0E666F65EC25F0E2
:101578000D0E0001656F7D0E666F65EC25F0B70EE8
:101588000001676F7F0E686FC1EC24F0D20E000176
:10159800656F7F0E666F65EC25F0150E0001676FAD
:1015A8007D0E686FC1EC24F0D20E0001656F7F0ECE
:1015B800666F65EC25F0FC0E0001676F7C0E686FA6
:1015C800C1EC24F0FB0E0001676F7F0E686FC1EC61
:1015D80024F0D90E0001656F7F0E666F65EC25F06B
:1015E8001AD085516B6F6C6B6C51000AD8A413D05C
:1015F8006B51000AD8B440D6010AD8B459D6030AA8
:10160800D8B4F5D6010AD8B448D7070AD8B476D7DB
:10161800010AD8B484D7000E0001846F09D0000EE7
:101628008425D96EDA6A010EDA22000EDF6E842B69
:101638004F506B6F6C6B010E6B27000E6C2384513F
:101648006D6F6E6B6B516D5D6E51800A6F6F6C5173
:10165800800A6F59D8A0E3D7000E0101316F000E40
:101668004F6E1200C551D96EDA6ADECFF6FFDDCFB4
:10167800F7FF0800F550250AD8A491D2C551D96EB4
:10168800DA6ADE2A000EDD22000E0101246F000E48
:10169800236F23C127F124C128F125692669000E8B
:1016A8000001D46F000E19D0010127810001C55136
:1016B800D96EDA6ADE2A000EDD2231D001012783D5
:1016C800F5D701012785F2D701012787EFD7010157
:1016D8002789ECD7000ED46F010ED36F20D0C551E7
:1016E800D96EDA6ADECFF6FFDDCFF7FF0800F550D6
:1016F800C76FC86BC851000AD8A4ECD7C751200AD5
:10170800D8B4E2D7030AD8B4E2D7080AD8B4D9D7EC
:10171800060AD8B4C9D71D0AD8B4D0D7DBD7D35155
:10172800D411D8B4DCD7010127B127930001C551E2
:10173800D96EDA6ADECFF6FFDDCFF7FF0800F55085
:101748002A0AD8A422D0C551D96EDA6ADE2A000E38
:10175800DD22C651D96EDA6ADFCFC7F0020EDE2667
:10176800DFCFC8F0000EDD22C7C0D9FFC8C0DAFF3E
:10177800DECF23F1DDCF24F1010124AF3CD0278156
:10178800236D241FD8B0242B36D0C551D96EDA6A00
:10179800DECF6CF0DDCF6DF0DDEC1AF06CC023F11C
:1017A8006DC024F106D0C551D96EDA6ADE2A000E62
:1017B800DD22D00EC76FFF0EC86FC551D96EDA6A29
:1017C800DECFF6FFDDCFF7FF0800F550C96FCA6B13
:1017D800C751C927C851CA23CA5106E10A0EC95DB3
:1017E800D8B002D0010E01D0000ED56FD66BD551FE
:1017F800D611D8A4D8D70001C551D96EDA6ADECF80
:10180800F6FFDDCFF7FF0800F5502E0AD8A468D000
:10181800000E0101266F000E256F0001C551D96E1B
:10182800DA6ADE2A000EDD22C551D96EDA6ADECF09
:10183800F6FFDDCFF7FF0800F5502A0AD8A41AD022
:10184800C551D96EDA6ADE2A000EDD22C651D96E7C
:10185800DA6ADFCFC7F0020EDE26DFCFC8F0000E4F
:10186800DD22C7C0D9FFC8C0DAFFDECF25F1DDCF42
:1018780026F136D0C551D96EDA6ADECF6CF0DDCFED
:101888006DF0DDEC1AF06CC025F16DC026F106D0C4
:10189800C551D96EDA6ADE2A000EDD22D00EC76F76
:1018A800FF0EC86FC551D96EDA6ADECFF6FFDDCFFD
:1018B800F7FF0800F550C96FCA6BC751C927C8514F
:1018C800CA23CA5106E10A0EC95DD8B002D0010E7A
:1018D80001D0000ED76FD86BD751D811D8A4D8D75C
:1018E800C551D96EDA6ADECFF6FFDDCFF7FF080003
:1018F800F5506B6F6C6B0EEC26F06B51E06FE0519E
:10190800D8B431D0C551D96EDA6ADECFC7F0DDCF91
:10191800C8F0010EC727000EC823C7C0F6FFC8C00D
:10192800F7FF0800F5506B6F6C6B0EEC26F06B51EF
:10193800E16FE151D8B417D0C551D96EDA6ADECF5C
:10194800C7F0DDCFC8F0020EC727000EC823C7C0F6
:10195800F6FFC8C0F7FF0800F5506B6F6C6B0EEC14
:1019680026F06B51E26FC551D96EDA6ADECFF6FF09
:10197800DDCFF7FF0800F550640AD8B40CD0C55184
:10198800D96EDA6ADECFF6FFDDCFF7FF0800F55033
:10199800690AD8A43BD0C551D96EDA6ADE2A000E8E
:1019A800DD22C651D96EDA6ADFCFC7F0020EDE2615
:1019B800DFCFC8F0000EDD22C7C0D9FFC8C0DAFFEC
:1019C800DECFCBF0DDCFCCF0000ECCBFFF0ECD6F5D
:1019D800CE6FCF6FD06FD16FD26FC4C07FF0CBC046
:1019E80080F0CCC081F0CDC082F0CEC083F0CFC0F3
:1019F80084F0D0C085F0D1C086F0D2C087F0DFEC8B
:101A080016F07FC0C4F080C0C5F01200660EE01961
:101A1800D8A43AD0C551D96EDA6ADECFF6FFDDCF49
:101A2800F7FF0800F5CFDBF0C551D96EDA6ADE2A78
:101A3800000EDD22C651D96EDA6ADFCFC7F0040E78
:101A4800DE26DFCFC8F0000EDD22C7C0D9FFC8C030
:101A5800DAFFDECFDCF0DECFDDF0DECFDEF0DECF8A
:101A6800DFF0C4C0B9F0DCC0BAF0DDC0BBF0DEC046
:101A7800BCF0DFC0BDF0DBC0BEF03FEC00F0B9C089
:101A8800C4F0BAC0C5F01200E00E656FF70E666FBD
:101A98007F0E676F000E696F020E686FDEEC22F032
:101AA80065516611D8A451D0C551D96EDA6ADECF16
:101AB800C7F0DDCFC8F0010EC727000EC823C7C086
:101AC800F6FFC8C0F7FF0800F5CFDBF0BF0EC76F01
:101AD800FF0EC86FC551D96EDA6ADECFF6FFDDCFCB
:101AE800F7FF0800F550C96FCA6BC751C927C8511D
:101AF800CA23CA5106E11A0EC95DD8B002D0010E38
:101B080001D0000ED96FDA6BD951DA11C651D96EEE
:101B1800DA6ADFCFC7F0040EDE26DFCFC8F0000E8A
:101B2800DD22C7C0D9FFC8C0DAFFDECFDCF0DECFC8
:101B3800DDF0DECFDEF0DECFDFF0C551D96EDA6A38
:101B4800020EDE26000EDD228CD7C551D96EDA6A68
:101B5800DECFF6FFDDCFF7FF0800F550250AD8A441
:101B680013D0C551D96EDA6ADE2A000EDD22000EC6
:101B7800666F250E656FC4C067F071EC23F0000E28
:101B8800C56F010EC46F1200C551D96EDA6ADE2A1C
:101B9800000EDD22000EC56F000EC46F1200C55185
:101BA800D96EDA6ADECFF6FFDDCFF7FF0800F55011
:101BB800656F666BC4C067F071EC23F0C551D96ED0
:101BC800DA6ADE2A000EDD22DAD72B51D8B4F7D034
:101BD800000E0001716F9B0E706F000E736F050E83
:101BE800726F000E756F1E0E746F000E776FB40E55
:101BF800766F000E796F000E786F38EC1DF0C60E08
:101C08000101BE6F010EBF6FD90EC06F7E0EC16F8E
:101C180029C1C2F12AC1C3F1BEEC25F0000E0001B2
:101C2800826F0A0E816F000E846F9D0E836FC60E41
:101C3800856F010E866FFF0E886F8769000E8A6FA9
:101C4800000E896F41EC1FF001012A5147E1210E76
:101C5800295DD8B043D0000E0001716F9D0E706FE2
:101C6800000E736FE60E726F000E756F0A0E746FBA
:101C7800000E776F0A0E766F000E796F000E786F80
:101C880038EC1DF0000E716F9D0E706F000E736FB3
:101C9800D70E726F000E756F0A0E746F000E776F95
:101CA8000A0E766F000E796F000E786F38EC1DF013
:101CB800000E716F9D0E706F000E736FC80E726FFD
:101CC800000E756F0A0E746F000E776F0A0E766F2E
:101CD800070E796FE00E786F38EC1DF001012A517C
:101CE80004E1210E295DD8A033D02A5131E1420EFA
:101CF800295DD8B02DD0000E0001716F9D0E706F58
:101D0800000E736FE60E726F000E756F0A0E746F19
:101D1800000E776F0A0E766F000E796F000E786FDF
:101D280038EC1DF0000E716F9D0E706F000E736F12
:101D3800D70E726F000E756F0A0E746F000E776FF4
:101D48000A0E766FFD0E796F200E786F38EC1DF055
:101D580001012A5104E1420E295DD8A02DD0000EC0
:101D68000001716F9D0E706F000E736FD70E726F4A
:101D7800000E756F0A0E746F000E776F0A0E766F7D
:101D8800FD0E796F200E786F38EC1DF0000E716F24
:101D98009D0E706F000E736FE60E726F000E756FFA
:101DA8000A0E746F000E776F0A0E766FF80E796F51
:101DB800000E786F38EC1DF0000E01012B6F2D51CD
:101DC800D8B4CFD02F51D8B444D0000E0001716FD1
:101DD800500E706F000E736F050E726F000E756FE8
:101DE8001E0E746F000E776FFA0E766F000E796F05
:101DF800000E786F38EC1DF0000E826F0A0E816FAE
:101E0800000E846F540E836FAB0E856F7E0E866F47
:101E1800FF0E886F8769000E8A6F000E896F41EC8C
:101E28001FF0000E0001716F560E706F000E736F79
:101E3800C80E726F000E756F0A0E746F000E776F02
:101E48000A0E766F070E796FE00E786F38EC1DF08A
:101E580085D0000E0001716F500E706F000E736F09
:101E6800050E726F000E756F1E0E746F000E776F81
:101E7800FA0E766F000E796F000E786F38EC1DF051
:101E8800000E826F0A0E816F000E846F540E836FEE
:101E9800930E856F7E0E866FFF0E886F8769000E22
:101EA8008A6F000E896F41EC1FF0000E0001716F00
:101EB800560E706F000E736FC80E726F000E756F3E
:101EC8000A0E746F000E776F0A0E766FF80E796F30
:101ED800000E786F38EC1DF0000E716F9B0E706F5E
:101EE800000E736F050E726F000E756F1E0E746F05
:101EF800010E776F2C0E766F000E796F000E786FDB
:101F080038EC1DF0000E826F0A0E816F000E846F90
:101F18009D0E836F450E856F7F0E866FFF0E886F4F
:101F28008769000E8A6F000E896F41EC1FF0000E62
:101F38000001716F9D0E706F000E736FC80E726F87
:101F4800000E756F0A0E746F000E776F0A0E766FAB
:101F5800070E796FE00E786F38EC1DF0000E010166
:101F68002D6F2E51D8B403D03051D8A403D02C51A2
:101F7800D8B41200C60EBE6F010EBF6FED0EC06F53
:101F88007D0EC16F1DC1C2F11EC1C3F11FC1C4F1D5
:101F980020C1C5F1BEEC25F0000E0001826F0A0ECB
:101FA800816F000E846F0A0E836FC60E856F010E57
:101FB800866FFF0E886F8769000E8A6F000E896F23
:101FC80041EC1FF001012C51D8B41200000E2C6F07
:101FD800120000017651800B7F6F76517625816F54
:101FE80075BF81818151D8B40DD08129D8A408D07A
:101FF800000E736F000E746F000E756F000E766F13
:10200800758F08D0000E736F000E746F000E756F19
:10201800000E766F7A51800B7F1B7A517A25806F7C
:1020280079BF80818051D8B40DD08029D8A408D038
:10203800000E776F000E786F000E796F000E7A6FC2
:10204800798F08D0000E776F000E786F000E796FC9
:10205800000E7A6F8051D8B403D08151D8A409D02A
:10206800000E736F000E746F000E756F000E766FA2
:10207800120079517303F3CF8AF0F4CF8BF08A51B1
:10208800826F836B846B856B8B51866F876B886BD4
:10209800896B78517403F3CF8AF0F4CF8BF08A51AF
:1020A8008227000E8323842385238B518627000EE5
:1020B80087238823892377517503F3CF8AF0F4CFD8
:1020C8008BF08A518227000E8323842385238B512A
:1020D8008627000E87238823892384C085F083C040
:1020E80084F082C083F0826B77517403F3CF8AF057
:1020F800F4CF8BF08A5182278B518323000E8423DF
:10210800000E852378517303F3CF8AF0F4CF8BF058
:102118008A5182278B518323000E8423000E852346
:1021280084C085F083C084F082C083F0826B7751CD
:102138007303F3CF8AF0F4CF8BF08A5182278B5147
:102148008323000E8423000E852379517403F3CF73
:102158008AF0F4CF8BF08A5186278B518723000EA3
:102168008823000E892378517503F3CF8AF0F4CFC2
:102178008BF08A5186278B518723000E8823000E07
:10218800892379517503F3CF8AF0F4CF8BF08A5104
:102198007B6F8B517C6F7D6B7E6B7DC07EF07CC0CE
:1021A8007DF07BC07CF07B6B7B5186277C5187233D
:1021B8007D5188237E51892385518627000E8723E8
:1021C8008823892384C085F083C084F082C083F08B
:1021D800826B805181C07BF07C6B7B27000E7C2357
:1021E800820E7B258A6FFF0E7C218B6F0FD0D890D3
:1021F800863787378837893785BF8681D890823771
:102208008337843785378A07D8A08B0788AFEFD7FD
:10221800000E806F85AF17D0FF0E82157B6FFF0E03
:1022280083157C6FFF0E84157D6F7F0E85157E6F7D
:102238007B517C117D117E11D8B403D0010E806FC3
:1022480002D086B1FBD78051D8B41FD0010E8627A3
:10225800000E87238823892389A117D086C07BF0A5
:1022680087C07CF088C07DF089C07EF07E357E33E3
:102278007D337C337B337BC086F07CC087F07DC0A8
:1022880088F07EC089F08A4B8B2B8BBF0DD08B5189
:1022980003E18A29D8A008D0000E866F000E876F48
:1022A800800E886F7F0E20D08BBF05D08B510EE13A
:1022B8008A05D8B00BD0000E866F000E876F000E0F
:1022C800886F000E896F000E7F6F0FD08AC081F073
:1022D800FF0E8617FF0E87177F0E8817000E8917C7
:1022E80081B1888FD8908131896F7F51891386C0D9
:1022F80073F087C074F088C075F089C076F012005A
:1023080000016851800B716F68516825736F67BF52
:1023180073817351D8B40DD07329D8A408D0000E96
:10232800656F000E666F000E676F000E686F678F2F
:1023380006D0000E656F000E666F000E676F000E08
:10234800686F6C51800B726F71517219D8A4718DBE
:102358006C516C25726F6BBF72817251D8B40DD0FD
:102368007229D8A408D0000E696F000E6A6F000E9B
:102378006B6F000E6C6F6B8F06D0000E696F000ECE
:102388006A6F000E6B6F000E6C6F7351725DD8B080
:1023980022D071AD02D0800E711B73C074F072C070
:1023A80073F074C072F065C074F069C065F074C0F1
:1023B80069F066C074F06AC066F074C06AF067C0FD
:1023C80074F06BC067F074C06BF068C074F06CC0D8
:1023D80068F074C06CF0000E746F735172C06DF0C9
:1023E8006E6B6D5F000E6E5B6EBF2CD06E5104E19C
:1023F8001A0E6D5DD8A026D0655166116711681157
:10240800D8B402D0010E01D0000E746F000E656FB3
:10241800000E666F000E676F000E686F72C073F073
:1024280015D074A105D0D89074310109746F02D009
:10243800D890743365B1748F683568336733663301
:102448006533732B7251735DD8A0EBD771BD28D05B
:102458007351D8A409D0000E656F000E666F000E88
:10246800676F000E686F1200695165276A5166230D
:102478006B5167236C51682368A171D074A105D092
:10248800D89074310109746F02D0D890743365B153
:10249800748F68356833673366336533732B5FD061
:1024A8006951655D6A5166596B5167596851800A6F
:1024B8006D6F6C51800A6D59D8B025D06551695D32
:1024C8006D6F66516A596E6F67516B596F6F6851BE
:1024D8006C59706FFF0E6D25656FFF0E6E21666F6C
:1024E800FF0E6F21676FFF0E7021686F800E711BE2
:1024F800746D7451D8A40FD0010E6527000E6623A1
:102508006723682308D06951655F6A51665B6B5120
:10251800675B6C51685B6551661167116811D8A4D7
:102528001CD07451D8A419D0000E656F000E666FC8
:10253800000E676F000E686F1200D8906537663717
:102548006737683774BF658174A102D0D88001D01D
:10255800D89074377351D8A4730767AFEED7000EBD
:10256800726F74AF0BD074C06DF07F0E6D17D8B456
:1025780003D0010E726F02D065B1FBD77251D8B487
:1025880020D0010E6527000E66236723682368A103
:1025980018D065C06DF066C06EF067C06FF068C097
:1025A80070F0703570336F336E336D336DC065F016
:1025B8006EC066F06FC067F070C068F07329D8A469
:1025C800732B7329D8B403D07351D8A40DD0000E3F
:1025D800656F000E666F000E676F000E686F7351AF
:1025E800D8A402D0000E716F73A102D0678F01D0FA
:1025F800679FD8907331686F71BF688F65C065F049
:1026080066C066F067C067F068C068F01200818233
:1026180093928184939481869396818A939A8188F0
:10262800939881829392060E0001696F130E686F6A
:10263800AD0EE82EFED7682FFCD7692FFAD700D049
:102648008192060E0001696F130E686FAD0EE82EB9
:10265800FED7682FFCD7692FFAD700D08182060EE3
:102668000001696F130E686FAD0EE82EFED7682F54
:10267800FCD7692FFAD700D0010EBEEC1DF0060E6C
:102688000001696F130E686FAD0EE82EFED7682F34
:10269800FCD7692FFAD700D0280EBEEC1DF0C00E6B
:1026A800BEEC1DF0260E42EC1EF0C10EBEEC1DF075
:1026B800110E42EC1EF0C50EBEEC1DF05C0E42EC95
:1026C8001EF04C0E42EC1EF0C70EBEEC1DF0940E30
:1026D80042EC1EF0360EBEEC1DF0480E42EC1EF029
:1026E8003A0EBEEC1DF0550E42EC1EF0B10EBEECDB
:1026F8001DF0000E42EC1EF01B0E42EC1EF0F20E16
:10270800BEEC1DF0080E42EC1EF0260EBEEC1DF0CD
:10271800010E42EC1EF0E00EBEEC1DF01F0E42EC66
:102728001EF01A0E42EC1EF0180E42EC1EF00A0EB5
:1027380042EC1EF00F0E42EC1EF0060E42EC1EF0AC
:10274800450E42EC1EF0870E42EC1EF0320E42ECB3
:102758001EF00A0E42EC1EF0070E42EC1EF0020EAE
:1027680042EC1EF0070E42EC1EF0050E42EC1EF085
:10277800000E42EC1EF0E10EBEEC1DF0000E42EC25
:102788001EF0250E42EC1EF0270E42EC1EF0050E40
:1027980042EC1EF0100E42EC1EF0090E42EC1EF048
:1027A8003A0E42EC1EF0780E42EC1EF04D0E42EC52
:1027B8001EF0050E42EC1EF0180E42EC1EF00D0E37
:1027C80042EC1EF0380E42EC1EF03A0E42EC1EF0BF
:1027D8001F0E42EC1EF02A0EBEEC1DF0000E42EC5D
:1027E8001EF0000E42EC1EF0000E42EC1EF0EF0E42
:1027F80042EC1EF02B0EBEEC1DF0000E42EC1EF05B
:10280800000E42EC1EF0010E42EC1EF03F0E42ECB0
:102818001EF0200EBEEC1DF0B70EBEEC1DF0070E2C
:1028280042EC1EF0B60EBEEC1DF00A0E42EC1EF095
:10283800820E42EC1EF0270E42EC1EF0000E42EC17
:102848001EF0110EBEEC1DF0040E0001696F2C0E77
:10285800686FAB0EE82EFED7682FFCD7692FFAD722
:1028680000D0290EBEEC1DF0040E0001696F2C0E7D
:10287800686FAB0EE82EFED7682FFCD7692FFAD702
:1028880000D02C0EBEEC1DF0060E0001696F130E71
:10289800686FAD0EE82EFED7682FFCD7692FFAD7E0
:1028A80000D0120000018F51800B9C6F8F518F2533
:1028B800A36F8EBFA381A351D8B40DD0A329D8A4E8
:1028C80008D0000E8C6F000E8D6F000E8E6F000EFC
:1028D8008F6F8E8F06D0000E8C6F000E8D6F000EDE
:1028E8008E6F000E8F6F9351800B9C1B9351932515
:1028F800A46F92BFA481A451D8B40DD0A429D8A4A0
:1029080008D0000E906F000E916F000E926F000EAF
:10291800936F928F06D0000E906F000E916F000E8D
:10292800926F000E936F9051911192119311D8A448
:1029380017D0000E8C6F000E8D6F000E8E6F000E7C
:102948008F6F800E8E137F0E8F139C518F138CC048
:102958008CF08DC08DF08EC08EF08FC08FF012007D
:10296800A351D8A409D0000E8C6F000E8D6F000EF5
:102978008E6F000E8F6F1200A451A3C094F0956B58
:10298800945F000E955B7F0E94259D6F000E952138
:102998009E6F8CC098F08DC099F08EC09AF08FC051
:1029A8009BF0000E8C6F000E8D6F000E8E6F000E68
:1029B8008F6F000E9F6F000EA06F000EA16F000EAC
:1029C800A26F000EA46F28D0A451D8B411D0D8900B
:1029D800983799379A379B37D8908C378D378E37F9
:1029E8008F37A2BF8C81D8909F37A037A137A237E5
:1029F8009051985D9151995992519A5993519B5977
:102A0800D8A009D0A28D9051985F9151995B9251AD
:102A18009A5B93519B5BA42B190EA465D5D798514B
:102A280099119A119B11D8B411D09F810FD0D890C9
:102A38008C378D378E378F37A2BF8C81D8909F37D0
:102A4800A037A137A2379D07D8A09E078EAFEFD732
:102A5800000EA46FA2AF17D0FF0E9F15946FFF0E44
:102A6800A015956FFF0EA115966F7F0EA215976F93
:102A78009451951196119711D8B403D0010EA46FF3
:102A880002D08CB1FBD7A451D8B41FD0010E8C272B
:102A9800000E8D238E238F238FA117D08CC094F026
:102AA8008DC095F08EC096F08FC097F0973597330C
:102AB80096339533943394C08CF095C08DF096C0BE
:102AC8008EF097C08FF09D4B9E2B9EBF10D09E51CD
:102AD80003E19D29D8A00BD0000E9E6F9D69000EC2
:102AE8008C6F000E8D6F000E8E6F000E8F6F9EBF65
:102AF80005D09E5111E19D05D8B00ED0000E9E6FF5
:102B0800000E9D6F000E8C6F000E8D6F000E8E6F85
:102B1800000E8F6F000E9C6F9DC0A3F0A3A102D082
:102B28008E8F01D08E9FD890A3318F6F0ED709500A
:102B3800800B166E095009241D6E08BE1D801D509D
:102B4800D8B40DD01D28D8A408D0000E066E000EEB
:102B5800076E000E086E000E096E088E06D0000E75
:102B6800066E000E076E000E086E000E096E0D5000
:102B7800800B161A0D500D241E6E0CBE1E801E50A2
:102B8800D8B40DD01E28D8A408D0000E0A6E000EA6
:102B98000B6E000E0C6E000E0D6E0C8E06D0000E25
:102BA8000A6E000E0B6E000E0C6E000E0D6E0A50B3
:102BB8000B100C100D10D8A417D0000E066E000EC6
:102BC800076E000E086E000E096E800E08127F0E4A
:102BD80009121650091206C006F007C007F008C00F
:102BE80008F009C009F012001D50D8A409D0000E41
:102BF800066E000E076E000E086E000E096E1200BB
:102C08001E501DC00EF00F6A0E5E000E0F5A7F0E8A
:102C18000E24176E000E0F20186E06C012F007C0A3
:102C280013F008C014F009C015F0000E066E000E6F
:102C3800076E000E086E000E096E000E196E000E6B
:102C48001A6E000E1B6E000E1C6E000E1E6E28D033
:102C58001E50D8B411D0D890123613361436153603
:102C6800D89006360736083609361CBE0680D89036
:102C780019361A361B361C360A50125C0B5013587C
:102C88000C5014580D501558D8A009D01C8C0A5057
:102C9800125E0B50135A0C50145A0D50155A1E2A16
:102CA800190E1E64D5D71250131014101510D8B46D
:102CB80011D019800FD0D890063607360836093655
:102CC8001CBE0680D89019361A361B361C361706D5
:102CD800D8A0180608AEEFD7000E1E6E1CAE17D08F
:102CE800FF0E19140E6EFF0E1A140F6EFF0E1B1432
:102CF800106E7F0E1C14116E0E500F101010111054
:102D0800D8B403D0010E1E6E02D006B0FBD71E50F9
:102D1800D8B41FD0010E0626000E07220822092269
:102D280009A017D006C00EF007C00FF008C010F0B9
:102D380009C011F01134113210320F320E320EC0A8
:102D480006F00FC007F010C008F011C009F0174ACC
:102D5800182A18BE10D0185003E11728D8A00BD095
:102D6800000E186E1768000E066E000E076E000E35
:102D7800086E000E096E18BE05D0185011E1170430
:102D8800D8B00ED0000E186E000E176E000E066E2C
:102D9800000E076E000E086E000E096E000E166E0D
:102DA80017C01DF01DA002D0088E01D0089ED89033
:102DB8001D30096E0ED780C098F081C099F082C08E
:102DC8009AF083C09BF084C09CF085C09DF086C0BB
:102DD8009EF087C09FF09FAF02D0010E01D0000E79
:102DE800966F976B96519711D8B410D09F1F9E1F5E
:102DF8009D1F9C1F9B1F9A1F991F986D000E99235A
:102E08009A239B239C239D239E239F23010126AF66
:102E1800279326BF05D0265109E12505D8B006D04D
:102E2800000E0001936F010E926F04D025C192F03D
:102E380026C193F023C194F024C195F00001965166
:102E48009711D8A403D0010127A504D00001940745
:102E5800D8A09507000E0001A16F4F0EA06F000EBD
:102E68000101816F7DD00001A007D8A0A107320E13
:102E7800A025D96E010EA121DA6E98C065F099C01F
:102E880066F09AC067F09BC068F09CC069F09DC06E
:102E98006AF09EC06BF09FC06CF00A0E6D6F000E5A
:102EA8006E6F000E6F6F000E706F000E716F000E68
:102EB800726F000E736F000E746F1DEC1CF065C00E
:102EC80088F066C089F067C08AF068C08BF069C076
:102ED8008CF06AC08DF06BC08EF06CC08FF088C02B
:102EE80077F08AC078F0BFEC27F07751300FDF6EAB
:102EF8009207D8A093079407D8A0950798C065F0C3
:102F080099C066F09AC067F09BC068F09CC069F0F1
:102F18009DC06AF09EC06BF09FC06CF00A0E6D6F8A
:102F2800000E6E6F000E6F6F000E706F000E716FE7
:102F3800000E726F000E736F000E746F98EC19F02C
:102F480065C098F066C099F067C09AF068C09BF0B9
:102F580069C09CF06AC09DF06BC09EF06CC09FF089
:102F68000001A1BF20D0A15103E1A005D8A01BD02A
:102F7800985199119A119B119C119D119E119F11A5
:102F8800D8A471D793BF05D0935102E19205D8B068
:102F98006AD795BF08D0955103E19405D8A003D00E
:102FA800010127B360D7000196519711D8A403D027
:102FB800010127A518D00001A007D8A0A1079651A4
:102FC8009711D8A404D0000E916F2B0E03D0000ED9
:102FD800916F2D0E906F320EA025D96E010EA12192
:102FE800DA6E90C0DFFF7FC073F0320E0001A025BB
:102FF800746F010EA121756F94C076F095C077F0BB
:1030080029EC23F073C07FF074C080F0120019C15E
:10301800B5F01AC1B6F01BC1B7F01CC1B8F0A5C015
:10302800B5F0A6C0B6F0A7C0B7F0A8C0B8F0810E3A
:10303800A96FFF0EAA6FB5C0ABF0B6C0ACF0B7C0B1
:10304800ADF0B8C0AEF0180E05D0D890AE33AD33A1
:10305800AC33AB33E82EF9D7AB51A925B36F000ECB
:10306800AA21B46FB4BF0FD0B45104E1170EB35DF9
:10307800D8A009D0A5C0A5F0A6C0A6F0A7C0A7F003
:10308800A8C0A8F01200B4BF5CD0B3C0A9F0FF0E6E
:10309800AA6FFF0EAB6F7F0EAC6F000EAD6FA96706
:1030A80001D007D0AD35AD33AC33AB33AA33A92F3C
:1030B800F6D7AAC0AFF0ABC0B0F0ACC0B1F0ADC0AD
:1030C800B2F00001AF51B515A96FB051B615AA6F8E
:1030D800B151B715AB6FB251B815AC6FA951AA1160
:1030E800AB11AC11D8B4C6D7B5C0A9F0B6C0AAF018
:1030F800B7C0ABF0B8C0ACF0200E05D0D890AC3358
:10310800AB33AA33A933E82EF9D7A951D8B408D0DC
:10311800AF51B527B051B623B151B723B251B82337
:10312800AF1DA96FB01DAA6FB11DAB6FB21DAC6FFB
:10313800A951B517AA51B617AB51B717AC51B81763
:1031480032D0B5C0A9F0B6C0AAF0B7C0ABF0B8C0CD
:10315800ACF0200E05D0D890AC33AB33AA33A933EA
:10316800E82EF9D7A96708D0000EB56F000EB66F24
:10317800000EB76F000E16D0D890B535A96FB635CA
:10318800AA6FB735AB6FB835AC6FA951AA11AB119F
:10319800AC11D8B408D0000EB56F000EB66F800E13
:1031A800B76FBF0EB86FB5C0A5F0B6C0A6F0B7C070
:1031B800A7F0B8C0A8F012000001BD6F000E000112
:1031C800B56F000EB66F000EB76F000EB86F000E29
:1031D800B96F000EBA6F000EBB6F000EBC6F000E09
:1031E800BF6F000EBE6FCA84000E8C6F000E8D6F0D
:1031F800800E8E6F3F0E8F6F50C065F051C066F025
:10320800676B686B000E3CEC1AF065C090F066C006
:1032180091F067C092F068C093F056EC14F08CC03F
:10322800B1F08DC0B2F08EC0B3F08FC0B4F0640EB0
:10323800BD19D8A402D05F0EBD6FB1C077F0B2C07F
:1032480078F0B3C079F0B4C07AF0BD51656F666BA1
:10325800676B686B010E3CEC1AF065C073F066C0D2
:1032680074F067C075F068C076F0EDEC0FF073C0CD
:103278008CF074C08DF075C08EF076C08FF0000EA3
:10328800906F000E916FC80E926F420E936F56ECBE
:1032980014F08CC0B5F08DC0B6F08EC0B7F08FC0FA
:1032A800B8F0B5C08CF0B6C08DF0B7C08EF0B8C01D
:1032B8008FF0950E906FBF0E916F560E926F350E70
:1032C800936F56EC14F08CC0B9F08DC0BAF08EC074
:1032D800BBF08FC0BCF0B9C0A5F0BAC0A6F0BBC0A7
:1032E800A7F0BCC0A8F0DBEC21F0A5C0BEF0A6C0DA
:1032F800BFF0CF0EBD16BEC0AFF0030EAF17AF3B89
:10330800BD50AF19CF0BAF19BD6E000EBE6EBEC05B
:10331800AFF0BFC0B0F0D890B033AF33D890B0336F
:10332800AF33AF51BE121200000E766F74AF12D0D9
:10333800741F731F721F711F701F6F1F6E1F6D6DBB
:10334800000E6E236F23702371237223732374235B
:10335800010E766F6CAF12D06C1F6B1F6A1F691F4E
:10336800681F671F661F656D000E66236723682345
:1033780069236A236B236C23010E761B20EE77F0FA
:10338800070EDE6AE806FDE26D516E116F117011CD
:103398007111721173117411D8B446D0010E756F82
:1033A8000AD0D8906D376E376F37703771377237EC
:1033B80073377437752B74AFF4D7D890773778375D
:1033C80079377A377B377C377D377E376D51655D46
:1033D8006E5166596F5167597051685971516959E1
:1033E80072516A5973516B5974516C59D8A011D0E4
:1033F8006D51655F6E51665B6F51675B7051685BBD
:103408007151695B72516A5B73516B5B74516C5B90
:103418007781D890743373337233713370336F3369
:103428006E336D33752FC9D77651D8B410D07E1F3F
:103438007D1F7C1F7B1F7A1F791F781F776D000EF9
:10344800782379237A237B237C237D237E2377C0EB
:1034580065F078C066F079C067F07AC068F07BC024
:1034680069F07CC06AF07DC06BF07EC06CF0120021
:103478006D6F00016D51D8A468AF1AD065C069F0AE
:1034880066C06AF067C06BF068C06CF0691F6A1F9D
:103498006B1F6C1F692B000E6A236B236C2369C09A
:1034A8006FF06AC070F06BC071F06CC072F008D039
:1034B80065C06FF066C070F067C071F068C072F0E8
:1034C8006551661167116811D8A409D0000E656F9F
:1034D800000E666F000E676F000E686F1200960E82
:1034E8006E6F06D06E2BD8907233713370336F3392
:1034F800000E6F15696F000E70156A6F000E71155A
:103508006B6FFE0E72156C6F69516A116B116C113D
:10351800D8B40DD0E7D76E2B010E6F27000E70239D
:1035280071237223D8907233713370336F33000E66
:103538006F15696F000E70156A6F000E71156B6F4D
:10354800FF0E72156C6F69516A116B116C11D8B44A
:1035580007D0E1D76E07D8906F3770377137723759
:1035680071BF03D0020E6E61F5D76EA1719FD8901E
:103578006E336EC069F06A6B6B6B6C6B69C06CF014
:103588006B6B6A6B696B69516F136A5170136B517E
:1035980071136C5172136D51D8A468AF01D0728F3A
:1035A8006FC065F070C066F071C067F072C068F0F7
:1035B8001200000E7A6F000E796F000E736F000E06
:1035C800726F02D06C4B6D2B010E786F6CC0F6FFDA
:1035D8006DC0F7FF0800F550200AD8B418D0F70ED0
:1035E8006E6FFF0E6F6F6CC0F6FF6DC0F7FF0800BF
:1035F800F550706F716B6E5170276F517123715157
:1036080004E1050E705DD8A002D0000E786F78C076
:1036180074F0756B74517511D8B408D0D3D7000EF7
:10362800736F010E726F6C4B6D2B2ED06CC0F6FF52
:103638006DC0F7FF0800F5506E6F6F6B6F51000A91
:10364800D8A422D06E512B0AD8B4EDD7060AD8B424
:10365800E6D71AD079C065F07AC066F0000E686FB8
:103668000A0E676F64EC28F06CC0F6FF6DC0F7FFB8
:103678000800F550655F000E665B300E6525796FB2
:10368800000E66217A6FCFD7D00E6E6FFF0E6F6F68
:103698006CC0F6FF6DC0F7FF0800F550706F716BD6
:1036A8006E5170276F517123715106E10A0E705DDA
:1036B800D8B002D0010E01D0000E766F776B76512C
:1036C8007711D8A4C7D772517311D8A40DD079C077
:1036D8006EF07AC06FF06E1F6F1F6E4B6F2B6EC04F
:1036E8006CF06FC06DF0120079C06CF07AC06DF0AC
:1036F80012000E6E0E50D8A409AE1AD006C00AF0F9
:1037080007C00BF008C00CF009C00DF00A1E0B1E14
:103718000C1E0D1E0A2A000E0B220C220D220AC0B6
:1037280010F00BC011F00CC012F00DC013F008D04F
:1037380006C010F007C011F008C012F009C013F05D
:103748000650071008100910D8A409D0000E066EFC
:10375800000E076E000E086E000E096E1200960E1F
:103768000F6E06D00F2AD89013321232113210324F
:10377800000E10140A6E000E11140B6E000E1214B7
:103788000C6EFE0E13140D6E0A500B100C100D105B
:10379800D8B40DD0E7D70F2A010E1026000E11223B
:1037A80012221322D8901332123211321032000E24
:1037B80010140A6E000E11140B6E000E12140C6E0B
:1037C800FF0E13140D6E0A500B100C100D10D8B408
:1037D80007D0E1D70F06D8901036113612361336B7
:1037E80012BE03D0020E0F60F5D70FA0129ED8901C
:1037F8000F320FC00AF00B6A0C6A0D6A0AC00DF08E
:103808000C6A0B6A0A6A0A5010120B5011120C50FB
:1038180012120D5013120E50D8A409AE01D0138EF7
:1038280010C006F011C007F012C008F013C009F06C
:103838001200000E766F6CAF12D06C1F6B1F6A1FE0
:10384800691F681F671F661F656D000E6623672363
:10385800682369236A236B236C23010E766F74AF88
:1038680010D0741F731F721F711F701F6F1F6E1F80
:103878006D6D000E6E236F237023712372237323E3
:1038880074236D516E116F117011711172117311D2
:103898007411D8B43CD0010E756F0AD0D8906D372A
:1038A8006E376F3770377137723773377437752BD8
:1038B80074AFF4D76D51655D6E5166596F51675994
:1038C800705168597151695972516A5973516B59DC
:1038D80074516C59D8A010D06D51655F6E51665BFC
:1038E8006F51675B7051685B7151695B72516A5BBC
:1038F80073516B5B74516C5BD89074337333723350
:10390800713370336F336E336D33752FD3D7765170
:10391800D8B410D06C1F6B1F6A1F691F681F671F00
:10392800661F656D000E66236723682369236A2373
:103938006B236C2365C065F066C066F067C067F0EE
:1039480068C068F069C069F06AC06AF06BC06BF063
:103958006CC06CF01200C90E7025F66E720E7121E3
:10396800F76E0800F550020DF3CF76F0F4CF77F03C
:10397800705176257C6F715177217D6F000E7E6FB7
:1039880067D0C90E7025F66E720E7121F76E0800A9
:10399800F550766F776B7E51765F000E775B6C51D2
:1039A8007625686F6D517721696F6EC06AF06FC0B8
:1039B8006BF08DEC27F0000E7F6F000E806F7EC0DD
:1039C80065F0666BFF0E686FFE0E676F64EC28F09B
:1039D800C90E766F720E776F655176276651772319
:1039E8007F51765F000E775B7C5176277D51772378
:1039F80076C0F6FF77C0F7FF0800F5CF78F080C0F3
:103A080079F0800E7A6F000E7B6F792B03D07B35AF
:103A18007B337A33792FFBD700017A517815000967
:103A2800D8B407D072C068F073C069F091EC28F080
:103A380006D074C068F075C069F091EC28F0802B4E
:103A4800070E8065BCD77F2B010E7F65B6D77E2B0E
:103A5800C90E7025F66E720E7121F76E0900F550C9
:103A68007E5DD8B012008DD75450705D5550715995
:103A7800D8B012005250725D53507359D8B012002A
:103A8800FF0E7A6FFF0E7B6F745170257C6F755136
:103A980071217D6F7A517C277B517D2354507C5D49
:103AA80055507D59D8A006D07051545C746F71512F
:103AB8005558756FFF0E7A6FFF0E7B6F7651722522
:103AC8007C6F775173217D6F7A517C277B517D23E1
:103AD80052507C5D53507D59D8A006D07251525C2B
:103AE800766F73515358776F70C068F071C069F082
:103AF800745170257A6F755171217B6FFF0E7A258D
:103B08006A6FFF0E7B216B6F72C06CF073C06DF033
:103B1800765172257C6F775173217D6FFF0E7C255E
:103B28006E6FFF0E7D216F6F9DEC26F076C072F0F0
:103B380077C073F073BF1200735103E17205D8A008
:103B4800120074C070F075C071F071BF0FD0715160
:103B580003E17005D8A00AD078C068F079C069F090
:103B680091EC28F07007D8A07107EFD77207D8A09A
:103B78007307E0D70001676F81949394818A939AC1
:103B880081829392819693968198939867C065F005
:103B9800010E0001651783506519FE0B6519836EC8
:103BA80067C065F0D8906533010E65176547835087
:103BB8006519FD0B6519836E67C065F0D89065338C
:103BC800D8906533010E65176547654783506519B9
:103BD800FB0B6519836E67C065F0D8906533D89084
:103BE8006533D8906533010E6517654765476547A6
:103BF80083506519F70B6519836E67C065F0653BDF
:103C08000F0E6517010E6517653B83506519EF0B9D
:103C18006519836E67C065F0050E666FD8906533C9
:103C2800662FFCD7010E6517653B654783506519FC
:103C3800DF0B6519836E67C065F0060E666FD89056
:103C48006533662FFCD7010E6517653B65476547E9
:103C580083506519BF0B6519836E656B67AF01D01B
:103C6800652B010E651765336533835065197F0B26
:103C78006519836E8188818681841200676F8194BB
:103C8800939481869396818A939A8182939281985C
:103C9800939867C065F0010E000165178350651998
:103CA800FE0B6519836E67C065F0D8906533010E09
:103CB8006517654783506519FD0B6519836E67C0E5
:103CC80065F0D8906533D8906533010E6517654760
:103CD800654783506519FB0B6519836E67C065F0EE
:103CE800D8906533D8906533D8906533010E651741
:103CF80065476547654783506519F70B6519836EF6
:103D080067C065F0653B0F0E6517010E6517653BCB
:103D180083506519EF0B6519836E67C065F0050E52
:103D2800666FD8906533662FFCD7010E6517653B23
:103D3800654783506519DF0B6519836E67C065F0A9
:103D4800060E666FD8906533662FFCD7010E65178F
:103D5800653B6547654783506519BF0B6519836ED9
:103D6800656B67AF01D0652B010E65176533653349
:103D7800835065197F0B6519836E818881868184DC
:103D88001200000E096ECC0E086EF1EC27F0000E42
:103D9800096EBE0E086EF1EC27F0000E366E000EAE
:103DA800356E3550270FD96EDA6AFFEC26F00B50C6
:103DB800DF6E354A362A36BEF4D7365004E1090E8E
:103DC800355CD8A0EED728C023F0070E2316235061
:103DD800376E386A396A3A6A37C024F038C025F035
:103DE80039C026F0236A23C037F024C038F025C034
:103DF80039F026C03AF037502710376E3850386EF1
:103E08003950396E3A503A6E800E286408D03A1EFE
:103E1800391E381E376C000E382239223A2237C034
:103E280006F038C007F039C008F03AC009F0010EB2
:103E38007DEC1BF006C031F007C032F008C033F04B
:103E480009C034F031C006F032C007F033C008F0C2
:103E580034C009F0000E0A6E000E0B6E800E0C6E58
:103E6800410E0D6E9BEC15F006C01FF007C020F048
:103E780008C021F009C022F0120065D0000E000130
:103E8800926F000E916F000E906F000E8F6F17D01B
:103E9800C90E9125F66E720E9221F76E0800F55044
:103EA8008B6F8C6BD8908B378C37010E8B27000E5D
:103EB8008C238B5191278C5192238F4B902BE00EA2
:103EC8008B6FFF0E8C6F85C0F6FF86C0F7FFF86A10
:103ED800070EF76403D00800F55005D0F6CFE1FFD0
:103EE800F7CFE2FFE75000018D6F8E6B8B518D2766
:103EF8008C518E238D518F5D8E519059D8A0C8D783
:103F080081C06CF082C06DF083C06EF084C06FF029
:103F180091C070F092C071F087C072F088C073F0E1
:103F280089C074F08AC075F0AFEC1CF0C90E9125F9
:103F3800F66E720E9221F76E0800F5508127000E7A
:103F48008223854B862B85C0F6FF86C0F7FFF86A6B
:103F5800070EF76403D00800F55005D0F6CFE1FF4F
:103F6800F7CFE2FFE7500009D8B4120087D75450C2
:103F78000001705D55507159D8B012005250725DF1
:103F880053507359D8B01200FF0E786FFF0E796F37
:103F9800745172257A6F755173217B6F78517A2726
:103FA80079517B2352507A5D53507B59D8A006D063
:103FB8007251525C746F73515358756F70C068F0CA
:103FC80071C069F0010E70256A6F000E71216B6F68
:103FD80072C06CF073C06DF074517225786F7551B2
:103FE8007321796FFF0E78256E6FFF0E79216F6F41
:103FF8009DEC26F0000E7E6F000E7D6F16D0000E31
:10400800806F000E7F6F76C068F077C069F091EC22
:1040180028F07F4B802B80BFF6D7805104E1020E39
:104028007F5DD8A0F0D77D4B7E2BFF0E786FFF0EFB
:10403800796F74C07AF075C07BF078517A2779511E
:104048007B237A517D5D7E51800A7C6F7B51800A8B
:104058007C59D8B01200D3D75450705D555071595F
:10406800D8B012005250725D53507359D8B0120034
:10407800FF0E786FFF0E796F745170257A6F755146
:1040880071217B6F78517A2779517B2354507A5D5F
:1040980055507B59D8A006D07051545C746F71513B
:1040A8005558756F70C068F071C069F0745170250B
:1040B800786F75517121796FFF0E78256A6FFF0E41
:1040C80079216B6F72C06CF073C06DF0010E7225B0
:1040D8006E6F000E73216F6F9DEC26F0000E806FDF
:1040E800000E7F6F000E7E6F000E7D6F08D076C0C9
:1040F80068F077C069F091EC28F07D4B7E2BFF0EBD
:10410800786FFF0E796F74C07AF075C07BF07851C4
:104118007A2779517B237A517D5D7E51800A7C6FA5
:104128007B51800A7C59D8A0E2D77F4B802B80BF77
:10413800D9D7805105E1020E7F5DD8B01200D2D7E1
:104148001200000E00018C15946F000E8D15956FEE
:10415800800E8E15966F7F0E8F15976F945195115F
:1041680096119711D8A408D0000E8C6F000E8D6F91
:10417800000E8E6F000E8F6F000E9015946F000E5C
:104188009115956F800E9215966F7F0E9315976F08
:104198009451951196119711D8A408D0000E906FDC
:1041A800000E916F000E926F000E936F8FAF09D0C3
:1041B8008C6D8D1FD8B08D2B8E1FD8B08E2B800E96
:1041C8008F5793AF09D0906D911FD8B0912B921F44
:1041D800D8B0922B800E9357000E8C1B000E8D1BAF
:1041E800000E8E1B800E8F1B000E901B000E911B65
:1041F800000E921B800E931B90518C5D91518D592E
:1042080092518E5993518F59D8B002D0D89012003C
:10421800D88012003BC06FF03CC070F03DC071F018
:104228003EC072F065C06FF066C070F067C071F094
:1042380068C072F06FC069F070C06AF071C06BF04E
:1042480072C06CF0180E06D00001D8906C336B3336
:104258006A336933E82EF8D769516D6F6E6B6D510B
:104268006E11D8A419D0D8906F35696F70356A6F00
:1042780071356B6F72356C6F69516A116B116C1106
:10428800D8A405D0000E666F020E656F1200000EEE
:10429800666F030E656F12006D296E11D8A41CD0CD
:1042A8006FC069F070C06AF071C06BF072C06CF0DA
:1042B800090ED89069376A376B376C37E82EF9D70B
:1042C80069516A116B116C11D8A402D0010E01D08A
:1042D800000E656F666B1200000E666F040E656F48
:1042E8001200000E6E6F6CAF0AD06C1F6B1F6A1F36
:1042F800696D000E6A236B236C23010E6E6F68AF25
:104308000AD0681F671F661F656D000E6623672346
:104318006823010E6E1B000E6F6F000E706F000E8B
:10432800716F000E726F69516A116B116C11D8B4FC
:104338002AD0010E6D6F06D0D89069376A376B376F
:104348006C376D2B6CAFF8D7D8906F3770377137E3
:1043580072376951655D6A5166596B5167596C517D
:104368006859D8A009D06951655F6A51665B6B517D
:10437800675B6C51685B6F81D8906C336B336A33C1
:1043880069336D2FE1D76E51D8B408D0721F711FF1
:10439800701F6F6D000E7023712372236FC065F05C
:1043A80070C066F071C067F072C068F01200A7357F
:1043B800A835AE6FAE51D8A409D0000EA56F000E77
:1043C800A66F000EA76F000EA86F1200A5C0A9F077
:1043D800A6C0AAF0A7C0ABF0A8C0ACF0200E05D0CC
:1043E800D890AC33AB33AA33A933E82EF9D7A95107
:1043F800AD6FA78FFF0EA517FF0EA617FF0EA71705
:10440800000EA817960EAE5FAEAF0DD0AE51800A63
:10441800970FD8A0D2D7D890A833A733A633A533FF
:10442800AE3FF9D70DD01F0EAE6507D0C6D7D890CE
:10443800A537A637A737A837AE07AE51D8A4F7D700
:10444800AD51D8B408D0A81FA71FA61FA56D000E90
:10445800A623A723A823A5C0A5F0A6C0A6F0A7C099
:10446800A7F0A8C0A8F01200000E8C6F000E8D6F88
:10447800800E8E6F3F0E8F6FAFC065F0B0C066F0D4
:10448800676B686B000E3CEC1AF065C090F066C074
:1044980091F067C092F068C093F056EC14F08CC0AD
:1044A800B1F08DC0B2F08EC0B3F08FC0B4F0AFC021
:1044B80050F0B0C051F0BD50F00B0C09BD6E950E18
:1044C800906FBF0E916F560E926F360E936FB1C0FC
:1044D8008CF0B2C08DF0B3C08EF0B4C08FF056EC43
:1044E80014F08CC0A5F08DC0A6F08EC0A7F08FC0C8
:1044F800A8F0DBEC21F0A505CB6ECBCF49F04A6ADA
:10450800000EBE6EBD9ABD98870ECA16030ECA125B
:10451800000ECC6ECA849494120081C070F082C0E0
:1045280071F083C072F084C073F087C074F088C0E3
:1045380075F089C076F08AC077F0BBEC1FF0855122
:104548008125706F86518221716F83C072F084C09B
:1045580073F087C074F088C075F089C076F08AC09F
:1045680077F0BBEC1FF081C070F082C071F083C09F
:1045780072F084C073F085C074F086C075F089C08D
:1045880076F08AC077F030EC20F081C070F082C0FD
:1045980071F087518325726F88518421736F85C0AC
:1045A80074F086C075F089C076F08AC077F030EC78
:1045B80020F0120065C06DF066C06BF067C06CF04B
:1045C8006807D8A0690768290EE16929D8A40BD023
:1045D800000E666F000E656F12006D2B6B4B6C2B17
:1045E8006807D8A069076D51D96EDA6ADF50D8B468
:1045F8001BD06BC0F6FF6CC0F7FF0800F550000930
:10460800D8B412D068516911D8B40ED06D51D96E92
:10461800DA6ADF506A6F6BC0F6FF6CC0F7FF0800FC
:10462800F5506A19D8B4D9D76D51D96EDA6ADF5006
:104638006A6F6BC0F6FF6CC0F7FF0800F5506A5D43
:10464800656F666BD8A066071200010127A108D024
:1046580074C06DF075C06EF073C06FF058EC27F041
:10466800000177BF05D076C07BF077C07CF004D01E
:10467800000E7C6F000E7B6F000E7A6F000E796F54
:104688000AD0000E666F200E656F73C067F071EC7C
:1046980023F0794B7A2B7B51795D7A51800A786FB8
:1046A8007C51800A7859D8A0ECD7010127B108D0ED
:1046B80074C06DF075C06EF073C06FF058EC27F0E1
:1046C80074C065F075C066F022EC28F07B51652552
:1046D800736F7C516621746F12006751D8B403D090
:1046E8006751D8A404D06551B0EC28F01200675186
:1046F800D96EDA6A040ED926DE50DE10D8B414D08A
:104708006751D96EDA6A040ED9266751E16EE26AFA
:10471800020EE126DE50E65CE650800A6C6FDE5041
:10472800800A6C59D8B012006751D96EDA6A020E45
:10473800D926DECF68F0DDCF69F06751D96EDA6A25
:10474800DECF6AF0DDCF6BF068516A25D96E69510A
:104758006B21DA6E65C0DFFF6751D96EDA6A020E27
:10476800D926DE2A000EDD221200000E65156D6FB7
:10477800000E66156E6F800E67156F6F7F0E6815D9
:10478800706F6D516E116F117011D8A408D0000EA2
:10479800656F000E666F000E676F000E686F000E83
:1047A80069156D6F000E6A156E6F800E6B156F6F51
:1047B8007F0E6C15706F6D516E116F117011D8A44A
:1047C80008D0000E696F000E6A6F000E6B6F000E46
:1047D8006C6F695165190AE16A51661907E16B51F5
:1047E800671904E16C516819D8B402D0D890120046
:1047F800D880120001012E51D8B412003051D8B41B
:104808001200F00EBE6FBF6BCA0EC06F7F0EC16F75
:104818001DC1C2F11EC1C3F11FC1C4F120C1C5F140
:10482800BEEC25F0D20E0001656F7F0E666F65EC59
:1048380025F0F00E0001676F686BC1EC24F0FB0EE9
:104848000001676F7F0E686FC1EC24F0D90E00017C
:10485800656F7F0E666F65EC25F0410E0001EF6F06
:10486800EE0EE82EFED7EF2FFCD700F0000E010168
:10487800306F000E2E6F1200000E6A6F68AF06D000
:10488800676D681FD8B0682B010E6A6F66AF06D0D7
:10489800656D661FD8B0662B010E6A1B000E6C6F23
:1048A800000E6B6F67516811D8B41CD0010E696F88
:1048B80004D0D89067376837692B68AFFAD7D89093
:1048C8006B376C376751655D68516659D8A005D05C
:1048D8006751655F6851665B6B81D8906833673351
:1048E800692FEDD76A51D8B404D06B6D6C1FD8B05E
:1048F8006C2B6BC065F06CC066F01200948E949CB3
:10490800AC8473C069F074C06AF06B6B6C6B000E9A
:10491800656F2D0E666F310E676F010E686F75EC4F
:1049280021F065C076F066C077F067C078F068C09F
:1049380079F076C065F077C066F078C067F079C026
:1049480068F0100E696F000E6A6F000E6B6F000E34
:104958006C6F75EC21F06505AF6EAC98AB8EAC9CB6
:10496800AC8AAB88AB9C820E0001756FDD0EE82E19
:10497800FED7752FFCD700D012001AD067C0F6FFFB
:1049880068C0F7FFF86A070EF76403D00800F5500F
:1049980005D0F6CFE1FFF7CFE2FFE750AD6E530E3B
:1049A800E82EFED700F0ACA2FED70001674B682BBB
:1049B80067C0F6FF68C0F7FFF86A070EF76403D010
:1049C8000800F55005D0F6CFE1FFF7CFE2FFE7503A
:1049D8000009D8A4D3D7FA0E0001656F7F0E666F61
:1049E80065EC25F00D0E99EC28F01200000E6A6FA8
:1049F80066AF06D0656D661FD8B0662B010E6A6F6C
:104A080068AF04D0676D681FD8B0682B675168110C
:104A1800D8B418D0010E696F04D0D89067376837BA
:104A2800692B68AFFAD76751655D68516659D8A098
:104A380004D06751655F6851665BD8906833673307
:104A4800692FF1D76A51D8B404D0656D661FD8B004
:104A5800662B65C065F066C066F01200000E696FCF
:104A6800000E686F54C06AF055C06BF0000E6D6F91
:104A7800000E6C6F52C06EF053C06FF09DEC26F0C4
:104A8800000E736F000E726F15D0000E756F000E5A
:104A9800746F08D070C068F071C069F091EC28F0AC
:104AA800744B752B5450745D55507559D8A0F2D776
:104AB800724B732B5250725D53507359D8B0120019
:104AC800E4D71AD065C0F6FF66C0F7FFF86A070E8C
:104AD800F76403D00800F55005D0F6CFE1FFF7CF13
:104AE800E2FFE750AD6E530EE82EFED700F0ACA201
:104AF800FED70001654B662B65C0F6FF66C0F7FF61
:104B0800F86A070EF76403D00800F55005D0F6CF11
:104B1800E1FFF7CFE2FFE7500009D8B41200D2D77F
:104B280067C06BF068C06CF065C06DF066C06EF071
:104B380000016B51696F6C516A6F6B4B6C2B69C0CC
:104B4800F6FF6AC0F7FFF86A6DC0D9FF6EC0DAFFDA
:104B58006D4B6E2B070EF76403D00800F55005D097
:104B6800F6CFE1FFF7CFE2FFE750DF6EDF50D8B4B2
:104B78001200DED7C20E0001E76F010EE86FBEC15A
:104B8800E9F0BFC1EAF0000EEC6F000EEB6F000E0B
:104B9800EE6F000EED6FE90E0101BA6FC0C1BBF1F7
:104BA800C1C1BCF1E70EBD6FE7EC25F00001EB5188
:104BB8000101BE25D96E0001EC510101BF21DA6E59
:104BC800000EDF6E1200BBC1E3F0BCC1E4F0000EC2
:104BD800226F000E216F10D0BAC1C4F0E30E00019D
:104BE800C56FBDC1C6F036EC0BF0C45101012127D9
:104BF8000001C55101012223E3C0F6FFE4C0F7FF1D
:104C08000800F5500009D8A4E7D721C1BAF122C19C
:104C1800BBF11200BF0E6D6FFF0E6E6F6BC06FF0B1
:104C28006CC070F06D516F276E517023705106E1A2
:104C38001A0E6F5DD8B002D0010E01D0000E716F50
:104C4800726B71517211D8B406D0200E6B116B6F54
:104C58006C516C6F12006BC06BF06CC06CF0120082
:104C6800580EF66E510EF76E000EF86E00EE52F00A
:104C780010EE07F00900F5CFEEFFE550E150FAE13C
:104C880001EE00F0820EEE6AE806FDE100EE3BF070
:104C9800170EEE6AE806FDE159905992000EF86E7B
:104CA800000122EF05F0000E901B000E911B000E74
:104CB800921B800E931B8CC065F08DC066F08EC071
:104CC80067F08FC068F090C069F091C06AF092C038
:104CD8006BF093C06CF084EC11F065C08CF066C08A
:104CE8008DF067C08EF068C08FF012000600D9CF33
:104CF80002F0DACF03F09EAA16D0000E4F24D96E28
:104D0800DA6A010EDA22A6EC28F0DF6E0D0E04181E
:104D1800D8B405D04F2A0450A0EC28F003D0010ED7
:104D28000101316F9E9A03C0DAFF02C0D9FF599280
:104D380011002A0EBEEC1DF0695142EC1EF06851BC
:104D480042EC1EF06B5142EC1EF06A5142EC1EF030
:104D58002B0EBEEC1DF06D5142EC1EF06C5142EC76
:104D68001EF06F5142EC1EF06E5142EC1EF02C0EFC
:104D7800BEEC1DF01200010E00016B6F200E6519CC
:104D88006611D8B414D0F70E676FFF0E686F65C050
:104D980069F066C06AF06751692768516A236A51E9
:104DA80004E1050E695DD8A002D0000E6B6F6BC0E0
:104DB80065F0666B12005850D8A411D077EC28F033
:104DC800C5EC1EF01FC01DF120C01EF121C01FF14F
:104DD80022C020F1010E01012E6F640E586E56504C
:104DE8005710D8A41200010E01012C6F000E576E47
:104DF800FA0E566E1200000E0E6E000E0D6E000EAC
:104E0800106E000E0F6E0E340E320D323CEC27F091
:104E180006500710D8A40D8E0F4A102A10BEF3D7DB
:104E2800105004E1080E0F5CD8A0EDD70DC00BF0B0
:104E38000EC00CF0120006500710D8B40CD0819E9A
:104E4800000E936E0A0EE82EFED7800E936E640E47
:104E5800E82EFED708D0819E000E936E640EE82ED1
:104E6800FED7800E936E100EE82EFED700D01200EB
:104E7800819E000E936E0A0EE82EFED7800E936E6A
:104E88000A0EE82EFED781AE03D0086A082A01D0A0
:104E9800086A0850096E0A6A640EE82EFED709C02F
:104EA80006F00AC007F01200000E0001726F000E33
:104EB800716F09D070C065F0666B6FC067F071ECF8
:104EC80023F0714B722B71516D25D96E72516E2181
:104ED800DA6EDF50706F7051D8B41200EBD7676F7D
:104EE80000016705D8A404D0F28E9D8A9F8AF28CAF
:104EF8006505D8A404D0F28E9D889F8AF28C820E14
:104F08000001666FDD0EE82EFED7662FFCD700D0B5
:104F180012002B0EBEEC1DF0695142EC1EF06851D8
:104F280042EC1EF02C0EBEEC1DF02A0EBEEC1DF05D
:104F38006B5142EC1EF06A5142EC1EF02C0EBEEC96
:104F48001DF01200BF0E0001676FFF0E686F65C08D
:104F580069F066C06AF06751692768516A236A5127
:104F680006E11A0E695DD8B002D0010E01D0000E1C
:104F7800656F666B120078BF05D0785110E1770530
:104F8800D8B00DD077C079F078C07AF0791F7A1F41
:104F9800794B7A2B79C077F07AC078F0120077C015
:104FA80077F078C078F01200D00E0001676FFF0E1E
:104FB800686F65C069F066C06AF067516927685113
:104FC8006A236A5106E10A0E695DD8B002D0010E63
:104FD80001D0000E656F666B1200000E0B6E000E9E
:104FE8000A6E010E0814066E076A1FEC27F00934D2
:104FF800093208320A4A0B2A0BBEF3D70B5005E1D7
:10500800080E0A5CD8B01200ECD7120000016551F6
:10501800661167116811D8B408D0000E651B000E20
:10502800661B000E671B800E681B65C065F066C0B6
:1050380066F067C067F068C068F0120065C067F086
:1050480066C068F003D00001654B662B65C0D9FFC8
:1050580066C0DAFFDF50D8A4F6D700016751655D56
:10506800656F68516659666F12004B50D8B41200CC
:105078002F51D8B404D02951E0EC18F009D0000E13
:105088002A6F000E296F010EE0EC18F088EC28F06A
:10509800000E4B6E1200819E000E936E040E066E7B
:1050A8003E0EE82EFED7062EFCD7800E936E640EB9
:1050B800E82EFED78150F00E00D0E82EFDD7120062
:1050C80065516703F3CF69F0F4CF6AF0655168035F
:1050D800F3506A2766516703F3506A2769C065F081
:1050E8006AC066F012004FEC28F0000E096ECC0E74
:1050F800086EF1EC27F0000E096E440E086EF1EC14
:1051080027F04FEC28F01200010EE0EC18F0CA94DA
:10511800000EBE6EBD9ABD9812000001695142ECA6
:105128001EF0685142EC1EF012000001656F65C068
:10513800ADFFACB21200FDD7016E01C0ADFFACB23D
:105148001200FDD79EAA02D0AE501200000E120027
:075158004001F000FA0064C1
:0251600012003B
:1065A800000000C0FFFF0100000000FEFFFF3F00E9
:1065B8000000E0FFFFFFFF030000F8FFFFFFFF0FF1
:1065C8000000FEFFFFFFFF3F0000FFFFFFFFFF7F10
:1065D80000C0FF3F0000FEFF01E0FF010000C0FF18
:1065E80003F03F00000000FE07F00F00000000F875
:1065F80007F80300000000E00FFC0100000000C0E5
:106608001FFC0000000000801F7E0000000000004A
:106618003F7E0000000000003F3E00000000000038
:106628003E3F0000000000007E1F00000000000048
:106638007C1F0000000000007C1F0000000000001C
:106648007C1F0000000000007C1F0000000000000C
:106658007C1F0000000000007C1F000000000000FC
:106668007C3F0000000000003E3E000000000000EB
:106678003E7E0000000000003FFC0000000000809B
:106688001FFC0000000000801FF80300000000C08D
:106698000FF80700000000F00FF01F00000000FCDA
:1066A80007E07F00000000FF03C0FF030000E0FFD9
:1066B8000180FF7F0000FFFF0000FFFFFFFFFF7F5B
:1066C8000000FCFFFFFFFF1F0000F0FFFFFFFF07B8
:1066D8000000C0FFFFFFFF01000000FEFFFF3F00BA
:1066E80000000080FFFF0000000000000000000024
:1066F8000000000000000000000000000000000092
:106708000000000000000000000000000000000081
:106718000000000000000000000000000000000071
:106728000000000000000000000000000000000061
:106738000000000000000000002000000000000031
:1067480000300000000000000038000000000000D9
:10675800003E000000000000003E000000000000B5
:10676800003E000000000000003E000000000000A5
:10677800003E000000000000003E00000000000095
:10678800003E00000000000000FEFFFFFFFFFFFFCB
:106798003FFEFFFFFFFFFFFF3FFEFFFFFFFFFFFF83
:1067A8003FFEFFFFFFFFFFFF3FFEFFFFFFFFFFFF73
:1067B8003FFEFFFFFFFFFFFF3F000000000000005B
:1067C80000000000000000000000000000000000C1
:1067D80000000000000000000000000000000000B1
:1067E80000000000000000000000000000000000A1
:1067F8000000000000000000000000000000000091
:106808000000000000000000000000000000000080
:106818000000000000000000000000000000000070
:106828000000000000000000000000000000000060
:106838000000000000000000000000000000000050
:106848000000000000000000200000000000000020
:1068580030008007000000003800F007000000004A
:106868003C00FC07000000003E00FF07000000009D
:106878003F80FF07000000803FC0FF07000000C006
:106888003FE0FF00000000E03FF01F00000000F0C4
:106898003FF80700000000F83FF80100000000FC86
:1068A8003FFC0000000000FF3FFC0000000080FFEC
:1068B8003E7E00000000C07F3E3E00000000E03F3A
:1068C8003E3E00000000F01F3E3F00000000F807B9
:1068D8003E1F00000000FC033E1F00000000FE01F8
:1068E8003E1F00000000FF003E1F000000807F00E8
:1068F8003E1F000000C03F003E1F000000E01F00D8
:106908003E1F000000F80F003E3F000000FC07009B
:106918003E3E000000FE03003E7E000000FF010036
:106928003E7E000080FF00003EFC0000E03F0000CB
:106938003EFC0100F01F00003EF80300FC0F0000C1
:106948003EF80F00FE0700003EF03FC0FF030000C6
:106958003EE0FFFFFF0000003EC0FFFF7F00000099
:106968003E80FFFF3F0000003E00FEFF0F000000DA
:106978003E00F8FF030000003E00C07F000000005A
:106988003E000000000000003E0000000000000083
:10699800000000000000C000000000000000C00768
:1069A800000060000000C01F000078000000C07FE9
:1069B80000007E000000C0FF00807F000000C0FFD4
:1069C80001C07F00000000FF03E07F00000000FC22
:1069D80007F03F00000000F00FF80F00000000C0B3
:1069E8000FF80300000000801FFC01000000008079
:1069F8001FFC0000000000003F7E000000000000B7
:106A08003E3E0000000000003E3E00000000000086
:106A18007E3F0000000000007C1F00003E000000D8
:106A28007C1F00003E0000007C1F00003E000000AC
:106A38007C1F00003E0000007C1F00003E0000009C
:106A48007C1F00007F0000007C1F00007F0000000A
:106A58007C3F00007F0000007C3E00807F0000003B
:106A68003E3E0080FF0000003E7E00C0FF000000A8
:106A78003FFC00C0FF0100001FFC01E0FF01008097
:106A88001FF803F0FF0300C01FF80FFCF30700E036
:106A98000FF0FFFFF30F00F007E0FFFFE13F00FCFE
:106AA80007C0FFFFC0FF00FF0380FF7FC0FFFFFF9D
:106AB8000100FE1F80FFFFFF0000F00700FEFF3F00
:106AC8000000000000FCFF1F0000000000F0FF07AE
:106AD800000000000080FF0000000000000000002F
:106AE8000000000000008000000000000000C0005E
:106AF800000000000000F000000000000000F800A6
:106B0800000000000000FE00000000000000FF0080
:106B18000000000000C0FF000000000000E0FF00CF
:106B28000000000000F0FF000000000000FCFF0073
:106B38000000000000FEFF000000000080FFF900D8
:106B480000000000C0FFF80000000000F07FF8001F
:106B580000000000F81FF80000000000FE0FF80019
:106B680000000000FF03F800000000C0FF01F8006B
:106B7800000000E07F00F800000000F83F00F80087
:106B8800000000FC0F00F800000000FE0700F800FD
:106B9800000080FF0100F8000000C0FF0000F800BE
:106BA8000000F03F0000F8000000F81F0000F800A7
:106BB8000000FE0F0000F8000000FF030000F800CE
:106BC80000C0FFFFFFFFFFFF3FE0FFFFFFFFFFFFEA
:106BD8003FF8FFFFFFFFFFFF3FFCFFFFFFFFFFFF47
:106BE8003FFFFFFFFFFFFFFF3FFFFFFFFFFFFFFF2D
:106BF8003F0000000000F800000000000000F8005E
:106C0800000000000000F800000000000000F8008C
:106C1800000000000000F800000000000000F8007C
:106C2800000000000000F800000000000000000064
:106C38000000000000008001000000000000800F3C
:106C4800000000000000803F00000000000080FFFE
:106C580000000000000080FF01000000000080FF2D
:106C680003000000300000FE070000801F0000F84D
:106C78000F0000FC1F0000E00F00E0FF1F0000C035
:106C88001F00FFFF0F0000801FF8FFFF0F0000002C
:106C98003FFEFFFF0F0000003FFEFFFF0F00000058
:106CA8003EFEFF83070000007EFE3F8007000000D5
:106CB8007CFE01C0070000007C3E00C00700000009
:106CC8007C3E00C0070000007C3E00C007000000BA
:106CD8007C3E00C0070000007C3E00C007000000AA
:106CE8007C3E00C0070000007C3E00C0070000009A
:106CF8007E3E00C00F0000003E3E00800F000000F6
:106D08003F3E00800F0000003F3E00801F000080D3
:106D18001F3E00803F0000C01F3E00007F0000E0D3
:106D28000F3E0000FF0000F00F3E0000FE0100F8DB
:106D3800073E0000FC0300FE033E0000F81FC0FFF2
:106D4800033E0000F8FFFFFF013E0000E0FFFF7F69
:106D5800003E0000C0FFFF3F003E000080FFFF0F25
:106D68000000000000FCFF030000000000E07F00BE
:106D7800000000000000000000000000000000000B
:106D880000000000000000000000000000000000FB
:106D9800000000000000FF010000000000E0FF0FFD
:106DA8000000000000F8FF3F0000000000FEFF7F29
:106DB8000000000080FFFFFF01000000E0FFFFFF70
:106DC80003000000F0FF01FE07000000FC7F00F850
:106DD80007000000FE1F00E00F000000FF0F00C0CA
:106DE8001F0000C0FF0700801F0000E0FF03000035
:106DF8003F0000F8FF0300003F0000FCFF01000017
:106E08003E0000FFF70100007E0080FFF90000004F
:106E18007C00C0FFF80000007C00F03FF800000094
:106E28007C00F81FF80000007C00FE07F800000056
:106E38007C00FF03F80000007CC0FF01F8000000A0
:106E48007CE07F00F80100007CF03F00F8010000C2
:106E58003EFC0F00F80100003EFE0700F0030000B2
:106E68003FFF0100F00300001FFE0000F007008054
:106E78001F7E0000E00F00C01F1C0000C01F00E0C4
:106E88000F0C0000C07F00F80700000080FF01FE23
:106E98000700000000FFFFFF0300000000FEFFFFE7
:106EA8000100000000FCFF7F0000000000F8FF3F29
:106EB8000000000000E0FF0F000000000000FF01DC
:106EC80000000000000000000000000000000000BA
:106ED80000000000000000000000000000000000AA
:106EE8000000000000000000003E0000000000005C
:106EF800003E000000000000183E000000000000F6
:106F08003E3E0000000000803F3E0000000000E020
:106F18003F3E0000000000F87F3E0000000000FE39
