:020000040000FA
:02000000E92FE6
:1008080001340034003400340134003464008001C1
:10081800840A04060319003404060B2C700883129A
:100828000313BC007108BD00BE01BF0108002730DA
:10083800F100F530F000F00B1F2CF10B1F2C0130EC
:1008480083120313B7070318B80A0030B807851DC9
:1008580005191B2C85181B2C051C08001B2CF301E3
:10086800F30A7108803AF20080307202031D3E2CB0
:1008780073087002031C0800C730F200432CF20B07
:10088800422C462C472C0130F2007208F307352C15
:100898008312031386140614061586158616063069
:1008A800F2001330F100AD30F000F00B592CF10BD1
:1008B800592CF20B592C602C831203138610061046
:1008C8000611861186120330F2008A30F100553085
:1008D800F000F00B6D2CF10B6D2CF20B6D2C742CC1
:1008E8000800F5000130F6000030F70075088312A3
:1008F80003133707F20038080318380AF30077089B
:10090800803AF4007308803A7402031D8D2C720833
:100918007602031808008312031340087607F600CE
:1009280041080318410A7707F7000130F607031852
:10093800F70A0030F7070130C0070318C10A003072
:10094800C107053040064104031D7A2C0130C00060
:100958000030C1007A2C0030FC000030FB00003071
:10096800FA000030F900701CCD2C7408F9077508DE
:1009780003110318013E031DFA0776080311031833
:10098800013E031DFB07770803110318013E031DF1
:10099800FC070130F8000310F40DF50DF60DF70D06
:1009A800F80BCF2C01300310F30CF20CF10CF00C07
:1009B800FF3E031DD72C7308720471047004031DD5
:1009C800B72C7C08F3007B08F2007A08F10079085C
:1009D800F0000800831203133F08F3003E08F200FA
:1009E8003D08F1003C08F0004130F700C630F60041
:1009F8004E30F5006D30F400AF24730883120313F2
:100A0800BF007208BE007108BD007008BC00393014
:100A1800BC07303003183130BD07003003180130EF
:100A2800BE07003003180130BF073C08A2003D088C
:100A3800A3003E08A4003F08A5001030A600250D1D
:100A4800A50CA40CA30CA20CA60B232DFF30220589
:100A5800A0007F302305A1000800FF308316031390
:100A68008500D03086000730831203139F0083125D
:100A78000313B301B4010130C0000030C1006F2D71
:100A8800051D8518732D0518732D86140614061573
:100A98008615023083120313B2000430B100BA3055
:100AA800B000B00B552DB10B552DB20B552D83123F
:100AB80003138610061006118611023083120313E1
:100AC800B2000430B100BA30B000B00B692DB10BE0
:100AD800692DB20B692D83120313851D442D851DC5
:100AE800792D0130B3000030B400051D7F2D023090
:100AF800B3000030B400851C852D0330B3000030EE
:100B0800B400051C8B2D0430B3000030B4001B2446
:100B1800982DC830942DAA30942D8C30942D6E3099
:100B2800B9000030BA00AD2D831203133408003A1F
:100B380003199F2DAD2D3308013A03198D2D033A62
:100B480003198F2D013A0319912D073A0319932D93
:100B5800AD2D3A08A8003908A700BF258312031352
:100B68003A08F5003908F4003B08B0003008F600F0
:100B7800A0304E263B2D83120313AF01AF0AAE01FE
:100B88002808AD002708AC00BB012E08031D08008B
:100B980029302F02031808000130A9002908BB07D3
:100BA8003808F1003708F0003B0875248312031356
:100BB8004108F1004008F0001224EE2403308312AB
:100BC80003132005A90000302105AA002908013EC9
:100BD800B5002A080318013E003EB6002F08A900F8
:100BE8002907A03E8400350883138000840A36084C
:100BF80080001B24831203132D08F5002C08F40031
:100C08003B08A9002908F600A0304E2683120313DA
:100C18003B08A9002908F200A030E126831203133B
:100C2800AA002A08AE0028302F060319422E462EA5
:100C38008614061406158615023083120313AB00BA
:100C48000430AA00BA30A900A90B282EAA0B282E16
:100C5800AB0B282E8312031386100610061186117B
:100C6800023083120313AB000430AA00BA30A90083
:100C7800A90B3C2EAA0B3C2EAB0B3C2E8312031364
:100C8800851D1C2E4C24013083120313A90029084A
:100C9800AF07C92DFB00FC01FD017D08803A803CAF
:100CA800031D582E7C087602031C08007C08F700F8
:100CB80077077B07F8007808840083130008F90099
:100CC800840A0008FA0079037A04031D782E831237
:100CD8000313861486167508F1007408F00033248F
:100CE80083120313861086127C08F70077077B07A8
:100CF800F8007808840083130008F900840A0008C3
:100D0800FA00023079067A04031D972E8312031322
:100D1800061486167508F1007408F000332483124F
:100D28000313061086127C08F70077077B07F80084
:100D38007808840083130008F900840A0008FA0080
:100D4800033079067A04031DB62E831203130615A1
:100D580086167508F1007408F00033248312031313
:100D6800061186127C08F70077077B07F8007808D9
:100D7800840083130008F900840A0008FA0004308C
:100D880079067A04031DD52E831203138615861659
:100D98007508F1007408F0003324831203138611D8
:100DA80086127508F1007408F00033240130FC073E
:100DB8000318FD0A0030FD07512EF701F801F80A63
:100DC800E02F7808F3007307A03E8400831300081F
:100DD800F400840A0008F50074037504031D222F2B
:100DE800C730F300F72EF30BF62EFA2EFB2E012F49
:100DF800051D8518052F0518052F83120313851D5A
:100E0800FC2E851D1A2F1B248312031386148616A5
:100E18009C30F400D730F300F30B102FF40B102F95
:100E28008312031386108612F701212F051D8518DA
:100E38001F2F051C212FF701F70A1B247808F30040
:100E48007307A03E840083130008F400840A000896
:100E5800F500023074067504031D602FC730F300D7
:100E6800352FF30B342F382F392F3F2F051D8518B9
:100E7800432F0518432F83120313851D3A2F051D91
:100E8800582F1B2483120313061486169C30F40073
:100E9800D730F300F30B4E2FF40B4E2F83120313AE
:100EA80006108612F7015F2F851D85185D2F051C1A
:100EB8005F2FF701F70A1B247808F3007307A03E99
:100EC800840083130008F400840A0008F500033046
:100ED80074067504031D9E2FC730F300732FF30BA0
:100EE800722F762F772F7D2F051D8518812F0518D6
:100EF800812F83120313851D782F851C962F1B24A1
:100F080083120313061586169C30F400D730F300BD
:100F1800F30B8C2FF40B8C2F8312031306118612FC
:100F2800F7019D2F851D05199B2F051C9D2FF70186
:100F3800F70A1B247808F3007307A03E8400831384
:100F48000008F400840A0008F500043074067504EB
:100F5800031DDC2FC730F300B12FF30BB02FB42FD4
:100F6800B52FBB2F051D8518BF2F0518BF2F83125E
:100F78000313851DB62F051CD42F1B2483120313BE
:100F8800861586169C30F400D730F300F30BCA2F71
:100F9800F40BCA2F8312031386118612F701DB2F75
:100FA800851D8518D92F051DDB2FF701F70A1B248E
:100FB8000130F3007308F80778087202031CE72F62
:100FC80077080319E52E770808000424BC000524D7
:100FD800BD000624BE000724BF000824C000092461
:100FE800C1008313A0308400F0300A243530840017
:080FF8003C300A248301312D75
:02400E0038FF79
:00000001FF
